{
	"Linear_Vesting/VestingFromUniversity.sol": {
		"Vesting": {
			"abi": [
				{
					"inputs": [],
					"stateMutability": "nonpayable",
					"type": "constructor"
				},
				{
					"inputs": [],
					"name": "AlreadyInitialized",
					"type": "error"
				},
				{
					"inputs": [],
					"name": "AmountCantBeZero",
					"type": "error"
				},
				{
					"inputs": [],
					"name": "BelowMinimalClaimAmount",
					"type": "error"
				},
				{
					"inputs": [],
					"name": "CantClaimMoreThanTotalAmount",
					"type": "error"
				},
				{
					"inputs": [],
					"name": "CliffCantBeLongerThanDuration",
					"type": "error"
				},
				{
					"inputs": [],
					"name": "CliffNotReached",
					"type": "error"
				},
				{
					"inputs": [],
					"name": "CooldownCantBeLongerThanDuration",
					"type": "error"
				},
				{
					"inputs": [],
					"name": "CooldownNotPassed",
					"type": "error"
				},
				{
					"inputs": [],
					"name": "DurationCantBeZero",
					"type": "error"
				},
				{
					"inputs": [],
					"name": "InfsufficientBalance",
					"type": "error"
				},
				{
					"inputs": [],
					"name": "InvalidBeneficiary",
					"type": "error"
				},
				{
					"inputs": [],
					"name": "NothingToClaim",
					"type": "error"
				},
				{
					"inputs": [],
					"name": "NothingToWithdraw",
					"type": "error"
				},
				{
					"inputs": [
						{
							"internalType": "address",
							"name": "owner",
							"type": "address"
						}
					],
					"name": "OwnableInvalidOwner",
					"type": "error"
				},
				{
					"inputs": [
						{
							"internalType": "address",
							"name": "account",
							"type": "address"
						}
					],
					"name": "OwnableUnauthorizedAccount",
					"type": "error"
				},
				{
					"inputs": [],
					"name": "StartTimeShouldBeFuture",
					"type": "error"
				},
				{
					"inputs": [],
					"name": "TransferFailed",
					"type": "error"
				},
				{
					"inputs": [],
					"name": "VestingAlreadyExist",
					"type": "error"
				},
				{
					"inputs": [],
					"name": "VestingNotFound",
					"type": "error"
				},
				{
					"inputs": [],
					"name": "WithdrawTransferFailed",
					"type": "error"
				},
				{
					"anonymous": false,
					"inputs": [
						{
							"indexed": false,
							"internalType": "address",
							"name": "beneficiary",
							"type": "address"
						},
						{
							"indexed": false,
							"internalType": "uint256",
							"name": "amount",
							"type": "uint256"
						},
						{
							"indexed": false,
							"internalType": "uint256",
							"name": "timestamp",
							"type": "uint256"
						}
					],
					"name": "Claim",
					"type": "event"
				},
				{
					"anonymous": false,
					"inputs": [
						{
							"indexed": true,
							"internalType": "address",
							"name": "previousOwner",
							"type": "address"
						},
						{
							"indexed": true,
							"internalType": "address",
							"name": "newOwner",
							"type": "address"
						}
					],
					"name": "OwnershipTransferred",
					"type": "event"
				},
				{
					"anonymous": false,
					"inputs": [
						{
							"indexed": false,
							"internalType": "address",
							"name": "to",
							"type": "address"
						},
						{
							"indexed": false,
							"internalType": "uint256",
							"name": "amount",
							"type": "uint256"
						}
					],
					"name": "TokensWithdrawn",
					"type": "event"
				},
				{
					"anonymous": false,
					"inputs": [
						{
							"indexed": false,
							"internalType": "address",
							"name": "beneficiary",
							"type": "address"
						},
						{
							"indexed": false,
							"internalType": "uint256",
							"name": "amount",
							"type": "uint256"
						},
						{
							"indexed": false,
							"internalType": "uint256",
							"name": "creationTime",
							"type": "uint256"
						}
					],
					"name": "VestingCreated",
					"type": "event"
				},
				{
					"inputs": [],
					"name": "allocatedTokens",
					"outputs": [
						{
							"internalType": "uint256",
							"name": "",
							"type": "uint256"
						}
					],
					"stateMutability": "view",
					"type": "function"
				},
				{
					"inputs": [],
					"name": "claim",
					"outputs": [],
					"stateMutability": "nonpayable",
					"type": "function"
				},
				{
					"inputs": [
						{
							"internalType": "address",
							"name": "_claimer",
							"type": "address"
						}
					],
					"name": "claimableAmount",
					"outputs": [
						{
							"internalType": "uint256",
							"name": "",
							"type": "uint256"
						}
					],
					"stateMutability": "view",
					"type": "function"
				},
				{
					"inputs": [
						{
							"internalType": "address",
							"name": "_token",
							"type": "address"
						},
						{
							"internalType": "address",
							"name": "_owner",
							"type": "address"
						}
					],
					"name": "getInitData",
					"outputs": [
						{
							"internalType": "bytes",
							"name": "",
							"type": "bytes"
						}
					],
					"stateMutability": "pure",
					"type": "function"
				},
				{
					"inputs": [
						{
							"internalType": "bytes",
							"name": "_initData",
							"type": "bytes"
						}
					],
					"name": "initialize",
					"outputs": [
						{
							"internalType": "bool",
							"name": "",
							"type": "bool"
						}
					],
					"stateMutability": "nonpayable",
					"type": "function"
				},
				{
					"inputs": [],
					"name": "owner",
					"outputs": [
						{
							"internalType": "address",
							"name": "",
							"type": "address"
						}
					],
					"stateMutability": "view",
					"type": "function"
				},
				{
					"inputs": [],
					"name": "renounceOwnership",
					"outputs": [],
					"stateMutability": "nonpayable",
					"type": "function"
				},
				{
					"inputs": [
						{
							"internalType": "address",
							"name": "_beneficiary",
							"type": "address"
						},
						{
							"internalType": "uint256",
							"name": "_totalAmount",
							"type": "uint256"
						},
						{
							"internalType": "uint256",
							"name": "_startTime",
							"type": "uint256"
						},
						{
							"internalType": "uint256",
							"name": "_cliff",
							"type": "uint256"
						},
						{
							"internalType": "uint256",
							"name": "_duration",
							"type": "uint256"
						},
						{
							"internalType": "uint256",
							"name": "_claimCooldown",
							"type": "uint256"
						},
						{
							"internalType": "uint256",
							"name": "_minClaimAmount",
							"type": "uint256"
						}
					],
					"name": "startVesting",
					"outputs": [],
					"stateMutability": "nonpayable",
					"type": "function"
				},
				{
					"inputs": [],
					"name": "token",
					"outputs": [
						{
							"internalType": "contract IERC20",
							"name": "",
							"type": "address"
						}
					],
					"stateMutability": "view",
					"type": "function"
				},
				{
					"inputs": [
						{
							"internalType": "address",
							"name": "newOwner",
							"type": "address"
						}
					],
					"name": "transferOwnership",
					"outputs": [],
					"stateMutability": "nonpayable",
					"type": "function"
				},
				{
					"inputs": [
						{
							"internalType": "address",
							"name": "",
							"type": "address"
						}
					],
					"name": "vestings",
					"outputs": [
						{
							"internalType": "uint256",
							"name": "totalAmount",
							"type": "uint256"
						},
						{
							"internalType": "uint256",
							"name": "startTime",
							"type": "uint256"
						},
						{
							"internalType": "uint256",
							"name": "cliff",
							"type": "uint256"
						},
						{
							"internalType": "uint256",
							"name": "duration",
							"type": "uint256"
						},
						{
							"internalType": "uint256",
							"name": "claimed",
							"type": "uint256"
						},
						{
							"internalType": "uint256",
							"name": "lastClaimTime",
							"type": "uint256"
						},
						{
							"internalType": "uint256",
							"name": "claimCooldown",
							"type": "uint256"
						},
						{
							"internalType": "uint256",
							"name": "minClaimAmount",
							"type": "uint256"
						}
					],
					"stateMutability": "view",
					"type": "function"
				},
				{
					"inputs": [
						{
							"internalType": "address",
							"name": "_to",
							"type": "address"
						}
					],
					"name": "withdrawUnallocated",
					"outputs": [],
					"stateMutability": "nonpayable",
					"type": "function"
				}
			],
			"devdoc": {
				"errors": {
					"OwnableInvalidOwner(address)": [
						{
							"details": "The owner is not a valid owner account. (eg. `address(0)`)"
						}
					],
					"OwnableUnauthorizedAccount(address)": [
						{
							"details": "The caller account is not authorized to perform an operation."
						}
					]
				},
				"kind": "dev",
				"methods": {
					"owner()": {
						"details": "Returns the address of the current owner."
					},
					"renounceOwnership()": {
						"details": "Leaves the contract without owner. It will not be possible to call `onlyOwner` functions. Can only be called by the current owner. NOTE: Renouncing ownership will leave the contract without an owner, thereby disabling any functionality that is only available to the owner."
					},
					"transferOwnership(address)": {
						"details": "Transfers ownership of the contract to a new account (`newOwner`). Can only be called by the current owner."
					}
				},
				"version": 1
			},
			"evm": {
				"assembly": "    /* \"Linear_Vesting/VestingFromUniversity.sol\":209:5595  contract Vesting is IUtilityContract, Ownable {... */\n  mstore(0x40, 0x80)\n    /* \"Linear_Vesting/VestingFromUniversity.sol\":264:300  constructor() Ownable(msg.sender) {} */\n  callvalue\n  dup1\n  iszero\n  tag_1\n  jumpi\n  revert(0x00, 0x00)\ntag_1:\n  pop\n    /* \"Linear_Vesting/VestingFromUniversity.sol\":286:296  msg.sender */\n  caller\n    /* \"@openzeppelin/contracts/access/Ownable.sol\":1297:1298  0 */\n  0x00\n    /* \"@openzeppelin/contracts/access/Ownable.sol\":1273:1299  initialOwner == address(0) */\n  0xffffffffffffffffffffffffffffffffffffffff\n  and\n    /* \"@openzeppelin/contracts/access/Ownable.sol\":1273:1285  initialOwner */\n  dup2\n    /* \"@openzeppelin/contracts/access/Ownable.sol\":1273:1299  initialOwner == address(0) */\n  0xffffffffffffffffffffffffffffffffffffffff\n  and\n  sub\n    /* \"@openzeppelin/contracts/access/Ownable.sol\":1269:1364  if (initialOwner == address(0)) {... */\n  tag_5\n  jumpi\n    /* \"@openzeppelin/contracts/access/Ownable.sol\":1350:1351  0 */\n  0x00\n    /* \"@openzeppelin/contracts/access/Ownable.sol\":1322:1353  OwnableInvalidOwner(address(0)) */\n  mload(0x40)\n  0x1e4fbdf700000000000000000000000000000000000000000000000000000000\n  dup2\n  mstore\n  0x04\n  add\n  tag_6\n  swap2\n  swap1\n  tag_7\n  jump\t// in\ntag_6:\n  mload(0x40)\n  dup1\n  swap2\n  sub\n  swap1\n  revert\n    /* \"@openzeppelin/contracts/access/Ownable.sol\":1269:1364  if (initialOwner == address(0)) {... */\ntag_5:\n    /* \"@openzeppelin/contracts/access/Ownable.sol\":1373:1405  _transferOwnership(initialOwner) */\n  tag_8\n    /* \"@openzeppelin/contracts/access/Ownable.sol\":1392:1404  initialOwner */\n  dup2\n    /* \"@openzeppelin/contracts/access/Ownable.sol\":1373:1391  _transferOwnership */\n  shl(0x20, tag_9)\n    /* \"@openzeppelin/contracts/access/Ownable.sol\":1373:1405  _transferOwnership(initialOwner) */\n  0x20\n  shr\n  jump\t// in\ntag_8:\n    /* \"@openzeppelin/contracts/access/Ownable.sol\":1225:1412  constructor(address initialOwner) {... */\n  pop\n    /* \"Linear_Vesting/VestingFromUniversity.sol\":209:5595  contract Vesting is IUtilityContract, Ownable {... */\n  jump(tag_11)\n    /* \"@openzeppelin/contracts/access/Ownable.sol\":2912:3099  function _transferOwnership(address newOwner) internal virtual {... */\ntag_9:\n    /* \"@openzeppelin/contracts/access/Ownable.sol\":2985:3001  address oldOwner */\n  0x00\n    /* \"@openzeppelin/contracts/access/Ownable.sol\":3004:3010  _owner */\n  0x00\n  0x00\n  swap1\n  sload\n  swap1\n  0x0100\n  exp\n  swap1\n  div\n  0xffffffffffffffffffffffffffffffffffffffff\n  and\n    /* \"@openzeppelin/contracts/access/Ownable.sol\":2985:3010  address oldOwner = _owner */\n  swap1\n  pop\n    /* \"@openzeppelin/contracts/access/Ownable.sol\":3029:3037  newOwner */\n  dup2\n    /* \"@openzeppelin/contracts/access/Ownable.sol\":3020:3026  _owner */\n  0x00\n  0x00\n    /* \"@openzeppelin/contracts/access/Ownable.sol\":3020:3037  _owner = newOwner */\n  0x0100\n  exp\n  dup2\n  sload\n  dup2\n  0xffffffffffffffffffffffffffffffffffffffff\n  mul\n  not\n  and\n  swap1\n  dup4\n  0xffffffffffffffffffffffffffffffffffffffff\n  and\n  mul\n  or\n  swap1\n  sstore\n  pop\n    /* \"@openzeppelin/contracts/access/Ownable.sol\":3083:3091  newOwner */\n  dup2\n    /* \"@openzeppelin/contracts/access/Ownable.sol\":3052:3092  OwnershipTransferred(oldOwner, newOwner) */\n  0xffffffffffffffffffffffffffffffffffffffff\n  and\n    /* \"@openzeppelin/contracts/access/Ownable.sol\":3073:3081  oldOwner */\n  dup2\n    /* \"@openzeppelin/contracts/access/Ownable.sol\":3052:3092  OwnershipTransferred(oldOwner, newOwner) */\n  0xffffffffffffffffffffffffffffffffffffffff\n  and\n  0x8be0079c531659141344cd1fd0a4f28419497f9722a3daafe3b4186f6b6457e0\n  mload(0x40)\n  mload(0x40)\n  dup1\n  swap2\n  sub\n  swap1\n  log3\n    /* \"@openzeppelin/contracts/access/Ownable.sol\":2975:3099  {... */\n  pop\n    /* \"@openzeppelin/contracts/access/Ownable.sol\":2912:3099  function _transferOwnership(address newOwner) internal virtual {... */\n  pop\n  jump\t// out\n    /* \"#utility.yul\":7:133   */\ntag_13:\n    /* \"#utility.yul\":44:51   */\n  0x00\n    /* \"#utility.yul\":84:126   */\n  0xffffffffffffffffffffffffffffffffffffffff\n    /* \"#utility.yul\":77:82   */\n  dup3\n    /* \"#utility.yul\":73:127   */\n  and\n    /* \"#utility.yul\":62:127   */\n  swap1\n  pop\n    /* \"#utility.yul\":7:133   */\n  swap2\n  swap1\n  pop\n  jump\t// out\n    /* \"#utility.yul\":139:235   */\ntag_14:\n    /* \"#utility.yul\":176:183   */\n  0x00\n    /* \"#utility.yul\":205:229   */\n  tag_19\n    /* \"#utility.yul\":223:228   */\n  dup3\n    /* \"#utility.yul\":205:229   */\n  tag_13\n  jump\t// in\ntag_19:\n    /* \"#utility.yul\":194:229   */\n  swap1\n  pop\n    /* \"#utility.yul\":139:235   */\n  swap2\n  swap1\n  pop\n  jump\t// out\n    /* \"#utility.yul\":241:359   */\ntag_15:\n    /* \"#utility.yul\":328:352   */\n  tag_21\n    /* \"#utility.yul\":346:351   */\n  dup2\n    /* \"#utility.yul\":328:352   */\n  tag_14\n  jump\t// in\ntag_21:\n    /* \"#utility.yul\":323:326   */\n  dup3\n    /* \"#utility.yul\":316:353   */\n  mstore\n    /* \"#utility.yul\":241:359   */\n  pop\n  pop\n  jump\t// out\n    /* \"#utility.yul\":365:587   */\ntag_7:\n    /* \"#utility.yul\":458:462   */\n  0x00\n    /* \"#utility.yul\":496:498   */\n  0x20\n    /* \"#utility.yul\":485:494   */\n  dup3\n    /* \"#utility.yul\":481:499   */\n  add\n    /* \"#utility.yul\":473:499   */\n  swap1\n  pop\n    /* \"#utility.yul\":509:580   */\n  tag_23\n    /* \"#utility.yul\":577:578   */\n  0x00\n    /* \"#utility.yul\":566:575   */\n  dup4\n    /* \"#utility.yul\":562:579   */\n  add\n    /* \"#utility.yul\":553:559   */\n  dup5\n    /* \"#utility.yul\":509:580   */\n  tag_15\n  jump\t// in\ntag_23:\n    /* \"#utility.yul\":365:587   */\n  swap3\n  swap2\n  pop\n  pop\n  jump\t// out\n    /* \"Linear_Vesting/VestingFromUniversity.sol\":209:5595  contract Vesting is IUtilityContract, Ownable {... */\ntag_11:\n  dataSize(sub_0)\n  dup1\n  dataOffset(sub_0)\n  0x00\n  codecopy\n  0x00\n  return\nstop\n\nsub_0: assembly {\n        /* \"Linear_Vesting/VestingFromUniversity.sol\":209:5595  contract Vesting is IUtilityContract, Ownable {... */\n      mstore(0x40, 0x80)\n      callvalue\n      dup1\n      iszero\n      tag_1\n      jumpi\n      revert(0x00, 0x00)\n    tag_1:\n      pop\n      jumpi(tag_2, lt(calldatasize, 0x04))\n      shr(0xe0, calldataload(0x00))\n      dup1\n      0x8da5cb5b\n      gt\n      tag_15\n      jumpi\n      dup1\n      0x8da5cb5b\n      eq\n      tag_9\n      jumpi\n      dup1\n      0xa00a45cb\n      eq\n      tag_10\n      jumpi\n      dup1\n      0xb3b3e87f\n      eq\n      tag_11\n      jumpi\n      dup1\n      0xdaf49863\n      eq\n      tag_12\n      jumpi\n      dup1\n      0xf2fde38b\n      eq\n      tag_13\n      jumpi\n      dup1\n      0xfc0c546a\n      eq\n      tag_14\n      jumpi\n      jump(tag_2)\n    tag_15:\n      dup1\n      0x2f9569\n      eq\n      tag_3\n      jumpi\n      dup1\n      0x439fab91\n      eq\n      tag_4\n      jumpi\n      dup1\n      0x4e71d92d\n      eq\n      tag_5\n      jumpi\n      dup1\n      0x715018a6\n      eq\n      tag_6\n      jumpi\n      dup1\n      0x7c559085\n      eq\n      tag_7\n      jumpi\n      dup1\n      0x89885049\n      eq\n      tag_8\n      jumpi\n    tag_2:\n      revert(0x00, 0x00)\n        /* \"Linear_Vesting/VestingFromUniversity.sol\":369:399  uint256 public allocatedTokens */\n    tag_3:\n      tag_16\n      tag_17\n      jump\t// in\n    tag_16:\n      mload(0x40)\n      tag_18\n      swap2\n      swap1\n      tag_19\n      jump\t// in\n    tag_18:\n      mload(0x40)\n      dup1\n      swap2\n      sub\n      swap1\n      return\n        /* \"Linear_Vesting/VestingFromUniversity.sol\":5132:5443  function initialize(bytes memory _initData) external notInitialized returns(bool) {... */\n    tag_4:\n      tag_20\n      0x04\n      dup1\n      calldatasize\n      sub\n      dup2\n      add\n      swap1\n      tag_21\n      swap2\n      swap1\n      tag_22\n      jump\t// in\n    tag_21:\n      tag_23\n      jump\t// in\n    tag_20:\n      mload(0x40)\n      tag_24\n      swap2\n      swap1\n      tag_25\n      jump\t// in\n    tag_24:\n      mload(0x40)\n      dup1\n      swap2\n      sub\n      swap1\n      return\n        /* \"Linear_Vesting/VestingFromUniversity.sol\":1689:2614  function claim() public {... */\n    tag_5:\n      tag_26\n      tag_27\n      jump\t// in\n    tag_26:\n      stop\n        /* \"@openzeppelin/contracts/access/Ownable.sol\":2293:2394  function renounceOwnership() public virtual onlyOwner {... */\n    tag_6:\n      tag_28\n      tag_29\n      jump\t// in\n    tag_28:\n      stop\n        /* \"Linear_Vesting/VestingFromUniversity.sol\":3390:4787  function startVesting(... */\n    tag_7:\n      tag_30\n      0x04\n      dup1\n      calldatasize\n      sub\n      dup2\n      add\n      swap1\n      tag_31\n      swap2\n      swap1\n      tag_32\n      jump\t// in\n    tag_31:\n      tag_33\n      jump\t// in\n    tag_30:\n      stop\n        /* \"Linear_Vesting/VestingFromUniversity.sol\":3107:3382  function claimableAmount(address _claimer) public view returns(uint256) {... */\n    tag_8:\n      tag_34\n      0x04\n      dup1\n      calldatasize\n      sub\n      dup2\n      add\n      swap1\n      tag_35\n      swap2\n      swap1\n      tag_36\n      jump\t// in\n    tag_35:\n      tag_37\n      jump\t// in\n    tag_34:\n      mload(0x40)\n      tag_38\n      swap2\n      swap1\n      tag_19\n      jump\t// in\n    tag_38:\n      mload(0x40)\n      dup1\n      swap2\n      sub\n      swap1\n      return\n        /* \"@openzeppelin/contracts/access/Ownable.sol\":1638:1723  function owner() public view virtual returns (address) {... */\n    tag_9:\n      tag_39\n      tag_40\n      jump\t// in\n    tag_39:\n      mload(0x40)\n      tag_41\n      swap2\n      swap1\n      tag_42\n      jump\t// in\n    tag_41:\n      mload(0x40)\n      dup1\n      swap2\n      sub\n      swap1\n      return\n        /* \"Linear_Vesting/VestingFromUniversity.sol\":5451:5592  function getInitData(address _token, address _owner) external pure returns(bytes memory) {... */\n    tag_10:\n      tag_43\n      0x04\n      dup1\n      calldatasize\n      sub\n      dup2\n      add\n      swap1\n      tag_44\n      swap2\n      swap1\n      tag_45\n      jump\t// in\n    tag_44:\n      tag_46\n      jump\t// in\n    tag_43:\n      mload(0x40)\n      tag_47\n      swap2\n      swap1\n      tag_48\n      jump\t// in\n    tag_47:\n      mload(0x40)\n      dup1\n      swap2\n      sub\n      swap1\n      return\n        /* \"Linear_Vesting/VestingFromUniversity.sol\":4795:5124  function withdrawUnallocated(address _to) external onlyOwner {... */\n    tag_11:\n      tag_49\n      0x04\n      dup1\n      calldatasize\n      sub\n      dup2\n      add\n      swap1\n      tag_50\n      swap2\n      swap1\n      tag_36\n      jump\t// in\n    tag_50:\n      tag_51\n      jump\t// in\n    tag_49:\n      stop\n        /* \"Linear_Vesting/VestingFromUniversity.sol\":675:722  mapping(address => VestingInfo) public vestings */\n    tag_12:\n      tag_52\n      0x04\n      dup1\n      calldatasize\n      sub\n      dup2\n      add\n      swap1\n      tag_53\n      swap2\n      swap1\n      tag_36\n      jump\t// in\n    tag_53:\n      tag_54\n      jump\t// in\n    tag_52:\n      mload(0x40)\n      tag_55\n      swap9\n      swap8\n      swap7\n      swap6\n      swap5\n      swap4\n      swap3\n      swap2\n      swap1\n      tag_56\n      jump\t// in\n    tag_55:\n      mload(0x40)\n      dup1\n      swap2\n      sub\n      swap1\n      return\n        /* \"@openzeppelin/contracts/access/Ownable.sol\":2543:2758  function transferOwnership(address newOwner) public virtual onlyOwner {... */\n    tag_13:\n      tag_57\n      0x04\n      dup1\n      calldatasize\n      sub\n      dup2\n      add\n      swap1\n      tag_58\n      swap2\n      swap1\n      tag_36\n      jump\t// in\n    tag_58:\n      tag_59\n      jump\t// in\n    tag_57:\n      stop\n        /* \"Linear_Vesting/VestingFromUniversity.sol\":312:331  IERC20 public token */\n    tag_14:\n      tag_60\n      tag_61\n      jump\t// in\n    tag_60:\n      mload(0x40)\n      tag_62\n      swap2\n      swap1\n      tag_63\n      jump\t// in\n    tag_62:\n      mload(0x40)\n      dup1\n      swap2\n      sub\n      swap1\n      return\n        /* \"Linear_Vesting/VestingFromUniversity.sol\":369:399  uint256 public allocatedTokens */\n    tag_17:\n      sload(0x02)\n      dup2\n      jump\t// out\n        /* \"Linear_Vesting/VestingFromUniversity.sol\":5132:5443  function initialize(bytes memory _initData) external notInitialized returns(bool) {... */\n    tag_23:\n        /* \"Linear_Vesting/VestingFromUniversity.sol\":5208:5212  bool */\n      0x00\n        /* \"Linear_Vesting/VestingFromUniversity.sol\":1627:1638  initialized */\n      0x01\n      0x14\n      swap1\n      sload\n      swap1\n      0x0100\n      exp\n      swap1\n      div\n      0xff\n      and\n        /* \"Linear_Vesting/VestingFromUniversity.sol\":1626:1638  !initialized */\n      iszero\n        /* \"Linear_Vesting/VestingFromUniversity.sol\":1618:1661  require(!initialized, AlreadyInitialized()) */\n      tag_65\n      jumpi\n      mload(0x40)\n      0x0dc149f000000000000000000000000000000000000000000000000000000000\n      dup2\n      mstore\n      0x04\n      add\n      mload(0x40)\n      dup1\n      swap2\n      sub\n      swap1\n      revert\n    tag_65:\n        /* \"Linear_Vesting/VestingFromUniversity.sol\":5228:5242  address _token */\n      0x00\n        /* \"Linear_Vesting/VestingFromUniversity.sol\":5244:5258  address _owner */\n      0x00\n        /* \"Linear_Vesting/VestingFromUniversity.sol\":5273:5282  _initData */\n      dup4\n        /* \"Linear_Vesting/VestingFromUniversity.sol\":5262:5303  abi.decode(_initData, (address, address)) */\n      dup1\n      0x20\n      add\n      swap1\n      mload\n      dup2\n      add\n      swap1\n      tag_67\n      swap2\n      swap1\n      tag_68\n      jump\t// in\n    tag_67:\n        /* \"Linear_Vesting/VestingFromUniversity.sol\":5227:5303  (address _token, address _owner) = abi.decode(_initData, (address, address)) */\n      swap2\n      pop\n      swap2\n      pop\n        /* \"Linear_Vesting/VestingFromUniversity.sol\":5331:5337  _token */\n      dup2\n        /* \"Linear_Vesting/VestingFromUniversity.sol\":5316:5321  token */\n      0x01\n      0x00\n        /* \"Linear_Vesting/VestingFromUniversity.sol\":5316:5338  token = IERC20(_token) */\n      0x0100\n      exp\n      dup2\n      sload\n      dup2\n      0xffffffffffffffffffffffffffffffffffffffff\n      mul\n      not\n      and\n      swap1\n      dup4\n      0xffffffffffffffffffffffffffffffffffffffff\n      and\n      mul\n      or\n      swap1\n      sstore\n      pop\n        /* \"Linear_Vesting/VestingFromUniversity.sol\":5349:5382  Ownable.transferOwnership(_owner) */\n      tag_69\n        /* \"Linear_Vesting/VestingFromUniversity.sol\":5375:5381  _owner */\n      dup2\n        /* \"Linear_Vesting/VestingFromUniversity.sol\":5349:5374  Ownable.transferOwnership */\n      tag_59\n        /* \"Linear_Vesting/VestingFromUniversity.sol\":5349:5382  Ownable.transferOwnership(_owner) */\n      jump\t// in\n    tag_69:\n        /* \"Linear_Vesting/VestingFromUniversity.sol\":5409:5413  true */\n      0x01\n        /* \"Linear_Vesting/VestingFromUniversity.sol\":5395:5406  initialized */\n      dup1\n      0x14\n        /* \"Linear_Vesting/VestingFromUniversity.sol\":5395:5413  initialized = true */\n      0x0100\n      exp\n      dup2\n      sload\n      dup2\n      0xff\n      mul\n      not\n      and\n      swap1\n      dup4\n      iszero\n      iszero\n      mul\n      or\n      swap1\n      sstore\n      pop\n        /* \"Linear_Vesting/VestingFromUniversity.sol\":5431:5435  true */\n      0x01\n        /* \"Linear_Vesting/VestingFromUniversity.sol\":5424:5435  return true */\n      swap3\n      pop\n      pop\n      pop\n        /* \"Linear_Vesting/VestingFromUniversity.sol\":5132:5443  function initialize(bytes memory _initData) external notInitialized returns(bool) {... */\n      swap2\n      swap1\n      pop\n      jump\t// out\n        /* \"Linear_Vesting/VestingFromUniversity.sol\":1689:2614  function claim() public {... */\n    tag_27:\n        /* \"Linear_Vesting/VestingFromUniversity.sol\":1724:1751  VestingInfo storage vesting */\n      0x00\n        /* \"Linear_Vesting/VestingFromUniversity.sol\":1754:1762  vestings */\n      0x03\n        /* \"Linear_Vesting/VestingFromUniversity.sol\":1754:1774  vestings[msg.sender] */\n      0x00\n        /* \"Linear_Vesting/VestingFromUniversity.sol\":1763:1773  msg.sender */\n      caller\n        /* \"Linear_Vesting/VestingFromUniversity.sol\":1754:1774  vestings[msg.sender] */\n      0xffffffffffffffffffffffffffffffffffffffff\n      and\n      0xffffffffffffffffffffffffffffffffffffffff\n      and\n      dup2\n      mstore\n      0x20\n      add\n      swap1\n      dup2\n      mstore\n      0x20\n      add\n      0x00\n      keccak256\n        /* \"Linear_Vesting/VestingFromUniversity.sol\":1724:1774  VestingInfo storage vesting = vestings[msg.sender] */\n      swap1\n      pop\n        /* \"Linear_Vesting/VestingFromUniversity.sol\":1825:1826  0 */\n      0x00\n        /* \"Linear_Vesting/VestingFromUniversity.sol\":1803:1810  vesting */\n      dup2\n        /* \"Linear_Vesting/VestingFromUniversity.sol\":1803:1822  vesting.totalAmount */\n      0x00\n      add\n      sload\n        /* \"Linear_Vesting/VestingFromUniversity.sol\":1803:1826  vesting.totalAmount > 0 */\n      gt\n        /* \"Linear_Vesting/VestingFromUniversity.sol\":1795:1846  require(vesting.totalAmount > 0, VestingNotFound()) */\n      tag_71\n      jumpi\n      mload(0x40)\n      0xe146a52b00000000000000000000000000000000000000000000000000000000\n      dup2\n      mstore\n      0x04\n      add\n      mload(0x40)\n      dup1\n      swap2\n      sub\n      swap1\n      revert\n    tag_71:\n        /* \"Linear_Vesting/VestingFromUniversity.sol\":1903:1910  vesting */\n      dup1\n        /* \"Linear_Vesting/VestingFromUniversity.sol\":1903:1916  vesting.cliff */\n      0x02\n      add\n      sload\n        /* \"Linear_Vesting/VestingFromUniversity.sol\":1883:1890  vesting */\n      dup2\n        /* \"Linear_Vesting/VestingFromUniversity.sol\":1883:1900  vesting.startTime */\n      0x01\n      add\n      sload\n        /* \"Linear_Vesting/VestingFromUniversity.sol\":1883:1916  vesting.startTime + vesting.cliff */\n      tag_72\n      swap2\n      swap1\n      tag_73\n      jump\t// in\n    tag_72:\n        /* \"Linear_Vesting/VestingFromUniversity.sol\":1865:1880  block.timestamp */\n      timestamp\n        /* \"Linear_Vesting/VestingFromUniversity.sol\":1865:1916  block.timestamp > vesting.startTime + vesting.cliff */\n      gt\n        /* \"Linear_Vesting/VestingFromUniversity.sol\":1857:1936  require(block.timestamp > vesting.startTime + vesting.cliff, CliffNotReached()) */\n      tag_74\n      jumpi\n      mload(0x40)\n      0x392a328700000000000000000000000000000000000000000000000000000000\n      dup2\n      mstore\n      0x04\n      add\n      mload(0x40)\n      dup1\n      swap2\n      sub\n      swap1\n      revert\n    tag_74:\n        /* \"Linear_Vesting/VestingFromUniversity.sol\":1998:2005  vesting */\n      dup1\n        /* \"Linear_Vesting/VestingFromUniversity.sol\":1998:2019  vesting.claimCooldown */\n      0x06\n      add\n      sload\n        /* \"Linear_Vesting/VestingFromUniversity.sol\":1974:1981  vesting */\n      dup2\n        /* \"Linear_Vesting/VestingFromUniversity.sol\":1974:1995  vesting.lastClaimTime */\n      0x05\n      add\n      sload\n        /* \"Linear_Vesting/VestingFromUniversity.sol\":1974:2019  vesting.lastClaimTime + vesting.claimCooldown */\n      tag_75\n      swap2\n      swap1\n      tag_73\n      jump\t// in\n    tag_75:\n        /* \"Linear_Vesting/VestingFromUniversity.sol\":1955:1970  block.timestamp */\n      timestamp\n        /* \"Linear_Vesting/VestingFromUniversity.sol\":1955:2019  block.timestamp >= vesting.lastClaimTime + vesting.claimCooldown */\n      lt\n      iszero\n        /* \"Linear_Vesting/VestingFromUniversity.sol\":1947:2041  require(block.timestamp >= vesting.lastClaimTime + vesting.claimCooldown, CooldownNotPassed()) */\n      tag_76\n      jumpi\n      mload(0x40)\n      0x9e49499400000000000000000000000000000000000000000000000000000000\n      dup2\n      mstore\n      0x04\n      add\n      mload(0x40)\n      dup1\n      swap2\n      sub\n      swap1\n      revert\n    tag_76:\n        /* \"Linear_Vesting/VestingFromUniversity.sol\":2054:2071  uint256 claimable */\n      0x00\n        /* \"Linear_Vesting/VestingFromUniversity.sol\":2074:2101  claimableAmount(msg.sender) */\n      tag_77\n        /* \"Linear_Vesting/VestingFromUniversity.sol\":2090:2100  msg.sender */\n      caller\n        /* \"Linear_Vesting/VestingFromUniversity.sol\":2074:2089  claimableAmount */\n      tag_37\n        /* \"Linear_Vesting/VestingFromUniversity.sol\":2074:2101  claimableAmount(msg.sender) */\n      jump\t// in\n    tag_77:\n        /* \"Linear_Vesting/VestingFromUniversity.sol\":2054:2101  uint256 claimable = claimableAmount(msg.sender) */\n      swap1\n      pop\n        /* \"Linear_Vesting/VestingFromUniversity.sol\":2132:2133  0 */\n      0x00\n        /* \"Linear_Vesting/VestingFromUniversity.sol\":2120:2129  claimable */\n      dup2\n        /* \"Linear_Vesting/VestingFromUniversity.sol\":2120:2133  claimable > 0 */\n      gt\n        /* \"Linear_Vesting/VestingFromUniversity.sol\":2112:2152  require(claimable > 0, NothingToClaim()) */\n      tag_78\n      jumpi\n      mload(0x40)\n      0x969bf72800000000000000000000000000000000000000000000000000000000\n      dup2\n      mstore\n      0x04\n      add\n      mload(0x40)\n      dup1\n      swap2\n      sub\n      swap1\n      revert\n    tag_78:\n        /* \"Linear_Vesting/VestingFromUniversity.sol\":2184:2191  vesting */\n      dup2\n        /* \"Linear_Vesting/VestingFromUniversity.sol\":2184:2206  vesting.minClaimAmount */\n      0x07\n      add\n      sload\n        /* \"Linear_Vesting/VestingFromUniversity.sol\":2171:2180  claimable */\n      dup2\n        /* \"Linear_Vesting/VestingFromUniversity.sol\":2171:2206  claimable >= vesting.minClaimAmount */\n      lt\n      iszero\n        /* \"Linear_Vesting/VestingFromUniversity.sol\":2163:2234  require(claimable >= vesting.minClaimAmount, BelowMinimalClaimAmount()) */\n      tag_79\n      jumpi\n      mload(0x40)\n      0x5dfcc46200000000000000000000000000000000000000000000000000000000\n      dup2\n      mstore\n      0x04\n      add\n      mload(0x40)\n      dup1\n      swap2\n      sub\n      swap1\n      revert\n    tag_79:\n        /* \"Linear_Vesting/VestingFromUniversity.sol\":2284:2291  vesting */\n      dup2\n        /* \"Linear_Vesting/VestingFromUniversity.sol\":2284:2303  vesting.totalAmount */\n      0x00\n      add\n      sload\n        /* \"Linear_Vesting/VestingFromUniversity.sol\":2265:2272  vesting */\n      dup3\n        /* \"Linear_Vesting/VestingFromUniversity.sol\":2265:2280  vesting.claimed */\n      0x04\n      add\n      sload\n        /* \"Linear_Vesting/VestingFromUniversity.sol\":2253:2262  claimable */\n      dup3\n        /* \"Linear_Vesting/VestingFromUniversity.sol\":2253:2280  claimable + vesting.claimed */\n      tag_80\n      swap2\n      swap1\n      tag_73\n      jump\t// in\n    tag_80:\n        /* \"Linear_Vesting/VestingFromUniversity.sol\":2253:2303  claimable + vesting.claimed <= vesting.totalAmount */\n      gt\n      iszero\n        /* \"Linear_Vesting/VestingFromUniversity.sol\":2245:2336  require(claimable + vesting.claimed <= vesting.totalAmount, CantClaimMoreThanTotalAmount()) */\n      tag_81\n      jumpi\n      mload(0x40)\n      0x96a6633000000000000000000000000000000000000000000000000000000000\n      dup2\n      mstore\n      0x04\n      add\n      mload(0x40)\n      dup1\n      swap2\n      sub\n      swap1\n      revert\n    tag_81:\n        /* \"Linear_Vesting/VestingFromUniversity.sol\":2368:2377  claimable */\n      dup1\n        /* \"Linear_Vesting/VestingFromUniversity.sol\":2349:2356  vesting */\n      dup3\n        /* \"Linear_Vesting/VestingFromUniversity.sol\":2349:2364  vesting.claimed */\n      0x04\n      add\n      0x00\n        /* \"Linear_Vesting/VestingFromUniversity.sol\":2349:2377  vesting.claimed += claimable */\n      dup3\n      dup3\n      sload\n      tag_82\n      swap2\n      swap1\n      tag_73\n      jump\t// in\n    tag_82:\n      swap3\n      pop\n      pop\n      dup2\n      swap1\n      sstore\n      pop\n        /* \"Linear_Vesting/VestingFromUniversity.sol\":2412:2427  block.timestamp */\n      timestamp\n        /* \"Linear_Vesting/VestingFromUniversity.sol\":2388:2395  vesting */\n      dup3\n        /* \"Linear_Vesting/VestingFromUniversity.sol\":2388:2409  vesting.lastClaimTime */\n      0x05\n      add\n        /* \"Linear_Vesting/VestingFromUniversity.sol\":2388:2427  vesting.lastClaimTime = block.timestamp */\n      dup2\n      swap1\n      sstore\n      pop\n        /* \"Linear_Vesting/VestingFromUniversity.sol\":2457:2466  claimable */\n      dup1\n        /* \"Linear_Vesting/VestingFromUniversity.sol\":2438:2453  allocatedTokens */\n      0x02\n      0x00\n        /* \"Linear_Vesting/VestingFromUniversity.sol\":2438:2466  allocatedTokens -= claimable */\n      dup3\n      dup3\n      sload\n      tag_83\n      swap2\n      swap1\n      tag_84\n      jump\t// in\n    tag_83:\n      swap3\n      pop\n      pop\n      dup2\n      swap1\n      sstore\n      pop\n        /* \"Linear_Vesting/VestingFromUniversity.sol\":2487:2492  token */\n      0x01\n      0x00\n      swap1\n      sload\n      swap1\n      0x0100\n      exp\n      swap1\n      div\n      0xffffffffffffffffffffffffffffffffffffffff\n      and\n        /* \"Linear_Vesting/VestingFromUniversity.sol\":2487:2501  token.transfer */\n      0xffffffffffffffffffffffffffffffffffffffff\n      and\n      0xa9059cbb\n        /* \"Linear_Vesting/VestingFromUniversity.sol\":2502:2512  msg.sender */\n      caller\n        /* \"Linear_Vesting/VestingFromUniversity.sol\":2514:2523  claimable */\n      dup4\n        /* \"Linear_Vesting/VestingFromUniversity.sol\":2487:2524  token.transfer(msg.sender, claimable) */\n      mload(0x40)\n      dup4\n      0xffffffff\n      and\n      0xe0\n      shl\n      dup2\n      mstore\n      0x04\n      add\n      tag_85\n      swap3\n      swap2\n      swap1\n      tag_86\n      jump\t// in\n    tag_85:\n      0x20\n      mload(0x40)\n      dup1\n      dup4\n      sub\n      dup2\n      0x00\n      dup8\n      gas\n      call\n      iszero\n      dup1\n      iszero\n      tag_88\n      jumpi\n      returndatacopy(0x00, 0x00, returndatasize)\n      revert(0x00, returndatasize)\n    tag_88:\n      pop\n      pop\n      pop\n      pop\n      mload(0x40)\n      returndatasize\n      not(0x1f)\n      0x1f\n      dup3\n      add\n      and\n      dup3\n      add\n      dup1\n      0x40\n      mstore\n      pop\n      dup2\n      add\n      swap1\n      tag_89\n      swap2\n      swap1\n      tag_90\n      jump\t// in\n    tag_89:\n        /* \"Linear_Vesting/VestingFromUniversity.sol\":2479:2543  require(token.transfer(msg.sender, claimable), TransferFailed()) */\n      tag_91\n      jumpi\n      mload(0x40)\n      0x90b8ec1800000000000000000000000000000000000000000000000000000000\n      dup2\n      mstore\n      0x04\n      add\n      mload(0x40)\n      dup1\n      swap2\n      sub\n      swap1\n      revert\n    tag_91:\n        /* \"Linear_Vesting/VestingFromUniversity.sol\":2561:2606  Claim(msg.sender, claimable, block.timestamp) */\n      0x34fcbac0073d7c3d388e51312faf357774904998eeb8fca628b9e6f65ee1cbf7\n        /* \"Linear_Vesting/VestingFromUniversity.sol\":2567:2577  msg.sender */\n      caller\n        /* \"Linear_Vesting/VestingFromUniversity.sol\":2579:2588  claimable */\n      dup3\n        /* \"Linear_Vesting/VestingFromUniversity.sol\":2590:2605  block.timestamp */\n      timestamp\n        /* \"Linear_Vesting/VestingFromUniversity.sol\":2561:2606  Claim(msg.sender, claimable, block.timestamp) */\n      mload(0x40)\n      tag_92\n      swap4\n      swap3\n      swap2\n      swap1\n      tag_93\n      jump\t// in\n    tag_92:\n      mload(0x40)\n      dup1\n      swap2\n      sub\n      swap1\n      log1\n        /* \"Linear_Vesting/VestingFromUniversity.sol\":1713:2614  {... */\n      pop\n      pop\n        /* \"Linear_Vesting/VestingFromUniversity.sol\":1689:2614  function claim() public {... */\n      jump\t// out\n        /* \"@openzeppelin/contracts/access/Ownable.sol\":2293:2394  function renounceOwnership() public virtual onlyOwner {... */\n    tag_29:\n        /* \"@openzeppelin/contracts/access/Ownable.sol\":1531:1544  _checkOwner() */\n      tag_95\n        /* \"@openzeppelin/contracts/access/Ownable.sol\":1531:1542  _checkOwner */\n      tag_96\n        /* \"@openzeppelin/contracts/access/Ownable.sol\":1531:1544  _checkOwner() */\n      jump\t// in\n    tag_95:\n        /* \"@openzeppelin/contracts/access/Ownable.sol\":2357:2387  _transferOwnership(address(0)) */\n      tag_98\n        /* \"@openzeppelin/contracts/access/Ownable.sol\":2384:2385  0 */\n      0x00\n        /* \"@openzeppelin/contracts/access/Ownable.sol\":2357:2375  _transferOwnership */\n      tag_99\n        /* \"@openzeppelin/contracts/access/Ownable.sol\":2357:2387  _transferOwnership(address(0)) */\n      jump\t// in\n    tag_98:\n        /* \"@openzeppelin/contracts/access/Ownable.sol\":2293:2394  function renounceOwnership() public virtual onlyOwner {... */\n      jump\t// out\n        /* \"Linear_Vesting/VestingFromUniversity.sol\":3390:4787  function startVesting(... */\n    tag_33:\n        /* \"@openzeppelin/contracts/access/Ownable.sol\":1531:1544  _checkOwner() */\n      tag_101\n        /* \"@openzeppelin/contracts/access/Ownable.sol\":1531:1542  _checkOwner */\n      tag_96\n        /* \"@openzeppelin/contracts/access/Ownable.sol\":1531:1544  _checkOwner() */\n      jump\t// in\n    tag_101:\n        /* \"Linear_Vesting/VestingFromUniversity.sol\":3720:3732  _totalAmount */\n      dup6\n        /* \"Linear_Vesting/VestingFromUniversity.sol\":3701:3716  allocatedTokens */\n      sload(0x02)\n        /* \"Linear_Vesting/VestingFromUniversity.sol\":3668:3673  token */\n      0x01\n      0x00\n      swap1\n      sload\n      swap1\n      0x0100\n      exp\n      swap1\n      div\n      0xffffffffffffffffffffffffffffffffffffffff\n      and\n        /* \"Linear_Vesting/VestingFromUniversity.sol\":3668:3683  token.balanceOf */\n      0xffffffffffffffffffffffffffffffffffffffff\n      and\n      0x70a08231\n        /* \"Linear_Vesting/VestingFromUniversity.sol\":3692:3696  this */\n      address\n        /* \"Linear_Vesting/VestingFromUniversity.sol\":3668:3698  token.balanceOf(address(this)) */\n      mload(0x40)\n      dup3\n      0xffffffff\n      and\n      0xe0\n      shl\n      dup2\n      mstore\n      0x04\n      add\n      tag_103\n      swap2\n      swap1\n      tag_42\n      jump\t// in\n    tag_103:\n      0x20\n      mload(0x40)\n      dup1\n      dup4\n      sub\n      dup2\n      dup7\n      gas\n      staticcall\n      iszero\n      dup1\n      iszero\n      tag_105\n      jumpi\n      returndatacopy(0x00, 0x00, returndatasize)\n      revert(0x00, returndatasize)\n    tag_105:\n      pop\n      pop\n      pop\n      pop\n      mload(0x40)\n      returndatasize\n      not(0x1f)\n      0x1f\n      dup3\n      add\n      and\n      dup3\n      add\n      dup1\n      0x40\n      mstore\n      pop\n      dup2\n      add\n      swap1\n      tag_106\n      swap2\n      swap1\n      tag_107\n      jump\t// in\n    tag_106:\n        /* \"Linear_Vesting/VestingFromUniversity.sol\":3668:3716  token.balanceOf(address(this)) - allocatedTokens */\n      tag_108\n      swap2\n      swap1\n      tag_84\n      jump\t// in\n    tag_108:\n        /* \"Linear_Vesting/VestingFromUniversity.sol\":3668:3732  token.balanceOf(address(this)) - allocatedTokens >= _totalAmount */\n      lt\n      iszero\n        /* \"Linear_Vesting/VestingFromUniversity.sol\":3660:3757  require(token.balanceOf(address(this)) - allocatedTokens >= _totalAmount, InfsufficientBalance()) */\n      tag_109\n      jumpi\n      mload(0x40)\n      0xac16ee3e00000000000000000000000000000000000000000000000000000000\n      dup2\n      mstore\n      0x04\n      add\n      mload(0x40)\n      dup1\n      swap2\n      sub\n      swap1\n      revert\n    tag_109:\n        /* \"Linear_Vesting/VestingFromUniversity.sol\":3791:3792  0 */\n      0x00\n        /* \"Linear_Vesting/VestingFromUniversity.sol\":3776:3788  _totalAmount */\n      dup7\n        /* \"Linear_Vesting/VestingFromUniversity.sol\":3776:3792  _totalAmount > 0 */\n      gt\n        /* \"Linear_Vesting/VestingFromUniversity.sol\":3768:3813  require(_totalAmount > 0, AmountCantBeZero()) */\n      tag_110\n      jumpi\n      mload(0x40)\n      0x46f1397d00000000000000000000000000000000000000000000000000000000\n      dup2\n      mstore\n      0x04\n      add\n      mload(0x40)\n      dup1\n      swap2\n      sub\n      swap1\n      revert\n    tag_110:\n        /* \"Linear_Vesting/VestingFromUniversity.sol\":3870:3871  0 */\n      0x00\n        /* \"Linear_Vesting/VestingFromUniversity.sol\":3832:3840  vestings */\n      0x03\n        /* \"Linear_Vesting/VestingFromUniversity.sol\":3832:3854  vestings[_beneficiary] */\n      0x00\n        /* \"Linear_Vesting/VestingFromUniversity.sol\":3841:3853  _beneficiary */\n      dup10\n        /* \"Linear_Vesting/VestingFromUniversity.sol\":3832:3854  vestings[_beneficiary] */\n      0xffffffffffffffffffffffffffffffffffffffff\n      and\n      0xffffffffffffffffffffffffffffffffffffffff\n      and\n      dup2\n      mstore\n      0x20\n      add\n      swap1\n      dup2\n      mstore\n      0x20\n      add\n      0x00\n      keccak256\n        /* \"Linear_Vesting/VestingFromUniversity.sol\":3832:3866  vestings[_beneficiary].totalAmount */\n      0x00\n      add\n      sload\n        /* \"Linear_Vesting/VestingFromUniversity.sol\":3832:3871  vestings[_beneficiary].totalAmount == 0 */\n      eq\n        /* \"Linear_Vesting/VestingFromUniversity.sol\":3832:3943  vestings[_beneficiary].totalAmount == 0 || vestings[_beneficiary].totalAmount == vestings[_beneficiary].claimed */\n      dup1\n      tag_111\n      jumpi\n      pop\n        /* \"Linear_Vesting/VestingFromUniversity.sol\":3913:3921  vestings */\n      0x03\n        /* \"Linear_Vesting/VestingFromUniversity.sol\":3913:3935  vestings[_beneficiary] */\n      0x00\n        /* \"Linear_Vesting/VestingFromUniversity.sol\":3922:3934  _beneficiary */\n      dup9\n        /* \"Linear_Vesting/VestingFromUniversity.sol\":3913:3935  vestings[_beneficiary] */\n      0xffffffffffffffffffffffffffffffffffffffff\n      and\n      0xffffffffffffffffffffffffffffffffffffffff\n      and\n      dup2\n      mstore\n      0x20\n      add\n      swap1\n      dup2\n      mstore\n      0x20\n      add\n      0x00\n      keccak256\n        /* \"Linear_Vesting/VestingFromUniversity.sol\":3913:3943  vestings[_beneficiary].claimed */\n      0x04\n      add\n      sload\n        /* \"Linear_Vesting/VestingFromUniversity.sol\":3875:3883  vestings */\n      0x03\n        /* \"Linear_Vesting/VestingFromUniversity.sol\":3875:3897  vestings[_beneficiary] */\n      0x00\n        /* \"Linear_Vesting/VestingFromUniversity.sol\":3884:3896  _beneficiary */\n      dup10\n        /* \"Linear_Vesting/VestingFromUniversity.sol\":3875:3897  vestings[_beneficiary] */\n      0xffffffffffffffffffffffffffffffffffffffff\n      and\n      0xffffffffffffffffffffffffffffffffffffffff\n      and\n      dup2\n      mstore\n      0x20\n      add\n      swap1\n      dup2\n      mstore\n      0x20\n      add\n      0x00\n      keccak256\n        /* \"Linear_Vesting/VestingFromUniversity.sol\":3875:3909  vestings[_beneficiary].totalAmount */\n      0x00\n      add\n      sload\n        /* \"Linear_Vesting/VestingFromUniversity.sol\":3875:3943  vestings[_beneficiary].totalAmount == vestings[_beneficiary].claimed */\n      eq\n        /* \"Linear_Vesting/VestingFromUniversity.sol\":3832:3943  vestings[_beneficiary].totalAmount == 0 || vestings[_beneficiary].totalAmount == vestings[_beneficiary].claimed */\n    tag_111:\n        /* \"Linear_Vesting/VestingFromUniversity.sol\":3824:3967  require(vestings[_beneficiary].totalAmount == 0 || vestings[_beneficiary].totalAmount == vestings[_beneficiary].claimed, VestingAlreadyExist()) */\n      tag_112\n      jumpi\n      mload(0x40)\n      0xda2573cf00000000000000000000000000000000000000000000000000000000\n      dup2\n      mstore\n      0x04\n      add\n      mload(0x40)\n      dup1\n      swap2\n      sub\n      swap1\n      revert\n    tag_112:\n        /* \"Linear_Vesting/VestingFromUniversity.sol\":3999:4014  block.timestamp */\n      timestamp\n        /* \"Linear_Vesting/VestingFromUniversity.sol\":3986:3996  _startTime */\n      dup6\n        /* \"Linear_Vesting/VestingFromUniversity.sol\":3986:4014  _startTime > block.timestamp */\n      gt\n        /* \"Linear_Vesting/VestingFromUniversity.sol\":3978:4042  require(_startTime > block.timestamp, StartTimeShouldBeFuture()) */\n      tag_113\n      jumpi\n      mload(0x40)\n      0x41d33ec100000000000000000000000000000000000000000000000000000000\n      dup2\n      mstore\n      0x04\n      add\n      mload(0x40)\n      dup1\n      swap2\n      sub\n      swap1\n      revert\n    tag_113:\n        /* \"Linear_Vesting/VestingFromUniversity.sol\":4073:4074  0 */\n      0x00\n        /* \"Linear_Vesting/VestingFromUniversity.sol\":4061:4070  _duration */\n      dup4\n        /* \"Linear_Vesting/VestingFromUniversity.sol\":4061:4074  _duration > 0 */\n      gt\n        /* \"Linear_Vesting/VestingFromUniversity.sol\":4053:4097  require(_duration > 0, DurationCantBeZero()) */\n      tag_114\n      jumpi\n      mload(0x40)\n      0xaf0a1ac000000000000000000000000000000000000000000000000000000000\n      dup2\n      mstore\n      0x04\n      add\n      mload(0x40)\n      dup1\n      swap2\n      sub\n      swap1\n      revert\n    tag_114:\n        /* \"Linear_Vesting/VestingFromUniversity.sol\":4125:4134  _duration */\n      dup3\n        /* \"Linear_Vesting/VestingFromUniversity.sol\":4116:4122  _cliff */\n      dup5\n        /* \"Linear_Vesting/VestingFromUniversity.sol\":4116:4134  _cliff < _duration */\n      lt\n        /* \"Linear_Vesting/VestingFromUniversity.sol\":4108:4168  require(_cliff < _duration, CliffCantBeLongerThanDuration()) */\n      tag_115\n      jumpi\n      mload(0x40)\n      0x12e390eb00000000000000000000000000000000000000000000000000000000\n      dup2\n      mstore\n      0x04\n      add\n      mload(0x40)\n      dup1\n      swap2\n      sub\n      swap1\n      revert\n    tag_115:\n        /* \"Linear_Vesting/VestingFromUniversity.sol\":4198:4207  _duration */\n      dup3\n        /* \"Linear_Vesting/VestingFromUniversity.sol\":4181:4195  _claimCooldown */\n      dup3\n        /* \"Linear_Vesting/VestingFromUniversity.sol\":4181:4207  _claimCooldown < _duration */\n      lt\n        /* \"Linear_Vesting/VestingFromUniversity.sol\":4173:4244  require(_claimCooldown < _duration, CooldownCantBeLongerThanDuration()) */\n      tag_116\n      jumpi\n      mload(0x40)\n      0x28a4e6f600000000000000000000000000000000000000000000000000000000\n      dup2\n      mstore\n      0x04\n      add\n      mload(0x40)\n      dup1\n      swap2\n      sub\n      swap1\n      revert\n    tag_116:\n        /* \"Linear_Vesting/VestingFromUniversity.sol\":4287:4288  0 */\n      0x00\n        /* \"Linear_Vesting/VestingFromUniversity.sol\":4263:4289  _beneficiary != address(0) */\n      0xffffffffffffffffffffffffffffffffffffffff\n      and\n        /* \"Linear_Vesting/VestingFromUniversity.sol\":4263:4275  _beneficiary */\n      dup8\n        /* \"Linear_Vesting/VestingFromUniversity.sol\":4263:4289  _beneficiary != address(0) */\n      0xffffffffffffffffffffffffffffffffffffffff\n      and\n      sub\n        /* \"Linear_Vesting/VestingFromUniversity.sol\":4255:4312  require(_beneficiary != address(0), InvalidBeneficiary()) */\n      tag_117\n      jumpi\n      mload(0x40)\n      0x5566df5c00000000000000000000000000000000000000000000000000000000\n      dup2\n      mstore\n      0x04\n      add\n      mload(0x40)\n      dup1\n      swap2\n      sub\n      swap1\n      revert\n    tag_117:\n        /* \"Linear_Vesting/VestingFromUniversity.sol\":4350:4658  VestingInfo({... */\n      mload(0x40)\n      dup1\n      0x0100\n      add\n      0x40\n      mstore\n      dup1\n        /* \"Linear_Vesting/VestingFromUniversity.sol\":4390:4402  _totalAmount */\n      dup8\n        /* \"Linear_Vesting/VestingFromUniversity.sol\":4350:4658  VestingInfo({... */\n      dup2\n      mstore\n      0x20\n      add\n        /* \"Linear_Vesting/VestingFromUniversity.sol\":4428:4438  _startTime */\n      dup7\n        /* \"Linear_Vesting/VestingFromUniversity.sol\":4350:4658  VestingInfo({... */\n      dup2\n      mstore\n      0x20\n      add\n        /* \"Linear_Vesting/VestingFromUniversity.sol\":4460:4466  _cliff */\n      dup6\n        /* \"Linear_Vesting/VestingFromUniversity.sol\":4350:4658  VestingInfo({... */\n      dup2\n      mstore\n      0x20\n      add\n        /* \"Linear_Vesting/VestingFromUniversity.sol\":4491:4500  _duration */\n      dup5\n        /* \"Linear_Vesting/VestingFromUniversity.sol\":4350:4658  VestingInfo({... */\n      dup2\n      mstore\n      0x20\n      add\n        /* \"Linear_Vesting/VestingFromUniversity.sol\":4524:4525  0 */\n      0x00\n        /* \"Linear_Vesting/VestingFromUniversity.sol\":4350:4658  VestingInfo({... */\n      dup2\n      mstore\n      0x20\n      add\n        /* \"Linear_Vesting/VestingFromUniversity.sol\":4555:4556  0 */\n      0x00\n        /* \"Linear_Vesting/VestingFromUniversity.sol\":4350:4658  VestingInfo({... */\n      dup2\n      mstore\n      0x20\n      add\n        /* \"Linear_Vesting/VestingFromUniversity.sol\":4586:4600  _claimCooldown */\n      dup4\n        /* \"Linear_Vesting/VestingFromUniversity.sol\":4350:4658  VestingInfo({... */\n      dup2\n      mstore\n      0x20\n      add\n        /* \"Linear_Vesting/VestingFromUniversity.sol\":4631:4646  _minClaimAmount */\n      dup3\n        /* \"Linear_Vesting/VestingFromUniversity.sol\":4350:4658  VestingInfo({... */\n      dup2\n      mstore\n      pop\n        /* \"Linear_Vesting/VestingFromUniversity.sol\":4325:4333  vestings */\n      0x03\n        /* \"Linear_Vesting/VestingFromUniversity.sol\":4325:4347  vestings[_beneficiary] */\n      0x00\n        /* \"Linear_Vesting/VestingFromUniversity.sol\":4334:4346  _beneficiary */\n      dup10\n        /* \"Linear_Vesting/VestingFromUniversity.sol\":4325:4347  vestings[_beneficiary] */\n      0xffffffffffffffffffffffffffffffffffffffff\n      and\n      0xffffffffffffffffffffffffffffffffffffffff\n      and\n      dup2\n      mstore\n      0x20\n      add\n      swap1\n      dup2\n      mstore\n      0x20\n      add\n      0x00\n      keccak256\n        /* \"Linear_Vesting/VestingFromUniversity.sol\":4325:4658  vestings[_beneficiary] = VestingInfo({... */\n      0x00\n      dup3\n      add\n      mload\n      dup2\n      0x00\n      add\n      sstore\n      0x20\n      dup3\n      add\n      mload\n      dup2\n      0x01\n      add\n      sstore\n      0x40\n      dup3\n      add\n      mload\n      dup2\n      0x02\n      add\n      sstore\n      0x60\n      dup3\n      add\n      mload\n      dup2\n      0x03\n      add\n      sstore\n      0x80\n      dup3\n      add\n      mload\n      dup2\n      0x04\n      add\n      sstore\n      0xa0\n      dup3\n      add\n      mload\n      dup2\n      0x05\n      add\n      sstore\n      0xc0\n      dup3\n      add\n      mload\n      dup2\n      0x06\n      add\n      sstore\n      0xe0\n      dup3\n      add\n      mload\n      dup2\n      0x07\n      add\n      sstore\n      swap1\n      pop\n      pop\n        /* \"Linear_Vesting/VestingFromUniversity.sol\":4690:4702  _totalAmount */\n      dup6\n        /* \"Linear_Vesting/VestingFromUniversity.sol\":4671:4686  allocatedTokens */\n      0x02\n      0x00\n        /* \"Linear_Vesting/VestingFromUniversity.sol\":4671:4702  allocatedTokens += _totalAmount */\n      dup3\n      dup3\n      sload\n      tag_118\n      swap2\n      swap1\n      tag_73\n      jump\t// in\n    tag_118:\n      swap3\n      pop\n      pop\n      dup2\n      swap1\n      sstore\n      pop\n        /* \"Linear_Vesting/VestingFromUniversity.sol\":4720:4779  VestingCreated(_beneficiary, _totalAmount, block.timestamp) */\n      0x9ade76f4385de306666dfb21a52b27d52db0fde8ad0f515fa261f532cac60d21\n        /* \"Linear_Vesting/VestingFromUniversity.sol\":4735:4747  _beneficiary */\n      dup8\n        /* \"Linear_Vesting/VestingFromUniversity.sol\":4749:4761  _totalAmount */\n      dup8\n        /* \"Linear_Vesting/VestingFromUniversity.sol\":4763:4778  block.timestamp */\n      timestamp\n        /* \"Linear_Vesting/VestingFromUniversity.sol\":4720:4779  VestingCreated(_beneficiary, _totalAmount, block.timestamp) */\n      mload(0x40)\n      tag_119\n      swap4\n      swap3\n      swap2\n      swap1\n      tag_93\n      jump\t// in\n    tag_119:\n      mload(0x40)\n      dup1\n      swap2\n      sub\n      swap1\n      log1\n        /* \"Linear_Vesting/VestingFromUniversity.sol\":3390:4787  function startVesting(... */\n      pop\n      pop\n      pop\n      pop\n      pop\n      pop\n      pop\n      jump\t// out\n        /* \"Linear_Vesting/VestingFromUniversity.sol\":3107:3382  function claimableAmount(address _claimer) public view returns(uint256) {... */\n    tag_37:\n        /* \"Linear_Vesting/VestingFromUniversity.sol\":3170:3177  uint256 */\n      0x00\n        /* \"Linear_Vesting/VestingFromUniversity.sol\":3190:3217  VestingInfo storage vesting */\n      0x00\n        /* \"Linear_Vesting/VestingFromUniversity.sol\":3220:3228  vestings */\n      0x03\n        /* \"Linear_Vesting/VestingFromUniversity.sol\":3220:3238  vestings[_claimer] */\n      0x00\n        /* \"Linear_Vesting/VestingFromUniversity.sol\":3229:3237  _claimer */\n      dup5\n        /* \"Linear_Vesting/VestingFromUniversity.sol\":3220:3238  vestings[_claimer] */\n      0xffffffffffffffffffffffffffffffffffffffff\n      and\n      0xffffffffffffffffffffffffffffffffffffffff\n      and\n      dup2\n      mstore\n      0x20\n      add\n      swap1\n      dup2\n      mstore\n      0x20\n      add\n      0x00\n      keccak256\n        /* \"Linear_Vesting/VestingFromUniversity.sol\":3190:3238  VestingInfo storage vesting = vestings[_claimer] */\n      swap1\n      pop\n        /* \"Linear_Vesting/VestingFromUniversity.sol\":3291:3298  vesting */\n      dup1\n        /* \"Linear_Vesting/VestingFromUniversity.sol\":3291:3304  vesting.cliff */\n      0x02\n      add\n      sload\n        /* \"Linear_Vesting/VestingFromUniversity.sol\":3271:3278  vesting */\n      dup2\n        /* \"Linear_Vesting/VestingFromUniversity.sol\":3271:3288  vesting.startTime */\n      0x01\n      add\n      sload\n        /* \"Linear_Vesting/VestingFromUniversity.sol\":3271:3304  vesting.startTime + vesting.cliff */\n      tag_121\n      swap2\n      swap1\n      tag_73\n      jump\t// in\n    tag_121:\n        /* \"Linear_Vesting/VestingFromUniversity.sol\":3253:3268  block.timestamp */\n      timestamp\n        /* \"Linear_Vesting/VestingFromUniversity.sol\":3253:3304  block.timestamp < vesting.startTime + vesting.cliff */\n      lt\n        /* \"Linear_Vesting/VestingFromUniversity.sol\":3249:3314  if (block.timestamp < vesting.startTime + vesting.cliff) return 0 */\n      iszero\n      tag_122\n      jumpi\n        /* \"Linear_Vesting/VestingFromUniversity.sol\":3313:3314  0 */\n      0x00\n        /* \"Linear_Vesting/VestingFromUniversity.sol\":3306:3314  return 0 */\n      swap2\n      pop\n      pop\n      jump(tag_120)\n        /* \"Linear_Vesting/VestingFromUniversity.sol\":3249:3314  if (block.timestamp < vesting.startTime + vesting.cliff) return 0 */\n    tag_122:\n        /* \"Linear_Vesting/VestingFromUniversity.sol\":3359:3366  vesting */\n      dup1\n        /* \"Linear_Vesting/VestingFromUniversity.sol\":3359:3374  vesting.claimed */\n      0x04\n      add\n      sload\n        /* \"Linear_Vesting/VestingFromUniversity.sol\":3334:3356  vestedAmount(_claimer) */\n      tag_123\n        /* \"Linear_Vesting/VestingFromUniversity.sol\":3347:3355  _claimer */\n      dup5\n        /* \"Linear_Vesting/VestingFromUniversity.sol\":3334:3346  vestedAmount */\n      tag_124\n        /* \"Linear_Vesting/VestingFromUniversity.sol\":3334:3356  vestedAmount(_claimer) */\n      jump\t// in\n    tag_123:\n        /* \"Linear_Vesting/VestingFromUniversity.sol\":3334:3374  vestedAmount(_claimer) - vesting.claimed */\n      tag_125\n      swap2\n      swap1\n      tag_84\n      jump\t// in\n    tag_125:\n        /* \"Linear_Vesting/VestingFromUniversity.sol\":3327:3374  return vestedAmount(_claimer) - vesting.claimed */\n      swap2\n      pop\n      pop\n        /* \"Linear_Vesting/VestingFromUniversity.sol\":3107:3382  function claimableAmount(address _claimer) public view returns(uint256) {... */\n    tag_120:\n      swap2\n      swap1\n      pop\n      jump\t// out\n        /* \"@openzeppelin/contracts/access/Ownable.sol\":1638:1723  function owner() public view virtual returns (address) {... */\n    tag_40:\n        /* \"@openzeppelin/contracts/access/Ownable.sol\":1684:1691  address */\n      0x00\n        /* \"@openzeppelin/contracts/access/Ownable.sol\":1710:1716  _owner */\n      0x00\n      0x00\n      swap1\n      sload\n      swap1\n      0x0100\n      exp\n      swap1\n      div\n      0xffffffffffffffffffffffffffffffffffffffff\n      and\n        /* \"@openzeppelin/contracts/access/Ownable.sol\":1703:1716  return _owner */\n      swap1\n      pop\n        /* \"@openzeppelin/contracts/access/Ownable.sol\":1638:1723  function owner() public view virtual returns (address) {... */\n      swap1\n      jump\t// out\n        /* \"Linear_Vesting/VestingFromUniversity.sol\":5451:5592  function getInitData(address _token, address _owner) external pure returns(bytes memory) {... */\n    tag_46:\n        /* \"Linear_Vesting/VestingFromUniversity.sol\":5526:5538  bytes memory */\n      0x60\n        /* \"Linear_Vesting/VestingFromUniversity.sol\":5569:5575  _token */\n      dup3\n        /* \"Linear_Vesting/VestingFromUniversity.sol\":5577:5583  _owner */\n      dup3\n        /* \"Linear_Vesting/VestingFromUniversity.sol\":5558:5584  abi.encode(_token, _owner) */\n      add(0x20, mload(0x40))\n      tag_128\n      swap3\n      swap2\n      swap1\n      tag_129\n      jump\t// in\n    tag_128:\n      mload(0x40)\n      0x20\n      dup2\n      dup4\n      sub\n      sub\n      dup2\n      mstore\n      swap1\n      0x40\n      mstore\n        /* \"Linear_Vesting/VestingFromUniversity.sol\":5551:5584  return abi.encode(_token, _owner) */\n      swap1\n      pop\n        /* \"Linear_Vesting/VestingFromUniversity.sol\":5451:5592  function getInitData(address _token, address _owner) external pure returns(bytes memory) {... */\n      swap3\n      swap2\n      pop\n      pop\n      jump\t// out\n        /* \"Linear_Vesting/VestingFromUniversity.sol\":4795:5124  function withdrawUnallocated(address _to) external onlyOwner {... */\n    tag_51:\n        /* \"@openzeppelin/contracts/access/Ownable.sol\":1531:1544  _checkOwner() */\n      tag_131\n        /* \"@openzeppelin/contracts/access/Ownable.sol\":1531:1542  _checkOwner */\n      tag_96\n        /* \"@openzeppelin/contracts/access/Ownable.sol\":1531:1544  _checkOwner() */\n      jump\t// in\n    tag_131:\n        /* \"Linear_Vesting/VestingFromUniversity.sol\":4867:4884  uint256 available */\n      0x00\n        /* \"Linear_Vesting/VestingFromUniversity.sol\":4920:4935  allocatedTokens */\n      sload(0x02)\n        /* \"Linear_Vesting/VestingFromUniversity.sol\":4887:4892  token */\n      0x01\n      0x00\n      swap1\n      sload\n      swap1\n      0x0100\n      exp\n      swap1\n      div\n      0xffffffffffffffffffffffffffffffffffffffff\n      and\n        /* \"Linear_Vesting/VestingFromUniversity.sol\":4887:4902  token.balanceOf */\n      0xffffffffffffffffffffffffffffffffffffffff\n      and\n      0x70a08231\n        /* \"Linear_Vesting/VestingFromUniversity.sol\":4911:4915  this */\n      address\n        /* \"Linear_Vesting/VestingFromUniversity.sol\":4887:4917  token.balanceOf(address(this)) */\n      mload(0x40)\n      dup3\n      0xffffffff\n      and\n      0xe0\n      shl\n      dup2\n      mstore\n      0x04\n      add\n      tag_133\n      swap2\n      swap1\n      tag_42\n      jump\t// in\n    tag_133:\n      0x20\n      mload(0x40)\n      dup1\n      dup4\n      sub\n      dup2\n      dup7\n      gas\n      staticcall\n      iszero\n      dup1\n      iszero\n      tag_135\n      jumpi\n      returndatacopy(0x00, 0x00, returndatasize)\n      revert(0x00, returndatasize)\n    tag_135:\n      pop\n      pop\n      pop\n      pop\n      mload(0x40)\n      returndatasize\n      not(0x1f)\n      0x1f\n      dup3\n      add\n      and\n      dup3\n      add\n      dup1\n      0x40\n      mstore\n      pop\n      dup2\n      add\n      swap1\n      tag_136\n      swap2\n      swap1\n      tag_107\n      jump\t// in\n    tag_136:\n        /* \"Linear_Vesting/VestingFromUniversity.sol\":4887:4935  token.balanceOf(address(this)) - allocatedTokens */\n      tag_137\n      swap2\n      swap1\n      tag_84\n      jump\t// in\n    tag_137:\n        /* \"Linear_Vesting/VestingFromUniversity.sol\":4867:4935  uint256 available = token.balanceOf(address(this)) - allocatedTokens */\n      swap1\n      pop\n        /* \"Linear_Vesting/VestingFromUniversity.sol\":4966:4967  0 */\n      0x00\n        /* \"Linear_Vesting/VestingFromUniversity.sol\":4954:4963  available */\n      dup2\n        /* \"Linear_Vesting/VestingFromUniversity.sol\":4954:4967  available > 0 */\n      gt\n        /* \"Linear_Vesting/VestingFromUniversity.sol\":4946:4989  require(available > 0, NothingToWithdraw()) */\n      tag_138\n      jumpi\n      mload(0x40)\n      0xd0d04f6000000000000000000000000000000000000000000000000000000000\n      dup2\n      mstore\n      0x04\n      add\n      mload(0x40)\n      dup1\n      swap2\n      sub\n      swap1\n      revert\n    tag_138:\n        /* \"Linear_Vesting/VestingFromUniversity.sol\":5010:5015  token */\n      0x01\n      0x00\n      swap1\n      sload\n      swap1\n      0x0100\n      exp\n      swap1\n      div\n      0xffffffffffffffffffffffffffffffffffffffff\n      and\n        /* \"Linear_Vesting/VestingFromUniversity.sol\":5010:5024  token.transfer */\n      0xffffffffffffffffffffffffffffffffffffffff\n      and\n      0xa9059cbb\n        /* \"Linear_Vesting/VestingFromUniversity.sol\":5025:5028  _to */\n      dup4\n        /* \"Linear_Vesting/VestingFromUniversity.sol\":5030:5039  available */\n      dup4\n        /* \"Linear_Vesting/VestingFromUniversity.sol\":5010:5040  token.transfer(_to, available) */\n      mload(0x40)\n      dup4\n      0xffffffff\n      and\n      0xe0\n      shl\n      dup2\n      mstore\n      0x04\n      add\n      tag_139\n      swap3\n      swap2\n      swap1\n      tag_86\n      jump\t// in\n    tag_139:\n      0x20\n      mload(0x40)\n      dup1\n      dup4\n      sub\n      dup2\n      0x00\n      dup8\n      gas\n      call\n      iszero\n      dup1\n      iszero\n      tag_141\n      jumpi\n      returndatacopy(0x00, 0x00, returndatasize)\n      revert(0x00, returndatasize)\n    tag_141:\n      pop\n      pop\n      pop\n      pop\n      mload(0x40)\n      returndatasize\n      not(0x1f)\n      0x1f\n      dup3\n      add\n      and\n      dup3\n      add\n      dup1\n      0x40\n      mstore\n      pop\n      dup2\n      add\n      swap1\n      tag_142\n      swap2\n      swap1\n      tag_90\n      jump\t// in\n    tag_142:\n        /* \"Linear_Vesting/VestingFromUniversity.sol\":5002:5067  require(token.transfer(_to, available), WithdrawTransferFailed()) */\n      tag_143\n      jumpi\n      mload(0x40)\n      0x69a4751b00000000000000000000000000000000000000000000000000000000\n      dup2\n      mstore\n      0x04\n      add\n      mload(0x40)\n      dup1\n      swap2\n      sub\n      swap1\n      revert\n    tag_143:\n        /* \"Linear_Vesting/VestingFromUniversity.sol\":5085:5116  TokensWithdrawn(_to, available) */\n      0x6352c5382c4a4578e712449ca65e83cdb392d045dfcf1cad9615189db2da244b\n        /* \"Linear_Vesting/VestingFromUniversity.sol\":5101:5104  _to */\n      dup3\n        /* \"Linear_Vesting/VestingFromUniversity.sol\":5106:5115  available */\n      dup3\n        /* \"Linear_Vesting/VestingFromUniversity.sol\":5085:5116  TokensWithdrawn(_to, available) */\n      mload(0x40)\n      tag_144\n      swap3\n      swap2\n      swap1\n      tag_86\n      jump\t// in\n    tag_144:\n      mload(0x40)\n      dup1\n      swap2\n      sub\n      swap1\n      log1\n        /* \"Linear_Vesting/VestingFromUniversity.sol\":4856:5124  {... */\n      pop\n        /* \"Linear_Vesting/VestingFromUniversity.sol\":4795:5124  function withdrawUnallocated(address _to) external onlyOwner {... */\n      pop\n      jump\t// out\n        /* \"Linear_Vesting/VestingFromUniversity.sol\":675:722  mapping(address => VestingInfo) public vestings */\n    tag_54:\n      mstore(0x20, 0x03)\n      dup1\n      0x00\n      mstore\n      keccak256(0x00, 0x40)\n      0x00\n      swap2\n      pop\n      swap1\n      pop\n      dup1\n      0x00\n      add\n      sload\n      swap1\n      dup1\n      0x01\n      add\n      sload\n      swap1\n      dup1\n      0x02\n      add\n      sload\n      swap1\n      dup1\n      0x03\n      add\n      sload\n      swap1\n      dup1\n      0x04\n      add\n      sload\n      swap1\n      dup1\n      0x05\n      add\n      sload\n      swap1\n      dup1\n      0x06\n      add\n      sload\n      swap1\n      dup1\n      0x07\n      add\n      sload\n      swap1\n      pop\n      dup9\n      jump\t// out\n        /* \"@openzeppelin/contracts/access/Ownable.sol\":2543:2758  function transferOwnership(address newOwner) public virtual onlyOwner {... */\n    tag_59:\n        /* \"@openzeppelin/contracts/access/Ownable.sol\":1531:1544  _checkOwner() */\n      tag_146\n        /* \"@openzeppelin/contracts/access/Ownable.sol\":1531:1542  _checkOwner */\n      tag_96\n        /* \"@openzeppelin/contracts/access/Ownable.sol\":1531:1544  _checkOwner() */\n      jump\t// in\n    tag_146:\n        /* \"@openzeppelin/contracts/access/Ownable.sol\":2647:2648  0 */\n      0x00\n        /* \"@openzeppelin/contracts/access/Ownable.sol\":2627:2649  newOwner == address(0) */\n      0xffffffffffffffffffffffffffffffffffffffff\n      and\n        /* \"@openzeppelin/contracts/access/Ownable.sol\":2627:2635  newOwner */\n      dup2\n        /* \"@openzeppelin/contracts/access/Ownable.sol\":2627:2649  newOwner == address(0) */\n      0xffffffffffffffffffffffffffffffffffffffff\n      and\n      sub\n        /* \"@openzeppelin/contracts/access/Ownable.sol\":2623:2714  if (newOwner == address(0)) {... */\n      tag_148\n      jumpi\n        /* \"@openzeppelin/contracts/access/Ownable.sol\":2700:2701  0 */\n      0x00\n        /* \"@openzeppelin/contracts/access/Ownable.sol\":2672:2703  OwnableInvalidOwner(address(0)) */\n      mload(0x40)\n      0x1e4fbdf700000000000000000000000000000000000000000000000000000000\n      dup2\n      mstore\n      0x04\n      add\n      tag_149\n      swap2\n      swap1\n      tag_42\n      jump\t// in\n    tag_149:\n      mload(0x40)\n      dup1\n      swap2\n      sub\n      swap1\n      revert\n        /* \"@openzeppelin/contracts/access/Ownable.sol\":2623:2714  if (newOwner == address(0)) {... */\n    tag_148:\n        /* \"@openzeppelin/contracts/access/Ownable.sol\":2723:2751  _transferOwnership(newOwner) */\n      tag_150\n        /* \"@openzeppelin/contracts/access/Ownable.sol\":2742:2750  newOwner */\n      dup2\n        /* \"@openzeppelin/contracts/access/Ownable.sol\":2723:2741  _transferOwnership */\n      tag_99\n        /* \"@openzeppelin/contracts/access/Ownable.sol\":2723:2751  _transferOwnership(newOwner) */\n      jump\t// in\n    tag_150:\n        /* \"@openzeppelin/contracts/access/Ownable.sol\":2543:2758  function transferOwnership(address newOwner) public virtual onlyOwner {... */\n      pop\n      jump\t// out\n        /* \"Linear_Vesting/VestingFromUniversity.sol\":312:331  IERC20 public token */\n    tag_61:\n      0x01\n      0x00\n      swap1\n      sload\n      swap1\n      0x0100\n      exp\n      swap1\n      div\n      0xffffffffffffffffffffffffffffffffffffffff\n      and\n      dup2\n      jump\t// out\n        /* \"@openzeppelin/contracts/access/Ownable.sol\":1796:1958  function _checkOwner() internal view virtual {... */\n    tag_96:\n        /* \"@openzeppelin/contracts/access/Ownable.sol\":1866:1878  _msgSender() */\n      tag_152\n        /* \"@openzeppelin/contracts/access/Ownable.sol\":1866:1876  _msgSender */\n      tag_153\n        /* \"@openzeppelin/contracts/access/Ownable.sol\":1866:1878  _msgSender() */\n      jump\t// in\n    tag_152:\n        /* \"@openzeppelin/contracts/access/Ownable.sol\":1855:1878  owner() != _msgSender() */\n      0xffffffffffffffffffffffffffffffffffffffff\n      and\n        /* \"@openzeppelin/contracts/access/Ownable.sol\":1855:1862  owner() */\n      tag_154\n        /* \"@openzeppelin/contracts/access/Ownable.sol\":1855:1860  owner */\n      tag_40\n        /* \"@openzeppelin/contracts/access/Ownable.sol\":1855:1862  owner() */\n      jump\t// in\n    tag_154:\n        /* \"@openzeppelin/contracts/access/Ownable.sol\":1855:1878  owner() != _msgSender() */\n      0xffffffffffffffffffffffffffffffffffffffff\n      and\n      eq\n        /* \"@openzeppelin/contracts/access/Ownable.sol\":1851:1952  if (owner() != _msgSender()) {... */\n      tag_155\n      jumpi\n        /* \"@openzeppelin/contracts/access/Ownable.sol\":1928:1940  _msgSender() */\n      tag_156\n        /* \"@openzeppelin/contracts/access/Ownable.sol\":1928:1938  _msgSender */\n      tag_153\n        /* \"@openzeppelin/contracts/access/Ownable.sol\":1928:1940  _msgSender() */\n      jump\t// in\n    tag_156:\n        /* \"@openzeppelin/contracts/access/Ownable.sol\":1901:1941  OwnableUnauthorizedAccount(_msgSender()) */\n      mload(0x40)\n      0x118cdaa700000000000000000000000000000000000000000000000000000000\n      dup2\n      mstore\n      0x04\n      add\n      tag_157\n      swap2\n      swap1\n      tag_42\n      jump\t// in\n    tag_157:\n      mload(0x40)\n      dup1\n      swap2\n      sub\n      swap1\n      revert\n        /* \"@openzeppelin/contracts/access/Ownable.sol\":1851:1952  if (owner() != _msgSender()) {... */\n    tag_155:\n        /* \"@openzeppelin/contracts/access/Ownable.sol\":1796:1958  function _checkOwner() internal view virtual {... */\n      jump\t// out\n        /* \"@openzeppelin/contracts/access/Ownable.sol\":2912:3099  function _transferOwnership(address newOwner) internal virtual {... */\n    tag_99:\n        /* \"@openzeppelin/contracts/access/Ownable.sol\":2985:3001  address oldOwner */\n      0x00\n        /* \"@openzeppelin/contracts/access/Ownable.sol\":3004:3010  _owner */\n      0x00\n      0x00\n      swap1\n      sload\n      swap1\n      0x0100\n      exp\n      swap1\n      div\n      0xffffffffffffffffffffffffffffffffffffffff\n      and\n        /* \"@openzeppelin/contracts/access/Ownable.sol\":2985:3010  address oldOwner = _owner */\n      swap1\n      pop\n        /* \"@openzeppelin/contracts/access/Ownable.sol\":3029:3037  newOwner */\n      dup2\n        /* \"@openzeppelin/contracts/access/Ownable.sol\":3020:3026  _owner */\n      0x00\n      0x00\n        /* \"@openzeppelin/contracts/access/Ownable.sol\":3020:3037  _owner = newOwner */\n      0x0100\n      exp\n      dup2\n      sload\n      dup2\n      0xffffffffffffffffffffffffffffffffffffffff\n      mul\n      not\n      and\n      swap1\n      dup4\n      0xffffffffffffffffffffffffffffffffffffffff\n      and\n      mul\n      or\n      swap1\n      sstore\n      pop\n        /* \"@openzeppelin/contracts/access/Ownable.sol\":3083:3091  newOwner */\n      dup2\n        /* \"@openzeppelin/contracts/access/Ownable.sol\":3052:3092  OwnershipTransferred(oldOwner, newOwner) */\n      0xffffffffffffffffffffffffffffffffffffffff\n      and\n        /* \"@openzeppelin/contracts/access/Ownable.sol\":3073:3081  oldOwner */\n      dup2\n        /* \"@openzeppelin/contracts/access/Ownable.sol\":3052:3092  OwnershipTransferred(oldOwner, newOwner) */\n      0xffffffffffffffffffffffffffffffffffffffff\n      and\n      0x8be0079c531659141344cd1fd0a4f28419497f9722a3daafe3b4186f6b6457e0\n      mload(0x40)\n      mload(0x40)\n      dup1\n      swap2\n      sub\n      swap1\n      log3\n        /* \"@openzeppelin/contracts/access/Ownable.sol\":2975:3099  {... */\n      pop\n        /* \"@openzeppelin/contracts/access/Ownable.sol\":2912:3099  function _transferOwnership(address newOwner) internal virtual {... */\n      pop\n      jump\t// out\n        /* \"Linear_Vesting/VestingFromUniversity.sol\":2622:3095  function vestedAmount(address _claimer) internal view returns(uint256) {... */\n    tag_124:\n        /* \"Linear_Vesting/VestingFromUniversity.sol\":2684:2691  uint256 */\n      0x00\n        /* \"Linear_Vesting/VestingFromUniversity.sol\":2704:2731  VestingInfo storage vesting */\n      0x00\n        /* \"Linear_Vesting/VestingFromUniversity.sol\":2734:2742  vestings */\n      0x03\n        /* \"Linear_Vesting/VestingFromUniversity.sol\":2734:2752  vestings[_claimer] */\n      0x00\n        /* \"Linear_Vesting/VestingFromUniversity.sol\":2743:2751  _claimer */\n      dup5\n        /* \"Linear_Vesting/VestingFromUniversity.sol\":2734:2752  vestings[_claimer] */\n      0xffffffffffffffffffffffffffffffffffffffff\n      and\n      0xffffffffffffffffffffffffffffffffffffffff\n      and\n      dup2\n      mstore\n      0x20\n      add\n      swap1\n      dup2\n      mstore\n      0x20\n      add\n      0x00\n      keccak256\n        /* \"Linear_Vesting/VestingFromUniversity.sol\":2704:2752  VestingInfo storage vesting = vestings[_claimer] */\n      swap1\n      pop\n        /* \"Linear_Vesting/VestingFromUniversity.sol\":2805:2812  vesting */\n      dup1\n        /* \"Linear_Vesting/VestingFromUniversity.sol\":2805:2818  vesting.cliff */\n      0x02\n      add\n      sload\n        /* \"Linear_Vesting/VestingFromUniversity.sol\":2785:2792  vesting */\n      dup2\n        /* \"Linear_Vesting/VestingFromUniversity.sol\":2785:2802  vesting.startTime */\n      0x01\n      add\n      sload\n        /* \"Linear_Vesting/VestingFromUniversity.sol\":2785:2818  vesting.startTime + vesting.cliff */\n      tag_160\n      swap2\n      swap1\n      tag_73\n      jump\t// in\n    tag_160:\n        /* \"Linear_Vesting/VestingFromUniversity.sol\":2767:2782  block.timestamp */\n      timestamp\n        /* \"Linear_Vesting/VestingFromUniversity.sol\":2767:2818  block.timestamp < vesting.startTime + vesting.cliff */\n      lt\n        /* \"Linear_Vesting/VestingFromUniversity.sol\":2763:2828  if (block.timestamp < vesting.startTime + vesting.cliff) return 0 */\n      iszero\n      tag_161\n      jumpi\n        /* \"Linear_Vesting/VestingFromUniversity.sol\":2827:2828  0 */\n      0x00\n        /* \"Linear_Vesting/VestingFromUniversity.sol\":2820:2828  return 0 */\n      swap2\n      pop\n      pop\n      jump(tag_159)\n        /* \"Linear_Vesting/VestingFromUniversity.sol\":2763:2828  if (block.timestamp < vesting.startTime + vesting.cliff) return 0 */\n    tag_161:\n        /* \"Linear_Vesting/VestingFromUniversity.sol\":2841:2859  uint256 passedTime */\n      0x00\n        /* \"Linear_Vesting/VestingFromUniversity.sol\":2901:2908  vesting */\n      dup2\n        /* \"Linear_Vesting/VestingFromUniversity.sol\":2901:2914  vesting.cliff */\n      0x02\n      add\n      sload\n        /* \"Linear_Vesting/VestingFromUniversity.sol\":2881:2888  vesting */\n      dup3\n        /* \"Linear_Vesting/VestingFromUniversity.sol\":2881:2898  vesting.startTime */\n      0x01\n      add\n      sload\n        /* \"Linear_Vesting/VestingFromUniversity.sol\":2881:2914  vesting.startTime + vesting.cliff */\n      tag_162\n      swap2\n      swap1\n      tag_73\n      jump\t// in\n    tag_162:\n        /* \"Linear_Vesting/VestingFromUniversity.sol\":2862:2877  block.timestamp */\n      timestamp\n        /* \"Linear_Vesting/VestingFromUniversity.sol\":2862:2915  block.timestamp - (vesting.startTime + vesting.cliff) */\n      tag_163\n      swap2\n      swap1\n      tag_84\n      jump\t// in\n    tag_163:\n        /* \"Linear_Vesting/VestingFromUniversity.sol\":2841:2915  uint256 passedTime = block.timestamp - (vesting.startTime + vesting.cliff) */\n      swap1\n      pop\n        /* \"Linear_Vesting/VestingFromUniversity.sol\":2943:2950  vesting */\n      dup2\n        /* \"Linear_Vesting/VestingFromUniversity.sol\":2943:2959  vesting.duration */\n      0x03\n      add\n      sload\n        /* \"Linear_Vesting/VestingFromUniversity.sol\":2930:2940  passedTime */\n      dup2\n        /* \"Linear_Vesting/VestingFromUniversity.sol\":2930:2959  passedTime > vesting.duration */\n      gt\n        /* \"Linear_Vesting/VestingFromUniversity.sol\":2926:3017  if (passedTime > vesting.duration) {... */\n      iszero\n      tag_164\n      jumpi\n        /* \"Linear_Vesting/VestingFromUniversity.sol\":2989:2996  vesting */\n      dup2\n        /* \"Linear_Vesting/VestingFromUniversity.sol\":2989:3005  vesting.duration */\n      0x03\n      add\n      sload\n        /* \"Linear_Vesting/VestingFromUniversity.sol\":2976:3005  passedTime = vesting.duration */\n      swap1\n      pop\n        /* \"Linear_Vesting/VestingFromUniversity.sol\":2926:3017  if (passedTime > vesting.duration) {... */\n    tag_164:\n        /* \"Linear_Vesting/VestingFromUniversity.sol\":3071:3078  vesting */\n      dup2\n        /* \"Linear_Vesting/VestingFromUniversity.sol\":3071:3087  vesting.duration */\n      0x03\n      add\n      sload\n        /* \"Linear_Vesting/VestingFromUniversity.sol\":3057:3067  passedTime */\n      dup2\n        /* \"Linear_Vesting/VestingFromUniversity.sol\":3035:3042  vesting */\n      dup4\n        /* \"Linear_Vesting/VestingFromUniversity.sol\":3035:3054  vesting.totalAmount */\n      0x00\n      add\n      sload\n        /* \"Linear_Vesting/VestingFromUniversity.sol\":3035:3067  vesting.totalAmount * passedTime */\n      tag_165\n      swap2\n      swap1\n      tag_166\n      jump\t// in\n    tag_165:\n        /* \"Linear_Vesting/VestingFromUniversity.sol\":3034:3087  (vesting.totalAmount * passedTime) / vesting.duration */\n      tag_167\n      swap2\n      swap1\n      tag_168\n      jump\t// in\n    tag_167:\n        /* \"Linear_Vesting/VestingFromUniversity.sol\":3027:3087  return (vesting.totalAmount * passedTime) / vesting.duration */\n      swap3\n      pop\n      pop\n      pop\n        /* \"Linear_Vesting/VestingFromUniversity.sol\":2622:3095  function vestedAmount(address _claimer) internal view returns(uint256) {... */\n    tag_159:\n      swap2\n      swap1\n      pop\n      jump\t// out\n        /* \"@openzeppelin/contracts/utils/Context.sol\":656:752  function _msgSender() internal view virtual returns (address) {... */\n    tag_153:\n        /* \"@openzeppelin/contracts/utils/Context.sol\":709:716  address */\n      0x00\n        /* \"@openzeppelin/contracts/utils/Context.sol\":735:745  msg.sender */\n      caller\n        /* \"@openzeppelin/contracts/utils/Context.sol\":728:745  return msg.sender */\n      swap1\n      pop\n        /* \"@openzeppelin/contracts/utils/Context.sol\":656:752  function _msgSender() internal view virtual returns (address) {... */\n      swap1\n      jump\t// out\n        /* \"#utility.yul\":7:84   */\n    tag_170:\n        /* \"#utility.yul\":44:51   */\n      0x00\n        /* \"#utility.yul\":73:78   */\n      dup2\n        /* \"#utility.yul\":62:78   */\n      swap1\n      pop\n        /* \"#utility.yul\":7:84   */\n      swap2\n      swap1\n      pop\n      jump\t// out\n        /* \"#utility.yul\":90:208   */\n    tag_171:\n        /* \"#utility.yul\":177:201   */\n      tag_214\n        /* \"#utility.yul\":195:200   */\n      dup2\n        /* \"#utility.yul\":177:201   */\n      tag_170\n      jump\t// in\n    tag_214:\n        /* \"#utility.yul\":172:175   */\n      dup3\n        /* \"#utility.yul\":165:202   */\n      mstore\n        /* \"#utility.yul\":90:208   */\n      pop\n      pop\n      jump\t// out\n        /* \"#utility.yul\":214:436   */\n    tag_19:\n        /* \"#utility.yul\":307:311   */\n      0x00\n        /* \"#utility.yul\":345:347   */\n      0x20\n        /* \"#utility.yul\":334:343   */\n      dup3\n        /* \"#utility.yul\":330:348   */\n      add\n        /* \"#utility.yul\":322:348   */\n      swap1\n      pop\n        /* \"#utility.yul\":358:429   */\n      tag_216\n        /* \"#utility.yul\":426:427   */\n      0x00\n        /* \"#utility.yul\":415:424   */\n      dup4\n        /* \"#utility.yul\":411:428   */\n      add\n        /* \"#utility.yul\":402:408   */\n      dup5\n        /* \"#utility.yul\":358:429   */\n      tag_171\n      jump\t// in\n    tag_216:\n        /* \"#utility.yul\":214:436   */\n      swap3\n      swap2\n      pop\n      pop\n      jump\t// out\n        /* \"#utility.yul\":442:517   */\n    tag_172:\n        /* \"#utility.yul\":475:481   */\n      0x00\n        /* \"#utility.yul\":508:510   */\n      0x40\n        /* \"#utility.yul\":502:511   */\n      mload\n        /* \"#utility.yul\":492:511   */\n      swap1\n      pop\n        /* \"#utility.yul\":442:517   */\n      swap1\n      jump\t// out\n        /* \"#utility.yul\":523:640   */\n    tag_173:\n        /* \"#utility.yul\":632:633   */\n      0x00\n        /* \"#utility.yul\":629:630   */\n      0x00\n        /* \"#utility.yul\":622:634   */\n      revert\n        /* \"#utility.yul\":646:763   */\n    tag_174:\n        /* \"#utility.yul\":755:756   */\n      0x00\n        /* \"#utility.yul\":752:753   */\n      0x00\n        /* \"#utility.yul\":745:757   */\n      revert\n        /* \"#utility.yul\":769:886   */\n    tag_175:\n        /* \"#utility.yul\":878:879   */\n      0x00\n        /* \"#utility.yul\":875:876   */\n      0x00\n        /* \"#utility.yul\":868:880   */\n      revert\n        /* \"#utility.yul\":892:1009   */\n    tag_176:\n        /* \"#utility.yul\":1001:1002   */\n      0x00\n        /* \"#utility.yul\":998:999   */\n      0x00\n        /* \"#utility.yul\":991:1003   */\n      revert\n        /* \"#utility.yul\":1015:1117   */\n    tag_177:\n        /* \"#utility.yul\":1056:1062   */\n      0x00\n        /* \"#utility.yul\":1107:1109   */\n      0x1f\n        /* \"#utility.yul\":1103:1110   */\n      not\n        /* \"#utility.yul\":1098:1100   */\n      0x1f\n        /* \"#utility.yul\":1091:1096   */\n      dup4\n        /* \"#utility.yul\":1087:1101   */\n      add\n        /* \"#utility.yul\":1083:1111   */\n      and\n        /* \"#utility.yul\":1073:1111   */\n      swap1\n      pop\n        /* \"#utility.yul\":1015:1117   */\n      swap2\n      swap1\n      pop\n      jump\t// out\n        /* \"#utility.yul\":1123:1303   */\n    tag_178:\n        /* \"#utility.yul\":1171:1248   */\n      0x4e487b7100000000000000000000000000000000000000000000000000000000\n        /* \"#utility.yul\":1168:1169   */\n      0x00\n        /* \"#utility.yul\":1161:1249   */\n      mstore\n        /* \"#utility.yul\":1268:1272   */\n      0x41\n        /* \"#utility.yul\":1265:1266   */\n      0x04\n        /* \"#utility.yul\":1258:1273   */\n      mstore\n        /* \"#utility.yul\":1292:1296   */\n      0x24\n        /* \"#utility.yul\":1289:1290   */\n      0x00\n        /* \"#utility.yul\":1282:1297   */\n      revert\n        /* \"#utility.yul\":1309:1590   */\n    tag_179:\n        /* \"#utility.yul\":1392:1419   */\n      tag_225\n        /* \"#utility.yul\":1414:1418   */\n      dup3\n        /* \"#utility.yul\":1392:1419   */\n      tag_177\n      jump\t// in\n    tag_225:\n        /* \"#utility.yul\":1384:1390   */\n      dup2\n        /* \"#utility.yul\":1380:1420   */\n      add\n        /* \"#utility.yul\":1522:1528   */\n      dup2\n        /* \"#utility.yul\":1510:1520   */\n      dup2\n        /* \"#utility.yul\":1507:1529   */\n      lt\n        /* \"#utility.yul\":1486:1504   */\n      0xffffffffffffffff\n        /* \"#utility.yul\":1474:1484   */\n      dup3\n        /* \"#utility.yul\":1471:1505   */\n      gt\n        /* \"#utility.yul\":1468:1530   */\n      or\n        /* \"#utility.yul\":1465:1553   */\n      iszero\n      tag_226\n      jumpi\n        /* \"#utility.yul\":1533:1551   */\n      tag_227\n      tag_178\n      jump\t// in\n    tag_227:\n        /* \"#utility.yul\":1465:1553   */\n    tag_226:\n        /* \"#utility.yul\":1573:1583   */\n      dup1\n        /* \"#utility.yul\":1569:1571   */\n      0x40\n        /* \"#utility.yul\":1562:1584   */\n      mstore\n        /* \"#utility.yul\":1352:1590   */\n      pop\n        /* \"#utility.yul\":1309:1590   */\n      pop\n      pop\n      jump\t// out\n        /* \"#utility.yul\":1596:1725   */\n    tag_180:\n        /* \"#utility.yul\":1630:1636   */\n      0x00\n        /* \"#utility.yul\":1657:1677   */\n      tag_229\n      tag_172\n      jump\t// in\n    tag_229:\n        /* \"#utility.yul\":1647:1677   */\n      swap1\n      pop\n        /* \"#utility.yul\":1686:1719   */\n      tag_230\n        /* \"#utility.yul\":1714:1718   */\n      dup3\n        /* \"#utility.yul\":1706:1712   */\n      dup3\n        /* \"#utility.yul\":1686:1719   */\n      tag_179\n      jump\t// in\n    tag_230:\n        /* \"#utility.yul\":1596:1725   */\n      swap2\n      swap1\n      pop\n      jump\t// out\n        /* \"#utility.yul\":1731:2038   */\n    tag_181:\n        /* \"#utility.yul\":1792:1796   */\n      0x00\n        /* \"#utility.yul\":1882:1900   */\n      0xffffffffffffffff\n        /* \"#utility.yul\":1874:1880   */\n      dup3\n        /* \"#utility.yul\":1871:1901   */\n      gt\n        /* \"#utility.yul\":1868:1924   */\n      iszero\n      tag_232\n      jumpi\n        /* \"#utility.yul\":1904:1922   */\n      tag_233\n      tag_178\n      jump\t// in\n    tag_233:\n        /* \"#utility.yul\":1868:1924   */\n    tag_232:\n        /* \"#utility.yul\":1942:1971   */\n      tag_234\n        /* \"#utility.yul\":1964:1970   */\n      dup3\n        /* \"#utility.yul\":1942:1971   */\n      tag_177\n      jump\t// in\n    tag_234:\n        /* \"#utility.yul\":1934:1971   */\n      swap1\n      pop\n        /* \"#utility.yul\":2026:2030   */\n      0x20\n        /* \"#utility.yul\":2020:2024   */\n      dup2\n        /* \"#utility.yul\":2016:2031   */\n      add\n        /* \"#utility.yul\":2008:2031   */\n      swap1\n      pop\n        /* \"#utility.yul\":1731:2038   */\n      swap2\n      swap1\n      pop\n      jump\t// out\n        /* \"#utility.yul\":2044:2192   */\n    tag_182:\n        /* \"#utility.yul\":2142:2148   */\n      dup3\n        /* \"#utility.yul\":2137:2140   */\n      dup2\n        /* \"#utility.yul\":2132:2135   */\n      dup4\n        /* \"#utility.yul\":2119:2149   */\n      calldatacopy\n        /* \"#utility.yul\":2183:2184   */\n      0x00\n        /* \"#utility.yul\":2174:2180   */\n      dup4\n        /* \"#utility.yul\":2169:2172   */\n      dup4\n        /* \"#utility.yul\":2165:2181   */\n      add\n        /* \"#utility.yul\":2158:2185   */\n      mstore\n        /* \"#utility.yul\":2044:2192   */\n      pop\n      pop\n      pop\n      jump\t// out\n        /* \"#utility.yul\":2198:2621   */\n    tag_183:\n        /* \"#utility.yul\":2275:2280   */\n      0x00\n        /* \"#utility.yul\":2300:2365   */\n      tag_237\n        /* \"#utility.yul\":2316:2364   */\n      tag_238\n        /* \"#utility.yul\":2357:2363   */\n      dup5\n        /* \"#utility.yul\":2316:2364   */\n      tag_181\n      jump\t// in\n    tag_238:\n        /* \"#utility.yul\":2300:2365   */\n      tag_180\n      jump\t// in\n    tag_237:\n        /* \"#utility.yul\":2291:2365   */\n      swap1\n      pop\n        /* \"#utility.yul\":2388:2394   */\n      dup3\n        /* \"#utility.yul\":2381:2386   */\n      dup2\n        /* \"#utility.yul\":2374:2395   */\n      mstore\n        /* \"#utility.yul\":2426:2430   */\n      0x20\n        /* \"#utility.yul\":2419:2424   */\n      dup2\n        /* \"#utility.yul\":2415:2431   */\n      add\n        /* \"#utility.yul\":2464:2467   */\n      dup5\n        /* \"#utility.yul\":2455:2461   */\n      dup5\n        /* \"#utility.yul\":2450:2453   */\n      dup5\n        /* \"#utility.yul\":2446:2462   */\n      add\n        /* \"#utility.yul\":2443:2468   */\n      gt\n        /* \"#utility.yul\":2440:2552   */\n      iszero\n      tag_239\n      jumpi\n        /* \"#utility.yul\":2471:2550   */\n      tag_240\n      tag_176\n      jump\t// in\n    tag_240:\n        /* \"#utility.yul\":2440:2552   */\n    tag_239:\n        /* \"#utility.yul\":2561:2615   */\n      tag_241\n        /* \"#utility.yul\":2608:2614   */\n      dup5\n        /* \"#utility.yul\":2603:2606   */\n      dup3\n        /* \"#utility.yul\":2598:2601   */\n      dup6\n        /* \"#utility.yul\":2561:2615   */\n      tag_182\n      jump\t// in\n    tag_241:\n        /* \"#utility.yul\":2281:2621   */\n      pop\n        /* \"#utility.yul\":2198:2621   */\n      swap4\n      swap3\n      pop\n      pop\n      pop\n      jump\t// out\n        /* \"#utility.yul\":2640:2978   */\n    tag_184:\n        /* \"#utility.yul\":2695:2700   */\n      0x00\n        /* \"#utility.yul\":2744:2747   */\n      dup3\n        /* \"#utility.yul\":2737:2741   */\n      0x1f\n        /* \"#utility.yul\":2729:2735   */\n      dup4\n        /* \"#utility.yul\":2725:2742   */\n      add\n        /* \"#utility.yul\":2721:2748   */\n      slt\n        /* \"#utility.yul\":2711:2833   */\n      tag_243\n      jumpi\n        /* \"#utility.yul\":2752:2831   */\n      tag_244\n      tag_175\n      jump\t// in\n    tag_244:\n        /* \"#utility.yul\":2711:2833   */\n    tag_243:\n        /* \"#utility.yul\":2869:2875   */\n      dup2\n        /* \"#utility.yul\":2856:2876   */\n      calldataload\n        /* \"#utility.yul\":2894:2972   */\n      tag_245\n        /* \"#utility.yul\":2968:2971   */\n      dup5\n        /* \"#utility.yul\":2960:2966   */\n      dup3\n        /* \"#utility.yul\":2953:2957   */\n      0x20\n        /* \"#utility.yul\":2945:2951   */\n      dup7\n        /* \"#utility.yul\":2941:2958   */\n      add\n        /* \"#utility.yul\":2894:2972   */\n      tag_183\n      jump\t// in\n    tag_245:\n        /* \"#utility.yul\":2885:2972   */\n      swap2\n      pop\n        /* \"#utility.yul\":2701:2978   */\n      pop\n        /* \"#utility.yul\":2640:2978   */\n      swap3\n      swap2\n      pop\n      pop\n      jump\t// out\n        /* \"#utility.yul\":2984:3491   */\n    tag_22:\n        /* \"#utility.yul\":3052:3058   */\n      0x00\n        /* \"#utility.yul\":3101:3103   */\n      0x20\n        /* \"#utility.yul\":3089:3098   */\n      dup3\n        /* \"#utility.yul\":3080:3087   */\n      dup5\n        /* \"#utility.yul\":3076:3099   */\n      sub\n        /* \"#utility.yul\":3072:3104   */\n      slt\n        /* \"#utility.yul\":3069:3188   */\n      iszero\n      tag_247\n      jumpi\n        /* \"#utility.yul\":3107:3186   */\n      tag_248\n      tag_173\n      jump\t// in\n    tag_248:\n        /* \"#utility.yul\":3069:3188   */\n    tag_247:\n        /* \"#utility.yul\":3255:3256   */\n      0x00\n        /* \"#utility.yul\":3244:3253   */\n      dup3\n        /* \"#utility.yul\":3240:3257   */\n      add\n        /* \"#utility.yul\":3227:3258   */\n      calldataload\n        /* \"#utility.yul\":3285:3303   */\n      0xffffffffffffffff\n        /* \"#utility.yul\":3277:3283   */\n      dup2\n        /* \"#utility.yul\":3274:3304   */\n      gt\n        /* \"#utility.yul\":3271:3388   */\n      iszero\n      tag_249\n      jumpi\n        /* \"#utility.yul\":3307:3386   */\n      tag_250\n      tag_174\n      jump\t// in\n    tag_250:\n        /* \"#utility.yul\":3271:3388   */\n    tag_249:\n        /* \"#utility.yul\":3412:3474   */\n      tag_251\n        /* \"#utility.yul\":3466:3473   */\n      dup5\n        /* \"#utility.yul\":3457:3463   */\n      dup3\n        /* \"#utility.yul\":3446:3455   */\n      dup6\n        /* \"#utility.yul\":3442:3464   */\n      add\n        /* \"#utility.yul\":3412:3474   */\n      tag_184\n      jump\t// in\n    tag_251:\n        /* \"#utility.yul\":3402:3474   */\n      swap2\n      pop\n        /* \"#utility.yul\":3198:3484   */\n      pop\n        /* \"#utility.yul\":2984:3491   */\n      swap3\n      swap2\n      pop\n      pop\n      jump\t// out\n        /* \"#utility.yul\":3497:3587   */\n    tag_185:\n        /* \"#utility.yul\":3531:3538   */\n      0x00\n        /* \"#utility.yul\":3574:3579   */\n      dup2\n        /* \"#utility.yul\":3567:3580   */\n      iszero\n        /* \"#utility.yul\":3560:3581   */\n      iszero\n        /* \"#utility.yul\":3549:3581   */\n      swap1\n      pop\n        /* \"#utility.yul\":3497:3587   */\n      swap2\n      swap1\n      pop\n      jump\t// out\n        /* \"#utility.yul\":3593:3702   */\n    tag_186:\n        /* \"#utility.yul\":3674:3695   */\n      tag_254\n        /* \"#utility.yul\":3689:3694   */\n      dup2\n        /* \"#utility.yul\":3674:3695   */\n      tag_185\n      jump\t// in\n    tag_254:\n        /* \"#utility.yul\":3669:3672   */\n      dup3\n        /* \"#utility.yul\":3662:3696   */\n      mstore\n        /* \"#utility.yul\":3593:3702   */\n      pop\n      pop\n      jump\t// out\n        /* \"#utility.yul\":3708:3918   */\n    tag_25:\n        /* \"#utility.yul\":3795:3799   */\n      0x00\n        /* \"#utility.yul\":3833:3835   */\n      0x20\n        /* \"#utility.yul\":3822:3831   */\n      dup3\n        /* \"#utility.yul\":3818:3836   */\n      add\n        /* \"#utility.yul\":3810:3836   */\n      swap1\n      pop\n        /* \"#utility.yul\":3846:3911   */\n      tag_256\n        /* \"#utility.yul\":3908:3909   */\n      0x00\n        /* \"#utility.yul\":3897:3906   */\n      dup4\n        /* \"#utility.yul\":3893:3910   */\n      add\n        /* \"#utility.yul\":3884:3890   */\n      dup5\n        /* \"#utility.yul\":3846:3911   */\n      tag_186\n      jump\t// in\n    tag_256:\n        /* \"#utility.yul\":3708:3918   */\n      swap3\n      swap2\n      pop\n      pop\n      jump\t// out\n        /* \"#utility.yul\":3924:4050   */\n    tag_187:\n        /* \"#utility.yul\":3961:3968   */\n      0x00\n        /* \"#utility.yul\":4001:4043   */\n      0xffffffffffffffffffffffffffffffffffffffff\n        /* \"#utility.yul\":3994:3999   */\n      dup3\n        /* \"#utility.yul\":3990:4044   */\n      and\n        /* \"#utility.yul\":3979:4044   */\n      swap1\n      pop\n        /* \"#utility.yul\":3924:4050   */\n      swap2\n      swap1\n      pop\n      jump\t// out\n        /* \"#utility.yul\":4056:4152   */\n    tag_188:\n        /* \"#utility.yul\":4093:4100   */\n      0x00\n        /* \"#utility.yul\":4122:4146   */\n      tag_259\n        /* \"#utility.yul\":4140:4145   */\n      dup3\n        /* \"#utility.yul\":4122:4146   */\n      tag_187\n      jump\t// in\n    tag_259:\n        /* \"#utility.yul\":4111:4146   */\n      swap1\n      pop\n        /* \"#utility.yul\":4056:4152   */\n      swap2\n      swap1\n      pop\n      jump\t// out\n        /* \"#utility.yul\":4158:4280   */\n    tag_189:\n        /* \"#utility.yul\":4231:4255   */\n      tag_261\n        /* \"#utility.yul\":4249:4254   */\n      dup2\n        /* \"#utility.yul\":4231:4255   */\n      tag_188\n      jump\t// in\n    tag_261:\n        /* \"#utility.yul\":4224:4229   */\n      dup2\n        /* \"#utility.yul\":4221:4256   */\n      eq\n        /* \"#utility.yul\":4211:4274   */\n      tag_262\n      jumpi\n        /* \"#utility.yul\":4270:4271   */\n      0x00\n        /* \"#utility.yul\":4267:4268   */\n      0x00\n        /* \"#utility.yul\":4260:4272   */\n      revert\n        /* \"#utility.yul\":4211:4274   */\n    tag_262:\n        /* \"#utility.yul\":4158:4280   */\n      pop\n      jump\t// out\n        /* \"#utility.yul\":4286:4425   */\n    tag_190:\n        /* \"#utility.yul\":4332:4337   */\n      0x00\n        /* \"#utility.yul\":4370:4376   */\n      dup2\n        /* \"#utility.yul\":4357:4377   */\n      calldataload\n        /* \"#utility.yul\":4348:4377   */\n      swap1\n      pop\n        /* \"#utility.yul\":4386:4419   */\n      tag_264\n        /* \"#utility.yul\":4413:4418   */\n      dup2\n        /* \"#utility.yul\":4386:4419   */\n      tag_189\n      jump\t// in\n    tag_264:\n        /* \"#utility.yul\":4286:4425   */\n      swap3\n      swap2\n      pop\n      pop\n      jump\t// out\n        /* \"#utility.yul\":4431:4553   */\n    tag_191:\n        /* \"#utility.yul\":4504:4528   */\n      tag_266\n        /* \"#utility.yul\":4522:4527   */\n      dup2\n        /* \"#utility.yul\":4504:4528   */\n      tag_170\n      jump\t// in\n    tag_266:\n        /* \"#utility.yul\":4497:4502   */\n      dup2\n        /* \"#utility.yul\":4494:4529   */\n      eq\n        /* \"#utility.yul\":4484:4547   */\n      tag_267\n      jumpi\n        /* \"#utility.yul\":4543:4544   */\n      0x00\n        /* \"#utility.yul\":4540:4541   */\n      0x00\n        /* \"#utility.yul\":4533:4545   */\n      revert\n        /* \"#utility.yul\":4484:4547   */\n    tag_267:\n        /* \"#utility.yul\":4431:4553   */\n      pop\n      jump\t// out\n        /* \"#utility.yul\":4559:4698   */\n    tag_192:\n        /* \"#utility.yul\":4605:4610   */\n      0x00\n        /* \"#utility.yul\":4643:4649   */\n      dup2\n        /* \"#utility.yul\":4630:4650   */\n      calldataload\n        /* \"#utility.yul\":4621:4650   */\n      swap1\n      pop\n        /* \"#utility.yul\":4659:4692   */\n      tag_269\n        /* \"#utility.yul\":4686:4691   */\n      dup2\n        /* \"#utility.yul\":4659:4692   */\n      tag_191\n      jump\t// in\n    tag_269:\n        /* \"#utility.yul\":4559:4698   */\n      swap3\n      swap2\n      pop\n      pop\n      jump\t// out\n        /* \"#utility.yul\":4704:5907   */\n    tag_32:\n        /* \"#utility.yul\":4817:4823   */\n      0x00\n        /* \"#utility.yul\":4825:4831   */\n      0x00\n        /* \"#utility.yul\":4833:4839   */\n      0x00\n        /* \"#utility.yul\":4841:4847   */\n      0x00\n        /* \"#utility.yul\":4849:4855   */\n      0x00\n        /* \"#utility.yul\":4857:4863   */\n      0x00\n        /* \"#utility.yul\":4865:4871   */\n      0x00\n        /* \"#utility.yul\":4914:4917   */\n      0xe0\n        /* \"#utility.yul\":4902:4911   */\n      dup9\n        /* \"#utility.yul\":4893:4900   */\n      dup11\n        /* \"#utility.yul\":4889:4912   */\n      sub\n        /* \"#utility.yul\":4885:4918   */\n      slt\n        /* \"#utility.yul\":4882:5002   */\n      iszero\n      tag_271\n      jumpi\n        /* \"#utility.yul\":4921:5000   */\n      tag_272\n      tag_173\n      jump\t// in\n    tag_272:\n        /* \"#utility.yul\":4882:5002   */\n    tag_271:\n        /* \"#utility.yul\":5041:5042   */\n      0x00\n        /* \"#utility.yul\":5066:5119   */\n      tag_273\n        /* \"#utility.yul\":5111:5118   */\n      dup11\n        /* \"#utility.yul\":5102:5108   */\n      dup3\n        /* \"#utility.yul\":5091:5100   */\n      dup12\n        /* \"#utility.yul\":5087:5109   */\n      add\n        /* \"#utility.yul\":5066:5119   */\n      tag_190\n      jump\t// in\n    tag_273:\n        /* \"#utility.yul\":5056:5119   */\n      swap8\n      pop\n        /* \"#utility.yul\":5012:5129   */\n      pop\n        /* \"#utility.yul\":5168:5170   */\n      0x20\n        /* \"#utility.yul\":5194:5247   */\n      tag_274\n        /* \"#utility.yul\":5239:5246   */\n      dup11\n        /* \"#utility.yul\":5230:5236   */\n      dup3\n        /* \"#utility.yul\":5219:5228   */\n      dup12\n        /* \"#utility.yul\":5215:5237   */\n      add\n        /* \"#utility.yul\":5194:5247   */\n      tag_192\n      jump\t// in\n    tag_274:\n        /* \"#utility.yul\":5184:5247   */\n      swap7\n      pop\n        /* \"#utility.yul\":5139:5257   */\n      pop\n        /* \"#utility.yul\":5296:5298   */\n      0x40\n        /* \"#utility.yul\":5322:5375   */\n      tag_275\n        /* \"#utility.yul\":5367:5374   */\n      dup11\n        /* \"#utility.yul\":5358:5364   */\n      dup3\n        /* \"#utility.yul\":5347:5356   */\n      dup12\n        /* \"#utility.yul\":5343:5365   */\n      add\n        /* \"#utility.yul\":5322:5375   */\n      tag_192\n      jump\t// in\n    tag_275:\n        /* \"#utility.yul\":5312:5375   */\n      swap6\n      pop\n        /* \"#utility.yul\":5267:5385   */\n      pop\n        /* \"#utility.yul\":5424:5426   */\n      0x60\n        /* \"#utility.yul\":5450:5503   */\n      tag_276\n        /* \"#utility.yul\":5495:5502   */\n      dup11\n        /* \"#utility.yul\":5486:5492   */\n      dup3\n        /* \"#utility.yul\":5475:5484   */\n      dup12\n        /* \"#utility.yul\":5471:5493   */\n      add\n        /* \"#utility.yul\":5450:5503   */\n      tag_192\n      jump\t// in\n    tag_276:\n        /* \"#utility.yul\":5440:5503   */\n      swap5\n      pop\n        /* \"#utility.yul\":5395:5513   */\n      pop\n        /* \"#utility.yul\":5552:5555   */\n      0x80\n        /* \"#utility.yul\":5579:5632   */\n      tag_277\n        /* \"#utility.yul\":5624:5631   */\n      dup11\n        /* \"#utility.yul\":5615:5621   */\n      dup3\n        /* \"#utility.yul\":5604:5613   */\n      dup12\n        /* \"#utility.yul\":5600:5622   */\n      add\n        /* \"#utility.yul\":5579:5632   */\n      tag_192\n      jump\t// in\n    tag_277:\n        /* \"#utility.yul\":5569:5632   */\n      swap4\n      pop\n        /* \"#utility.yul\":5523:5642   */\n      pop\n        /* \"#utility.yul\":5681:5684   */\n      0xa0\n        /* \"#utility.yul\":5708:5761   */\n      tag_278\n        /* \"#utility.yul\":5753:5760   */\n      dup11\n        /* \"#utility.yul\":5744:5750   */\n      dup3\n        /* \"#utility.yul\":5733:5742   */\n      dup12\n        /* \"#utility.yul\":5729:5751   */\n      add\n        /* \"#utility.yul\":5708:5761   */\n      tag_192\n      jump\t// in\n    tag_278:\n        /* \"#utility.yul\":5698:5761   */\n      swap3\n      pop\n        /* \"#utility.yul\":5652:5771   */\n      pop\n        /* \"#utility.yul\":5810:5813   */\n      0xc0\n        /* \"#utility.yul\":5837:5890   */\n      tag_279\n        /* \"#utility.yul\":5882:5889   */\n      dup11\n        /* \"#utility.yul\":5873:5879   */\n      dup3\n        /* \"#utility.yul\":5862:5871   */\n      dup12\n        /* \"#utility.yul\":5858:5880   */\n      add\n        /* \"#utility.yul\":5837:5890   */\n      tag_192\n      jump\t// in\n    tag_279:\n        /* \"#utility.yul\":5827:5890   */\n      swap2\n      pop\n        /* \"#utility.yul\":5781:5900   */\n      pop\n        /* \"#utility.yul\":4704:5907   */\n      swap3\n      swap6\n      swap9\n      swap2\n      swap5\n      swap8\n      pop\n      swap3\n      swap6\n      pop\n      jump\t// out\n        /* \"#utility.yul\":5913:6242   */\n    tag_36:\n        /* \"#utility.yul\":5972:5978   */\n      0x00\n        /* \"#utility.yul\":6021:6023   */\n      0x20\n        /* \"#utility.yul\":6009:6018   */\n      dup3\n        /* \"#utility.yul\":6000:6007   */\n      dup5\n        /* \"#utility.yul\":5996:6019   */\n      sub\n        /* \"#utility.yul\":5992:6024   */\n      slt\n        /* \"#utility.yul\":5989:6108   */\n      iszero\n      tag_281\n      jumpi\n        /* \"#utility.yul\":6027:6106   */\n      tag_282\n      tag_173\n      jump\t// in\n    tag_282:\n        /* \"#utility.yul\":5989:6108   */\n    tag_281:\n        /* \"#utility.yul\":6147:6148   */\n      0x00\n        /* \"#utility.yul\":6172:6225   */\n      tag_283\n        /* \"#utility.yul\":6217:6224   */\n      dup5\n        /* \"#utility.yul\":6208:6214   */\n      dup3\n        /* \"#utility.yul\":6197:6206   */\n      dup6\n        /* \"#utility.yul\":6193:6215   */\n      add\n        /* \"#utility.yul\":6172:6225   */\n      tag_190\n      jump\t// in\n    tag_283:\n        /* \"#utility.yul\":6162:6225   */\n      swap2\n      pop\n        /* \"#utility.yul\":6118:6235   */\n      pop\n        /* \"#utility.yul\":5913:6242   */\n      swap3\n      swap2\n      pop\n      pop\n      jump\t// out\n        /* \"#utility.yul\":6248:6366   */\n    tag_193:\n        /* \"#utility.yul\":6335:6359   */\n      tag_285\n        /* \"#utility.yul\":6353:6358   */\n      dup2\n        /* \"#utility.yul\":6335:6359   */\n      tag_188\n      jump\t// in\n    tag_285:\n        /* \"#utility.yul\":6330:6333   */\n      dup3\n        /* \"#utility.yul\":6323:6360   */\n      mstore\n        /* \"#utility.yul\":6248:6366   */\n      pop\n      pop\n      jump\t// out\n        /* \"#utility.yul\":6372:6594   */\n    tag_42:\n        /* \"#utility.yul\":6465:6469   */\n      0x00\n        /* \"#utility.yul\":6503:6505   */\n      0x20\n        /* \"#utility.yul\":6492:6501   */\n      dup3\n        /* \"#utility.yul\":6488:6506   */\n      add\n        /* \"#utility.yul\":6480:6506   */\n      swap1\n      pop\n        /* \"#utility.yul\":6516:6587   */\n      tag_287\n        /* \"#utility.yul\":6584:6585   */\n      0x00\n        /* \"#utility.yul\":6573:6582   */\n      dup4\n        /* \"#utility.yul\":6569:6586   */\n      add\n        /* \"#utility.yul\":6560:6566   */\n      dup5\n        /* \"#utility.yul\":6516:6587   */\n      tag_193\n      jump\t// in\n    tag_287:\n        /* \"#utility.yul\":6372:6594   */\n      swap3\n      swap2\n      pop\n      pop\n      jump\t// out\n        /* \"#utility.yul\":6600:7074   */\n    tag_45:\n        /* \"#utility.yul\":6668:6674   */\n      0x00\n        /* \"#utility.yul\":6676:6682   */\n      0x00\n        /* \"#utility.yul\":6725:6727   */\n      0x40\n        /* \"#utility.yul\":6713:6722   */\n      dup4\n        /* \"#utility.yul\":6704:6711   */\n      dup6\n        /* \"#utility.yul\":6700:6723   */\n      sub\n        /* \"#utility.yul\":6696:6728   */\n      slt\n        /* \"#utility.yul\":6693:6812   */\n      iszero\n      tag_289\n      jumpi\n        /* \"#utility.yul\":6731:6810   */\n      tag_290\n      tag_173\n      jump\t// in\n    tag_290:\n        /* \"#utility.yul\":6693:6812   */\n    tag_289:\n        /* \"#utility.yul\":6851:6852   */\n      0x00\n        /* \"#utility.yul\":6876:6929   */\n      tag_291\n        /* \"#utility.yul\":6921:6928   */\n      dup6\n        /* \"#utility.yul\":6912:6918   */\n      dup3\n        /* \"#utility.yul\":6901:6910   */\n      dup7\n        /* \"#utility.yul\":6897:6919   */\n      add\n        /* \"#utility.yul\":6876:6929   */\n      tag_190\n      jump\t// in\n    tag_291:\n        /* \"#utility.yul\":6866:6929   */\n      swap3\n      pop\n        /* \"#utility.yul\":6822:6939   */\n      pop\n        /* \"#utility.yul\":6978:6980   */\n      0x20\n        /* \"#utility.yul\":7004:7057   */\n      tag_292\n        /* \"#utility.yul\":7049:7056   */\n      dup6\n        /* \"#utility.yul\":7040:7046   */\n      dup3\n        /* \"#utility.yul\":7029:7038   */\n      dup7\n        /* \"#utility.yul\":7025:7047   */\n      add\n        /* \"#utility.yul\":7004:7057   */\n      tag_190\n      jump\t// in\n    tag_292:\n        /* \"#utility.yul\":6994:7057   */\n      swap2\n      pop\n        /* \"#utility.yul\":6949:7067   */\n      pop\n        /* \"#utility.yul\":6600:7074   */\n      swap3\n      pop\n      swap3\n      swap1\n      pop\n      jump\t// out\n        /* \"#utility.yul\":7080:7178   */\n    tag_194:\n        /* \"#utility.yul\":7131:7137   */\n      0x00\n        /* \"#utility.yul\":7165:7170   */\n      dup2\n        /* \"#utility.yul\":7159:7171   */\n      mload\n        /* \"#utility.yul\":7149:7171   */\n      swap1\n      pop\n        /* \"#utility.yul\":7080:7178   */\n      swap2\n      swap1\n      pop\n      jump\t// out\n        /* \"#utility.yul\":7184:7352   */\n    tag_195:\n        /* \"#utility.yul\":7267:7278   */\n      0x00\n        /* \"#utility.yul\":7301:7307   */\n      dup3\n        /* \"#utility.yul\":7296:7299   */\n      dup3\n        /* \"#utility.yul\":7289:7308   */\n      mstore\n        /* \"#utility.yul\":7341:7345   */\n      0x20\n        /* \"#utility.yul\":7336:7339   */\n      dup3\n        /* \"#utility.yul\":7332:7346   */\n      add\n        /* \"#utility.yul\":7317:7346   */\n      swap1\n      pop\n        /* \"#utility.yul\":7184:7352   */\n      swap3\n      swap2\n      pop\n      pop\n      jump\t// out\n        /* \"#utility.yul\":7358:7497   */\n    tag_196:\n        /* \"#utility.yul\":7447:7453   */\n      dup3\n        /* \"#utility.yul\":7442:7445   */\n      dup2\n        /* \"#utility.yul\":7437:7440   */\n      dup4\n        /* \"#utility.yul\":7431:7454   */\n      mcopy\n        /* \"#utility.yul\":7488:7489   */\n      0x00\n        /* \"#utility.yul\":7479:7485   */\n      dup4\n        /* \"#utility.yul\":7474:7477   */\n      dup4\n        /* \"#utility.yul\":7470:7486   */\n      add\n        /* \"#utility.yul\":7463:7490   */\n      mstore\n        /* \"#utility.yul\":7358:7497   */\n      pop\n      pop\n      pop\n      jump\t// out\n        /* \"#utility.yul\":7503:7876   */\n    tag_197:\n        /* \"#utility.yul\":7589:7592   */\n      0x00\n        /* \"#utility.yul\":7617:7655   */\n      tag_297\n        /* \"#utility.yul\":7649:7654   */\n      dup3\n        /* \"#utility.yul\":7617:7655   */\n      tag_194\n      jump\t// in\n    tag_297:\n        /* \"#utility.yul\":7671:7741   */\n      tag_298\n        /* \"#utility.yul\":7734:7740   */\n      dup2\n        /* \"#utility.yul\":7729:7732   */\n      dup6\n        /* \"#utility.yul\":7671:7741   */\n      tag_195\n      jump\t// in\n    tag_298:\n        /* \"#utility.yul\":7664:7741   */\n      swap4\n      pop\n        /* \"#utility.yul\":7750:7815   */\n      tag_299\n        /* \"#utility.yul\":7808:7814   */\n      dup2\n        /* \"#utility.yul\":7803:7806   */\n      dup6\n        /* \"#utility.yul\":7796:7800   */\n      0x20\n        /* \"#utility.yul\":7789:7794   */\n      dup7\n        /* \"#utility.yul\":7785:7801   */\n      add\n        /* \"#utility.yul\":7750:7815   */\n      tag_196\n      jump\t// in\n    tag_299:\n        /* \"#utility.yul\":7840:7869   */\n      tag_300\n        /* \"#utility.yul\":7862:7868   */\n      dup2\n        /* \"#utility.yul\":7840:7869   */\n      tag_177\n      jump\t// in\n    tag_300:\n        /* \"#utility.yul\":7835:7838   */\n      dup5\n        /* \"#utility.yul\":7831:7870   */\n      add\n        /* \"#utility.yul\":7824:7870   */\n      swap2\n      pop\n        /* \"#utility.yul\":7593:7876   */\n      pop\n        /* \"#utility.yul\":7503:7876   */\n      swap3\n      swap2\n      pop\n      pop\n      jump\t// out\n        /* \"#utility.yul\":7882:8191   */\n    tag_48:\n        /* \"#utility.yul\":7993:7997   */\n      0x00\n        /* \"#utility.yul\":8031:8033   */\n      0x20\n        /* \"#utility.yul\":8020:8029   */\n      dup3\n        /* \"#utility.yul\":8016:8034   */\n      add\n        /* \"#utility.yul\":8008:8034   */\n      swap1\n      pop\n        /* \"#utility.yul\":8080:8089   */\n      dup2\n        /* \"#utility.yul\":8074:8078   */\n      dup2\n        /* \"#utility.yul\":8070:8090   */\n      sub\n        /* \"#utility.yul\":8066:8067   */\n      0x00\n        /* \"#utility.yul\":8055:8064   */\n      dup4\n        /* \"#utility.yul\":8051:8068   */\n      add\n        /* \"#utility.yul\":8044:8091   */\n      mstore\n        /* \"#utility.yul\":8108:8184   */\n      tag_302\n        /* \"#utility.yul\":8179:8183   */\n      dup2\n        /* \"#utility.yul\":8170:8176   */\n      dup5\n        /* \"#utility.yul\":8108:8184   */\n      tag_197\n      jump\t// in\n    tag_302:\n        /* \"#utility.yul\":8100:8184   */\n      swap1\n      pop\n        /* \"#utility.yul\":7882:8191   */\n      swap3\n      swap2\n      pop\n      pop\n      jump\t// out\n        /* \"#utility.yul\":8197:9194   */\n    tag_56:\n        /* \"#utility.yul\":8486:8490   */\n      0x00\n        /* \"#utility.yul\":8524:8527   */\n      0x0100\n        /* \"#utility.yul\":8513:8522   */\n      dup3\n        /* \"#utility.yul\":8509:8528   */\n      add\n        /* \"#utility.yul\":8501:8528   */\n      swap1\n      pop\n        /* \"#utility.yul\":8538:8609   */\n      tag_304\n        /* \"#utility.yul\":8606:8607   */\n      0x00\n        /* \"#utility.yul\":8595:8604   */\n      dup4\n        /* \"#utility.yul\":8591:8608   */\n      add\n        /* \"#utility.yul\":8582:8588   */\n      dup12\n        /* \"#utility.yul\":8538:8609   */\n      tag_171\n      jump\t// in\n    tag_304:\n        /* \"#utility.yul\":8619:8691   */\n      tag_305\n        /* \"#utility.yul\":8687:8689   */\n      0x20\n        /* \"#utility.yul\":8676:8685   */\n      dup4\n        /* \"#utility.yul\":8672:8690   */\n      add\n        /* \"#utility.yul\":8663:8669   */\n      dup11\n        /* \"#utility.yul\":8619:8691   */\n      tag_171\n      jump\t// in\n    tag_305:\n        /* \"#utility.yul\":8701:8773   */\n      tag_306\n        /* \"#utility.yul\":8769:8771   */\n      0x40\n        /* \"#utility.yul\":8758:8767   */\n      dup4\n        /* \"#utility.yul\":8754:8772   */\n      add\n        /* \"#utility.yul\":8745:8751   */\n      dup10\n        /* \"#utility.yul\":8701:8773   */\n      tag_171\n      jump\t// in\n    tag_306:\n        /* \"#utility.yul\":8783:8855   */\n      tag_307\n        /* \"#utility.yul\":8851:8853   */\n      0x60\n        /* \"#utility.yul\":8840:8849   */\n      dup4\n        /* \"#utility.yul\":8836:8854   */\n      add\n        /* \"#utility.yul\":8827:8833   */\n      dup9\n        /* \"#utility.yul\":8783:8855   */\n      tag_171\n      jump\t// in\n    tag_307:\n        /* \"#utility.yul\":8865:8938   */\n      tag_308\n        /* \"#utility.yul\":8933:8936   */\n      0x80\n        /* \"#utility.yul\":8922:8931   */\n      dup4\n        /* \"#utility.yul\":8918:8937   */\n      add\n        /* \"#utility.yul\":8909:8915   */\n      dup8\n        /* \"#utility.yul\":8865:8938   */\n      tag_171\n      jump\t// in\n    tag_308:\n        /* \"#utility.yul\":8948:9021   */\n      tag_309\n        /* \"#utility.yul\":9016:9019   */\n      0xa0\n        /* \"#utility.yul\":9005:9014   */\n      dup4\n        /* \"#utility.yul\":9001:9020   */\n      add\n        /* \"#utility.yul\":8992:8998   */\n      dup7\n        /* \"#utility.yul\":8948:9021   */\n      tag_171\n      jump\t// in\n    tag_309:\n        /* \"#utility.yul\":9031:9104   */\n      tag_310\n        /* \"#utility.yul\":9099:9102   */\n      0xc0\n        /* \"#utility.yul\":9088:9097   */\n      dup4\n        /* \"#utility.yul\":9084:9103   */\n      add\n        /* \"#utility.yul\":9075:9081   */\n      dup6\n        /* \"#utility.yul\":9031:9104   */\n      tag_171\n      jump\t// in\n    tag_310:\n        /* \"#utility.yul\":9114:9187   */\n      tag_311\n        /* \"#utility.yul\":9182:9185   */\n      0xe0\n        /* \"#utility.yul\":9171:9180   */\n      dup4\n        /* \"#utility.yul\":9167:9186   */\n      add\n        /* \"#utility.yul\":9158:9164   */\n      dup5\n        /* \"#utility.yul\":9114:9187   */\n      tag_171\n      jump\t// in\n    tag_311:\n        /* \"#utility.yul\":8197:9194   */\n      swap10\n      swap9\n      pop\n      pop\n      pop\n      pop\n      pop\n      pop\n      pop\n      pop\n      pop\n      jump\t// out\n        /* \"#utility.yul\":9200:9260   */\n    tag_198:\n        /* \"#utility.yul\":9228:9231   */\n      0x00\n        /* \"#utility.yul\":9249:9254   */\n      dup2\n        /* \"#utility.yul\":9242:9254   */\n      swap1\n      pop\n        /* \"#utility.yul\":9200:9260   */\n      swap2\n      swap1\n      pop\n      jump\t// out\n        /* \"#utility.yul\":9266:9408   */\n    tag_199:\n        /* \"#utility.yul\":9316:9325   */\n      0x00\n        /* \"#utility.yul\":9349:9402   */\n      tag_314\n        /* \"#utility.yul\":9367:9401   */\n      tag_315\n        /* \"#utility.yul\":9376:9400   */\n      tag_316\n        /* \"#utility.yul\":9394:9399   */\n      dup5\n        /* \"#utility.yul\":9376:9400   */\n      tag_187\n      jump\t// in\n    tag_316:\n        /* \"#utility.yul\":9367:9401   */\n      tag_198\n      jump\t// in\n    tag_315:\n        /* \"#utility.yul\":9349:9402   */\n      tag_187\n      jump\t// in\n    tag_314:\n        /* \"#utility.yul\":9336:9402   */\n      swap1\n      pop\n        /* \"#utility.yul\":9266:9408   */\n      swap2\n      swap1\n      pop\n      jump\t// out\n        /* \"#utility.yul\":9414:9540   */\n    tag_200:\n        /* \"#utility.yul\":9464:9473   */\n      0x00\n        /* \"#utility.yul\":9497:9534   */\n      tag_318\n        /* \"#utility.yul\":9528:9533   */\n      dup3\n        /* \"#utility.yul\":9497:9534   */\n      tag_199\n      jump\t// in\n    tag_318:\n        /* \"#utility.yul\":9484:9534   */\n      swap1\n      pop\n        /* \"#utility.yul\":9414:9540   */\n      swap2\n      swap1\n      pop\n      jump\t// out\n        /* \"#utility.yul\":9546:9686   */\n    tag_201:\n        /* \"#utility.yul\":9610:9619   */\n      0x00\n        /* \"#utility.yul\":9643:9680   */\n      tag_320\n        /* \"#utility.yul\":9674:9679   */\n      dup3\n        /* \"#utility.yul\":9643:9680   */\n      tag_200\n      jump\t// in\n    tag_320:\n        /* \"#utility.yul\":9630:9680   */\n      swap1\n      pop\n        /* \"#utility.yul\":9546:9686   */\n      swap2\n      swap1\n      pop\n      jump\t// out\n        /* \"#utility.yul\":9692:9851   */\n    tag_202:\n        /* \"#utility.yul\":9793:9844   */\n      tag_322\n        /* \"#utility.yul\":9838:9843   */\n      dup2\n        /* \"#utility.yul\":9793:9844   */\n      tag_201\n      jump\t// in\n    tag_322:\n        /* \"#utility.yul\":9788:9791   */\n      dup3\n        /* \"#utility.yul\":9781:9845   */\n      mstore\n        /* \"#utility.yul\":9692:9851   */\n      pop\n      pop\n      jump\t// out\n        /* \"#utility.yul\":9857:10107   */\n    tag_63:\n        /* \"#utility.yul\":9964:9968   */\n      0x00\n        /* \"#utility.yul\":10002:10004   */\n      0x20\n        /* \"#utility.yul\":9991:10000   */\n      dup3\n        /* \"#utility.yul\":9987:10005   */\n      add\n        /* \"#utility.yul\":9979:10005   */\n      swap1\n      pop\n        /* \"#utility.yul\":10015:10100   */\n      tag_324\n        /* \"#utility.yul\":10097:10098   */\n      0x00\n        /* \"#utility.yul\":10086:10095   */\n      dup4\n        /* \"#utility.yul\":10082:10099   */\n      add\n        /* \"#utility.yul\":10073:10079   */\n      dup5\n        /* \"#utility.yul\":10015:10100   */\n      tag_202\n      jump\t// in\n    tag_324:\n        /* \"#utility.yul\":9857:10107   */\n      swap3\n      swap2\n      pop\n      pop\n      jump\t// out\n        /* \"#utility.yul\":10113:10217   */\n    tag_203:\n        /* \"#utility.yul\":10158:10165   */\n      0x00\n        /* \"#utility.yul\":10187:10211   */\n      tag_326\n        /* \"#utility.yul\":10205:10210   */\n      dup3\n        /* \"#utility.yul\":10187:10211   */\n      tag_187\n      jump\t// in\n    tag_326:\n        /* \"#utility.yul\":10176:10211   */\n      swap1\n      pop\n        /* \"#utility.yul\":10113:10217   */\n      swap2\n      swap1\n      pop\n      jump\t// out\n        /* \"#utility.yul\":10223:10361   */\n    tag_204:\n        /* \"#utility.yul\":10304:10336   */\n      tag_328\n        /* \"#utility.yul\":10330:10335   */\n      dup2\n        /* \"#utility.yul\":10304:10336   */\n      tag_203\n      jump\t// in\n    tag_328:\n        /* \"#utility.yul\":10297:10302   */\n      dup2\n        /* \"#utility.yul\":10294:10337   */\n      eq\n        /* \"#utility.yul\":10284:10355   */\n      tag_329\n      jumpi\n        /* \"#utility.yul\":10351:10352   */\n      0x00\n        /* \"#utility.yul\":10348:10349   */\n      0x00\n        /* \"#utility.yul\":10341:10353   */\n      revert\n        /* \"#utility.yul\":10284:10355   */\n    tag_329:\n        /* \"#utility.yul\":10223:10361   */\n      pop\n      jump\t// out\n        /* \"#utility.yul\":10367:10526   */\n    tag_205:\n        /* \"#utility.yul\":10432:10437   */\n      0x00\n        /* \"#utility.yul\":10463:10469   */\n      dup2\n        /* \"#utility.yul\":10457:10470   */\n      mload\n        /* \"#utility.yul\":10448:10470   */\n      swap1\n      pop\n        /* \"#utility.yul\":10479:10520   */\n      tag_331\n        /* \"#utility.yul\":10514:10519   */\n      dup2\n        /* \"#utility.yul\":10479:10520   */\n      tag_204\n      jump\t// in\n    tag_331:\n        /* \"#utility.yul\":10367:10526   */\n      swap3\n      swap2\n      pop\n      pop\n      jump\t// out\n        /* \"#utility.yul\":10532:11071   */\n    tag_68:\n        /* \"#utility.yul\":10627:10633   */\n      0x00\n        /* \"#utility.yul\":10635:10641   */\n      0x00\n        /* \"#utility.yul\":10684:10686   */\n      0x40\n        /* \"#utility.yul\":10672:10681   */\n      dup4\n        /* \"#utility.yul\":10663:10670   */\n      dup6\n        /* \"#utility.yul\":10659:10682   */\n      sub\n        /* \"#utility.yul\":10655:10687   */\n      slt\n        /* \"#utility.yul\":10652:10771   */\n      iszero\n      tag_333\n      jumpi\n        /* \"#utility.yul\":10690:10769   */\n      tag_334\n      tag_173\n      jump\t// in\n    tag_334:\n        /* \"#utility.yul\":10652:10771   */\n    tag_333:\n        /* \"#utility.yul\":10810:10811   */\n      0x00\n        /* \"#utility.yul\":10835:10907   */\n      tag_335\n        /* \"#utility.yul\":10899:10906   */\n      dup6\n        /* \"#utility.yul\":10890:10896   */\n      dup3\n        /* \"#utility.yul\":10879:10888   */\n      dup7\n        /* \"#utility.yul\":10875:10897   */\n      add\n        /* \"#utility.yul\":10835:10907   */\n      tag_205\n      jump\t// in\n    tag_335:\n        /* \"#utility.yul\":10825:10907   */\n      swap3\n      pop\n        /* \"#utility.yul\":10781:10917   */\n      pop\n        /* \"#utility.yul\":10956:10958   */\n      0x20\n        /* \"#utility.yul\":10982:11054   */\n      tag_336\n        /* \"#utility.yul\":11046:11053   */\n      dup6\n        /* \"#utility.yul\":11037:11043   */\n      dup3\n        /* \"#utility.yul\":11026:11035   */\n      dup7\n        /* \"#utility.yul\":11022:11044   */\n      add\n        /* \"#utility.yul\":10982:11054   */\n      tag_205\n      jump\t// in\n    tag_336:\n        /* \"#utility.yul\":10972:11054   */\n      swap2\n      pop\n        /* \"#utility.yul\":10927:11064   */\n      pop\n        /* \"#utility.yul\":10532:11071   */\n      swap3\n      pop\n      swap3\n      swap1\n      pop\n      jump\t// out\n        /* \"#utility.yul\":11077:11257   */\n    tag_206:\n        /* \"#utility.yul\":11125:11202   */\n      0x4e487b7100000000000000000000000000000000000000000000000000000000\n        /* \"#utility.yul\":11122:11123   */\n      0x00\n        /* \"#utility.yul\":11115:11203   */\n      mstore\n        /* \"#utility.yul\":11222:11226   */\n      0x11\n        /* \"#utility.yul\":11219:11220   */\n      0x04\n        /* \"#utility.yul\":11212:11227   */\n      mstore\n        /* \"#utility.yul\":11246:11250   */\n      0x24\n        /* \"#utility.yul\":11243:11244   */\n      0x00\n        /* \"#utility.yul\":11236:11251   */\n      revert\n        /* \"#utility.yul\":11263:11454   */\n    tag_73:\n        /* \"#utility.yul\":11303:11306   */\n      0x00\n        /* \"#utility.yul\":11322:11342   */\n      tag_339\n        /* \"#utility.yul\":11340:11341   */\n      dup3\n        /* \"#utility.yul\":11322:11342   */\n      tag_170\n      jump\t// in\n    tag_339:\n        /* \"#utility.yul\":11317:11342   */\n      swap2\n      pop\n        /* \"#utility.yul\":11356:11376   */\n      tag_340\n        /* \"#utility.yul\":11374:11375   */\n      dup4\n        /* \"#utility.yul\":11356:11376   */\n      tag_170\n      jump\t// in\n    tag_340:\n        /* \"#utility.yul\":11351:11376   */\n      swap3\n      pop\n        /* \"#utility.yul\":11399:11400   */\n      dup3\n        /* \"#utility.yul\":11396:11397   */\n      dup3\n        /* \"#utility.yul\":11392:11401   */\n      add\n        /* \"#utility.yul\":11385:11401   */\n      swap1\n      pop\n        /* \"#utility.yul\":11420:11423   */\n      dup1\n        /* \"#utility.yul\":11417:11418   */\n      dup3\n        /* \"#utility.yul\":11414:11424   */\n      gt\n        /* \"#utility.yul\":11411:11447   */\n      iszero\n      tag_341\n      jumpi\n        /* \"#utility.yul\":11427:11445   */\n      tag_342\n      tag_206\n      jump\t// in\n    tag_342:\n        /* \"#utility.yul\":11411:11447   */\n    tag_341:\n        /* \"#utility.yul\":11263:11454   */\n      swap3\n      swap2\n      pop\n      pop\n      jump\t// out\n        /* \"#utility.yul\":11460:11654   */\n    tag_84:\n        /* \"#utility.yul\":11500:11504   */\n      0x00\n        /* \"#utility.yul\":11520:11540   */\n      tag_344\n        /* \"#utility.yul\":11538:11539   */\n      dup3\n        /* \"#utility.yul\":11520:11540   */\n      tag_170\n      jump\t// in\n    tag_344:\n        /* \"#utility.yul\":11515:11540   */\n      swap2\n      pop\n        /* \"#utility.yul\":11554:11574   */\n      tag_345\n        /* \"#utility.yul\":11572:11573   */\n      dup4\n        /* \"#utility.yul\":11554:11574   */\n      tag_170\n      jump\t// in\n    tag_345:\n        /* \"#utility.yul\":11549:11574   */\n      swap3\n      pop\n        /* \"#utility.yul\":11598:11599   */\n      dup3\n        /* \"#utility.yul\":11595:11596   */\n      dup3\n        /* \"#utility.yul\":11591:11600   */\n      sub\n        /* \"#utility.yul\":11583:11600   */\n      swap1\n      pop\n        /* \"#utility.yul\":11622:11623   */\n      dup2\n        /* \"#utility.yul\":11616:11620   */\n      dup2\n        /* \"#utility.yul\":11613:11624   */\n      gt\n        /* \"#utility.yul\":11610:11647   */\n      iszero\n      tag_346\n      jumpi\n        /* \"#utility.yul\":11627:11645   */\n      tag_347\n      tag_206\n      jump\t// in\n    tag_347:\n        /* \"#utility.yul\":11610:11647   */\n    tag_346:\n        /* \"#utility.yul\":11460:11654   */\n      swap3\n      swap2\n      pop\n      pop\n      jump\t// out\n        /* \"#utility.yul\":11660:11992   */\n    tag_86:\n        /* \"#utility.yul\":11781:11785   */\n      0x00\n        /* \"#utility.yul\":11819:11821   */\n      0x40\n        /* \"#utility.yul\":11808:11817   */\n      dup3\n        /* \"#utility.yul\":11804:11822   */\n      add\n        /* \"#utility.yul\":11796:11822   */\n      swap1\n      pop\n        /* \"#utility.yul\":11832:11903   */\n      tag_349\n        /* \"#utility.yul\":11900:11901   */\n      0x00\n        /* \"#utility.yul\":11889:11898   */\n      dup4\n        /* \"#utility.yul\":11885:11902   */\n      add\n        /* \"#utility.yul\":11876:11882   */\n      dup6\n        /* \"#utility.yul\":11832:11903   */\n      tag_193\n      jump\t// in\n    tag_349:\n        /* \"#utility.yul\":11913:11985   */\n      tag_350\n        /* \"#utility.yul\":11981:11983   */\n      0x20\n        /* \"#utility.yul\":11970:11979   */\n      dup4\n        /* \"#utility.yul\":11966:11984   */\n      add\n        /* \"#utility.yul\":11957:11963   */\n      dup5\n        /* \"#utility.yul\":11913:11985   */\n      tag_171\n      jump\t// in\n    tag_350:\n        /* \"#utility.yul\":11660:11992   */\n      swap4\n      swap3\n      pop\n      pop\n      pop\n      jump\t// out\n        /* \"#utility.yul\":11998:12114   */\n    tag_207:\n        /* \"#utility.yul\":12068:12089   */\n      tag_352\n        /* \"#utility.yul\":12083:12088   */\n      dup2\n        /* \"#utility.yul\":12068:12089   */\n      tag_185\n      jump\t// in\n    tag_352:\n        /* \"#utility.yul\":12061:12066   */\n      dup2\n        /* \"#utility.yul\":12058:12090   */\n      eq\n        /* \"#utility.yul\":12048:12108   */\n      tag_353\n      jumpi\n        /* \"#utility.yul\":12104:12105   */\n      0x00\n        /* \"#utility.yul\":12101:12102   */\n      0x00\n        /* \"#utility.yul\":12094:12106   */\n      revert\n        /* \"#utility.yul\":12048:12108   */\n    tag_353:\n        /* \"#utility.yul\":11998:12114   */\n      pop\n      jump\t// out\n        /* \"#utility.yul\":12120:12257   */\n    tag_208:\n        /* \"#utility.yul\":12174:12179   */\n      0x00\n        /* \"#utility.yul\":12205:12211   */\n      dup2\n        /* \"#utility.yul\":12199:12212   */\n      mload\n        /* \"#utility.yul\":12190:12212   */\n      swap1\n      pop\n        /* \"#utility.yul\":12221:12251   */\n      tag_355\n        /* \"#utility.yul\":12245:12250   */\n      dup2\n        /* \"#utility.yul\":12221:12251   */\n      tag_207\n      jump\t// in\n    tag_355:\n        /* \"#utility.yul\":12120:12257   */\n      swap3\n      swap2\n      pop\n      pop\n      jump\t// out\n        /* \"#utility.yul\":12263:12608   */\n    tag_90:\n        /* \"#utility.yul\":12330:12336   */\n      0x00\n        /* \"#utility.yul\":12379:12381   */\n      0x20\n        /* \"#utility.yul\":12367:12376   */\n      dup3\n        /* \"#utility.yul\":12358:12365   */\n      dup5\n        /* \"#utility.yul\":12354:12377   */\n      sub\n        /* \"#utility.yul\":12350:12382   */\n      slt\n        /* \"#utility.yul\":12347:12466   */\n      iszero\n      tag_357\n      jumpi\n        /* \"#utility.yul\":12385:12464   */\n      tag_358\n      tag_173\n      jump\t// in\n    tag_358:\n        /* \"#utility.yul\":12347:12466   */\n    tag_357:\n        /* \"#utility.yul\":12505:12506   */\n      0x00\n        /* \"#utility.yul\":12530:12591   */\n      tag_359\n        /* \"#utility.yul\":12583:12590   */\n      dup5\n        /* \"#utility.yul\":12574:12580   */\n      dup3\n        /* \"#utility.yul\":12563:12572   */\n      dup6\n        /* \"#utility.yul\":12559:12581   */\n      add\n        /* \"#utility.yul\":12530:12591   */\n      tag_208\n      jump\t// in\n    tag_359:\n        /* \"#utility.yul\":12520:12591   */\n      swap2\n      pop\n        /* \"#utility.yul\":12476:12601   */\n      pop\n        /* \"#utility.yul\":12263:12608   */\n      swap3\n      swap2\n      pop\n      pop\n      jump\t// out\n        /* \"#utility.yul\":12614:13056   */\n    tag_93:\n        /* \"#utility.yul\":12763:12767   */\n      0x00\n        /* \"#utility.yul\":12801:12803   */\n      0x60\n        /* \"#utility.yul\":12790:12799   */\n      dup3\n        /* \"#utility.yul\":12786:12804   */\n      add\n        /* \"#utility.yul\":12778:12804   */\n      swap1\n      pop\n        /* \"#utility.yul\":12814:12885   */\n      tag_361\n        /* \"#utility.yul\":12882:12883   */\n      0x00\n        /* \"#utility.yul\":12871:12880   */\n      dup4\n        /* \"#utility.yul\":12867:12884   */\n      add\n        /* \"#utility.yul\":12858:12864   */\n      dup7\n        /* \"#utility.yul\":12814:12885   */\n      tag_193\n      jump\t// in\n    tag_361:\n        /* \"#utility.yul\":12895:12967   */\n      tag_362\n        /* \"#utility.yul\":12963:12965   */\n      0x20\n        /* \"#utility.yul\":12952:12961   */\n      dup4\n        /* \"#utility.yul\":12948:12966   */\n      add\n        /* \"#utility.yul\":12939:12945   */\n      dup6\n        /* \"#utility.yul\":12895:12967   */\n      tag_171\n      jump\t// in\n    tag_362:\n        /* \"#utility.yul\":12977:13049   */\n      tag_363\n        /* \"#utility.yul\":13045:13047   */\n      0x40\n        /* \"#utility.yul\":13034:13043   */\n      dup4\n        /* \"#utility.yul\":13030:13048   */\n      add\n        /* \"#utility.yul\":13021:13027   */\n      dup5\n        /* \"#utility.yul\":12977:13049   */\n      tag_171\n      jump\t// in\n    tag_363:\n        /* \"#utility.yul\":12614:13056   */\n      swap5\n      swap4\n      pop\n      pop\n      pop\n      pop\n      jump\t// out\n        /* \"#utility.yul\":13062:13205   */\n    tag_209:\n        /* \"#utility.yul\":13119:13124   */\n      0x00\n        /* \"#utility.yul\":13150:13156   */\n      dup2\n        /* \"#utility.yul\":13144:13157   */\n      mload\n        /* \"#utility.yul\":13135:13157   */\n      swap1\n      pop\n        /* \"#utility.yul\":13166:13199   */\n      tag_365\n        /* \"#utility.yul\":13193:13198   */\n      dup2\n        /* \"#utility.yul\":13166:13199   */\n      tag_191\n      jump\t// in\n    tag_365:\n        /* \"#utility.yul\":13062:13205   */\n      swap3\n      swap2\n      pop\n      pop\n      jump\t// out\n        /* \"#utility.yul\":13211:13562   */\n    tag_107:\n        /* \"#utility.yul\":13281:13287   */\n      0x00\n        /* \"#utility.yul\":13330:13332   */\n      0x20\n        /* \"#utility.yul\":13318:13327   */\n      dup3\n        /* \"#utility.yul\":13309:13316   */\n      dup5\n        /* \"#utility.yul\":13305:13328   */\n      sub\n        /* \"#utility.yul\":13301:13333   */\n      slt\n        /* \"#utility.yul\":13298:13417   */\n      iszero\n      tag_367\n      jumpi\n        /* \"#utility.yul\":13336:13415   */\n      tag_368\n      tag_173\n      jump\t// in\n    tag_368:\n        /* \"#utility.yul\":13298:13417   */\n    tag_367:\n        /* \"#utility.yul\":13456:13457   */\n      0x00\n        /* \"#utility.yul\":13481:13545   */\n      tag_369\n        /* \"#utility.yul\":13537:13544   */\n      dup5\n        /* \"#utility.yul\":13528:13534   */\n      dup3\n        /* \"#utility.yul\":13517:13526   */\n      dup6\n        /* \"#utility.yul\":13513:13535   */\n      add\n        /* \"#utility.yul\":13481:13545   */\n      tag_209\n      jump\t// in\n    tag_369:\n        /* \"#utility.yul\":13471:13545   */\n      swap2\n      pop\n        /* \"#utility.yul\":13427:13555   */\n      pop\n        /* \"#utility.yul\":13211:13562   */\n      swap3\n      swap2\n      pop\n      pop\n      jump\t// out\n        /* \"#utility.yul\":13568:13900   */\n    tag_129:\n        /* \"#utility.yul\":13689:13693   */\n      0x00\n        /* \"#utility.yul\":13727:13729   */\n      0x40\n        /* \"#utility.yul\":13716:13725   */\n      dup3\n        /* \"#utility.yul\":13712:13730   */\n      add\n        /* \"#utility.yul\":13704:13730   */\n      swap1\n      pop\n        /* \"#utility.yul\":13740:13811   */\n      tag_371\n        /* \"#utility.yul\":13808:13809   */\n      0x00\n        /* \"#utility.yul\":13797:13806   */\n      dup4\n        /* \"#utility.yul\":13793:13810   */\n      add\n        /* \"#utility.yul\":13784:13790   */\n      dup6\n        /* \"#utility.yul\":13740:13811   */\n      tag_193\n      jump\t// in\n    tag_371:\n        /* \"#utility.yul\":13821:13893   */\n      tag_372\n        /* \"#utility.yul\":13889:13891   */\n      0x20\n        /* \"#utility.yul\":13878:13887   */\n      dup4\n        /* \"#utility.yul\":13874:13892   */\n      add\n        /* \"#utility.yul\":13865:13871   */\n      dup5\n        /* \"#utility.yul\":13821:13893   */\n      tag_193\n      jump\t// in\n    tag_372:\n        /* \"#utility.yul\":13568:13900   */\n      swap4\n      swap3\n      pop\n      pop\n      pop\n      jump\t// out\n        /* \"#utility.yul\":13906:14316   */\n    tag_166:\n        /* \"#utility.yul\":13946:13953   */\n      0x00\n        /* \"#utility.yul\":13969:13989   */\n      tag_374\n        /* \"#utility.yul\":13987:13988   */\n      dup3\n        /* \"#utility.yul\":13969:13989   */\n      tag_170\n      jump\t// in\n    tag_374:\n        /* \"#utility.yul\":13964:13989   */\n      swap2\n      pop\n        /* \"#utility.yul\":14003:14023   */\n      tag_375\n        /* \"#utility.yul\":14021:14022   */\n      dup4\n        /* \"#utility.yul\":14003:14023   */\n      tag_170\n      jump\t// in\n    tag_375:\n        /* \"#utility.yul\":13998:14023   */\n      swap3\n      pop\n        /* \"#utility.yul\":14058:14059   */\n      dup3\n        /* \"#utility.yul\":14055:14056   */\n      dup3\n        /* \"#utility.yul\":14051:14060   */\n      mul\n        /* \"#utility.yul\":14080:14110   */\n      tag_376\n        /* \"#utility.yul\":14098:14109   */\n      dup2\n        /* \"#utility.yul\":14080:14110   */\n      tag_170\n      jump\t// in\n    tag_376:\n        /* \"#utility.yul\":14069:14110   */\n      swap2\n      pop\n        /* \"#utility.yul\":14259:14260   */\n      dup3\n        /* \"#utility.yul\":14250:14257   */\n      dup3\n        /* \"#utility.yul\":14246:14261   */\n      div\n        /* \"#utility.yul\":14243:14244   */\n      dup5\n        /* \"#utility.yul\":14240:14262   */\n      eq\n        /* \"#utility.yul\":14220:14221   */\n      dup4\n        /* \"#utility.yul\":14213:14222   */\n      iszero\n        /* \"#utility.yul\":14193:14276   */\n      or\n        /* \"#utility.yul\":14170:14309   */\n      tag_377\n      jumpi\n        /* \"#utility.yul\":14289:14307   */\n      tag_378\n      tag_206\n      jump\t// in\n    tag_378:\n        /* \"#utility.yul\":14170:14309   */\n    tag_377:\n        /* \"#utility.yul\":13954:14316   */\n      pop\n        /* \"#utility.yul\":13906:14316   */\n      swap3\n      swap2\n      pop\n      pop\n      jump\t// out\n        /* \"#utility.yul\":14322:14502   */\n    tag_210:\n        /* \"#utility.yul\":14370:14447   */\n      0x4e487b7100000000000000000000000000000000000000000000000000000000\n        /* \"#utility.yul\":14367:14368   */\n      0x00\n        /* \"#utility.yul\":14360:14448   */\n      mstore\n        /* \"#utility.yul\":14467:14471   */\n      0x12\n        /* \"#utility.yul\":14464:14465   */\n      0x04\n        /* \"#utility.yul\":14457:14472   */\n      mstore\n        /* \"#utility.yul\":14491:14495   */\n      0x24\n        /* \"#utility.yul\":14488:14489   */\n      0x00\n        /* \"#utility.yul\":14481:14496   */\n      revert\n        /* \"#utility.yul\":14508:14693   */\n    tag_168:\n        /* \"#utility.yul\":14548:14549   */\n      0x00\n        /* \"#utility.yul\":14565:14585   */\n      tag_381\n        /* \"#utility.yul\":14583:14584   */\n      dup3\n        /* \"#utility.yul\":14565:14585   */\n      tag_170\n      jump\t// in\n    tag_381:\n        /* \"#utility.yul\":14560:14585   */\n      swap2\n      pop\n        /* \"#utility.yul\":14599:14619   */\n      tag_382\n        /* \"#utility.yul\":14617:14618   */\n      dup4\n        /* \"#utility.yul\":14599:14619   */\n      tag_170\n      jump\t// in\n    tag_382:\n        /* \"#utility.yul\":14594:14619   */\n      swap3\n      pop\n        /* \"#utility.yul\":14638:14639   */\n      dup3\n        /* \"#utility.yul\":14628:14663   */\n      tag_383\n      jumpi\n        /* \"#utility.yul\":14643:14661   */\n      tag_384\n      tag_210\n      jump\t// in\n    tag_384:\n        /* \"#utility.yul\":14628:14663   */\n    tag_383:\n        /* \"#utility.yul\":14685:14686   */\n      dup3\n        /* \"#utility.yul\":14682:14683   */\n      dup3\n        /* \"#utility.yul\":14678:14687   */\n      div\n        /* \"#utility.yul\":14673:14687   */\n      swap1\n      pop\n        /* \"#utility.yul\":14508:14693   */\n      swap3\n      swap2\n      pop\n      pop\n      jump\t// out\n\n    auxdata: 0xa2646970667358221220c81a3c6e1cdcc3866dc560160dd89f09747c44e4a913ab46abe8f19d2ae7535d64736f6c634300081e0033\n}\n",
				"bytecode": {
					"linkReferences": {},
					"object": "608060405234801561000f575f5ffd5b50335f73ffffffffffffffffffffffffffffffffffffffff168173ffffffffffffffffffffffffffffffffffffffff1603610081575f6040517f1e4fbdf70000000000000000000000000000000000000000000000000000000081526004016100789190610196565b60405180910390fd5b6100908161009660201b60201c565b506101af565b5f5f5f9054906101000a900473ffffffffffffffffffffffffffffffffffffffff169050815f5f6101000a81548173ffffffffffffffffffffffffffffffffffffffff021916908373ffffffffffffffffffffffffffffffffffffffff1602179055508173ffffffffffffffffffffffffffffffffffffffff168173ffffffffffffffffffffffffffffffffffffffff167f8be0079c531659141344cd1fd0a4f28419497f9722a3daafe3b4186f6b6457e060405160405180910390a35050565b5f73ffffffffffffffffffffffffffffffffffffffff82169050919050565b5f61018082610157565b9050919050565b61019081610176565b82525050565b5f6020820190506101a95f830184610187565b92915050565b6118c7806101bc5f395ff3fe608060405234801561000f575f5ffd5b50600436106100b1575f3560e01c80638da5cb5b1161006f5780638da5cb5b14610163578063a00a45cb14610181578063b3b3e87f146101b1578063daf49863146101cd578063f2fde38b14610204578063fc0c546a14610220576100b1565b80622f9569146100b5578063439fab91146100d35780634e71d92d14610103578063715018a61461010d5780637c559085146101175780638988504914610133575b5f5ffd5b6100bd61023e565b6040516100ca91906110ce565b60405180910390f35b6100ed60048036038101906100e89190611234565b610244565b6040516100fa9190611295565b60405180910390f35b61010b610314565b005b610115610644565b005b610131600480360381019061012c9190611332565b610657565b005b61014d600480360381019061014891906113cf565b610ae5565b60405161015a91906110ce565b60405180910390f35b61016b610b6b565b6040516101789190611409565b60405180910390f35b61019b60048036038101906101969190611422565b610b92565b6040516101a891906114c0565b60405180910390f35b6101cb60048036038101906101c691906113cf565b610bbe565b005b6101e760048036038101906101e291906113cf565b610db7565b6040516101fb9897969594939291906114e0565b60405180910390f35b61021e600480360381019061021991906113cf565b610dfb565b005b610228610e7f565b60405161023591906115b7565b60405180910390f35b60025481565b5f600160149054906101000a900460ff161561028c576040517f0dc149f000000000000000000000000000000000000000000000000000000000815260040160405180910390fd5b5f5f838060200190518101906102a2919061160b565b915091508160015f6101000a81548173ffffffffffffffffffffffffffffffffffffffff021916908373ffffffffffffffffffffffffffffffffffffffff1602179055506102ef81610dfb565b60018060146101000a81548160ff021916908315150217905550600192505050919050565b5f60035f3373ffffffffffffffffffffffffffffffffffffffff1673ffffffffffffffffffffffffffffffffffffffff1681526020019081526020015f2090505f815f015411610390576040517fe146a52b00000000000000000000000000000000000000000000000000000000815260040160405180910390fd5b806002015481600101546103a49190611676565b42116103dc576040517f392a328700000000000000000000000000000000000000000000000000000000815260040160405180910390fd5b806006015481600501546103f09190611676565b421015610429576040517f9e49499400000000000000000000000000000000000000000000000000000000815260040160405180910390fd5b5f61043333610ae5565b90505f811161046e576040517f969bf72800000000000000000000000000000000000000000000000000000000815260040160405180910390fd5b81600701548110156104ac576040517f5dfcc46200000000000000000000000000000000000000000000000000000000815260040160405180910390fd5b815f01548260040154826104c09190611676565b11156104f8576040517f96a6633000000000000000000000000000000000000000000000000000000000815260040160405180910390fd5b80826004015f82825461050b9190611676565b925050819055504282600501819055508060025f82825461052c91906116a9565b9250508190555060015f9054906101000a900473ffffffffffffffffffffffffffffffffffffffff1673ffffffffffffffffffffffffffffffffffffffff1663a9059cbb33836040518363ffffffff1660e01b815260040161058f9291906116dc565b6020604051808303815f875af11580156105ab573d5f5f3e3d5ffd5b505050506040513d601f19601f820116820180604052508101906105cf919061172d565b610605576040517f90b8ec1800000000000000000000000000000000000000000000000000000000815260040160405180910390fd5b7f34fcbac0073d7c3d388e51312faf357774904998eeb8fca628b9e6f65ee1cbf733824260405161063893929190611758565b60405180910390a15050565b61064c610ea4565b6106555f610f2b565b565b61065f610ea4565b8560025460015f9054906101000a900473ffffffffffffffffffffffffffffffffffffffff1673ffffffffffffffffffffffffffffffffffffffff166370a08231306040518263ffffffff1660e01b81526004016106bd9190611409565b602060405180830381865afa1580156106d8573d5f5f3e3d5ffd5b505050506040513d601f19601f820116820180604052508101906106fc91906117a1565b61070691906116a9565b101561073e576040517fac16ee3e00000000000000000000000000000000000000000000000000000000815260040160405180910390fd5b5f8611610777576040517f46f1397d00000000000000000000000000000000000000000000000000000000815260040160405180910390fd5b5f60035f8973ffffffffffffffffffffffffffffffffffffffff1673ffffffffffffffffffffffffffffffffffffffff1681526020019081526020015f205f01541480610842575060035f8873ffffffffffffffffffffffffffffffffffffffff1673ffffffffffffffffffffffffffffffffffffffff1681526020019081526020015f206004015460035f8973ffffffffffffffffffffffffffffffffffffffff1673ffffffffffffffffffffffffffffffffffffffff1681526020019081526020015f205f0154145b610878576040517fda2573cf00000000000000000000000000000000000000000000000000000000815260040160405180910390fd5b4285116108b1576040517f41d33ec100000000000000000000000000000000000000000000000000000000815260040160405180910390fd5b5f83116108ea576040517faf0a1ac000000000000000000000000000000000000000000000000000000000815260040160405180910390fd5b828410610923576040517f12e390eb00000000000000000000000000000000000000000000000000000000815260040160405180910390fd5b82821061095c576040517f28a4e6f600000000000000000000000000000000000000000000000000000000815260040160405180910390fd5b5f73ffffffffffffffffffffffffffffffffffffffff168773ffffffffffffffffffffffffffffffffffffffff16036109c1576040517f5566df5c00000000000000000000000000000000000000000000000000000000815260040160405180910390fd5b6040518061010001604052808781526020018681526020018581526020018481526020015f81526020015f81526020018381526020018281525060035f8973ffffffffffffffffffffffffffffffffffffffff1673ffffffffffffffffffffffffffffffffffffffff1681526020019081526020015f205f820151815f01556020820151816001015560408201518160020155606082015181600301556080820151816004015560a0820151816005015560c0820151816006015560e082015181600701559050508560025f828254610a9a9190611676565b925050819055507f9ade76f4385de306666dfb21a52b27d52db0fde8ad0f515fa261f532cac60d21878742604051610ad493929190611758565b60405180910390a150505050505050565b5f5f60035f8473ffffffffffffffffffffffffffffffffffffffff1673ffffffffffffffffffffffffffffffffffffffff1681526020019081526020015f20905080600201548160010154610b3a9190611676565b421015610b4a575f915050610b66565b8060040154610b5884610fec565b610b6291906116a9565b9150505b919050565b5f5f5f9054906101000a900473ffffffffffffffffffffffffffffffffffffffff16905090565b60608282604051602001610ba79291906117cc565b604051602081830303815290604052905092915050565b610bc6610ea4565b5f60025460015f9054906101000a900473ffffffffffffffffffffffffffffffffffffffff1673ffffffffffffffffffffffffffffffffffffffff166370a08231306040518263ffffffff1660e01b8152600401610c249190611409565b602060405180830381865afa158015610c3f573d5f5f3e3d5ffd5b505050506040513d601f19601f82011682018060405250810190610c6391906117a1565b610c6d91906116a9565b90505f8111610ca8576040517fd0d04f6000000000000000000000000000000000000000000000000000000000815260040160405180910390fd5b60015f9054906101000a900473ffffffffffffffffffffffffffffffffffffffff1673ffffffffffffffffffffffffffffffffffffffff1663a9059cbb83836040518363ffffffff1660e01b8152600401610d049291906116dc565b6020604051808303815f875af1158015610d20573d5f5f3e3d5ffd5b505050506040513d601f19601f82011682018060405250810190610d44919061172d565b610d7a576040517f69a4751b00000000000000000000000000000000000000000000000000000000815260040160405180910390fd5b7f6352c5382c4a4578e712449ca65e83cdb392d045dfcf1cad9615189db2da244b8282604051610dab9291906116dc565b60405180910390a15050565b6003602052805f5260405f205f91509050805f0154908060010154908060020154908060030154908060040154908060050154908060060154908060070154905088565b610e03610ea4565b5f73ffffffffffffffffffffffffffffffffffffffff168173ffffffffffffffffffffffffffffffffffffffff1603610e73575f6040517f1e4fbdf7000000000000000000000000000000000000000000000000000000008152600401610e6a9190611409565b60405180910390fd5b610e7c81610f2b565b50565b60015f9054906101000a900473ffffffffffffffffffffffffffffffffffffffff1681565b610eac6110af565b73ffffffffffffffffffffffffffffffffffffffff16610eca610b6b565b73ffffffffffffffffffffffffffffffffffffffff1614610f2957610eed6110af565b6040517f118cdaa7000000000000000000000000000000000000000000000000000000008152600401610f209190611409565b60405180910390fd5b565b5f5f5f9054906101000a900473ffffffffffffffffffffffffffffffffffffffff169050815f5f6101000a81548173ffffffffffffffffffffffffffffffffffffffff021916908373ffffffffffffffffffffffffffffffffffffffff1602179055508173ffffffffffffffffffffffffffffffffffffffff168173ffffffffffffffffffffffffffffffffffffffff167f8be0079c531659141344cd1fd0a4f28419497f9722a3daafe3b4186f6b6457e060405160405180910390a35050565b5f5f60035f8473ffffffffffffffffffffffffffffffffffffffff1673ffffffffffffffffffffffffffffffffffffffff1681526020019081526020015f209050806002015481600101546110419190611676565b421015611051575f9150506110aa565b5f816002015482600101546110669190611676565b4261107191906116a9565b9050816003015481111561108757816003015490505b816003015481835f015461109b91906117f3565b6110a59190611861565b925050505b919050565b5f33905090565b5f819050919050565b6110c8816110b6565b82525050565b5f6020820190506110e15f8301846110bf565b92915050565b5f604051905090565b5f5ffd5b5f5ffd5b5f5ffd5b5f5ffd5b5f601f19601f8301169050919050565b7f4e487b71000000000000000000000000000000000000000000000000000000005f52604160045260245ffd5b61114682611100565b810181811067ffffffffffffffff8211171561116557611164611110565b5b80604052505050565b5f6111776110e7565b9050611183828261113d565b919050565b5f67ffffffffffffffff8211156111a2576111a1611110565b5b6111ab82611100565b9050602081019050919050565b828183375f83830152505050565b5f6111d86111d384611188565b61116e565b9050828152602081018484840111156111f4576111f36110fc565b5b6111ff8482856111b8565b509392505050565b5f82601f83011261121b5761121a6110f8565b5b813561122b8482602086016111c6565b91505092915050565b5f60208284031215611249576112486110f0565b5b5f82013567ffffffffffffffff811115611266576112656110f4565b5b61127284828501611207565b91505092915050565b5f8115159050919050565b61128f8161127b565b82525050565b5f6020820190506112a85f830184611286565b92915050565b5f73ffffffffffffffffffffffffffffffffffffffff82169050919050565b5f6112d7826112ae565b9050919050565b6112e7816112cd565b81146112f1575f5ffd5b50565b5f81359050611302816112de565b92915050565b611311816110b6565b811461131b575f5ffd5b50565b5f8135905061132c81611308565b92915050565b5f5f5f5f5f5f5f60e0888a03121561134d5761134c6110f0565b5b5f61135a8a828b016112f4565b975050602061136b8a828b0161131e565b965050604061137c8a828b0161131e565b955050606061138d8a828b0161131e565b945050608061139e8a828b0161131e565b93505060a06113af8a828b0161131e565b92505060c06113c08a828b0161131e565b91505092959891949750929550565b5f602082840312156113e4576113e36110f0565b5b5f6113f1848285016112f4565b91505092915050565b611403816112cd565b82525050565b5f60208201905061141c5f8301846113fa565b92915050565b5f5f60408385031215611438576114376110f0565b5b5f611445858286016112f4565b9250506020611456858286016112f4565b9150509250929050565b5f81519050919050565b5f82825260208201905092915050565b8281835e5f83830152505050565b5f61149282611460565b61149c818561146a565b93506114ac81856020860161147a565b6114b581611100565b840191505092915050565b5f6020820190508181035f8301526114d88184611488565b905092915050565b5f610100820190506114f45f83018b6110bf565b611501602083018a6110bf565b61150e60408301896110bf565b61151b60608301886110bf565b61152860808301876110bf565b61153560a08301866110bf565b61154260c08301856110bf565b61154f60e08301846110bf565b9998505050505050505050565b5f819050919050565b5f61157f61157a611575846112ae565b61155c565b6112ae565b9050919050565b5f61159082611565565b9050919050565b5f6115a182611586565b9050919050565b6115b181611597565b82525050565b5f6020820190506115ca5f8301846115a8565b92915050565b5f6115da826112ae565b9050919050565b6115ea816115d0565b81146115f4575f5ffd5b50565b5f81519050611605816115e1565b92915050565b5f5f60408385031215611621576116206110f0565b5b5f61162e858286016115f7565b925050602061163f858286016115f7565b9150509250929050565b7f4e487b71000000000000000000000000000000000000000000000000000000005f52601160045260245ffd5b5f611680826110b6565b915061168b836110b6565b92508282019050808211156116a3576116a2611649565b5b92915050565b5f6116b3826110b6565b91506116be836110b6565b92508282039050818111156116d6576116d5611649565b5b92915050565b5f6040820190506116ef5f8301856113fa565b6116fc60208301846110bf565b9392505050565b61170c8161127b565b8114611716575f5ffd5b50565b5f8151905061172781611703565b92915050565b5f60208284031215611742576117416110f0565b5b5f61174f84828501611719565b91505092915050565b5f60608201905061176b5f8301866113fa565b61177860208301856110bf565b61178560408301846110bf565b949350505050565b5f8151905061179b81611308565b92915050565b5f602082840312156117b6576117b56110f0565b5b5f6117c38482850161178d565b91505092915050565b5f6040820190506117df5f8301856113fa565b6117ec60208301846113fa565b9392505050565b5f6117fd826110b6565b9150611808836110b6565b9250828202611816816110b6565b9150828204841483151761182d5761182c611649565b5b5092915050565b7f4e487b71000000000000000000000000000000000000000000000000000000005f52601260045260245ffd5b5f61186b826110b6565b9150611876836110b6565b92508261188657611885611834565b5b82820490509291505056fea2646970667358221220c81a3c6e1cdcc3866dc560160dd89f09747c44e4a913ab46abe8f19d2ae7535d64736f6c634300081e0033",
					"opcodes": "PUSH1 0x80 PUSH1 0x40 MSTORE CALLVALUE DUP1 ISZERO PUSH2 0xF JUMPI PUSH0 PUSH0 REVERT JUMPDEST POP CALLER PUSH0 PUSH20 0xFFFFFFFFFFFFFFFFFFFFFFFFFFFFFFFFFFFFFFFF AND DUP2 PUSH20 0xFFFFFFFFFFFFFFFFFFFFFFFFFFFFFFFFFFFFFFFF AND SUB PUSH2 0x81 JUMPI PUSH0 PUSH1 0x40 MLOAD PUSH32 0x1E4FBDF700000000000000000000000000000000000000000000000000000000 DUP2 MSTORE PUSH1 0x4 ADD PUSH2 0x78 SWAP2 SWAP1 PUSH2 0x196 JUMP JUMPDEST PUSH1 0x40 MLOAD DUP1 SWAP2 SUB SWAP1 REVERT JUMPDEST PUSH2 0x90 DUP2 PUSH2 0x96 PUSH1 0x20 SHL PUSH1 0x20 SHR JUMP JUMPDEST POP PUSH2 0x1AF JUMP JUMPDEST PUSH0 PUSH0 PUSH0 SWAP1 SLOAD SWAP1 PUSH2 0x100 EXP SWAP1 DIV PUSH20 0xFFFFFFFFFFFFFFFFFFFFFFFFFFFFFFFFFFFFFFFF AND SWAP1 POP DUP2 PUSH0 PUSH0 PUSH2 0x100 EXP DUP2 SLOAD DUP2 PUSH20 0xFFFFFFFFFFFFFFFFFFFFFFFFFFFFFFFFFFFFFFFF MUL NOT AND SWAP1 DUP4 PUSH20 0xFFFFFFFFFFFFFFFFFFFFFFFFFFFFFFFFFFFFFFFF AND MUL OR SWAP1 SSTORE POP DUP2 PUSH20 0xFFFFFFFFFFFFFFFFFFFFFFFFFFFFFFFFFFFFFFFF AND DUP2 PUSH20 0xFFFFFFFFFFFFFFFFFFFFFFFFFFFFFFFFFFFFFFFF AND PUSH32 0x8BE0079C531659141344CD1FD0A4F28419497F9722A3DAAFE3B4186F6B6457E0 PUSH1 0x40 MLOAD PUSH1 0x40 MLOAD DUP1 SWAP2 SUB SWAP1 LOG3 POP POP JUMP JUMPDEST PUSH0 PUSH20 0xFFFFFFFFFFFFFFFFFFFFFFFFFFFFFFFFFFFFFFFF DUP3 AND SWAP1 POP SWAP2 SWAP1 POP JUMP JUMPDEST PUSH0 PUSH2 0x180 DUP3 PUSH2 0x157 JUMP JUMPDEST SWAP1 POP SWAP2 SWAP1 POP JUMP JUMPDEST PUSH2 0x190 DUP2 PUSH2 0x176 JUMP JUMPDEST DUP3 MSTORE POP POP JUMP JUMPDEST PUSH0 PUSH1 0x20 DUP3 ADD SWAP1 POP PUSH2 0x1A9 PUSH0 DUP4 ADD DUP5 PUSH2 0x187 JUMP JUMPDEST SWAP3 SWAP2 POP POP JUMP JUMPDEST PUSH2 0x18C7 DUP1 PUSH2 0x1BC PUSH0 CODECOPY PUSH0 RETURN INVALID PUSH1 0x80 PUSH1 0x40 MSTORE CALLVALUE DUP1 ISZERO PUSH2 0xF JUMPI PUSH0 PUSH0 REVERT JUMPDEST POP PUSH1 0x4 CALLDATASIZE LT PUSH2 0xB1 JUMPI PUSH0 CALLDATALOAD PUSH1 0xE0 SHR DUP1 PUSH4 0x8DA5CB5B GT PUSH2 0x6F JUMPI DUP1 PUSH4 0x8DA5CB5B EQ PUSH2 0x163 JUMPI DUP1 PUSH4 0xA00A45CB EQ PUSH2 0x181 JUMPI DUP1 PUSH4 0xB3B3E87F EQ PUSH2 0x1B1 JUMPI DUP1 PUSH4 0xDAF49863 EQ PUSH2 0x1CD JUMPI DUP1 PUSH4 0xF2FDE38B EQ PUSH2 0x204 JUMPI DUP1 PUSH4 0xFC0C546A EQ PUSH2 0x220 JUMPI PUSH2 0xB1 JUMP JUMPDEST DUP1 PUSH3 0x2F9569 EQ PUSH2 0xB5 JUMPI DUP1 PUSH4 0x439FAB91 EQ PUSH2 0xD3 JUMPI DUP1 PUSH4 0x4E71D92D EQ PUSH2 0x103 JUMPI DUP1 PUSH4 0x715018A6 EQ PUSH2 0x10D JUMPI DUP1 PUSH4 0x7C559085 EQ PUSH2 0x117 JUMPI DUP1 PUSH4 0x89885049 EQ PUSH2 0x133 JUMPI JUMPDEST PUSH0 PUSH0 REVERT JUMPDEST PUSH2 0xBD PUSH2 0x23E JUMP JUMPDEST PUSH1 0x40 MLOAD PUSH2 0xCA SWAP2 SWAP1 PUSH2 0x10CE JUMP JUMPDEST PUSH1 0x40 MLOAD DUP1 SWAP2 SUB SWAP1 RETURN JUMPDEST PUSH2 0xED PUSH1 0x4 DUP1 CALLDATASIZE SUB DUP2 ADD SWAP1 PUSH2 0xE8 SWAP2 SWAP1 PUSH2 0x1234 JUMP JUMPDEST PUSH2 0x244 JUMP JUMPDEST PUSH1 0x40 MLOAD PUSH2 0xFA SWAP2 SWAP1 PUSH2 0x1295 JUMP JUMPDEST PUSH1 0x40 MLOAD DUP1 SWAP2 SUB SWAP1 RETURN JUMPDEST PUSH2 0x10B PUSH2 0x314 JUMP JUMPDEST STOP JUMPDEST PUSH2 0x115 PUSH2 0x644 JUMP JUMPDEST STOP JUMPDEST PUSH2 0x131 PUSH1 0x4 DUP1 CALLDATASIZE SUB DUP2 ADD SWAP1 PUSH2 0x12C SWAP2 SWAP1 PUSH2 0x1332 JUMP JUMPDEST PUSH2 0x657 JUMP JUMPDEST STOP JUMPDEST PUSH2 0x14D PUSH1 0x4 DUP1 CALLDATASIZE SUB DUP2 ADD SWAP1 PUSH2 0x148 SWAP2 SWAP1 PUSH2 0x13CF JUMP JUMPDEST PUSH2 0xAE5 JUMP JUMPDEST PUSH1 0x40 MLOAD PUSH2 0x15A SWAP2 SWAP1 PUSH2 0x10CE JUMP JUMPDEST PUSH1 0x40 MLOAD DUP1 SWAP2 SUB SWAP1 RETURN JUMPDEST PUSH2 0x16B PUSH2 0xB6B JUMP JUMPDEST PUSH1 0x40 MLOAD PUSH2 0x178 SWAP2 SWAP1 PUSH2 0x1409 JUMP JUMPDEST PUSH1 0x40 MLOAD DUP1 SWAP2 SUB SWAP1 RETURN JUMPDEST PUSH2 0x19B PUSH1 0x4 DUP1 CALLDATASIZE SUB DUP2 ADD SWAP1 PUSH2 0x196 SWAP2 SWAP1 PUSH2 0x1422 JUMP JUMPDEST PUSH2 0xB92 JUMP JUMPDEST PUSH1 0x40 MLOAD PUSH2 0x1A8 SWAP2 SWAP1 PUSH2 0x14C0 JUMP JUMPDEST PUSH1 0x40 MLOAD DUP1 SWAP2 SUB SWAP1 RETURN JUMPDEST PUSH2 0x1CB PUSH1 0x4 DUP1 CALLDATASIZE SUB DUP2 ADD SWAP1 PUSH2 0x1C6 SWAP2 SWAP1 PUSH2 0x13CF JUMP JUMPDEST PUSH2 0xBBE JUMP JUMPDEST STOP JUMPDEST PUSH2 0x1E7 PUSH1 0x4 DUP1 CALLDATASIZE SUB DUP2 ADD SWAP1 PUSH2 0x1E2 SWAP2 SWAP1 PUSH2 0x13CF JUMP JUMPDEST PUSH2 0xDB7 JUMP JUMPDEST PUSH1 0x40 MLOAD PUSH2 0x1FB SWAP9 SWAP8 SWAP7 SWAP6 SWAP5 SWAP4 SWAP3 SWAP2 SWAP1 PUSH2 0x14E0 JUMP JUMPDEST PUSH1 0x40 MLOAD DUP1 SWAP2 SUB SWAP1 RETURN JUMPDEST PUSH2 0x21E PUSH1 0x4 DUP1 CALLDATASIZE SUB DUP2 ADD SWAP1 PUSH2 0x219 SWAP2 SWAP1 PUSH2 0x13CF JUMP JUMPDEST PUSH2 0xDFB JUMP JUMPDEST STOP JUMPDEST PUSH2 0x228 PUSH2 0xE7F JUMP JUMPDEST PUSH1 0x40 MLOAD PUSH2 0x235 SWAP2 SWAP1 PUSH2 0x15B7 JUMP JUMPDEST PUSH1 0x40 MLOAD DUP1 SWAP2 SUB SWAP1 RETURN JUMPDEST PUSH1 0x2 SLOAD DUP2 JUMP JUMPDEST PUSH0 PUSH1 0x1 PUSH1 0x14 SWAP1 SLOAD SWAP1 PUSH2 0x100 EXP SWAP1 DIV PUSH1 0xFF AND ISZERO PUSH2 0x28C JUMPI PUSH1 0x40 MLOAD PUSH32 0xDC149F000000000000000000000000000000000000000000000000000000000 DUP2 MSTORE PUSH1 0x4 ADD PUSH1 0x40 MLOAD DUP1 SWAP2 SUB SWAP1 REVERT JUMPDEST PUSH0 PUSH0 DUP4 DUP1 PUSH1 0x20 ADD SWAP1 MLOAD DUP2 ADD SWAP1 PUSH2 0x2A2 SWAP2 SWAP1 PUSH2 0x160B JUMP JUMPDEST SWAP2 POP SWAP2 POP DUP2 PUSH1 0x1 PUSH0 PUSH2 0x100 EXP DUP2 SLOAD DUP2 PUSH20 0xFFFFFFFFFFFFFFFFFFFFFFFFFFFFFFFFFFFFFFFF MUL NOT AND SWAP1 DUP4 PUSH20 0xFFFFFFFFFFFFFFFFFFFFFFFFFFFFFFFFFFFFFFFF AND MUL OR SWAP1 SSTORE POP PUSH2 0x2EF DUP2 PUSH2 0xDFB JUMP JUMPDEST PUSH1 0x1 DUP1 PUSH1 0x14 PUSH2 0x100 EXP DUP2 SLOAD DUP2 PUSH1 0xFF MUL NOT AND SWAP1 DUP4 ISZERO ISZERO MUL OR SWAP1 SSTORE POP PUSH1 0x1 SWAP3 POP POP POP SWAP2 SWAP1 POP JUMP JUMPDEST PUSH0 PUSH1 0x3 PUSH0 CALLER PUSH20 0xFFFFFFFFFFFFFFFFFFFFFFFFFFFFFFFFFFFFFFFF AND PUSH20 0xFFFFFFFFFFFFFFFFFFFFFFFFFFFFFFFFFFFFFFFF AND DUP2 MSTORE PUSH1 0x20 ADD SWAP1 DUP2 MSTORE PUSH1 0x20 ADD PUSH0 KECCAK256 SWAP1 POP PUSH0 DUP2 PUSH0 ADD SLOAD GT PUSH2 0x390 JUMPI PUSH1 0x40 MLOAD PUSH32 0xE146A52B00000000000000000000000000000000000000000000000000000000 DUP2 MSTORE PUSH1 0x4 ADD PUSH1 0x40 MLOAD DUP1 SWAP2 SUB SWAP1 REVERT JUMPDEST DUP1 PUSH1 0x2 ADD SLOAD DUP2 PUSH1 0x1 ADD SLOAD PUSH2 0x3A4 SWAP2 SWAP1 PUSH2 0x1676 JUMP JUMPDEST TIMESTAMP GT PUSH2 0x3DC JUMPI PUSH1 0x40 MLOAD PUSH32 0x392A328700000000000000000000000000000000000000000000000000000000 DUP2 MSTORE PUSH1 0x4 ADD PUSH1 0x40 MLOAD DUP1 SWAP2 SUB SWAP1 REVERT JUMPDEST DUP1 PUSH1 0x6 ADD SLOAD DUP2 PUSH1 0x5 ADD SLOAD PUSH2 0x3F0 SWAP2 SWAP1 PUSH2 0x1676 JUMP JUMPDEST TIMESTAMP LT ISZERO PUSH2 0x429 JUMPI PUSH1 0x40 MLOAD PUSH32 0x9E49499400000000000000000000000000000000000000000000000000000000 DUP2 MSTORE PUSH1 0x4 ADD PUSH1 0x40 MLOAD DUP1 SWAP2 SUB SWAP1 REVERT JUMPDEST PUSH0 PUSH2 0x433 CALLER PUSH2 0xAE5 JUMP JUMPDEST SWAP1 POP PUSH0 DUP2 GT PUSH2 0x46E JUMPI PUSH1 0x40 MLOAD PUSH32 0x969BF72800000000000000000000000000000000000000000000000000000000 DUP2 MSTORE PUSH1 0x4 ADD PUSH1 0x40 MLOAD DUP1 SWAP2 SUB SWAP1 REVERT JUMPDEST DUP2 PUSH1 0x7 ADD SLOAD DUP2 LT ISZERO PUSH2 0x4AC JUMPI PUSH1 0x40 MLOAD PUSH32 0x5DFCC46200000000000000000000000000000000000000000000000000000000 DUP2 MSTORE PUSH1 0x4 ADD PUSH1 0x40 MLOAD DUP1 SWAP2 SUB SWAP1 REVERT JUMPDEST DUP2 PUSH0 ADD SLOAD DUP3 PUSH1 0x4 ADD SLOAD DUP3 PUSH2 0x4C0 SWAP2 SWAP1 PUSH2 0x1676 JUMP JUMPDEST GT ISZERO PUSH2 0x4F8 JUMPI PUSH1 0x40 MLOAD PUSH32 0x96A6633000000000000000000000000000000000000000000000000000000000 DUP2 MSTORE PUSH1 0x4 ADD PUSH1 0x40 MLOAD DUP1 SWAP2 SUB SWAP1 REVERT JUMPDEST DUP1 DUP3 PUSH1 0x4 ADD PUSH0 DUP3 DUP3 SLOAD PUSH2 0x50B SWAP2 SWAP1 PUSH2 0x1676 JUMP JUMPDEST SWAP3 POP POP DUP2 SWAP1 SSTORE POP TIMESTAMP DUP3 PUSH1 0x5 ADD DUP2 SWAP1 SSTORE POP DUP1 PUSH1 0x2 PUSH0 DUP3 DUP3 SLOAD PUSH2 0x52C SWAP2 SWAP1 PUSH2 0x16A9 JUMP JUMPDEST SWAP3 POP POP DUP2 SWAP1 SSTORE POP PUSH1 0x1 PUSH0 SWAP1 SLOAD SWAP1 PUSH2 0x100 EXP SWAP1 DIV PUSH20 0xFFFFFFFFFFFFFFFFFFFFFFFFFFFFFFFFFFFFFFFF AND PUSH20 0xFFFFFFFFFFFFFFFFFFFFFFFFFFFFFFFFFFFFFFFF AND PUSH4 0xA9059CBB CALLER DUP4 PUSH1 0x40 MLOAD DUP4 PUSH4 0xFFFFFFFF AND PUSH1 0xE0 SHL DUP2 MSTORE PUSH1 0x4 ADD PUSH2 0x58F SWAP3 SWAP2 SWAP1 PUSH2 0x16DC JUMP JUMPDEST PUSH1 0x20 PUSH1 0x40 MLOAD DUP1 DUP4 SUB DUP2 PUSH0 DUP8 GAS CALL ISZERO DUP1 ISZERO PUSH2 0x5AB JUMPI RETURNDATASIZE PUSH0 PUSH0 RETURNDATACOPY RETURNDATASIZE PUSH0 REVERT JUMPDEST POP POP POP POP PUSH1 0x40 MLOAD RETURNDATASIZE PUSH1 0x1F NOT PUSH1 0x1F DUP3 ADD AND DUP3 ADD DUP1 PUSH1 0x40 MSTORE POP DUP2 ADD SWAP1 PUSH2 0x5CF SWAP2 SWAP1 PUSH2 0x172D JUMP JUMPDEST PUSH2 0x605 JUMPI PUSH1 0x40 MLOAD PUSH32 0x90B8EC1800000000000000000000000000000000000000000000000000000000 DUP2 MSTORE PUSH1 0x4 ADD PUSH1 0x40 MLOAD DUP1 SWAP2 SUB SWAP1 REVERT JUMPDEST PUSH32 0x34FCBAC0073D7C3D388E51312FAF357774904998EEB8FCA628B9E6F65EE1CBF7 CALLER DUP3 TIMESTAMP PUSH1 0x40 MLOAD PUSH2 0x638 SWAP4 SWAP3 SWAP2 SWAP1 PUSH2 0x1758 JUMP JUMPDEST PUSH1 0x40 MLOAD DUP1 SWAP2 SUB SWAP1 LOG1 POP POP JUMP JUMPDEST PUSH2 0x64C PUSH2 0xEA4 JUMP JUMPDEST PUSH2 0x655 PUSH0 PUSH2 0xF2B JUMP JUMPDEST JUMP JUMPDEST PUSH2 0x65F PUSH2 0xEA4 JUMP JUMPDEST DUP6 PUSH1 0x2 SLOAD PUSH1 0x1 PUSH0 SWAP1 SLOAD SWAP1 PUSH2 0x100 EXP SWAP1 DIV PUSH20 0xFFFFFFFFFFFFFFFFFFFFFFFFFFFFFFFFFFFFFFFF AND PUSH20 0xFFFFFFFFFFFFFFFFFFFFFFFFFFFFFFFFFFFFFFFF AND PUSH4 0x70A08231 ADDRESS PUSH1 0x40 MLOAD DUP3 PUSH4 0xFFFFFFFF AND PUSH1 0xE0 SHL DUP2 MSTORE PUSH1 0x4 ADD PUSH2 0x6BD SWAP2 SWAP1 PUSH2 0x1409 JUMP JUMPDEST PUSH1 0x20 PUSH1 0x40 MLOAD DUP1 DUP4 SUB DUP2 DUP7 GAS STATICCALL ISZERO DUP1 ISZERO PUSH2 0x6D8 JUMPI RETURNDATASIZE PUSH0 PUSH0 RETURNDATACOPY RETURNDATASIZE PUSH0 REVERT JUMPDEST POP POP POP POP PUSH1 0x40 MLOAD RETURNDATASIZE PUSH1 0x1F NOT PUSH1 0x1F DUP3 ADD AND DUP3 ADD DUP1 PUSH1 0x40 MSTORE POP DUP2 ADD SWAP1 PUSH2 0x6FC SWAP2 SWAP1 PUSH2 0x17A1 JUMP JUMPDEST PUSH2 0x706 SWAP2 SWAP1 PUSH2 0x16A9 JUMP JUMPDEST LT ISZERO PUSH2 0x73E JUMPI PUSH1 0x40 MLOAD PUSH32 0xAC16EE3E00000000000000000000000000000000000000000000000000000000 DUP2 MSTORE PUSH1 0x4 ADD PUSH1 0x40 MLOAD DUP1 SWAP2 SUB SWAP1 REVERT JUMPDEST PUSH0 DUP7 GT PUSH2 0x777 JUMPI PUSH1 0x40 MLOAD PUSH32 0x46F1397D00000000000000000000000000000000000000000000000000000000 DUP2 MSTORE PUSH1 0x4 ADD PUSH1 0x40 MLOAD DUP1 SWAP2 SUB SWAP1 REVERT JUMPDEST PUSH0 PUSH1 0x3 PUSH0 DUP10 PUSH20 0xFFFFFFFFFFFFFFFFFFFFFFFFFFFFFFFFFFFFFFFF AND PUSH20 0xFFFFFFFFFFFFFFFFFFFFFFFFFFFFFFFFFFFFFFFF AND DUP2 MSTORE PUSH1 0x20 ADD SWAP1 DUP2 MSTORE PUSH1 0x20 ADD PUSH0 KECCAK256 PUSH0 ADD SLOAD EQ DUP1 PUSH2 0x842 JUMPI POP PUSH1 0x3 PUSH0 DUP9 PUSH20 0xFFFFFFFFFFFFFFFFFFFFFFFFFFFFFFFFFFFFFFFF AND PUSH20 0xFFFFFFFFFFFFFFFFFFFFFFFFFFFFFFFFFFFFFFFF AND DUP2 MSTORE PUSH1 0x20 ADD SWAP1 DUP2 MSTORE PUSH1 0x20 ADD PUSH0 KECCAK256 PUSH1 0x4 ADD SLOAD PUSH1 0x3 PUSH0 DUP10 PUSH20 0xFFFFFFFFFFFFFFFFFFFFFFFFFFFFFFFFFFFFFFFF AND PUSH20 0xFFFFFFFFFFFFFFFFFFFFFFFFFFFFFFFFFFFFFFFF AND DUP2 MSTORE PUSH1 0x20 ADD SWAP1 DUP2 MSTORE PUSH1 0x20 ADD PUSH0 KECCAK256 PUSH0 ADD SLOAD EQ JUMPDEST PUSH2 0x878 JUMPI PUSH1 0x40 MLOAD PUSH32 0xDA2573CF00000000000000000000000000000000000000000000000000000000 DUP2 MSTORE PUSH1 0x4 ADD PUSH1 0x40 MLOAD DUP1 SWAP2 SUB SWAP1 REVERT JUMPDEST TIMESTAMP DUP6 GT PUSH2 0x8B1 JUMPI PUSH1 0x40 MLOAD PUSH32 0x41D33EC100000000000000000000000000000000000000000000000000000000 DUP2 MSTORE PUSH1 0x4 ADD PUSH1 0x40 MLOAD DUP1 SWAP2 SUB SWAP1 REVERT JUMPDEST PUSH0 DUP4 GT PUSH2 0x8EA JUMPI PUSH1 0x40 MLOAD PUSH32 0xAF0A1AC000000000000000000000000000000000000000000000000000000000 DUP2 MSTORE PUSH1 0x4 ADD PUSH1 0x40 MLOAD DUP1 SWAP2 SUB SWAP1 REVERT JUMPDEST DUP3 DUP5 LT PUSH2 0x923 JUMPI PUSH1 0x40 MLOAD PUSH32 0x12E390EB00000000000000000000000000000000000000000000000000000000 DUP2 MSTORE PUSH1 0x4 ADD PUSH1 0x40 MLOAD DUP1 SWAP2 SUB SWAP1 REVERT JUMPDEST DUP3 DUP3 LT PUSH2 0x95C JUMPI PUSH1 0x40 MLOAD PUSH32 0x28A4E6F600000000000000000000000000000000000000000000000000000000 DUP2 MSTORE PUSH1 0x4 ADD PUSH1 0x40 MLOAD DUP1 SWAP2 SUB SWAP1 REVERT JUMPDEST PUSH0 PUSH20 0xFFFFFFFFFFFFFFFFFFFFFFFFFFFFFFFFFFFFFFFF AND DUP8 PUSH20 0xFFFFFFFFFFFFFFFFFFFFFFFFFFFFFFFFFFFFFFFF AND SUB PUSH2 0x9C1 JUMPI PUSH1 0x40 MLOAD PUSH32 0x5566DF5C00000000000000000000000000000000000000000000000000000000 DUP2 MSTORE PUSH1 0x4 ADD PUSH1 0x40 MLOAD DUP1 SWAP2 SUB SWAP1 REVERT JUMPDEST PUSH1 0x40 MLOAD DUP1 PUSH2 0x100 ADD PUSH1 0x40 MSTORE DUP1 DUP8 DUP2 MSTORE PUSH1 0x20 ADD DUP7 DUP2 MSTORE PUSH1 0x20 ADD DUP6 DUP2 MSTORE PUSH1 0x20 ADD DUP5 DUP2 MSTORE PUSH1 0x20 ADD PUSH0 DUP2 MSTORE PUSH1 0x20 ADD PUSH0 DUP2 MSTORE PUSH1 0x20 ADD DUP4 DUP2 MSTORE PUSH1 0x20 ADD DUP3 DUP2 MSTORE POP PUSH1 0x3 PUSH0 DUP10 PUSH20 0xFFFFFFFFFFFFFFFFFFFFFFFFFFFFFFFFFFFFFFFF AND PUSH20 0xFFFFFFFFFFFFFFFFFFFFFFFFFFFFFFFFFFFFFFFF AND DUP2 MSTORE PUSH1 0x20 ADD SWAP1 DUP2 MSTORE PUSH1 0x20 ADD PUSH0 KECCAK256 PUSH0 DUP3 ADD MLOAD DUP2 PUSH0 ADD SSTORE PUSH1 0x20 DUP3 ADD MLOAD DUP2 PUSH1 0x1 ADD SSTORE PUSH1 0x40 DUP3 ADD MLOAD DUP2 PUSH1 0x2 ADD SSTORE PUSH1 0x60 DUP3 ADD MLOAD DUP2 PUSH1 0x3 ADD SSTORE PUSH1 0x80 DUP3 ADD MLOAD DUP2 PUSH1 0x4 ADD SSTORE PUSH1 0xA0 DUP3 ADD MLOAD DUP2 PUSH1 0x5 ADD SSTORE PUSH1 0xC0 DUP3 ADD MLOAD DUP2 PUSH1 0x6 ADD SSTORE PUSH1 0xE0 DUP3 ADD MLOAD DUP2 PUSH1 0x7 ADD SSTORE SWAP1 POP POP DUP6 PUSH1 0x2 PUSH0 DUP3 DUP3 SLOAD PUSH2 0xA9A SWAP2 SWAP1 PUSH2 0x1676 JUMP JUMPDEST SWAP3 POP POP DUP2 SWAP1 SSTORE POP PUSH32 0x9ADE76F4385DE306666DFB21A52B27D52DB0FDE8AD0F515FA261F532CAC60D21 DUP8 DUP8 TIMESTAMP PUSH1 0x40 MLOAD PUSH2 0xAD4 SWAP4 SWAP3 SWAP2 SWAP1 PUSH2 0x1758 JUMP JUMPDEST PUSH1 0x40 MLOAD DUP1 SWAP2 SUB SWAP1 LOG1 POP POP POP POP POP POP POP JUMP JUMPDEST PUSH0 PUSH0 PUSH1 0x3 PUSH0 DUP5 PUSH20 0xFFFFFFFFFFFFFFFFFFFFFFFFFFFFFFFFFFFFFFFF AND PUSH20 0xFFFFFFFFFFFFFFFFFFFFFFFFFFFFFFFFFFFFFFFF AND DUP2 MSTORE PUSH1 0x20 ADD SWAP1 DUP2 MSTORE PUSH1 0x20 ADD PUSH0 KECCAK256 SWAP1 POP DUP1 PUSH1 0x2 ADD SLOAD DUP2 PUSH1 0x1 ADD SLOAD PUSH2 0xB3A SWAP2 SWAP1 PUSH2 0x1676 JUMP JUMPDEST TIMESTAMP LT ISZERO PUSH2 0xB4A JUMPI PUSH0 SWAP2 POP POP PUSH2 0xB66 JUMP JUMPDEST DUP1 PUSH1 0x4 ADD SLOAD PUSH2 0xB58 DUP5 PUSH2 0xFEC JUMP JUMPDEST PUSH2 0xB62 SWAP2 SWAP1 PUSH2 0x16A9 JUMP JUMPDEST SWAP2 POP POP JUMPDEST SWAP2 SWAP1 POP JUMP JUMPDEST PUSH0 PUSH0 PUSH0 SWAP1 SLOAD SWAP1 PUSH2 0x100 EXP SWAP1 DIV PUSH20 0xFFFFFFFFFFFFFFFFFFFFFFFFFFFFFFFFFFFFFFFF AND SWAP1 POP SWAP1 JUMP JUMPDEST PUSH1 0x60 DUP3 DUP3 PUSH1 0x40 MLOAD PUSH1 0x20 ADD PUSH2 0xBA7 SWAP3 SWAP2 SWAP1 PUSH2 0x17CC JUMP JUMPDEST PUSH1 0x40 MLOAD PUSH1 0x20 DUP2 DUP4 SUB SUB DUP2 MSTORE SWAP1 PUSH1 0x40 MSTORE SWAP1 POP SWAP3 SWAP2 POP POP JUMP JUMPDEST PUSH2 0xBC6 PUSH2 0xEA4 JUMP JUMPDEST PUSH0 PUSH1 0x2 SLOAD PUSH1 0x1 PUSH0 SWAP1 SLOAD SWAP1 PUSH2 0x100 EXP SWAP1 DIV PUSH20 0xFFFFFFFFFFFFFFFFFFFFFFFFFFFFFFFFFFFFFFFF AND PUSH20 0xFFFFFFFFFFFFFFFFFFFFFFFFFFFFFFFFFFFFFFFF AND PUSH4 0x70A08231 ADDRESS PUSH1 0x40 MLOAD DUP3 PUSH4 0xFFFFFFFF AND PUSH1 0xE0 SHL DUP2 MSTORE PUSH1 0x4 ADD PUSH2 0xC24 SWAP2 SWAP1 PUSH2 0x1409 JUMP JUMPDEST PUSH1 0x20 PUSH1 0x40 MLOAD DUP1 DUP4 SUB DUP2 DUP7 GAS STATICCALL ISZERO DUP1 ISZERO PUSH2 0xC3F JUMPI RETURNDATASIZE PUSH0 PUSH0 RETURNDATACOPY RETURNDATASIZE PUSH0 REVERT JUMPDEST POP POP POP POP PUSH1 0x40 MLOAD RETURNDATASIZE PUSH1 0x1F NOT PUSH1 0x1F DUP3 ADD AND DUP3 ADD DUP1 PUSH1 0x40 MSTORE POP DUP2 ADD SWAP1 PUSH2 0xC63 SWAP2 SWAP1 PUSH2 0x17A1 JUMP JUMPDEST PUSH2 0xC6D SWAP2 SWAP1 PUSH2 0x16A9 JUMP JUMPDEST SWAP1 POP PUSH0 DUP2 GT PUSH2 0xCA8 JUMPI PUSH1 0x40 MLOAD PUSH32 0xD0D04F6000000000000000000000000000000000000000000000000000000000 DUP2 MSTORE PUSH1 0x4 ADD PUSH1 0x40 MLOAD DUP1 SWAP2 SUB SWAP1 REVERT JUMPDEST PUSH1 0x1 PUSH0 SWAP1 SLOAD SWAP1 PUSH2 0x100 EXP SWAP1 DIV PUSH20 0xFFFFFFFFFFFFFFFFFFFFFFFFFFFFFFFFFFFFFFFF AND PUSH20 0xFFFFFFFFFFFFFFFFFFFFFFFFFFFFFFFFFFFFFFFF AND PUSH4 0xA9059CBB DUP4 DUP4 PUSH1 0x40 MLOAD DUP4 PUSH4 0xFFFFFFFF AND PUSH1 0xE0 SHL DUP2 MSTORE PUSH1 0x4 ADD PUSH2 0xD04 SWAP3 SWAP2 SWAP1 PUSH2 0x16DC JUMP JUMPDEST PUSH1 0x20 PUSH1 0x40 MLOAD DUP1 DUP4 SUB DUP2 PUSH0 DUP8 GAS CALL ISZERO DUP1 ISZERO PUSH2 0xD20 JUMPI RETURNDATASIZE PUSH0 PUSH0 RETURNDATACOPY RETURNDATASIZE PUSH0 REVERT JUMPDEST POP POP POP POP PUSH1 0x40 MLOAD RETURNDATASIZE PUSH1 0x1F NOT PUSH1 0x1F DUP3 ADD AND DUP3 ADD DUP1 PUSH1 0x40 MSTORE POP DUP2 ADD SWAP1 PUSH2 0xD44 SWAP2 SWAP1 PUSH2 0x172D JUMP JUMPDEST PUSH2 0xD7A JUMPI PUSH1 0x40 MLOAD PUSH32 0x69A4751B00000000000000000000000000000000000000000000000000000000 DUP2 MSTORE PUSH1 0x4 ADD PUSH1 0x40 MLOAD DUP1 SWAP2 SUB SWAP1 REVERT JUMPDEST PUSH32 0x6352C5382C4A4578E712449CA65E83CDB392D045DFCF1CAD9615189DB2DA244B DUP3 DUP3 PUSH1 0x40 MLOAD PUSH2 0xDAB SWAP3 SWAP2 SWAP1 PUSH2 0x16DC JUMP JUMPDEST PUSH1 0x40 MLOAD DUP1 SWAP2 SUB SWAP1 LOG1 POP POP JUMP JUMPDEST PUSH1 0x3 PUSH1 0x20 MSTORE DUP1 PUSH0 MSTORE PUSH1 0x40 PUSH0 KECCAK256 PUSH0 SWAP2 POP SWAP1 POP DUP1 PUSH0 ADD SLOAD SWAP1 DUP1 PUSH1 0x1 ADD SLOAD SWAP1 DUP1 PUSH1 0x2 ADD SLOAD SWAP1 DUP1 PUSH1 0x3 ADD SLOAD SWAP1 DUP1 PUSH1 0x4 ADD SLOAD SWAP1 DUP1 PUSH1 0x5 ADD SLOAD SWAP1 DUP1 PUSH1 0x6 ADD SLOAD SWAP1 DUP1 PUSH1 0x7 ADD SLOAD SWAP1 POP DUP9 JUMP JUMPDEST PUSH2 0xE03 PUSH2 0xEA4 JUMP JUMPDEST PUSH0 PUSH20 0xFFFFFFFFFFFFFFFFFFFFFFFFFFFFFFFFFFFFFFFF AND DUP2 PUSH20 0xFFFFFFFFFFFFFFFFFFFFFFFFFFFFFFFFFFFFFFFF AND SUB PUSH2 0xE73 JUMPI PUSH0 PUSH1 0x40 MLOAD PUSH32 0x1E4FBDF700000000000000000000000000000000000000000000000000000000 DUP2 MSTORE PUSH1 0x4 ADD PUSH2 0xE6A SWAP2 SWAP1 PUSH2 0x1409 JUMP JUMPDEST PUSH1 0x40 MLOAD DUP1 SWAP2 SUB SWAP1 REVERT JUMPDEST PUSH2 0xE7C DUP2 PUSH2 0xF2B JUMP JUMPDEST POP JUMP JUMPDEST PUSH1 0x1 PUSH0 SWAP1 SLOAD SWAP1 PUSH2 0x100 EXP SWAP1 DIV PUSH20 0xFFFFFFFFFFFFFFFFFFFFFFFFFFFFFFFFFFFFFFFF AND DUP2 JUMP JUMPDEST PUSH2 0xEAC PUSH2 0x10AF JUMP JUMPDEST PUSH20 0xFFFFFFFFFFFFFFFFFFFFFFFFFFFFFFFFFFFFFFFF AND PUSH2 0xECA PUSH2 0xB6B JUMP JUMPDEST PUSH20 0xFFFFFFFFFFFFFFFFFFFFFFFFFFFFFFFFFFFFFFFF AND EQ PUSH2 0xF29 JUMPI PUSH2 0xEED PUSH2 0x10AF JUMP JUMPDEST PUSH1 0x40 MLOAD PUSH32 0x118CDAA700000000000000000000000000000000000000000000000000000000 DUP2 MSTORE PUSH1 0x4 ADD PUSH2 0xF20 SWAP2 SWAP1 PUSH2 0x1409 JUMP JUMPDEST PUSH1 0x40 MLOAD DUP1 SWAP2 SUB SWAP1 REVERT JUMPDEST JUMP JUMPDEST PUSH0 PUSH0 PUSH0 SWAP1 SLOAD SWAP1 PUSH2 0x100 EXP SWAP1 DIV PUSH20 0xFFFFFFFFFFFFFFFFFFFFFFFFFFFFFFFFFFFFFFFF AND SWAP1 POP DUP2 PUSH0 PUSH0 PUSH2 0x100 EXP DUP2 SLOAD DUP2 PUSH20 0xFFFFFFFFFFFFFFFFFFFFFFFFFFFFFFFFFFFFFFFF MUL NOT AND SWAP1 DUP4 PUSH20 0xFFFFFFFFFFFFFFFFFFFFFFFFFFFFFFFFFFFFFFFF AND MUL OR SWAP1 SSTORE POP DUP2 PUSH20 0xFFFFFFFFFFFFFFFFFFFFFFFFFFFFFFFFFFFFFFFF AND DUP2 PUSH20 0xFFFFFFFFFFFFFFFFFFFFFFFFFFFFFFFFFFFFFFFF AND PUSH32 0x8BE0079C531659141344CD1FD0A4F28419497F9722A3DAAFE3B4186F6B6457E0 PUSH1 0x40 MLOAD PUSH1 0x40 MLOAD DUP1 SWAP2 SUB SWAP1 LOG3 POP POP JUMP JUMPDEST PUSH0 PUSH0 PUSH1 0x3 PUSH0 DUP5 PUSH20 0xFFFFFFFFFFFFFFFFFFFFFFFFFFFFFFFFFFFFFFFF AND PUSH20 0xFFFFFFFFFFFFFFFFFFFFFFFFFFFFFFFFFFFFFFFF AND DUP2 MSTORE PUSH1 0x20 ADD SWAP1 DUP2 MSTORE PUSH1 0x20 ADD PUSH0 KECCAK256 SWAP1 POP DUP1 PUSH1 0x2 ADD SLOAD DUP2 PUSH1 0x1 ADD SLOAD PUSH2 0x1041 SWAP2 SWAP1 PUSH2 0x1676 JUMP JUMPDEST TIMESTAMP LT ISZERO PUSH2 0x1051 JUMPI PUSH0 SWAP2 POP POP PUSH2 0x10AA JUMP JUMPDEST PUSH0 DUP2 PUSH1 0x2 ADD SLOAD DUP3 PUSH1 0x1 ADD SLOAD PUSH2 0x1066 SWAP2 SWAP1 PUSH2 0x1676 JUMP JUMPDEST TIMESTAMP PUSH2 0x1071 SWAP2 SWAP1 PUSH2 0x16A9 JUMP JUMPDEST SWAP1 POP DUP2 PUSH1 0x3 ADD SLOAD DUP2 GT ISZERO PUSH2 0x1087 JUMPI DUP2 PUSH1 0x3 ADD SLOAD SWAP1 POP JUMPDEST DUP2 PUSH1 0x3 ADD SLOAD DUP2 DUP4 PUSH0 ADD SLOAD PUSH2 0x109B SWAP2 SWAP1 PUSH2 0x17F3 JUMP JUMPDEST PUSH2 0x10A5 SWAP2 SWAP1 PUSH2 0x1861 JUMP JUMPDEST SWAP3 POP POP POP JUMPDEST SWAP2 SWAP1 POP JUMP JUMPDEST PUSH0 CALLER SWAP1 POP SWAP1 JUMP JUMPDEST PUSH0 DUP2 SWAP1 POP SWAP2 SWAP1 POP JUMP JUMPDEST PUSH2 0x10C8 DUP2 PUSH2 0x10B6 JUMP JUMPDEST DUP3 MSTORE POP POP JUMP JUMPDEST PUSH0 PUSH1 0x20 DUP3 ADD SWAP1 POP PUSH2 0x10E1 PUSH0 DUP4 ADD DUP5 PUSH2 0x10BF JUMP JUMPDEST SWAP3 SWAP2 POP POP JUMP JUMPDEST PUSH0 PUSH1 0x40 MLOAD SWAP1 POP SWAP1 JUMP JUMPDEST PUSH0 PUSH0 REVERT JUMPDEST PUSH0 PUSH0 REVERT JUMPDEST PUSH0 PUSH0 REVERT JUMPDEST PUSH0 PUSH0 REVERT JUMPDEST PUSH0 PUSH1 0x1F NOT PUSH1 0x1F DUP4 ADD AND SWAP1 POP SWAP2 SWAP1 POP JUMP JUMPDEST PUSH32 0x4E487B7100000000000000000000000000000000000000000000000000000000 PUSH0 MSTORE PUSH1 0x41 PUSH1 0x4 MSTORE PUSH1 0x24 PUSH0 REVERT JUMPDEST PUSH2 0x1146 DUP3 PUSH2 0x1100 JUMP JUMPDEST DUP2 ADD DUP2 DUP2 LT PUSH8 0xFFFFFFFFFFFFFFFF DUP3 GT OR ISZERO PUSH2 0x1165 JUMPI PUSH2 0x1164 PUSH2 0x1110 JUMP JUMPDEST JUMPDEST DUP1 PUSH1 0x40 MSTORE POP POP POP JUMP JUMPDEST PUSH0 PUSH2 0x1177 PUSH2 0x10E7 JUMP JUMPDEST SWAP1 POP PUSH2 0x1183 DUP3 DUP3 PUSH2 0x113D JUMP JUMPDEST SWAP2 SWAP1 POP JUMP JUMPDEST PUSH0 PUSH8 0xFFFFFFFFFFFFFFFF DUP3 GT ISZERO PUSH2 0x11A2 JUMPI PUSH2 0x11A1 PUSH2 0x1110 JUMP JUMPDEST JUMPDEST PUSH2 0x11AB DUP3 PUSH2 0x1100 JUMP JUMPDEST SWAP1 POP PUSH1 0x20 DUP2 ADD SWAP1 POP SWAP2 SWAP1 POP JUMP JUMPDEST DUP3 DUP2 DUP4 CALLDATACOPY PUSH0 DUP4 DUP4 ADD MSTORE POP POP POP JUMP JUMPDEST PUSH0 PUSH2 0x11D8 PUSH2 0x11D3 DUP5 PUSH2 0x1188 JUMP JUMPDEST PUSH2 0x116E JUMP JUMPDEST SWAP1 POP DUP3 DUP2 MSTORE PUSH1 0x20 DUP2 ADD DUP5 DUP5 DUP5 ADD GT ISZERO PUSH2 0x11F4 JUMPI PUSH2 0x11F3 PUSH2 0x10FC JUMP JUMPDEST JUMPDEST PUSH2 0x11FF DUP5 DUP3 DUP6 PUSH2 0x11B8 JUMP JUMPDEST POP SWAP4 SWAP3 POP POP POP JUMP JUMPDEST PUSH0 DUP3 PUSH1 0x1F DUP4 ADD SLT PUSH2 0x121B JUMPI PUSH2 0x121A PUSH2 0x10F8 JUMP JUMPDEST JUMPDEST DUP2 CALLDATALOAD PUSH2 0x122B DUP5 DUP3 PUSH1 0x20 DUP7 ADD PUSH2 0x11C6 JUMP JUMPDEST SWAP2 POP POP SWAP3 SWAP2 POP POP JUMP JUMPDEST PUSH0 PUSH1 0x20 DUP3 DUP5 SUB SLT ISZERO PUSH2 0x1249 JUMPI PUSH2 0x1248 PUSH2 0x10F0 JUMP JUMPDEST JUMPDEST PUSH0 DUP3 ADD CALLDATALOAD PUSH8 0xFFFFFFFFFFFFFFFF DUP2 GT ISZERO PUSH2 0x1266 JUMPI PUSH2 0x1265 PUSH2 0x10F4 JUMP JUMPDEST JUMPDEST PUSH2 0x1272 DUP5 DUP3 DUP6 ADD PUSH2 0x1207 JUMP JUMPDEST SWAP2 POP POP SWAP3 SWAP2 POP POP JUMP JUMPDEST PUSH0 DUP2 ISZERO ISZERO SWAP1 POP SWAP2 SWAP1 POP JUMP JUMPDEST PUSH2 0x128F DUP2 PUSH2 0x127B JUMP JUMPDEST DUP3 MSTORE POP POP JUMP JUMPDEST PUSH0 PUSH1 0x20 DUP3 ADD SWAP1 POP PUSH2 0x12A8 PUSH0 DUP4 ADD DUP5 PUSH2 0x1286 JUMP JUMPDEST SWAP3 SWAP2 POP POP JUMP JUMPDEST PUSH0 PUSH20 0xFFFFFFFFFFFFFFFFFFFFFFFFFFFFFFFFFFFFFFFF DUP3 AND SWAP1 POP SWAP2 SWAP1 POP JUMP JUMPDEST PUSH0 PUSH2 0x12D7 DUP3 PUSH2 0x12AE JUMP JUMPDEST SWAP1 POP SWAP2 SWAP1 POP JUMP JUMPDEST PUSH2 0x12E7 DUP2 PUSH2 0x12CD JUMP JUMPDEST DUP2 EQ PUSH2 0x12F1 JUMPI PUSH0 PUSH0 REVERT JUMPDEST POP JUMP JUMPDEST PUSH0 DUP2 CALLDATALOAD SWAP1 POP PUSH2 0x1302 DUP2 PUSH2 0x12DE JUMP JUMPDEST SWAP3 SWAP2 POP POP JUMP JUMPDEST PUSH2 0x1311 DUP2 PUSH2 0x10B6 JUMP JUMPDEST DUP2 EQ PUSH2 0x131B JUMPI PUSH0 PUSH0 REVERT JUMPDEST POP JUMP JUMPDEST PUSH0 DUP2 CALLDATALOAD SWAP1 POP PUSH2 0x132C DUP2 PUSH2 0x1308 JUMP JUMPDEST SWAP3 SWAP2 POP POP JUMP JUMPDEST PUSH0 PUSH0 PUSH0 PUSH0 PUSH0 PUSH0 PUSH0 PUSH1 0xE0 DUP9 DUP11 SUB SLT ISZERO PUSH2 0x134D JUMPI PUSH2 0x134C PUSH2 0x10F0 JUMP JUMPDEST JUMPDEST PUSH0 PUSH2 0x135A DUP11 DUP3 DUP12 ADD PUSH2 0x12F4 JUMP JUMPDEST SWAP8 POP POP PUSH1 0x20 PUSH2 0x136B DUP11 DUP3 DUP12 ADD PUSH2 0x131E JUMP JUMPDEST SWAP7 POP POP PUSH1 0x40 PUSH2 0x137C DUP11 DUP3 DUP12 ADD PUSH2 0x131E JUMP JUMPDEST SWAP6 POP POP PUSH1 0x60 PUSH2 0x138D DUP11 DUP3 DUP12 ADD PUSH2 0x131E JUMP JUMPDEST SWAP5 POP POP PUSH1 0x80 PUSH2 0x139E DUP11 DUP3 DUP12 ADD PUSH2 0x131E JUMP JUMPDEST SWAP4 POP POP PUSH1 0xA0 PUSH2 0x13AF DUP11 DUP3 DUP12 ADD PUSH2 0x131E JUMP JUMPDEST SWAP3 POP POP PUSH1 0xC0 PUSH2 0x13C0 DUP11 DUP3 DUP12 ADD PUSH2 0x131E JUMP JUMPDEST SWAP2 POP POP SWAP3 SWAP6 SWAP9 SWAP2 SWAP5 SWAP8 POP SWAP3 SWAP6 POP JUMP JUMPDEST PUSH0 PUSH1 0x20 DUP3 DUP5 SUB SLT ISZERO PUSH2 0x13E4 JUMPI PUSH2 0x13E3 PUSH2 0x10F0 JUMP JUMPDEST JUMPDEST PUSH0 PUSH2 0x13F1 DUP5 DUP3 DUP6 ADD PUSH2 0x12F4 JUMP JUMPDEST SWAP2 POP POP SWAP3 SWAP2 POP POP JUMP JUMPDEST PUSH2 0x1403 DUP2 PUSH2 0x12CD JUMP JUMPDEST DUP3 MSTORE POP POP JUMP JUMPDEST PUSH0 PUSH1 0x20 DUP3 ADD SWAP1 POP PUSH2 0x141C PUSH0 DUP4 ADD DUP5 PUSH2 0x13FA JUMP JUMPDEST SWAP3 SWAP2 POP POP JUMP JUMPDEST PUSH0 PUSH0 PUSH1 0x40 DUP4 DUP6 SUB SLT ISZERO PUSH2 0x1438 JUMPI PUSH2 0x1437 PUSH2 0x10F0 JUMP JUMPDEST JUMPDEST PUSH0 PUSH2 0x1445 DUP6 DUP3 DUP7 ADD PUSH2 0x12F4 JUMP JUMPDEST SWAP3 POP POP PUSH1 0x20 PUSH2 0x1456 DUP6 DUP3 DUP7 ADD PUSH2 0x12F4 JUMP JUMPDEST SWAP2 POP POP SWAP3 POP SWAP3 SWAP1 POP JUMP JUMPDEST PUSH0 DUP2 MLOAD SWAP1 POP SWAP2 SWAP1 POP JUMP JUMPDEST PUSH0 DUP3 DUP3 MSTORE PUSH1 0x20 DUP3 ADD SWAP1 POP SWAP3 SWAP2 POP POP JUMP JUMPDEST DUP3 DUP2 DUP4 MCOPY PUSH0 DUP4 DUP4 ADD MSTORE POP POP POP JUMP JUMPDEST PUSH0 PUSH2 0x1492 DUP3 PUSH2 0x1460 JUMP JUMPDEST PUSH2 0x149C DUP2 DUP6 PUSH2 0x146A JUMP JUMPDEST SWAP4 POP PUSH2 0x14AC DUP2 DUP6 PUSH1 0x20 DUP7 ADD PUSH2 0x147A JUMP JUMPDEST PUSH2 0x14B5 DUP2 PUSH2 0x1100 JUMP JUMPDEST DUP5 ADD SWAP2 POP POP SWAP3 SWAP2 POP POP JUMP JUMPDEST PUSH0 PUSH1 0x20 DUP3 ADD SWAP1 POP DUP2 DUP2 SUB PUSH0 DUP4 ADD MSTORE PUSH2 0x14D8 DUP2 DUP5 PUSH2 0x1488 JUMP JUMPDEST SWAP1 POP SWAP3 SWAP2 POP POP JUMP JUMPDEST PUSH0 PUSH2 0x100 DUP3 ADD SWAP1 POP PUSH2 0x14F4 PUSH0 DUP4 ADD DUP12 PUSH2 0x10BF JUMP JUMPDEST PUSH2 0x1501 PUSH1 0x20 DUP4 ADD DUP11 PUSH2 0x10BF JUMP JUMPDEST PUSH2 0x150E PUSH1 0x40 DUP4 ADD DUP10 PUSH2 0x10BF JUMP JUMPDEST PUSH2 0x151B PUSH1 0x60 DUP4 ADD DUP9 PUSH2 0x10BF JUMP JUMPDEST PUSH2 0x1528 PUSH1 0x80 DUP4 ADD DUP8 PUSH2 0x10BF JUMP JUMPDEST PUSH2 0x1535 PUSH1 0xA0 DUP4 ADD DUP7 PUSH2 0x10BF JUMP JUMPDEST PUSH2 0x1542 PUSH1 0xC0 DUP4 ADD DUP6 PUSH2 0x10BF JUMP JUMPDEST PUSH2 0x154F PUSH1 0xE0 DUP4 ADD DUP5 PUSH2 0x10BF JUMP JUMPDEST SWAP10 SWAP9 POP POP POP POP POP POP POP POP POP JUMP JUMPDEST PUSH0 DUP2 SWAP1 POP SWAP2 SWAP1 POP JUMP JUMPDEST PUSH0 PUSH2 0x157F PUSH2 0x157A PUSH2 0x1575 DUP5 PUSH2 0x12AE JUMP JUMPDEST PUSH2 0x155C JUMP JUMPDEST PUSH2 0x12AE JUMP JUMPDEST SWAP1 POP SWAP2 SWAP1 POP JUMP JUMPDEST PUSH0 PUSH2 0x1590 DUP3 PUSH2 0x1565 JUMP JUMPDEST SWAP1 POP SWAP2 SWAP1 POP JUMP JUMPDEST PUSH0 PUSH2 0x15A1 DUP3 PUSH2 0x1586 JUMP JUMPDEST SWAP1 POP SWAP2 SWAP1 POP JUMP JUMPDEST PUSH2 0x15B1 DUP2 PUSH2 0x1597 JUMP JUMPDEST DUP3 MSTORE POP POP JUMP JUMPDEST PUSH0 PUSH1 0x20 DUP3 ADD SWAP1 POP PUSH2 0x15CA PUSH0 DUP4 ADD DUP5 PUSH2 0x15A8 JUMP JUMPDEST SWAP3 SWAP2 POP POP JUMP JUMPDEST PUSH0 PUSH2 0x15DA DUP3 PUSH2 0x12AE JUMP JUMPDEST SWAP1 POP SWAP2 SWAP1 POP JUMP JUMPDEST PUSH2 0x15EA DUP2 PUSH2 0x15D0 JUMP JUMPDEST DUP2 EQ PUSH2 0x15F4 JUMPI PUSH0 PUSH0 REVERT JUMPDEST POP JUMP JUMPDEST PUSH0 DUP2 MLOAD SWAP1 POP PUSH2 0x1605 DUP2 PUSH2 0x15E1 JUMP JUMPDEST SWAP3 SWAP2 POP POP JUMP JUMPDEST PUSH0 PUSH0 PUSH1 0x40 DUP4 DUP6 SUB SLT ISZERO PUSH2 0x1621 JUMPI PUSH2 0x1620 PUSH2 0x10F0 JUMP JUMPDEST JUMPDEST PUSH0 PUSH2 0x162E DUP6 DUP3 DUP7 ADD PUSH2 0x15F7 JUMP JUMPDEST SWAP3 POP POP PUSH1 0x20 PUSH2 0x163F DUP6 DUP3 DUP7 ADD PUSH2 0x15F7 JUMP JUMPDEST SWAP2 POP POP SWAP3 POP SWAP3 SWAP1 POP JUMP JUMPDEST PUSH32 0x4E487B7100000000000000000000000000000000000000000000000000000000 PUSH0 MSTORE PUSH1 0x11 PUSH1 0x4 MSTORE PUSH1 0x24 PUSH0 REVERT JUMPDEST PUSH0 PUSH2 0x1680 DUP3 PUSH2 0x10B6 JUMP JUMPDEST SWAP2 POP PUSH2 0x168B DUP4 PUSH2 0x10B6 JUMP JUMPDEST SWAP3 POP DUP3 DUP3 ADD SWAP1 POP DUP1 DUP3 GT ISZERO PUSH2 0x16A3 JUMPI PUSH2 0x16A2 PUSH2 0x1649 JUMP JUMPDEST JUMPDEST SWAP3 SWAP2 POP POP JUMP JUMPDEST PUSH0 PUSH2 0x16B3 DUP3 PUSH2 0x10B6 JUMP JUMPDEST SWAP2 POP PUSH2 0x16BE DUP4 PUSH2 0x10B6 JUMP JUMPDEST SWAP3 POP DUP3 DUP3 SUB SWAP1 POP DUP2 DUP2 GT ISZERO PUSH2 0x16D6 JUMPI PUSH2 0x16D5 PUSH2 0x1649 JUMP JUMPDEST JUMPDEST SWAP3 SWAP2 POP POP JUMP JUMPDEST PUSH0 PUSH1 0x40 DUP3 ADD SWAP1 POP PUSH2 0x16EF PUSH0 DUP4 ADD DUP6 PUSH2 0x13FA JUMP JUMPDEST PUSH2 0x16FC PUSH1 0x20 DUP4 ADD DUP5 PUSH2 0x10BF JUMP JUMPDEST SWAP4 SWAP3 POP POP POP JUMP JUMPDEST PUSH2 0x170C DUP2 PUSH2 0x127B JUMP JUMPDEST DUP2 EQ PUSH2 0x1716 JUMPI PUSH0 PUSH0 REVERT JUMPDEST POP JUMP JUMPDEST PUSH0 DUP2 MLOAD SWAP1 POP PUSH2 0x1727 DUP2 PUSH2 0x1703 JUMP JUMPDEST SWAP3 SWAP2 POP POP JUMP JUMPDEST PUSH0 PUSH1 0x20 DUP3 DUP5 SUB SLT ISZERO PUSH2 0x1742 JUMPI PUSH2 0x1741 PUSH2 0x10F0 JUMP JUMPDEST JUMPDEST PUSH0 PUSH2 0x174F DUP5 DUP3 DUP6 ADD PUSH2 0x1719 JUMP JUMPDEST SWAP2 POP POP SWAP3 SWAP2 POP POP JUMP JUMPDEST PUSH0 PUSH1 0x60 DUP3 ADD SWAP1 POP PUSH2 0x176B PUSH0 DUP4 ADD DUP7 PUSH2 0x13FA JUMP JUMPDEST PUSH2 0x1778 PUSH1 0x20 DUP4 ADD DUP6 PUSH2 0x10BF JUMP JUMPDEST PUSH2 0x1785 PUSH1 0x40 DUP4 ADD DUP5 PUSH2 0x10BF JUMP JUMPDEST SWAP5 SWAP4 POP POP POP POP JUMP JUMPDEST PUSH0 DUP2 MLOAD SWAP1 POP PUSH2 0x179B DUP2 PUSH2 0x1308 JUMP JUMPDEST SWAP3 SWAP2 POP POP JUMP JUMPDEST PUSH0 PUSH1 0x20 DUP3 DUP5 SUB SLT ISZERO PUSH2 0x17B6 JUMPI PUSH2 0x17B5 PUSH2 0x10F0 JUMP JUMPDEST JUMPDEST PUSH0 PUSH2 0x17C3 DUP5 DUP3 DUP6 ADD PUSH2 0x178D JUMP JUMPDEST SWAP2 POP POP SWAP3 SWAP2 POP POP JUMP JUMPDEST PUSH0 PUSH1 0x40 DUP3 ADD SWAP1 POP PUSH2 0x17DF PUSH0 DUP4 ADD DUP6 PUSH2 0x13FA JUMP JUMPDEST PUSH2 0x17EC PUSH1 0x20 DUP4 ADD DUP5 PUSH2 0x13FA JUMP JUMPDEST SWAP4 SWAP3 POP POP POP JUMP JUMPDEST PUSH0 PUSH2 0x17FD DUP3 PUSH2 0x10B6 JUMP JUMPDEST SWAP2 POP PUSH2 0x1808 DUP4 PUSH2 0x10B6 JUMP JUMPDEST SWAP3 POP DUP3 DUP3 MUL PUSH2 0x1816 DUP2 PUSH2 0x10B6 JUMP JUMPDEST SWAP2 POP DUP3 DUP3 DIV DUP5 EQ DUP4 ISZERO OR PUSH2 0x182D JUMPI PUSH2 0x182C PUSH2 0x1649 JUMP JUMPDEST JUMPDEST POP SWAP3 SWAP2 POP POP JUMP JUMPDEST PUSH32 0x4E487B7100000000000000000000000000000000000000000000000000000000 PUSH0 MSTORE PUSH1 0x12 PUSH1 0x4 MSTORE PUSH1 0x24 PUSH0 REVERT JUMPDEST PUSH0 PUSH2 0x186B DUP3 PUSH2 0x10B6 JUMP JUMPDEST SWAP2 POP PUSH2 0x1876 DUP4 PUSH2 0x10B6 JUMP JUMPDEST SWAP3 POP DUP3 PUSH2 0x1886 JUMPI PUSH2 0x1885 PUSH2 0x1834 JUMP JUMPDEST JUMPDEST DUP3 DUP3 DIV SWAP1 POP SWAP3 SWAP2 POP POP JUMP INVALID LOG2 PUSH5 0x6970667358 0x22 SLT KECCAK256 0xC8 BYTE EXTCODECOPY PUSH15 0x1CDCC3866DC560160DD89F09747C44 RETF 0xA9 SGT 0xAB CHAINID 0xAB 0xE8 CALL SWAP14 0x2A SWAPN 0x53 TSTORE PUSH5 0x736F6C6343 STOP ADDMOD 0x1E STOP CALLER "
				},
				"gasEstimates": {
					"creation": {
						"codeDepositCost": "1268600",
						"executionCost": "infinite",
						"totalCost": "infinite"
					},
					"external": {
						"allocatedTokens()": "2426",
						"claim()": "infinite",
						"claimableAmount(address)": "infinite",
						"getInitData(address,address)": "infinite",
						"initialize(bytes)": "infinite",
						"owner()": "2514",
						"renounceOwnership()": "infinite",
						"startVesting(address,uint256,uint256,uint256,uint256,uint256,uint256)": "infinite",
						"token()": "infinite",
						"transferOwnership(address)": "infinite",
						"vestings(address)": "infinite",
						"withdrawUnallocated(address)": "infinite"
					},
					"internal": {
						"vestedAmount(address)": "infinite"
					}
				},
				"methodIdentifiers": {
					"allocatedTokens()": "002f9569",
					"claim()": "4e71d92d",
					"claimableAmount(address)": "89885049",
					"getInitData(address,address)": "a00a45cb",
					"initialize(bytes)": "439fab91",
					"owner()": "8da5cb5b",
					"renounceOwnership()": "715018a6",
					"startVesting(address,uint256,uint256,uint256,uint256,uint256,uint256)": "7c559085",
					"token()": "fc0c546a",
					"transferOwnership(address)": "f2fde38b",
					"vestings(address)": "daf49863",
					"withdrawUnallocated(address)": "b3b3e87f"
				}
			},
			"storageLayout": {
				"storage": [
					{
						"astId": 8,
						"contract": "Linear_Vesting/VestingFromUniversity.sol:Vesting",
						"label": "_owner",
						"offset": 0,
						"slot": "0",
						"type": "t_address"
					},
					{
						"astId": 285,
						"contract": "Linear_Vesting/VestingFromUniversity.sol:Vesting",
						"label": "token",
						"offset": 0,
						"slot": "1",
						"type": "t_contract(IERC20)225"
					},
					{
						"astId": 287,
						"contract": "Linear_Vesting/VestingFromUniversity.sol:Vesting",
						"label": "initialized",
						"offset": 20,
						"slot": "1",
						"type": "t_bool"
					},
					{
						"astId": 289,
						"contract": "Linear_Vesting/VestingFromUniversity.sol:Vesting",
						"label": "allocatedTokens",
						"offset": 0,
						"slot": "2",
						"type": "t_uint256"
					},
					{
						"astId": 311,
						"contract": "Linear_Vesting/VestingFromUniversity.sol:Vesting",
						"label": "vestings",
						"offset": 0,
						"slot": "3",
						"type": "t_mapping(t_address,t_struct(VestingInfo)306_storage)"
					}
				],
				"types": {
					"t_address": {
						"encoding": "inplace",
						"label": "address",
						"numberOfBytes": "20"
					},
					"t_bool": {
						"encoding": "inplace",
						"label": "bool",
						"numberOfBytes": "1"
					},
					"t_contract(IERC20)225": {
						"encoding": "inplace",
						"label": "contract IERC20",
						"numberOfBytes": "20"
					},
					"t_mapping(t_address,t_struct(VestingInfo)306_storage)": {
						"encoding": "mapping",
						"key": "t_address",
						"label": "mapping(address => struct Vesting.VestingInfo)",
						"numberOfBytes": "32",
						"value": "t_struct(VestingInfo)306_storage"
					},
					"t_struct(VestingInfo)306_storage": {
						"encoding": "inplace",
						"label": "struct Vesting.VestingInfo",
						"members": [
							{
								"astId": 291,
								"contract": "Linear_Vesting/VestingFromUniversity.sol:Vesting",
								"label": "totalAmount",
								"offset": 0,
								"slot": "0",
								"type": "t_uint256"
							},
							{
								"astId": 293,
								"contract": "Linear_Vesting/VestingFromUniversity.sol:Vesting",
								"label": "startTime",
								"offset": 0,
								"slot": "1",
								"type": "t_uint256"
							},
							{
								"astId": 295,
								"contract": "Linear_Vesting/VestingFromUniversity.sol:Vesting",
								"label": "cliff",
								"offset": 0,
								"slot": "2",
								"type": "t_uint256"
							},
							{
								"astId": 297,
								"contract": "Linear_Vesting/VestingFromUniversity.sol:Vesting",
								"label": "duration",
								"offset": 0,
								"slot": "3",
								"type": "t_uint256"
							},
							{
								"astId": 299,
								"contract": "Linear_Vesting/VestingFromUniversity.sol:Vesting",
								"label": "claimed",
								"offset": 0,
								"slot": "4",
								"type": "t_uint256"
							},
							{
								"astId": 301,
								"contract": "Linear_Vesting/VestingFromUniversity.sol:Vesting",
								"label": "lastClaimTime",
								"offset": 0,
								"slot": "5",
								"type": "t_uint256"
							},
							{
								"astId": 303,
								"contract": "Linear_Vesting/VestingFromUniversity.sol:Vesting",
								"label": "claimCooldown",
								"offset": 0,
								"slot": "6",
								"type": "t_uint256"
							},
							{
								"astId": 305,
								"contract": "Linear_Vesting/VestingFromUniversity.sol:Vesting",
								"label": "minClaimAmount",
								"offset": 0,
								"slot": "7",
								"type": "t_uint256"
							}
						],
						"numberOfBytes": "256"
					},
					"t_uint256": {
						"encoding": "inplace",
						"label": "uint256",
						"numberOfBytes": "32"
					}
				}
			},
			"userdoc": {
				"kind": "user",
				"methods": {},
				"version": 1
			}
		}
	}
}