{
	"Linear_Vesting/Vesting.sol": {
		"Vesting": {
			"abi": [
				{
					"inputs": [],
					"stateMutability": "nonpayable",
					"type": "constructor"
				},
				{
					"inputs": [],
					"name": "AlreadyInitialized",
					"type": "error"
				},
				{
					"inputs": [
						{
							"internalType": "address",
							"name": "owner",
							"type": "address"
						}
					],
					"name": "OwnableInvalidOwner",
					"type": "error"
				},
				{
					"inputs": [
						{
							"internalType": "address",
							"name": "account",
							"type": "address"
						}
					],
					"name": "OwnableUnauthorizedAccount",
					"type": "error"
				},
				{
					"anonymous": false,
					"inputs": [
						{
							"indexed": true,
							"internalType": "address",
							"name": "previousOwner",
							"type": "address"
						},
						{
							"indexed": true,
							"internalType": "address",
							"name": "newOwner",
							"type": "address"
						}
					],
					"name": "OwnershipTransferred",
					"type": "event"
				},
				{
					"inputs": [],
					"name": "beneficiary",
					"outputs": [
						{
							"internalType": "address",
							"name": "",
							"type": "address"
						}
					],
					"stateMutability": "view",
					"type": "function"
				},
				{
					"inputs": [],
					"name": "claim",
					"outputs": [],
					"stateMutability": "nonpayable",
					"type": "function"
				},
				{
					"inputs": [],
					"name": "claimableAmount",
					"outputs": [],
					"stateMutability": "view",
					"type": "function"
				},
				{
					"inputs": [],
					"name": "cliff",
					"outputs": [
						{
							"internalType": "uint256",
							"name": "",
							"type": "uint256"
						}
					],
					"stateMutability": "view",
					"type": "function"
				},
				{
					"inputs": [],
					"name": "duration",
					"outputs": [
						{
							"internalType": "uint256",
							"name": "",
							"type": "uint256"
						}
					],
					"stateMutability": "view",
					"type": "function"
				},
				{
					"inputs": [
						{
							"internalType": "address",
							"name": "_token",
							"type": "address"
						},
						{
							"internalType": "uint256",
							"name": "_amount",
							"type": "uint256"
						},
						{
							"internalType": "address",
							"name": "_treasury",
							"type": "address"
						},
						{
							"internalType": "address",
							"name": "_owner",
							"type": "address"
						}
					],
					"name": "getInitData",
					"outputs": [
						{
							"internalType": "bytes",
							"name": "",
							"type": "bytes"
						}
					],
					"stateMutability": "pure",
					"type": "function"
				},
				{
					"inputs": [
						{
							"internalType": "bytes",
							"name": "_initData",
							"type": "bytes"
						}
					],
					"name": "initialize",
					"outputs": [
						{
							"internalType": "bool",
							"name": "",
							"type": "bool"
						}
					],
					"stateMutability": "nonpayable",
					"type": "function"
				},
				{
					"inputs": [],
					"name": "owner",
					"outputs": [
						{
							"internalType": "address",
							"name": "",
							"type": "address"
						}
					],
					"stateMutability": "view",
					"type": "function"
				},
				{
					"inputs": [],
					"name": "renounceOwnership",
					"outputs": [],
					"stateMutability": "nonpayable",
					"type": "function"
				},
				{
					"inputs": [],
					"name": "startTime",
					"outputs": [
						{
							"internalType": "uint256",
							"name": "",
							"type": "uint256"
						}
					],
					"stateMutability": "view",
					"type": "function"
				},
				{
					"inputs": [],
					"name": "token",
					"outputs": [
						{
							"internalType": "contract IERC20",
							"name": "",
							"type": "address"
						}
					],
					"stateMutability": "view",
					"type": "function"
				},
				{
					"inputs": [],
					"name": "totalAmount",
					"outputs": [
						{
							"internalType": "uint256",
							"name": "",
							"type": "uint256"
						}
					],
					"stateMutability": "view",
					"type": "function"
				},
				{
					"inputs": [
						{
							"internalType": "address",
							"name": "newOwner",
							"type": "address"
						}
					],
					"name": "transferOwnership",
					"outputs": [],
					"stateMutability": "nonpayable",
					"type": "function"
				},
				{
					"inputs": [],
					"name": "vestedAmount",
					"outputs": [],
					"stateMutability": "nonpayable",
					"type": "function"
				}
			],
			"devdoc": {
				"errors": {
					"OwnableInvalidOwner(address)": [
						{
							"details": "The owner is not a valid owner account. (eg. `address(0)`)"
						}
					],
					"OwnableUnauthorizedAccount(address)": [
						{
							"details": "The caller account is not authorized to perform an operation."
						}
					]
				},
				"kind": "dev",
				"methods": {
					"owner()": {
						"details": "Returns the address of the current owner."
					},
					"renounceOwnership()": {
						"details": "Leaves the contract without owner. It will not be possible to call `onlyOwner` functions. Can only be called by the current owner. NOTE: Renouncing ownership will leave the contract without an owner, thereby disabling any functionality that is only available to the owner."
					},
					"transferOwnership(address)": {
						"details": "Transfers ownership of the contract to a new account (`newOwner`). Can only be called by the current owner."
					}
				},
				"version": 1
			},
			"evm": {
				"assembly": "    /* \"Linear_Vesting/Vesting.sol\":257:1513  contract Vesting is IUtilityContract, Ownable{... */\n  mstore(0x40, 0x80)\n    /* \"Linear_Vesting/Vesting.sol\":311:346  constructor() Ownable(msg.sender){} */\n  callvalue\n  dup1\n  iszero\n  tag_1\n  jumpi\n  revert(0x00, 0x00)\ntag_1:\n  pop\n    /* \"Linear_Vesting/Vesting.sol\":333:343  msg.sender */\n  caller\n    /* \"@openzeppelin/contracts/access/Ownable.sol\":1297:1298  0 */\n  0x00\n    /* \"@openzeppelin/contracts/access/Ownable.sol\":1273:1299  initialOwner == address(0) */\n  0xffffffffffffffffffffffffffffffffffffffff\n  and\n    /* \"@openzeppelin/contracts/access/Ownable.sol\":1273:1285  initialOwner */\n  dup2\n    /* \"@openzeppelin/contracts/access/Ownable.sol\":1273:1299  initialOwner == address(0) */\n  0xffffffffffffffffffffffffffffffffffffffff\n  and\n  sub\n    /* \"@openzeppelin/contracts/access/Ownable.sol\":1269:1364  if (initialOwner == address(0)) {... */\n  tag_5\n  jumpi\n    /* \"@openzeppelin/contracts/access/Ownable.sol\":1350:1351  0 */\n  0x00\n    /* \"@openzeppelin/contracts/access/Ownable.sol\":1322:1353  OwnableInvalidOwner(address(0)) */\n  mload(0x40)\n  0x1e4fbdf700000000000000000000000000000000000000000000000000000000\n  dup2\n  mstore\n  0x04\n  add\n  tag_6\n  swap2\n  swap1\n  tag_7\n  jump\t// in\ntag_6:\n  mload(0x40)\n  dup1\n  swap2\n  sub\n  swap1\n  revert\n    /* \"@openzeppelin/contracts/access/Ownable.sol\":1269:1364  if (initialOwner == address(0)) {... */\ntag_5:\n    /* \"@openzeppelin/contracts/access/Ownable.sol\":1373:1405  _transferOwnership(initialOwner) */\n  tag_8\n    /* \"@openzeppelin/contracts/access/Ownable.sol\":1392:1404  initialOwner */\n  dup2\n    /* \"@openzeppelin/contracts/access/Ownable.sol\":1373:1391  _transferOwnership */\n  shl(0x20, tag_9)\n    /* \"@openzeppelin/contracts/access/Ownable.sol\":1373:1405  _transferOwnership(initialOwner) */\n  0x20\n  shr\n  jump\t// in\ntag_8:\n    /* \"@openzeppelin/contracts/access/Ownable.sol\":1225:1412  constructor(address initialOwner) {... */\n  pop\n    /* \"Linear_Vesting/Vesting.sol\":257:1513  contract Vesting is IUtilityContract, Ownable{... */\n  jump(tag_11)\n    /* \"@openzeppelin/contracts/access/Ownable.sol\":2912:3099  function _transferOwnership(address newOwner) internal virtual {... */\ntag_9:\n    /* \"@openzeppelin/contracts/access/Ownable.sol\":2985:3001  address oldOwner */\n  0x00\n    /* \"@openzeppelin/contracts/access/Ownable.sol\":3004:3010  _owner */\n  0x00\n  0x00\n  swap1\n  sload\n  swap1\n  0x0100\n  exp\n  swap1\n  div\n  0xffffffffffffffffffffffffffffffffffffffff\n  and\n    /* \"@openzeppelin/contracts/access/Ownable.sol\":2985:3010  address oldOwner = _owner */\n  swap1\n  pop\n    /* \"@openzeppelin/contracts/access/Ownable.sol\":3029:3037  newOwner */\n  dup2\n    /* \"@openzeppelin/contracts/access/Ownable.sol\":3020:3026  _owner */\n  0x00\n  0x00\n    /* \"@openzeppelin/contracts/access/Ownable.sol\":3020:3037  _owner = newOwner */\n  0x0100\n  exp\n  dup2\n  sload\n  dup2\n  0xffffffffffffffffffffffffffffffffffffffff\n  mul\n  not\n  and\n  swap1\n  dup4\n  0xffffffffffffffffffffffffffffffffffffffff\n  and\n  mul\n  or\n  swap1\n  sstore\n  pop\n    /* \"@openzeppelin/contracts/access/Ownable.sol\":3083:3091  newOwner */\n  dup2\n    /* \"@openzeppelin/contracts/access/Ownable.sol\":3052:3092  OwnershipTransferred(oldOwner, newOwner) */\n  0xffffffffffffffffffffffffffffffffffffffff\n  and\n    /* \"@openzeppelin/contracts/access/Ownable.sol\":3073:3081  oldOwner */\n  dup2\n    /* \"@openzeppelin/contracts/access/Ownable.sol\":3052:3092  OwnershipTransferred(oldOwner, newOwner) */\n  0xffffffffffffffffffffffffffffffffffffffff\n  and\n  0x8be0079c531659141344cd1fd0a4f28419497f9722a3daafe3b4186f6b6457e0\n  mload(0x40)\n  mload(0x40)\n  dup1\n  swap2\n  sub\n  swap1\n  log3\n    /* \"@openzeppelin/contracts/access/Ownable.sol\":2975:3099  {... */\n  pop\n    /* \"@openzeppelin/contracts/access/Ownable.sol\":2912:3099  function _transferOwnership(address newOwner) internal virtual {... */\n  pop\n  jump\t// out\n    /* \"#utility.yul\":7:133   */\ntag_13:\n    /* \"#utility.yul\":44:51   */\n  0x00\n    /* \"#utility.yul\":84:126   */\n  0xffffffffffffffffffffffffffffffffffffffff\n    /* \"#utility.yul\":77:82   */\n  dup3\n    /* \"#utility.yul\":73:127   */\n  and\n    /* \"#utility.yul\":62:127   */\n  swap1\n  pop\n    /* \"#utility.yul\":7:133   */\n  swap2\n  swap1\n  pop\n  jump\t// out\n    /* \"#utility.yul\":139:235   */\ntag_14:\n    /* \"#utility.yul\":176:183   */\n  0x00\n    /* \"#utility.yul\":205:229   */\n  tag_19\n    /* \"#utility.yul\":223:228   */\n  dup3\n    /* \"#utility.yul\":205:229   */\n  tag_13\n  jump\t// in\ntag_19:\n    /* \"#utility.yul\":194:229   */\n  swap1\n  pop\n    /* \"#utility.yul\":139:235   */\n  swap2\n  swap1\n  pop\n  jump\t// out\n    /* \"#utility.yul\":241:359   */\ntag_15:\n    /* \"#utility.yul\":328:352   */\n  tag_21\n    /* \"#utility.yul\":346:351   */\n  dup2\n    /* \"#utility.yul\":328:352   */\n  tag_14\n  jump\t// in\ntag_21:\n    /* \"#utility.yul\":323:326   */\n  dup3\n    /* \"#utility.yul\":316:353   */\n  mstore\n    /* \"#utility.yul\":241:359   */\n  pop\n  pop\n  jump\t// out\n    /* \"#utility.yul\":365:587   */\ntag_7:\n    /* \"#utility.yul\":458:462   */\n  0x00\n    /* \"#utility.yul\":496:498   */\n  0x20\n    /* \"#utility.yul\":485:494   */\n  dup3\n    /* \"#utility.yul\":481:499   */\n  add\n    /* \"#utility.yul\":473:499   */\n  swap1\n  pop\n    /* \"#utility.yul\":509:580   */\n  tag_23\n    /* \"#utility.yul\":577:578   */\n  0x00\n    /* \"#utility.yul\":566:575   */\n  dup4\n    /* \"#utility.yul\":562:579   */\n  add\n    /* \"#utility.yul\":553:559   */\n  dup5\n    /* \"#utility.yul\":509:580   */\n  tag_15\n  jump\t// in\ntag_23:\n    /* \"#utility.yul\":365:587   */\n  swap3\n  swap2\n  pop\n  pop\n  jump\t// out\n    /* \"Linear_Vesting/Vesting.sol\":257:1513  contract Vesting is IUtilityContract, Ownable{... */\ntag_11:\n  dataSize(sub_0)\n  dup1\n  dataOffset(sub_0)\n  0x00\n  codecopy\n  0x00\n  return\nstop\n\nsub_0: assembly {\n        /* \"Linear_Vesting/Vesting.sol\":257:1513  contract Vesting is IUtilityContract, Ownable{... */\n      mstore(0x40, 0x80)\n      callvalue\n      dup1\n      iszero\n      tag_1\n      jumpi\n      revert(0x00, 0x00)\n    tag_1:\n      pop\n      jumpi(tag_2, lt(calldatasize, 0x04))\n      shr(0xe0, calldataload(0x00))\n      dup1\n      0x4e71d92d\n      gt\n      tag_17\n      jumpi\n      dup1\n      0x8da5cb5b\n      gt\n      tag_18\n      jumpi\n      dup1\n      0x8da5cb5b\n      eq\n      tag_13\n      jumpi\n      dup1\n      0xa556f846\n      eq\n      tag_14\n      jumpi\n      dup1\n      0xf2fde38b\n      eq\n      tag_15\n      jumpi\n      dup1\n      0xfc0c546a\n      eq\n      tag_16\n      jumpi\n      jump(tag_2)\n    tag_18:\n      dup1\n      0x4e71d92d\n      eq\n      tag_10\n      jumpi\n      dup1\n      0x715018a6\n      eq\n      tag_11\n      jumpi\n      dup1\n      0x78e97925\n      eq\n      tag_12\n      jumpi\n      jump(tag_2)\n    tag_17:\n      dup1\n      0x2bfc9e2b\n      gt\n      tag_19\n      jumpi\n      dup1\n      0x2bfc9e2b\n      eq\n      tag_6\n      jumpi\n      dup1\n      0x38af3eed\n      eq\n      tag_7\n      jumpi\n      dup1\n      0x439fab91\n      eq\n      tag_8\n      jumpi\n      dup1\n      0x44b1231f\n      eq\n      tag_9\n      jumpi\n      jump(tag_2)\n    tag_19:\n      dup1\n      0x0fb5a6b4\n      eq\n      tag_3\n      jumpi\n      dup1\n      0x13d033c0\n      eq\n      tag_4\n      jumpi\n      dup1\n      0x1a39d8ef\n      eq\n      tag_5\n      jumpi\n    tag_2:\n      revert(0x00, 0x00)\n        /* \"Linear_Vesting/Vesting.sol\":507:530  uint256 public duration */\n    tag_3:\n      tag_20\n      tag_21\n      jump\t// in\n    tag_20:\n      mload(0x40)\n      tag_22\n      swap2\n      swap1\n      tag_23\n      jump\t// in\n    tag_22:\n      mload(0x40)\n      dup1\n      swap2\n      sub\n      swap1\n      return\n        /* \"Linear_Vesting/Vesting.sol\":484:504  uint256 public cliff */\n    tag_4:\n      tag_24\n      tag_25\n      jump\t// in\n    tag_24:\n      mload(0x40)\n      tag_26\n      swap2\n      swap1\n      tag_23\n      jump\t// in\n    tag_26:\n      mload(0x40)\n      dup1\n      swap2\n      sub\n      swap1\n      return\n        /* \"Linear_Vesting/Vesting.sol\":428:454  uint256 public totalAmount */\n    tag_5:\n      tag_27\n      tag_28\n      jump\t// in\n    tag_27:\n      mload(0x40)\n      tag_29\n      swap2\n      swap1\n      tag_23\n      jump\t// in\n    tag_29:\n      mload(0x40)\n      dup1\n      swap2\n      sub\n      swap1\n      return\n        /* \"Linear_Vesting/Vesting.sol\":1303:1500  function getInitData(address _token, uint256 _amount, address _treasury, address _owner) external pure returns(bytes memory) {... */\n    tag_6:\n      tag_30\n      0x04\n      dup1\n      calldatasize\n      sub\n      dup2\n      add\n      swap1\n      tag_31\n      swap2\n      swap1\n      tag_32\n      jump\t// in\n    tag_31:\n      tag_33\n      jump\t// in\n    tag_30:\n      mload(0x40)\n      tag_34\n      swap2\n      swap1\n      tag_35\n      jump\t// in\n    tag_34:\n      mload(0x40)\n      dup1\n      swap2\n      sub\n      swap1\n      return\n        /* \"Linear_Vesting/Vesting.sol\":399:425  address public beneficiary */\n    tag_7:\n      tag_36\n      tag_37\n      jump\t// in\n    tag_36:\n      mload(0x40)\n      tag_38\n      swap2\n      swap1\n      tag_39\n      jump\t// in\n    tag_38:\n      mload(0x40)\n      dup1\n      swap2\n      sub\n      swap1\n      return\n        /* \"Linear_Vesting/Vesting.sol\":863:1294  function initialize(bytes memory _initData) external notInitialized returns(bool) {... */\n    tag_8:\n      tag_40\n      0x04\n      dup1\n      calldatasize\n      sub\n      dup2\n      add\n      swap1\n      tag_41\n      swap2\n      swap1\n      tag_42\n      jump\t// in\n    tag_41:\n      tag_43\n      jump\t// in\n    tag_40:\n      mload(0x40)\n      tag_44\n      swap2\n      swap1\n      tag_45\n      jump\t// in\n    tag_44:\n      mload(0x40)\n      dup1\n      swap2\n      sub\n      swap1\n      return\n        /* \"Linear_Vesting/Vesting.sol\":702:798  function vestedAmount() public {... */\n    tag_9:\n      tag_46\n      tag_47\n      jump\t// in\n    tag_46:\n      stop\n        /* \"Linear_Vesting/Vesting.sol\":672:698  function claim() public {} */\n    tag_10:\n      tag_48\n      tag_49\n      jump\t// in\n    tag_48:\n      stop\n        /* \"@openzeppelin/contracts/access/Ownable.sol\":2293:2394  function renounceOwnership() public virtual onlyOwner {... */\n    tag_11:\n      tag_50\n      tag_51\n      jump\t// in\n    tag_50:\n      stop\n        /* \"Linear_Vesting/Vesting.sol\":457:481  uint256 public startTime */\n    tag_12:\n      tag_52\n      tag_53\n      jump\t// in\n    tag_52:\n      mload(0x40)\n      tag_54\n      swap2\n      swap1\n      tag_23\n      jump\t// in\n    tag_54:\n      mload(0x40)\n      dup1\n      swap2\n      sub\n      swap1\n      return\n        /* \"@openzeppelin/contracts/access/Ownable.sol\":1638:1723  function owner() public view virtual returns (address) {... */\n    tag_13:\n      tag_55\n      tag_56\n      jump\t// in\n    tag_55:\n      mload(0x40)\n      tag_57\n      swap2\n      swap1\n      tag_39\n      jump\t// in\n    tag_57:\n      mload(0x40)\n      dup1\n      swap2\n      sub\n      swap1\n      return\n        /* \"Linear_Vesting/Vesting.sol\":802:843  function claimableAmount() public view {} */\n    tag_14:\n      tag_58\n      tag_59\n      jump\t// in\n    tag_58:\n      stop\n        /* \"@openzeppelin/contracts/access/Ownable.sol\":2543:2758  function transferOwnership(address newOwner) public virtual onlyOwner {... */\n    tag_15:\n      tag_60\n      0x04\n      dup1\n      calldatasize\n      sub\n      dup2\n      add\n      swap1\n      tag_61\n      swap2\n      swap1\n      tag_62\n      jump\t// in\n    tag_61:\n      tag_63\n      jump\t// in\n    tag_60:\n      stop\n        /* \"Linear_Vesting/Vesting.sol\":377:396  IERC20 public token */\n    tag_16:\n      tag_64\n      tag_65\n      jump\t// in\n    tag_64:\n      mload(0x40)\n      tag_66\n      swap2\n      swap1\n      tag_67\n      jump\t// in\n    tag_66:\n      mload(0x40)\n      dup1\n      swap2\n      sub\n      swap1\n      return\n        /* \"Linear_Vesting/Vesting.sol\":507:530  uint256 public duration */\n    tag_21:\n      sload(0x06)\n      dup2\n      jump\t// out\n        /* \"Linear_Vesting/Vesting.sol\":484:504  uint256 public cliff */\n    tag_25:\n      sload(0x05)\n      dup2\n      jump\t// out\n        /* \"Linear_Vesting/Vesting.sol\":428:454  uint256 public totalAmount */\n    tag_28:\n      sload(0x03)\n      dup2\n      jump\t// out\n        /* \"Linear_Vesting/Vesting.sol\":1303:1500  function getInitData(address _token, uint256 _amount, address _treasury, address _owner) external pure returns(bytes memory) {... */\n    tag_33:\n        /* \"Linear_Vesting/Vesting.sol\":1414:1426  bytes memory */\n      0x60\n        /* \"Linear_Vesting/Vesting.sol\":1457:1463  _token */\n      dup5\n        /* \"Linear_Vesting/Vesting.sol\":1465:1472  _amount */\n      dup5\n        /* \"Linear_Vesting/Vesting.sol\":1474:1483  _treasury */\n      dup5\n        /* \"Linear_Vesting/Vesting.sol\":1485:1491  _owner */\n      dup5\n        /* \"Linear_Vesting/Vesting.sol\":1446:1492  abi.encode(_token, _amount, _treasury, _owner) */\n      add(0x20, mload(0x40))\n      tag_69\n      swap5\n      swap4\n      swap3\n      swap2\n      swap1\n      tag_70\n      jump\t// in\n    tag_69:\n      mload(0x40)\n      0x20\n      dup2\n      dup4\n      sub\n      sub\n      dup2\n      mstore\n      swap1\n      0x40\n      mstore\n        /* \"Linear_Vesting/Vesting.sol\":1439:1492  return abi.encode(_token, _amount, _treasury, _owner) */\n      swap1\n      pop\n        /* \"Linear_Vesting/Vesting.sol\":1303:1500  function getInitData(address _token, uint256 _amount, address _treasury, address _owner) external pure returns(bytes memory) {... */\n      swap5\n      swap4\n      pop\n      pop\n      pop\n      pop\n      jump\t// out\n        /* \"Linear_Vesting/Vesting.sol\":399:425  address public beneficiary */\n    tag_37:\n      0x02\n      0x00\n      swap1\n      sload\n      swap1\n      0x0100\n      exp\n      swap1\n      div\n      0xffffffffffffffffffffffffffffffffffffffff\n      and\n      dup2\n      jump\t// out\n        /* \"Linear_Vesting/Vesting.sol\":863:1294  function initialize(bytes memory _initData) external notInitialized returns(bool) {... */\n    tag_43:\n        /* \"Linear_Vesting/Vesting.sol\":939:943  bool */\n      0x00\n        /* \"Linear_Vesting/Vesting.sol\":616:627  initialized */\n      0x00\n      0x14\n      swap1\n      sload\n      swap1\n      0x0100\n      exp\n      swap1\n      div\n      0xff\n      and\n        /* \"Linear_Vesting/Vesting.sol\":615:627  !initialized */\n      iszero\n        /* \"Linear_Vesting/Vesting.sol\":607:650  require(!initialized, AlreadyInitialized()) */\n      tag_72\n      jumpi\n      mload(0x40)\n      0x0dc149f000000000000000000000000000000000000000000000000000000000\n      dup2\n      mstore\n      0x04\n      add\n      mload(0x40)\n      dup1\n      swap2\n      sub\n      swap1\n      revert\n    tag_72:\n        /* \"Linear_Vesting/Vesting.sol\":959:973  address _token */\n      0x00\n        /* \"Linear_Vesting/Vesting.sol\":975:990  uint256 _amount */\n      0x00\n        /* \"Linear_Vesting/Vesting.sol\":992:1009  address _treasury */\n      0x00\n        /* \"Linear_Vesting/Vesting.sol\":1011:1025  address _owner */\n      0x00\n        /* \"Linear_Vesting/Vesting.sol\":1040:1049  _initData */\n      dup6\n        /* \"Linear_Vesting/Vesting.sol\":1029:1088  abi.decode(_initData, (address, uint256, address, address)) */\n      dup1\n      0x20\n      add\n      swap1\n      mload\n      dup2\n      add\n      swap1\n      tag_74\n      swap2\n      swap1\n      tag_75\n      jump\t// in\n    tag_74:\n        /* \"Linear_Vesting/Vesting.sol\":958:1088  (address _token, uint256 _amount, address _treasury, address _owner) = abi.decode(_initData, (address, uint256, address, address)) */\n      swap4\n      pop\n      swap4\n      pop\n      swap4\n      pop\n      swap4\n      pop\n        /* \"Linear_Vesting/Vesting.sol\":1200:1233  Ownable.transferOwnership(_owner) */\n      tag_76\n        /* \"Linear_Vesting/Vesting.sol\":1226:1232  _owner */\n      dup2\n        /* \"Linear_Vesting/Vesting.sol\":1200:1225  Ownable.transferOwnership */\n      tag_63\n        /* \"Linear_Vesting/Vesting.sol\":1200:1233  Ownable.transferOwnership(_owner) */\n      jump\t// in\n    tag_76:\n        /* \"Linear_Vesting/Vesting.sol\":1260:1264  true */\n      0x01\n        /* \"Linear_Vesting/Vesting.sol\":1246:1257  initialized */\n      0x00\n      0x14\n        /* \"Linear_Vesting/Vesting.sol\":1246:1264  initialized = true */\n      0x0100\n      exp\n      dup2\n      sload\n      dup2\n      0xff\n      mul\n      not\n      and\n      swap1\n      dup4\n      iszero\n      iszero\n      mul\n      or\n      swap1\n      sstore\n      pop\n        /* \"Linear_Vesting/Vesting.sol\":1282:1286  true */\n      0x01\n        /* \"Linear_Vesting/Vesting.sol\":1275:1286  return true */\n      swap5\n      pop\n      pop\n      pop\n      pop\n      pop\n        /* \"Linear_Vesting/Vesting.sol\":863:1294  function initialize(bytes memory _initData) external notInitialized returns(bool) {... */\n      swap2\n      swap1\n      pop\n      jump\t// out\n        /* \"Linear_Vesting/Vesting.sol\":702:798  function vestedAmount() public {... */\n    tag_47:\n        /* \"Linear_Vesting/Vesting.sol\":740:758  uint256 passedTime */\n      0x00\n        /* \"Linear_Vesting/Vesting.sol\":786:791  cliff */\n      sload(0x05)\n        /* \"Linear_Vesting/Vesting.sol\":776:785  startTime */\n      sload(0x04)\n        /* \"Linear_Vesting/Vesting.sol\":776:791  startTime+cliff */\n      tag_78\n      swap2\n      swap1\n      tag_79\n      jump\t// in\n    tag_78:\n        /* \"Linear_Vesting/Vesting.sol\":759:774  block.timestamp */\n      timestamp\n        /* \"Linear_Vesting/Vesting.sol\":759:792  block.timestamp-(startTime+cliff) */\n      tag_80\n      swap2\n      swap1\n      tag_81\n      jump\t// in\n    tag_80:\n        /* \"Linear_Vesting/Vesting.sol\":740:792  uint256 passedTime=block.timestamp-(startTime+cliff) */\n      swap1\n      pop\n        /* \"Linear_Vesting/Vesting.sol\":733:798  {... */\n      pop\n        /* \"Linear_Vesting/Vesting.sol\":702:798  function vestedAmount() public {... */\n      jump\t// out\n        /* \"Linear_Vesting/Vesting.sol\":672:698  function claim() public {} */\n    tag_49:\n      jump\t// out\n        /* \"@openzeppelin/contracts/access/Ownable.sol\":2293:2394  function renounceOwnership() public virtual onlyOwner {... */\n    tag_51:\n        /* \"@openzeppelin/contracts/access/Ownable.sol\":1531:1544  _checkOwner() */\n      tag_84\n        /* \"@openzeppelin/contracts/access/Ownable.sol\":1531:1542  _checkOwner */\n      tag_85\n        /* \"@openzeppelin/contracts/access/Ownable.sol\":1531:1544  _checkOwner() */\n      jump\t// in\n    tag_84:\n        /* \"@openzeppelin/contracts/access/Ownable.sol\":2357:2387  _transferOwnership(address(0)) */\n      tag_87\n        /* \"@openzeppelin/contracts/access/Ownable.sol\":2384:2385  0 */\n      0x00\n        /* \"@openzeppelin/contracts/access/Ownable.sol\":2357:2375  _transferOwnership */\n      tag_88\n        /* \"@openzeppelin/contracts/access/Ownable.sol\":2357:2387  _transferOwnership(address(0)) */\n      jump\t// in\n    tag_87:\n        /* \"@openzeppelin/contracts/access/Ownable.sol\":2293:2394  function renounceOwnership() public virtual onlyOwner {... */\n      jump\t// out\n        /* \"Linear_Vesting/Vesting.sol\":457:481  uint256 public startTime */\n    tag_53:\n      sload(0x04)\n      dup2\n      jump\t// out\n        /* \"@openzeppelin/contracts/access/Ownable.sol\":1638:1723  function owner() public view virtual returns (address) {... */\n    tag_56:\n        /* \"@openzeppelin/contracts/access/Ownable.sol\":1684:1691  address */\n      0x00\n        /* \"@openzeppelin/contracts/access/Ownable.sol\":1710:1716  _owner */\n      0x00\n      0x00\n      swap1\n      sload\n      swap1\n      0x0100\n      exp\n      swap1\n      div\n      0xffffffffffffffffffffffffffffffffffffffff\n      and\n        /* \"@openzeppelin/contracts/access/Ownable.sol\":1703:1716  return _owner */\n      swap1\n      pop\n        /* \"@openzeppelin/contracts/access/Ownable.sol\":1638:1723  function owner() public view virtual returns (address) {... */\n      swap1\n      jump\t// out\n        /* \"Linear_Vesting/Vesting.sol\":802:843  function claimableAmount() public view {} */\n    tag_59:\n      jump\t// out\n        /* \"@openzeppelin/contracts/access/Ownable.sol\":2543:2758  function transferOwnership(address newOwner) public virtual onlyOwner {... */\n    tag_63:\n        /* \"@openzeppelin/contracts/access/Ownable.sol\":1531:1544  _checkOwner() */\n      tag_92\n        /* \"@openzeppelin/contracts/access/Ownable.sol\":1531:1542  _checkOwner */\n      tag_85\n        /* \"@openzeppelin/contracts/access/Ownable.sol\":1531:1544  _checkOwner() */\n      jump\t// in\n    tag_92:\n        /* \"@openzeppelin/contracts/access/Ownable.sol\":2647:2648  0 */\n      0x00\n        /* \"@openzeppelin/contracts/access/Ownable.sol\":2627:2649  newOwner == address(0) */\n      0xffffffffffffffffffffffffffffffffffffffff\n      and\n        /* \"@openzeppelin/contracts/access/Ownable.sol\":2627:2635  newOwner */\n      dup2\n        /* \"@openzeppelin/contracts/access/Ownable.sol\":2627:2649  newOwner == address(0) */\n      0xffffffffffffffffffffffffffffffffffffffff\n      and\n      sub\n        /* \"@openzeppelin/contracts/access/Ownable.sol\":2623:2714  if (newOwner == address(0)) {... */\n      tag_94\n      jumpi\n        /* \"@openzeppelin/contracts/access/Ownable.sol\":2700:2701  0 */\n      0x00\n        /* \"@openzeppelin/contracts/access/Ownable.sol\":2672:2703  OwnableInvalidOwner(address(0)) */\n      mload(0x40)\n      0x1e4fbdf700000000000000000000000000000000000000000000000000000000\n      dup2\n      mstore\n      0x04\n      add\n      tag_95\n      swap2\n      swap1\n      tag_39\n      jump\t// in\n    tag_95:\n      mload(0x40)\n      dup1\n      swap2\n      sub\n      swap1\n      revert\n        /* \"@openzeppelin/contracts/access/Ownable.sol\":2623:2714  if (newOwner == address(0)) {... */\n    tag_94:\n        /* \"@openzeppelin/contracts/access/Ownable.sol\":2723:2751  _transferOwnership(newOwner) */\n      tag_96\n        /* \"@openzeppelin/contracts/access/Ownable.sol\":2742:2750  newOwner */\n      dup2\n        /* \"@openzeppelin/contracts/access/Ownable.sol\":2723:2741  _transferOwnership */\n      tag_88\n        /* \"@openzeppelin/contracts/access/Ownable.sol\":2723:2751  _transferOwnership(newOwner) */\n      jump\t// in\n    tag_96:\n        /* \"@openzeppelin/contracts/access/Ownable.sol\":2543:2758  function transferOwnership(address newOwner) public virtual onlyOwner {... */\n      pop\n      jump\t// out\n        /* \"Linear_Vesting/Vesting.sol\":377:396  IERC20 public token */\n    tag_65:\n      0x01\n      0x00\n      swap1\n      sload\n      swap1\n      0x0100\n      exp\n      swap1\n      div\n      0xffffffffffffffffffffffffffffffffffffffff\n      and\n      dup2\n      jump\t// out\n        /* \"@openzeppelin/contracts/access/Ownable.sol\":1796:1958  function _checkOwner() internal view virtual {... */\n    tag_85:\n        /* \"@openzeppelin/contracts/access/Ownable.sol\":1866:1878  _msgSender() */\n      tag_98\n        /* \"@openzeppelin/contracts/access/Ownable.sol\":1866:1876  _msgSender */\n      tag_99\n        /* \"@openzeppelin/contracts/access/Ownable.sol\":1866:1878  _msgSender() */\n      jump\t// in\n    tag_98:\n        /* \"@openzeppelin/contracts/access/Ownable.sol\":1855:1878  owner() != _msgSender() */\n      0xffffffffffffffffffffffffffffffffffffffff\n      and\n        /* \"@openzeppelin/contracts/access/Ownable.sol\":1855:1862  owner() */\n      tag_100\n        /* \"@openzeppelin/contracts/access/Ownable.sol\":1855:1860  owner */\n      tag_56\n        /* \"@openzeppelin/contracts/access/Ownable.sol\":1855:1862  owner() */\n      jump\t// in\n    tag_100:\n        /* \"@openzeppelin/contracts/access/Ownable.sol\":1855:1878  owner() != _msgSender() */\n      0xffffffffffffffffffffffffffffffffffffffff\n      and\n      eq\n        /* \"@openzeppelin/contracts/access/Ownable.sol\":1851:1952  if (owner() != _msgSender()) {... */\n      tag_101\n      jumpi\n        /* \"@openzeppelin/contracts/access/Ownable.sol\":1928:1940  _msgSender() */\n      tag_102\n        /* \"@openzeppelin/contracts/access/Ownable.sol\":1928:1938  _msgSender */\n      tag_99\n        /* \"@openzeppelin/contracts/access/Ownable.sol\":1928:1940  _msgSender() */\n      jump\t// in\n    tag_102:\n        /* \"@openzeppelin/contracts/access/Ownable.sol\":1901:1941  OwnableUnauthorizedAccount(_msgSender()) */\n      mload(0x40)\n      0x118cdaa700000000000000000000000000000000000000000000000000000000\n      dup2\n      mstore\n      0x04\n      add\n      tag_103\n      swap2\n      swap1\n      tag_39\n      jump\t// in\n    tag_103:\n      mload(0x40)\n      dup1\n      swap2\n      sub\n      swap1\n      revert\n        /* \"@openzeppelin/contracts/access/Ownable.sol\":1851:1952  if (owner() != _msgSender()) {... */\n    tag_101:\n        /* \"@openzeppelin/contracts/access/Ownable.sol\":1796:1958  function _checkOwner() internal view virtual {... */\n      jump\t// out\n        /* \"@openzeppelin/contracts/access/Ownable.sol\":2912:3099  function _transferOwnership(address newOwner) internal virtual {... */\n    tag_88:\n        /* \"@openzeppelin/contracts/access/Ownable.sol\":2985:3001  address oldOwner */\n      0x00\n        /* \"@openzeppelin/contracts/access/Ownable.sol\":3004:3010  _owner */\n      0x00\n      0x00\n      swap1\n      sload\n      swap1\n      0x0100\n      exp\n      swap1\n      div\n      0xffffffffffffffffffffffffffffffffffffffff\n      and\n        /* \"@openzeppelin/contracts/access/Ownable.sol\":2985:3010  address oldOwner = _owner */\n      swap1\n      pop\n        /* \"@openzeppelin/contracts/access/Ownable.sol\":3029:3037  newOwner */\n      dup2\n        /* \"@openzeppelin/contracts/access/Ownable.sol\":3020:3026  _owner */\n      0x00\n      0x00\n        /* \"@openzeppelin/contracts/access/Ownable.sol\":3020:3037  _owner = newOwner */\n      0x0100\n      exp\n      dup2\n      sload\n      dup2\n      0xffffffffffffffffffffffffffffffffffffffff\n      mul\n      not\n      and\n      swap1\n      dup4\n      0xffffffffffffffffffffffffffffffffffffffff\n      and\n      mul\n      or\n      swap1\n      sstore\n      pop\n        /* \"@openzeppelin/contracts/access/Ownable.sol\":3083:3091  newOwner */\n      dup2\n        /* \"@openzeppelin/contracts/access/Ownable.sol\":3052:3092  OwnershipTransferred(oldOwner, newOwner) */\n      0xffffffffffffffffffffffffffffffffffffffff\n      and\n        /* \"@openzeppelin/contracts/access/Ownable.sol\":3073:3081  oldOwner */\n      dup2\n        /* \"@openzeppelin/contracts/access/Ownable.sol\":3052:3092  OwnershipTransferred(oldOwner, newOwner) */\n      0xffffffffffffffffffffffffffffffffffffffff\n      and\n      0x8be0079c531659141344cd1fd0a4f28419497f9722a3daafe3b4186f6b6457e0\n      mload(0x40)\n      mload(0x40)\n      dup1\n      swap2\n      sub\n      swap1\n      log3\n        /* \"@openzeppelin/contracts/access/Ownable.sol\":2975:3099  {... */\n      pop\n        /* \"@openzeppelin/contracts/access/Ownable.sol\":2912:3099  function _transferOwnership(address newOwner) internal virtual {... */\n      pop\n      jump\t// out\n        /* \"@openzeppelin/contracts/utils/Context.sol\":656:752  function _msgSender() internal view virtual returns (address) {... */\n    tag_99:\n        /* \"@openzeppelin/contracts/utils/Context.sol\":709:716  address */\n      0x00\n        /* \"@openzeppelin/contracts/utils/Context.sol\":735:745  msg.sender */\n      caller\n        /* \"@openzeppelin/contracts/utils/Context.sol\":728:745  return msg.sender */\n      swap1\n      pop\n        /* \"@openzeppelin/contracts/utils/Context.sol\":656:752  function _msgSender() internal view virtual returns (address) {... */\n      swap1\n      jump\t// out\n        /* \"#utility.yul\":7:84   */\n    tag_106:\n        /* \"#utility.yul\":44:51   */\n      0x00\n        /* \"#utility.yul\":73:78   */\n      dup2\n        /* \"#utility.yul\":62:78   */\n      swap1\n      pop\n        /* \"#utility.yul\":7:84   */\n      swap2\n      swap1\n      pop\n      jump\t// out\n        /* \"#utility.yul\":90:208   */\n    tag_107:\n        /* \"#utility.yul\":177:201   */\n      tag_147\n        /* \"#utility.yul\":195:200   */\n      dup2\n        /* \"#utility.yul\":177:201   */\n      tag_106\n      jump\t// in\n    tag_147:\n        /* \"#utility.yul\":172:175   */\n      dup3\n        /* \"#utility.yul\":165:202   */\n      mstore\n        /* \"#utility.yul\":90:208   */\n      pop\n      pop\n      jump\t// out\n        /* \"#utility.yul\":214:436   */\n    tag_23:\n        /* \"#utility.yul\":307:311   */\n      0x00\n        /* \"#utility.yul\":345:347   */\n      0x20\n        /* \"#utility.yul\":334:343   */\n      dup3\n        /* \"#utility.yul\":330:348   */\n      add\n        /* \"#utility.yul\":322:348   */\n      swap1\n      pop\n        /* \"#utility.yul\":358:429   */\n      tag_149\n        /* \"#utility.yul\":426:427   */\n      0x00\n        /* \"#utility.yul\":415:424   */\n      dup4\n        /* \"#utility.yul\":411:428   */\n      add\n        /* \"#utility.yul\":402:408   */\n      dup5\n        /* \"#utility.yul\":358:429   */\n      tag_107\n      jump\t// in\n    tag_149:\n        /* \"#utility.yul\":214:436   */\n      swap3\n      swap2\n      pop\n      pop\n      jump\t// out\n        /* \"#utility.yul\":442:517   */\n    tag_108:\n        /* \"#utility.yul\":475:481   */\n      0x00\n        /* \"#utility.yul\":508:510   */\n      0x40\n        /* \"#utility.yul\":502:511   */\n      mload\n        /* \"#utility.yul\":492:511   */\n      swap1\n      pop\n        /* \"#utility.yul\":442:517   */\n      swap1\n      jump\t// out\n        /* \"#utility.yul\":523:640   */\n    tag_109:\n        /* \"#utility.yul\":632:633   */\n      0x00\n        /* \"#utility.yul\":629:630   */\n      0x00\n        /* \"#utility.yul\":622:634   */\n      revert\n        /* \"#utility.yul\":646:763   */\n    tag_110:\n        /* \"#utility.yul\":755:756   */\n      0x00\n        /* \"#utility.yul\":752:753   */\n      0x00\n        /* \"#utility.yul\":745:757   */\n      revert\n        /* \"#utility.yul\":769:895   */\n    tag_111:\n        /* \"#utility.yul\":806:813   */\n      0x00\n        /* \"#utility.yul\":846:888   */\n      0xffffffffffffffffffffffffffffffffffffffff\n        /* \"#utility.yul\":839:844   */\n      dup3\n        /* \"#utility.yul\":835:889   */\n      and\n        /* \"#utility.yul\":824:889   */\n      swap1\n      pop\n        /* \"#utility.yul\":769:895   */\n      swap2\n      swap1\n      pop\n      jump\t// out\n        /* \"#utility.yul\":901:997   */\n    tag_112:\n        /* \"#utility.yul\":938:945   */\n      0x00\n        /* \"#utility.yul\":967:991   */\n      tag_155\n        /* \"#utility.yul\":985:990   */\n      dup3\n        /* \"#utility.yul\":967:991   */\n      tag_111\n      jump\t// in\n    tag_155:\n        /* \"#utility.yul\":956:991   */\n      swap1\n      pop\n        /* \"#utility.yul\":901:997   */\n      swap2\n      swap1\n      pop\n      jump\t// out\n        /* \"#utility.yul\":1003:1125   */\n    tag_113:\n        /* \"#utility.yul\":1076:1100   */\n      tag_157\n        /* \"#utility.yul\":1094:1099   */\n      dup2\n        /* \"#utility.yul\":1076:1100   */\n      tag_112\n      jump\t// in\n    tag_157:\n        /* \"#utility.yul\":1069:1074   */\n      dup2\n        /* \"#utility.yul\":1066:1101   */\n      eq\n        /* \"#utility.yul\":1056:1119   */\n      tag_158\n      jumpi\n        /* \"#utility.yul\":1115:1116   */\n      0x00\n        /* \"#utility.yul\":1112:1113   */\n      0x00\n        /* \"#utility.yul\":1105:1117   */\n      revert\n        /* \"#utility.yul\":1056:1119   */\n    tag_158:\n        /* \"#utility.yul\":1003:1125   */\n      pop\n      jump\t// out\n        /* \"#utility.yul\":1131:1270   */\n    tag_114:\n        /* \"#utility.yul\":1177:1182   */\n      0x00\n        /* \"#utility.yul\":1215:1221   */\n      dup2\n        /* \"#utility.yul\":1202:1222   */\n      calldataload\n        /* \"#utility.yul\":1193:1222   */\n      swap1\n      pop\n        /* \"#utility.yul\":1231:1264   */\n      tag_160\n        /* \"#utility.yul\":1258:1263   */\n      dup2\n        /* \"#utility.yul\":1231:1264   */\n      tag_113\n      jump\t// in\n    tag_160:\n        /* \"#utility.yul\":1131:1270   */\n      swap3\n      swap2\n      pop\n      pop\n      jump\t// out\n        /* \"#utility.yul\":1276:1398   */\n    tag_115:\n        /* \"#utility.yul\":1349:1373   */\n      tag_162\n        /* \"#utility.yul\":1367:1372   */\n      dup2\n        /* \"#utility.yul\":1349:1373   */\n      tag_106\n      jump\t// in\n    tag_162:\n        /* \"#utility.yul\":1342:1347   */\n      dup2\n        /* \"#utility.yul\":1339:1374   */\n      eq\n        /* \"#utility.yul\":1329:1392   */\n      tag_163\n      jumpi\n        /* \"#utility.yul\":1388:1389   */\n      0x00\n        /* \"#utility.yul\":1385:1386   */\n      0x00\n        /* \"#utility.yul\":1378:1390   */\n      revert\n        /* \"#utility.yul\":1329:1392   */\n    tag_163:\n        /* \"#utility.yul\":1276:1398   */\n      pop\n      jump\t// out\n        /* \"#utility.yul\":1404:1543   */\n    tag_116:\n        /* \"#utility.yul\":1450:1455   */\n      0x00\n        /* \"#utility.yul\":1488:1494   */\n      dup2\n        /* \"#utility.yul\":1475:1495   */\n      calldataload\n        /* \"#utility.yul\":1466:1495   */\n      swap1\n      pop\n        /* \"#utility.yul\":1504:1537   */\n      tag_165\n        /* \"#utility.yul\":1531:1536   */\n      dup2\n        /* \"#utility.yul\":1504:1537   */\n      tag_115\n      jump\t// in\n    tag_165:\n        /* \"#utility.yul\":1404:1543   */\n      swap3\n      swap2\n      pop\n      pop\n      jump\t// out\n        /* \"#utility.yul\":1549:2314   */\n    tag_32:\n        /* \"#utility.yul\":1635:1641   */\n      0x00\n        /* \"#utility.yul\":1643:1649   */\n      0x00\n        /* \"#utility.yul\":1651:1657   */\n      0x00\n        /* \"#utility.yul\":1659:1665   */\n      0x00\n        /* \"#utility.yul\":1708:1711   */\n      0x80\n        /* \"#utility.yul\":1696:1705   */\n      dup6\n        /* \"#utility.yul\":1687:1694   */\n      dup8\n        /* \"#utility.yul\":1683:1706   */\n      sub\n        /* \"#utility.yul\":1679:1712   */\n      slt\n        /* \"#utility.yul\":1676:1796   */\n      iszero\n      tag_167\n      jumpi\n        /* \"#utility.yul\":1715:1794   */\n      tag_168\n      tag_109\n      jump\t// in\n    tag_168:\n        /* \"#utility.yul\":1676:1796   */\n    tag_167:\n        /* \"#utility.yul\":1835:1836   */\n      0x00\n        /* \"#utility.yul\":1860:1913   */\n      tag_169\n        /* \"#utility.yul\":1905:1912   */\n      dup8\n        /* \"#utility.yul\":1896:1902   */\n      dup3\n        /* \"#utility.yul\":1885:1894   */\n      dup9\n        /* \"#utility.yul\":1881:1903   */\n      add\n        /* \"#utility.yul\":1860:1913   */\n      tag_114\n      jump\t// in\n    tag_169:\n        /* \"#utility.yul\":1850:1913   */\n      swap5\n      pop\n        /* \"#utility.yul\":1806:1923   */\n      pop\n        /* \"#utility.yul\":1962:1964   */\n      0x20\n        /* \"#utility.yul\":1988:2041   */\n      tag_170\n        /* \"#utility.yul\":2033:2040   */\n      dup8\n        /* \"#utility.yul\":2024:2030   */\n      dup3\n        /* \"#utility.yul\":2013:2022   */\n      dup9\n        /* \"#utility.yul\":2009:2031   */\n      add\n        /* \"#utility.yul\":1988:2041   */\n      tag_116\n      jump\t// in\n    tag_170:\n        /* \"#utility.yul\":1978:2041   */\n      swap4\n      pop\n        /* \"#utility.yul\":1933:2051   */\n      pop\n        /* \"#utility.yul\":2090:2092   */\n      0x40\n        /* \"#utility.yul\":2116:2169   */\n      tag_171\n        /* \"#utility.yul\":2161:2168   */\n      dup8\n        /* \"#utility.yul\":2152:2158   */\n      dup3\n        /* \"#utility.yul\":2141:2150   */\n      dup9\n        /* \"#utility.yul\":2137:2159   */\n      add\n        /* \"#utility.yul\":2116:2169   */\n      tag_114\n      jump\t// in\n    tag_171:\n        /* \"#utility.yul\":2106:2169   */\n      swap3\n      pop\n        /* \"#utility.yul\":2061:2179   */\n      pop\n        /* \"#utility.yul\":2218:2220   */\n      0x60\n        /* \"#utility.yul\":2244:2297   */\n      tag_172\n        /* \"#utility.yul\":2289:2296   */\n      dup8\n        /* \"#utility.yul\":2280:2286   */\n      dup3\n        /* \"#utility.yul\":2269:2278   */\n      dup9\n        /* \"#utility.yul\":2265:2287   */\n      add\n        /* \"#utility.yul\":2244:2297   */\n      tag_114\n      jump\t// in\n    tag_172:\n        /* \"#utility.yul\":2234:2297   */\n      swap2\n      pop\n        /* \"#utility.yul\":2189:2307   */\n      pop\n        /* \"#utility.yul\":1549:2314   */\n      swap3\n      swap6\n      swap2\n      swap5\n      pop\n      swap3\n      pop\n      jump\t// out\n        /* \"#utility.yul\":2320:2418   */\n    tag_117:\n        /* \"#utility.yul\":2371:2377   */\n      0x00\n        /* \"#utility.yul\":2405:2410   */\n      dup2\n        /* \"#utility.yul\":2399:2411   */\n      mload\n        /* \"#utility.yul\":2389:2411   */\n      swap1\n      pop\n        /* \"#utility.yul\":2320:2418   */\n      swap2\n      swap1\n      pop\n      jump\t// out\n        /* \"#utility.yul\":2424:2592   */\n    tag_118:\n        /* \"#utility.yul\":2507:2518   */\n      0x00\n        /* \"#utility.yul\":2541:2547   */\n      dup3\n        /* \"#utility.yul\":2536:2539   */\n      dup3\n        /* \"#utility.yul\":2529:2548   */\n      mstore\n        /* \"#utility.yul\":2581:2585   */\n      0x20\n        /* \"#utility.yul\":2576:2579   */\n      dup3\n        /* \"#utility.yul\":2572:2586   */\n      add\n        /* \"#utility.yul\":2557:2586   */\n      swap1\n      pop\n        /* \"#utility.yul\":2424:2592   */\n      swap3\n      swap2\n      pop\n      pop\n      jump\t// out\n        /* \"#utility.yul\":2598:2737   */\n    tag_119:\n        /* \"#utility.yul\":2687:2693   */\n      dup3\n        /* \"#utility.yul\":2682:2685   */\n      dup2\n        /* \"#utility.yul\":2677:2680   */\n      dup4\n        /* \"#utility.yul\":2671:2694   */\n      mcopy\n        /* \"#utility.yul\":2728:2729   */\n      0x00\n        /* \"#utility.yul\":2719:2725   */\n      dup4\n        /* \"#utility.yul\":2714:2717   */\n      dup4\n        /* \"#utility.yul\":2710:2726   */\n      add\n        /* \"#utility.yul\":2703:2730   */\n      mstore\n        /* \"#utility.yul\":2598:2737   */\n      pop\n      pop\n      pop\n      jump\t// out\n        /* \"#utility.yul\":2743:2845   */\n    tag_120:\n        /* \"#utility.yul\":2784:2790   */\n      0x00\n        /* \"#utility.yul\":2835:2837   */\n      0x1f\n        /* \"#utility.yul\":2831:2838   */\n      not\n        /* \"#utility.yul\":2826:2828   */\n      0x1f\n        /* \"#utility.yul\":2819:2824   */\n      dup4\n        /* \"#utility.yul\":2815:2829   */\n      add\n        /* \"#utility.yul\":2811:2839   */\n      and\n        /* \"#utility.yul\":2801:2839   */\n      swap1\n      pop\n        /* \"#utility.yul\":2743:2845   */\n      swap2\n      swap1\n      pop\n      jump\t// out\n        /* \"#utility.yul\":2851:3224   */\n    tag_121:\n        /* \"#utility.yul\":2937:2940   */\n      0x00\n        /* \"#utility.yul\":2965:3003   */\n      tag_178\n        /* \"#utility.yul\":2997:3002   */\n      dup3\n        /* \"#utility.yul\":2965:3003   */\n      tag_117\n      jump\t// in\n    tag_178:\n        /* \"#utility.yul\":3019:3089   */\n      tag_179\n        /* \"#utility.yul\":3082:3088   */\n      dup2\n        /* \"#utility.yul\":3077:3080   */\n      dup6\n        /* \"#utility.yul\":3019:3089   */\n      tag_118\n      jump\t// in\n    tag_179:\n        /* \"#utility.yul\":3012:3089   */\n      swap4\n      pop\n        /* \"#utility.yul\":3098:3163   */\n      tag_180\n        /* \"#utility.yul\":3156:3162   */\n      dup2\n        /* \"#utility.yul\":3151:3154   */\n      dup6\n        /* \"#utility.yul\":3144:3148   */\n      0x20\n        /* \"#utility.yul\":3137:3142   */\n      dup7\n        /* \"#utility.yul\":3133:3149   */\n      add\n        /* \"#utility.yul\":3098:3163   */\n      tag_119\n      jump\t// in\n    tag_180:\n        /* \"#utility.yul\":3188:3217   */\n      tag_181\n        /* \"#utility.yul\":3210:3216   */\n      dup2\n        /* \"#utility.yul\":3188:3217   */\n      tag_120\n      jump\t// in\n    tag_181:\n        /* \"#utility.yul\":3183:3186   */\n      dup5\n        /* \"#utility.yul\":3179:3218   */\n      add\n        /* \"#utility.yul\":3172:3218   */\n      swap2\n      pop\n        /* \"#utility.yul\":2941:3224   */\n      pop\n        /* \"#utility.yul\":2851:3224   */\n      swap3\n      swap2\n      pop\n      pop\n      jump\t// out\n        /* \"#utility.yul\":3230:3539   */\n    tag_35:\n        /* \"#utility.yul\":3341:3345   */\n      0x00\n        /* \"#utility.yul\":3379:3381   */\n      0x20\n        /* \"#utility.yul\":3368:3377   */\n      dup3\n        /* \"#utility.yul\":3364:3382   */\n      add\n        /* \"#utility.yul\":3356:3382   */\n      swap1\n      pop\n        /* \"#utility.yul\":3428:3437   */\n      dup2\n        /* \"#utility.yul\":3422:3426   */\n      dup2\n        /* \"#utility.yul\":3418:3438   */\n      sub\n        /* \"#utility.yul\":3414:3415   */\n      0x00\n        /* \"#utility.yul\":3403:3412   */\n      dup4\n        /* \"#utility.yul\":3399:3416   */\n      add\n        /* \"#utility.yul\":3392:3439   */\n      mstore\n        /* \"#utility.yul\":3456:3532   */\n      tag_183\n        /* \"#utility.yul\":3527:3531   */\n      dup2\n        /* \"#utility.yul\":3518:3524   */\n      dup5\n        /* \"#utility.yul\":3456:3532   */\n      tag_121\n      jump\t// in\n    tag_183:\n        /* \"#utility.yul\":3448:3532   */\n      swap1\n      pop\n        /* \"#utility.yul\":3230:3539   */\n      swap3\n      swap2\n      pop\n      pop\n      jump\t// out\n        /* \"#utility.yul\":3545:3663   */\n    tag_122:\n        /* \"#utility.yul\":3632:3656   */\n      tag_185\n        /* \"#utility.yul\":3650:3655   */\n      dup2\n        /* \"#utility.yul\":3632:3656   */\n      tag_112\n      jump\t// in\n    tag_185:\n        /* \"#utility.yul\":3627:3630   */\n      dup3\n        /* \"#utility.yul\":3620:3657   */\n      mstore\n        /* \"#utility.yul\":3545:3663   */\n      pop\n      pop\n      jump\t// out\n        /* \"#utility.yul\":3669:3891   */\n    tag_39:\n        /* \"#utility.yul\":3762:3766   */\n      0x00\n        /* \"#utility.yul\":3800:3802   */\n      0x20\n        /* \"#utility.yul\":3789:3798   */\n      dup3\n        /* \"#utility.yul\":3785:3803   */\n      add\n        /* \"#utility.yul\":3777:3803   */\n      swap1\n      pop\n        /* \"#utility.yul\":3813:3884   */\n      tag_187\n        /* \"#utility.yul\":3881:3882   */\n      0x00\n        /* \"#utility.yul\":3870:3879   */\n      dup4\n        /* \"#utility.yul\":3866:3883   */\n      add\n        /* \"#utility.yul\":3857:3863   */\n      dup5\n        /* \"#utility.yul\":3813:3884   */\n      tag_122\n      jump\t// in\n    tag_187:\n        /* \"#utility.yul\":3669:3891   */\n      swap3\n      swap2\n      pop\n      pop\n      jump\t// out\n        /* \"#utility.yul\":3897:4014   */\n    tag_123:\n        /* \"#utility.yul\":4006:4007   */\n      0x00\n        /* \"#utility.yul\":4003:4004   */\n      0x00\n        /* \"#utility.yul\":3996:4008   */\n      revert\n        /* \"#utility.yul\":4020:4137   */\n    tag_124:\n        /* \"#utility.yul\":4129:4130   */\n      0x00\n        /* \"#utility.yul\":4126:4127   */\n      0x00\n        /* \"#utility.yul\":4119:4131   */\n      revert\n        /* \"#utility.yul\":4143:4323   */\n    tag_125:\n        /* \"#utility.yul\":4191:4268   */\n      0x4e487b7100000000000000000000000000000000000000000000000000000000\n        /* \"#utility.yul\":4188:4189   */\n      0x00\n        /* \"#utility.yul\":4181:4269   */\n      mstore\n        /* \"#utility.yul\":4288:4292   */\n      0x41\n        /* \"#utility.yul\":4285:4286   */\n      0x04\n        /* \"#utility.yul\":4278:4293   */\n      mstore\n        /* \"#utility.yul\":4312:4316   */\n      0x24\n        /* \"#utility.yul\":4309:4310   */\n      0x00\n        /* \"#utility.yul\":4302:4317   */\n      revert\n        /* \"#utility.yul\":4329:4610   */\n    tag_126:\n        /* \"#utility.yul\":4412:4439   */\n      tag_192\n        /* \"#utility.yul\":4434:4438   */\n      dup3\n        /* \"#utility.yul\":4412:4439   */\n      tag_120\n      jump\t// in\n    tag_192:\n        /* \"#utility.yul\":4404:4410   */\n      dup2\n        /* \"#utility.yul\":4400:4440   */\n      add\n        /* \"#utility.yul\":4542:4548   */\n      dup2\n        /* \"#utility.yul\":4530:4540   */\n      dup2\n        /* \"#utility.yul\":4527:4549   */\n      lt\n        /* \"#utility.yul\":4506:4524   */\n      0xffffffffffffffff\n        /* \"#utility.yul\":4494:4504   */\n      dup3\n        /* \"#utility.yul\":4491:4525   */\n      gt\n        /* \"#utility.yul\":4488:4550   */\n      or\n        /* \"#utility.yul\":4485:4573   */\n      iszero\n      tag_193\n      jumpi\n        /* \"#utility.yul\":4553:4571   */\n      tag_194\n      tag_125\n      jump\t// in\n    tag_194:\n        /* \"#utility.yul\":4485:4573   */\n    tag_193:\n        /* \"#utility.yul\":4593:4603   */\n      dup1\n        /* \"#utility.yul\":4589:4591   */\n      0x40\n        /* \"#utility.yul\":4582:4604   */\n      mstore\n        /* \"#utility.yul\":4372:4610   */\n      pop\n        /* \"#utility.yul\":4329:4610   */\n      pop\n      pop\n      jump\t// out\n        /* \"#utility.yul\":4616:4745   */\n    tag_127:\n        /* \"#utility.yul\":4650:4656   */\n      0x00\n        /* \"#utility.yul\":4677:4697   */\n      tag_196\n      tag_108\n      jump\t// in\n    tag_196:\n        /* \"#utility.yul\":4667:4697   */\n      swap1\n      pop\n        /* \"#utility.yul\":4706:4739   */\n      tag_197\n        /* \"#utility.yul\":4734:4738   */\n      dup3\n        /* \"#utility.yul\":4726:4732   */\n      dup3\n        /* \"#utility.yul\":4706:4739   */\n      tag_126\n      jump\t// in\n    tag_197:\n        /* \"#utility.yul\":4616:4745   */\n      swap2\n      swap1\n      pop\n      jump\t// out\n        /* \"#utility.yul\":4751:5058   */\n    tag_128:\n        /* \"#utility.yul\":4812:4816   */\n      0x00\n        /* \"#utility.yul\":4902:4920   */\n      0xffffffffffffffff\n        /* \"#utility.yul\":4894:4900   */\n      dup3\n        /* \"#utility.yul\":4891:4921   */\n      gt\n        /* \"#utility.yul\":4888:4944   */\n      iszero\n      tag_199\n      jumpi\n        /* \"#utility.yul\":4924:4942   */\n      tag_200\n      tag_125\n      jump\t// in\n    tag_200:\n        /* \"#utility.yul\":4888:4944   */\n    tag_199:\n        /* \"#utility.yul\":4962:4991   */\n      tag_201\n        /* \"#utility.yul\":4984:4990   */\n      dup3\n        /* \"#utility.yul\":4962:4991   */\n      tag_120\n      jump\t// in\n    tag_201:\n        /* \"#utility.yul\":4954:4991   */\n      swap1\n      pop\n        /* \"#utility.yul\":5046:5050   */\n      0x20\n        /* \"#utility.yul\":5040:5044   */\n      dup2\n        /* \"#utility.yul\":5036:5051   */\n      add\n        /* \"#utility.yul\":5028:5051   */\n      swap1\n      pop\n        /* \"#utility.yul\":4751:5058   */\n      swap2\n      swap1\n      pop\n      jump\t// out\n        /* \"#utility.yul\":5064:5212   */\n    tag_129:\n        /* \"#utility.yul\":5162:5168   */\n      dup3\n        /* \"#utility.yul\":5157:5160   */\n      dup2\n        /* \"#utility.yul\":5152:5155   */\n      dup4\n        /* \"#utility.yul\":5139:5169   */\n      calldatacopy\n        /* \"#utility.yul\":5203:5204   */\n      0x00\n        /* \"#utility.yul\":5194:5200   */\n      dup4\n        /* \"#utility.yul\":5189:5192   */\n      dup4\n        /* \"#utility.yul\":5185:5201   */\n      add\n        /* \"#utility.yul\":5178:5205   */\n      mstore\n        /* \"#utility.yul\":5064:5212   */\n      pop\n      pop\n      pop\n      jump\t// out\n        /* \"#utility.yul\":5218:5641   */\n    tag_130:\n        /* \"#utility.yul\":5295:5300   */\n      0x00\n        /* \"#utility.yul\":5320:5385   */\n      tag_204\n        /* \"#utility.yul\":5336:5384   */\n      tag_205\n        /* \"#utility.yul\":5377:5383   */\n      dup5\n        /* \"#utility.yul\":5336:5384   */\n      tag_128\n      jump\t// in\n    tag_205:\n        /* \"#utility.yul\":5320:5385   */\n      tag_127\n      jump\t// in\n    tag_204:\n        /* \"#utility.yul\":5311:5385   */\n      swap1\n      pop\n        /* \"#utility.yul\":5408:5414   */\n      dup3\n        /* \"#utility.yul\":5401:5406   */\n      dup2\n        /* \"#utility.yul\":5394:5415   */\n      mstore\n        /* \"#utility.yul\":5446:5450   */\n      0x20\n        /* \"#utility.yul\":5439:5444   */\n      dup2\n        /* \"#utility.yul\":5435:5451   */\n      add\n        /* \"#utility.yul\":5484:5487   */\n      dup5\n        /* \"#utility.yul\":5475:5481   */\n      dup5\n        /* \"#utility.yul\":5470:5473   */\n      dup5\n        /* \"#utility.yul\":5466:5482   */\n      add\n        /* \"#utility.yul\":5463:5488   */\n      gt\n        /* \"#utility.yul\":5460:5572   */\n      iszero\n      tag_206\n      jumpi\n        /* \"#utility.yul\":5491:5570   */\n      tag_207\n      tag_124\n      jump\t// in\n    tag_207:\n        /* \"#utility.yul\":5460:5572   */\n    tag_206:\n        /* \"#utility.yul\":5581:5635   */\n      tag_208\n        /* \"#utility.yul\":5628:5634   */\n      dup5\n        /* \"#utility.yul\":5623:5626   */\n      dup3\n        /* \"#utility.yul\":5618:5621   */\n      dup6\n        /* \"#utility.yul\":5581:5635   */\n      tag_129\n      jump\t// in\n    tag_208:\n        /* \"#utility.yul\":5301:5641   */\n      pop\n        /* \"#utility.yul\":5218:5641   */\n      swap4\n      swap3\n      pop\n      pop\n      pop\n      jump\t// out\n        /* \"#utility.yul\":5660:5998   */\n    tag_131:\n        /* \"#utility.yul\":5715:5720   */\n      0x00\n        /* \"#utility.yul\":5764:5767   */\n      dup3\n        /* \"#utility.yul\":5757:5761   */\n      0x1f\n        /* \"#utility.yul\":5749:5755   */\n      dup4\n        /* \"#utility.yul\":5745:5762   */\n      add\n        /* \"#utility.yul\":5741:5768   */\n      slt\n        /* \"#utility.yul\":5731:5853   */\n      tag_210\n      jumpi\n        /* \"#utility.yul\":5772:5851   */\n      tag_211\n      tag_123\n      jump\t// in\n    tag_211:\n        /* \"#utility.yul\":5731:5853   */\n    tag_210:\n        /* \"#utility.yul\":5889:5895   */\n      dup2\n        /* \"#utility.yul\":5876:5896   */\n      calldataload\n        /* \"#utility.yul\":5914:5992   */\n      tag_212\n        /* \"#utility.yul\":5988:5991   */\n      dup5\n        /* \"#utility.yul\":5980:5986   */\n      dup3\n        /* \"#utility.yul\":5973:5977   */\n      0x20\n        /* \"#utility.yul\":5965:5971   */\n      dup7\n        /* \"#utility.yul\":5961:5978   */\n      add\n        /* \"#utility.yul\":5914:5992   */\n      tag_130\n      jump\t// in\n    tag_212:\n        /* \"#utility.yul\":5905:5992   */\n      swap2\n      pop\n        /* \"#utility.yul\":5721:5998   */\n      pop\n        /* \"#utility.yul\":5660:5998   */\n      swap3\n      swap2\n      pop\n      pop\n      jump\t// out\n        /* \"#utility.yul\":6004:6511   */\n    tag_42:\n        /* \"#utility.yul\":6072:6078   */\n      0x00\n        /* \"#utility.yul\":6121:6123   */\n      0x20\n        /* \"#utility.yul\":6109:6118   */\n      dup3\n        /* \"#utility.yul\":6100:6107   */\n      dup5\n        /* \"#utility.yul\":6096:6119   */\n      sub\n        /* \"#utility.yul\":6092:6124   */\n      slt\n        /* \"#utility.yul\":6089:6208   */\n      iszero\n      tag_214\n      jumpi\n        /* \"#utility.yul\":6127:6206   */\n      tag_215\n      tag_109\n      jump\t// in\n    tag_215:\n        /* \"#utility.yul\":6089:6208   */\n    tag_214:\n        /* \"#utility.yul\":6275:6276   */\n      0x00\n        /* \"#utility.yul\":6264:6273   */\n      dup3\n        /* \"#utility.yul\":6260:6277   */\n      add\n        /* \"#utility.yul\":6247:6278   */\n      calldataload\n        /* \"#utility.yul\":6305:6323   */\n      0xffffffffffffffff\n        /* \"#utility.yul\":6297:6303   */\n      dup2\n        /* \"#utility.yul\":6294:6324   */\n      gt\n        /* \"#utility.yul\":6291:6408   */\n      iszero\n      tag_216\n      jumpi\n        /* \"#utility.yul\":6327:6406   */\n      tag_217\n      tag_110\n      jump\t// in\n    tag_217:\n        /* \"#utility.yul\":6291:6408   */\n    tag_216:\n        /* \"#utility.yul\":6432:6494   */\n      tag_218\n        /* \"#utility.yul\":6486:6493   */\n      dup5\n        /* \"#utility.yul\":6477:6483   */\n      dup3\n        /* \"#utility.yul\":6466:6475   */\n      dup6\n        /* \"#utility.yul\":6462:6484   */\n      add\n        /* \"#utility.yul\":6432:6494   */\n      tag_131\n      jump\t// in\n    tag_218:\n        /* \"#utility.yul\":6422:6494   */\n      swap2\n      pop\n        /* \"#utility.yul\":6218:6504   */\n      pop\n        /* \"#utility.yul\":6004:6511   */\n      swap3\n      swap2\n      pop\n      pop\n      jump\t// out\n        /* \"#utility.yul\":6517:6607   */\n    tag_132:\n        /* \"#utility.yul\":6551:6558   */\n      0x00\n        /* \"#utility.yul\":6594:6599   */\n      dup2\n        /* \"#utility.yul\":6587:6600   */\n      iszero\n        /* \"#utility.yul\":6580:6601   */\n      iszero\n        /* \"#utility.yul\":6569:6601   */\n      swap1\n      pop\n        /* \"#utility.yul\":6517:6607   */\n      swap2\n      swap1\n      pop\n      jump\t// out\n        /* \"#utility.yul\":6613:6722   */\n    tag_133:\n        /* \"#utility.yul\":6694:6715   */\n      tag_221\n        /* \"#utility.yul\":6709:6714   */\n      dup2\n        /* \"#utility.yul\":6694:6715   */\n      tag_132\n      jump\t// in\n    tag_221:\n        /* \"#utility.yul\":6689:6692   */\n      dup3\n        /* \"#utility.yul\":6682:6716   */\n      mstore\n        /* \"#utility.yul\":6613:6722   */\n      pop\n      pop\n      jump\t// out\n        /* \"#utility.yul\":6728:6938   */\n    tag_45:\n        /* \"#utility.yul\":6815:6819   */\n      0x00\n        /* \"#utility.yul\":6853:6855   */\n      0x20\n        /* \"#utility.yul\":6842:6851   */\n      dup3\n        /* \"#utility.yul\":6838:6856   */\n      add\n        /* \"#utility.yul\":6830:6856   */\n      swap1\n      pop\n        /* \"#utility.yul\":6866:6931   */\n      tag_223\n        /* \"#utility.yul\":6928:6929   */\n      0x00\n        /* \"#utility.yul\":6917:6926   */\n      dup4\n        /* \"#utility.yul\":6913:6930   */\n      add\n        /* \"#utility.yul\":6904:6910   */\n      dup5\n        /* \"#utility.yul\":6866:6931   */\n      tag_133\n      jump\t// in\n    tag_223:\n        /* \"#utility.yul\":6728:6938   */\n      swap3\n      swap2\n      pop\n      pop\n      jump\t// out\n        /* \"#utility.yul\":6944:7273   */\n    tag_62:\n        /* \"#utility.yul\":7003:7009   */\n      0x00\n        /* \"#utility.yul\":7052:7054   */\n      0x20\n        /* \"#utility.yul\":7040:7049   */\n      dup3\n        /* \"#utility.yul\":7031:7038   */\n      dup5\n        /* \"#utility.yul\":7027:7050   */\n      sub\n        /* \"#utility.yul\":7023:7055   */\n      slt\n        /* \"#utility.yul\":7020:7139   */\n      iszero\n      tag_225\n      jumpi\n        /* \"#utility.yul\":7058:7137   */\n      tag_226\n      tag_109\n      jump\t// in\n    tag_226:\n        /* \"#utility.yul\":7020:7139   */\n    tag_225:\n        /* \"#utility.yul\":7178:7179   */\n      0x00\n        /* \"#utility.yul\":7203:7256   */\n      tag_227\n        /* \"#utility.yul\":7248:7255   */\n      dup5\n        /* \"#utility.yul\":7239:7245   */\n      dup3\n        /* \"#utility.yul\":7228:7237   */\n      dup6\n        /* \"#utility.yul\":7224:7246   */\n      add\n        /* \"#utility.yul\":7203:7256   */\n      tag_114\n      jump\t// in\n    tag_227:\n        /* \"#utility.yul\":7193:7256   */\n      swap2\n      pop\n        /* \"#utility.yul\":7149:7266   */\n      pop\n        /* \"#utility.yul\":6944:7273   */\n      swap3\n      swap2\n      pop\n      pop\n      jump\t// out\n        /* \"#utility.yul\":7279:7339   */\n    tag_134:\n        /* \"#utility.yul\":7307:7310   */\n      0x00\n        /* \"#utility.yul\":7328:7333   */\n      dup2\n        /* \"#utility.yul\":7321:7333   */\n      swap1\n      pop\n        /* \"#utility.yul\":7279:7339   */\n      swap2\n      swap1\n      pop\n      jump\t// out\n        /* \"#utility.yul\":7345:7487   */\n    tag_135:\n        /* \"#utility.yul\":7395:7404   */\n      0x00\n        /* \"#utility.yul\":7428:7481   */\n      tag_230\n        /* \"#utility.yul\":7446:7480   */\n      tag_231\n        /* \"#utility.yul\":7455:7479   */\n      tag_232\n        /* \"#utility.yul\":7473:7478   */\n      dup5\n        /* \"#utility.yul\":7455:7479   */\n      tag_111\n      jump\t// in\n    tag_232:\n        /* \"#utility.yul\":7446:7480   */\n      tag_134\n      jump\t// in\n    tag_231:\n        /* \"#utility.yul\":7428:7481   */\n      tag_111\n      jump\t// in\n    tag_230:\n        /* \"#utility.yul\":7415:7481   */\n      swap1\n      pop\n        /* \"#utility.yul\":7345:7487   */\n      swap2\n      swap1\n      pop\n      jump\t// out\n        /* \"#utility.yul\":7493:7619   */\n    tag_136:\n        /* \"#utility.yul\":7543:7552   */\n      0x00\n        /* \"#utility.yul\":7576:7613   */\n      tag_234\n        /* \"#utility.yul\":7607:7612   */\n      dup3\n        /* \"#utility.yul\":7576:7613   */\n      tag_135\n      jump\t// in\n    tag_234:\n        /* \"#utility.yul\":7563:7613   */\n      swap1\n      pop\n        /* \"#utility.yul\":7493:7619   */\n      swap2\n      swap1\n      pop\n      jump\t// out\n        /* \"#utility.yul\":7625:7765   */\n    tag_137:\n        /* \"#utility.yul\":7689:7698   */\n      0x00\n        /* \"#utility.yul\":7722:7759   */\n      tag_236\n        /* \"#utility.yul\":7753:7758   */\n      dup3\n        /* \"#utility.yul\":7722:7759   */\n      tag_136\n      jump\t// in\n    tag_236:\n        /* \"#utility.yul\":7709:7759   */\n      swap1\n      pop\n        /* \"#utility.yul\":7625:7765   */\n      swap2\n      swap1\n      pop\n      jump\t// out\n        /* \"#utility.yul\":7771:7930   */\n    tag_138:\n        /* \"#utility.yul\":7872:7923   */\n      tag_238\n        /* \"#utility.yul\":7917:7922   */\n      dup2\n        /* \"#utility.yul\":7872:7923   */\n      tag_137\n      jump\t// in\n    tag_238:\n        /* \"#utility.yul\":7867:7870   */\n      dup3\n        /* \"#utility.yul\":7860:7924   */\n      mstore\n        /* \"#utility.yul\":7771:7930   */\n      pop\n      pop\n      jump\t// out\n        /* \"#utility.yul\":7936:8186   */\n    tag_67:\n        /* \"#utility.yul\":8043:8047   */\n      0x00\n        /* \"#utility.yul\":8081:8083   */\n      0x20\n        /* \"#utility.yul\":8070:8079   */\n      dup3\n        /* \"#utility.yul\":8066:8084   */\n      add\n        /* \"#utility.yul\":8058:8084   */\n      swap1\n      pop\n        /* \"#utility.yul\":8094:8179   */\n      tag_240\n        /* \"#utility.yul\":8176:8177   */\n      0x00\n        /* \"#utility.yul\":8165:8174   */\n      dup4\n        /* \"#utility.yul\":8161:8178   */\n      add\n        /* \"#utility.yul\":8152:8158   */\n      dup5\n        /* \"#utility.yul\":8094:8179   */\n      tag_138\n      jump\t// in\n    tag_240:\n        /* \"#utility.yul\":7936:8186   */\n      swap3\n      swap2\n      pop\n      pop\n      jump\t// out\n        /* \"#utility.yul\":8192:8745   */\n    tag_70:\n        /* \"#utility.yul\":8369:8373   */\n      0x00\n        /* \"#utility.yul\":8407:8410   */\n      0x80\n        /* \"#utility.yul\":8396:8405   */\n      dup3\n        /* \"#utility.yul\":8392:8411   */\n      add\n        /* \"#utility.yul\":8384:8411   */\n      swap1\n      pop\n        /* \"#utility.yul\":8421:8492   */\n      tag_242\n        /* \"#utility.yul\":8489:8490   */\n      0x00\n        /* \"#utility.yul\":8478:8487   */\n      dup4\n        /* \"#utility.yul\":8474:8491   */\n      add\n        /* \"#utility.yul\":8465:8471   */\n      dup8\n        /* \"#utility.yul\":8421:8492   */\n      tag_122\n      jump\t// in\n    tag_242:\n        /* \"#utility.yul\":8502:8574   */\n      tag_243\n        /* \"#utility.yul\":8570:8572   */\n      0x20\n        /* \"#utility.yul\":8559:8568   */\n      dup4\n        /* \"#utility.yul\":8555:8573   */\n      add\n        /* \"#utility.yul\":8546:8552   */\n      dup7\n        /* \"#utility.yul\":8502:8574   */\n      tag_107\n      jump\t// in\n    tag_243:\n        /* \"#utility.yul\":8584:8656   */\n      tag_244\n        /* \"#utility.yul\":8652:8654   */\n      0x40\n        /* \"#utility.yul\":8641:8650   */\n      dup4\n        /* \"#utility.yul\":8637:8655   */\n      add\n        /* \"#utility.yul\":8628:8634   */\n      dup6\n        /* \"#utility.yul\":8584:8656   */\n      tag_122\n      jump\t// in\n    tag_244:\n        /* \"#utility.yul\":8666:8738   */\n      tag_245\n        /* \"#utility.yul\":8734:8736   */\n      0x60\n        /* \"#utility.yul\":8723:8732   */\n      dup4\n        /* \"#utility.yul\":8719:8737   */\n      add\n        /* \"#utility.yul\":8710:8716   */\n      dup5\n        /* \"#utility.yul\":8666:8738   */\n      tag_122\n      jump\t// in\n    tag_245:\n        /* \"#utility.yul\":8192:8745   */\n      swap6\n      swap5\n      pop\n      pop\n      pop\n      pop\n      pop\n      jump\t// out\n        /* \"#utility.yul\":8751:8855   */\n    tag_139:\n        /* \"#utility.yul\":8796:8803   */\n      0x00\n        /* \"#utility.yul\":8825:8849   */\n      tag_247\n        /* \"#utility.yul\":8843:8848   */\n      dup3\n        /* \"#utility.yul\":8825:8849   */\n      tag_111\n      jump\t// in\n    tag_247:\n        /* \"#utility.yul\":8814:8849   */\n      swap1\n      pop\n        /* \"#utility.yul\":8751:8855   */\n      swap2\n      swap1\n      pop\n      jump\t// out\n        /* \"#utility.yul\":8861:8999   */\n    tag_140:\n        /* \"#utility.yul\":8942:8974   */\n      tag_249\n        /* \"#utility.yul\":8968:8973   */\n      dup2\n        /* \"#utility.yul\":8942:8974   */\n      tag_139\n      jump\t// in\n    tag_249:\n        /* \"#utility.yul\":8935:8940   */\n      dup2\n        /* \"#utility.yul\":8932:8975   */\n      eq\n        /* \"#utility.yul\":8922:8993   */\n      tag_250\n      jumpi\n        /* \"#utility.yul\":8989:8990   */\n      0x00\n        /* \"#utility.yul\":8986:8987   */\n      0x00\n        /* \"#utility.yul\":8979:8991   */\n      revert\n        /* \"#utility.yul\":8922:8993   */\n    tag_250:\n        /* \"#utility.yul\":8861:8999   */\n      pop\n      jump\t// out\n        /* \"#utility.yul\":9005:9164   */\n    tag_141:\n        /* \"#utility.yul\":9070:9075   */\n      0x00\n        /* \"#utility.yul\":9101:9107   */\n      dup2\n        /* \"#utility.yul\":9095:9108   */\n      mload\n        /* \"#utility.yul\":9086:9108   */\n      swap1\n      pop\n        /* \"#utility.yul\":9117:9158   */\n      tag_252\n        /* \"#utility.yul\":9152:9157   */\n      dup2\n        /* \"#utility.yul\":9117:9158   */\n      tag_140\n      jump\t// in\n    tag_252:\n        /* \"#utility.yul\":9005:9164   */\n      swap3\n      swap2\n      pop\n      pop\n      jump\t// out\n        /* \"#utility.yul\":9170:9313   */\n    tag_142:\n        /* \"#utility.yul\":9227:9232   */\n      0x00\n        /* \"#utility.yul\":9258:9264   */\n      dup2\n        /* \"#utility.yul\":9252:9265   */\n      mload\n        /* \"#utility.yul\":9243:9265   */\n      swap1\n      pop\n        /* \"#utility.yul\":9274:9307   */\n      tag_254\n        /* \"#utility.yul\":9301:9306   */\n      dup2\n        /* \"#utility.yul\":9274:9307   */\n      tag_115\n      jump\t// in\n    tag_254:\n        /* \"#utility.yul\":9170:9313   */\n      swap3\n      swap2\n      pop\n      pop\n      jump\t// out\n        /* \"#utility.yul\":9319:10187   */\n    tag_75:\n        /* \"#utility.yul\":9440:9446   */\n      0x00\n        /* \"#utility.yul\":9448:9454   */\n      0x00\n        /* \"#utility.yul\":9456:9462   */\n      0x00\n        /* \"#utility.yul\":9464:9470   */\n      0x00\n        /* \"#utility.yul\":9513:9516   */\n      0x80\n        /* \"#utility.yul\":9501:9510   */\n      dup6\n        /* \"#utility.yul\":9492:9499   */\n      dup8\n        /* \"#utility.yul\":9488:9511   */\n      sub\n        /* \"#utility.yul\":9484:9517   */\n      slt\n        /* \"#utility.yul\":9481:9601   */\n      iszero\n      tag_256\n      jumpi\n        /* \"#utility.yul\":9520:9599   */\n      tag_257\n      tag_109\n      jump\t// in\n    tag_257:\n        /* \"#utility.yul\":9481:9601   */\n    tag_256:\n        /* \"#utility.yul\":9640:9641   */\n      0x00\n        /* \"#utility.yul\":9665:9737   */\n      tag_258\n        /* \"#utility.yul\":9729:9736   */\n      dup8\n        /* \"#utility.yul\":9720:9726   */\n      dup3\n        /* \"#utility.yul\":9709:9718   */\n      dup9\n        /* \"#utility.yul\":9705:9727   */\n      add\n        /* \"#utility.yul\":9665:9737   */\n      tag_141\n      jump\t// in\n    tag_258:\n        /* \"#utility.yul\":9655:9737   */\n      swap5\n      pop\n        /* \"#utility.yul\":9611:9747   */\n      pop\n        /* \"#utility.yul\":9786:9788   */\n      0x20\n        /* \"#utility.yul\":9812:9876   */\n      tag_259\n        /* \"#utility.yul\":9868:9875   */\n      dup8\n        /* \"#utility.yul\":9859:9865   */\n      dup3\n        /* \"#utility.yul\":9848:9857   */\n      dup9\n        /* \"#utility.yul\":9844:9866   */\n      add\n        /* \"#utility.yul\":9812:9876   */\n      tag_142\n      jump\t// in\n    tag_259:\n        /* \"#utility.yul\":9802:9876   */\n      swap4\n      pop\n        /* \"#utility.yul\":9757:9886   */\n      pop\n        /* \"#utility.yul\":9925:9927   */\n      0x40\n        /* \"#utility.yul\":9951:10023   */\n      tag_260\n        /* \"#utility.yul\":10015:10022   */\n      dup8\n        /* \"#utility.yul\":10006:10012   */\n      dup3\n        /* \"#utility.yul\":9995:10004   */\n      dup9\n        /* \"#utility.yul\":9991:10013   */\n      add\n        /* \"#utility.yul\":9951:10023   */\n      tag_141\n      jump\t// in\n    tag_260:\n        /* \"#utility.yul\":9941:10023   */\n      swap3\n      pop\n        /* \"#utility.yul\":9896:10033   */\n      pop\n        /* \"#utility.yul\":10072:10074   */\n      0x60\n        /* \"#utility.yul\":10098:10170   */\n      tag_261\n        /* \"#utility.yul\":10162:10169   */\n      dup8\n        /* \"#utility.yul\":10153:10159   */\n      dup3\n        /* \"#utility.yul\":10142:10151   */\n      dup9\n        /* \"#utility.yul\":10138:10160   */\n      add\n        /* \"#utility.yul\":10098:10170   */\n      tag_141\n      jump\t// in\n    tag_261:\n        /* \"#utility.yul\":10088:10170   */\n      swap2\n      pop\n        /* \"#utility.yul\":10043:10180   */\n      pop\n        /* \"#utility.yul\":9319:10187   */\n      swap3\n      swap6\n      swap2\n      swap5\n      pop\n      swap3\n      pop\n      jump\t// out\n        /* \"#utility.yul\":10193:10373   */\n    tag_143:\n        /* \"#utility.yul\":10241:10318   */\n      0x4e487b7100000000000000000000000000000000000000000000000000000000\n        /* \"#utility.yul\":10238:10239   */\n      0x00\n        /* \"#utility.yul\":10231:10319   */\n      mstore\n        /* \"#utility.yul\":10338:10342   */\n      0x11\n        /* \"#utility.yul\":10335:10336   */\n      0x04\n        /* \"#utility.yul\":10328:10343   */\n      mstore\n        /* \"#utility.yul\":10362:10366   */\n      0x24\n        /* \"#utility.yul\":10359:10360   */\n      0x00\n        /* \"#utility.yul\":10352:10367   */\n      revert\n        /* \"#utility.yul\":10379:10570   */\n    tag_79:\n        /* \"#utility.yul\":10419:10422   */\n      0x00\n        /* \"#utility.yul\":10438:10458   */\n      tag_264\n        /* \"#utility.yul\":10456:10457   */\n      dup3\n        /* \"#utility.yul\":10438:10458   */\n      tag_106\n      jump\t// in\n    tag_264:\n        /* \"#utility.yul\":10433:10458   */\n      swap2\n      pop\n        /* \"#utility.yul\":10472:10492   */\n      tag_265\n        /* \"#utility.yul\":10490:10491   */\n      dup4\n        /* \"#utility.yul\":10472:10492   */\n      tag_106\n      jump\t// in\n    tag_265:\n        /* \"#utility.yul\":10467:10492   */\n      swap3\n      pop\n        /* \"#utility.yul\":10515:10516   */\n      dup3\n        /* \"#utility.yul\":10512:10513   */\n      dup3\n        /* \"#utility.yul\":10508:10517   */\n      add\n        /* \"#utility.yul\":10501:10517   */\n      swap1\n      pop\n        /* \"#utility.yul\":10536:10539   */\n      dup1\n        /* \"#utility.yul\":10533:10534   */\n      dup3\n        /* \"#utility.yul\":10530:10540   */\n      gt\n        /* \"#utility.yul\":10527:10563   */\n      iszero\n      tag_266\n      jumpi\n        /* \"#utility.yul\":10543:10561   */\n      tag_267\n      tag_143\n      jump\t// in\n    tag_267:\n        /* \"#utility.yul\":10527:10563   */\n    tag_266:\n        /* \"#utility.yul\":10379:10570   */\n      swap3\n      swap2\n      pop\n      pop\n      jump\t// out\n        /* \"#utility.yul\":10576:10770   */\n    tag_81:\n        /* \"#utility.yul\":10616:10620   */\n      0x00\n        /* \"#utility.yul\":10636:10656   */\n      tag_269\n        /* \"#utility.yul\":10654:10655   */\n      dup3\n        /* \"#utility.yul\":10636:10656   */\n      tag_106\n      jump\t// in\n    tag_269:\n        /* \"#utility.yul\":10631:10656   */\n      swap2\n      pop\n        /* \"#utility.yul\":10670:10690   */\n      tag_270\n        /* \"#utility.yul\":10688:10689   */\n      dup4\n        /* \"#utility.yul\":10670:10690   */\n      tag_106\n      jump\t// in\n    tag_270:\n        /* \"#utility.yul\":10665:10690   */\n      swap3\n      pop\n        /* \"#utility.yul\":10714:10715   */\n      dup3\n        /* \"#utility.yul\":10711:10712   */\n      dup3\n        /* \"#utility.yul\":10707:10716   */\n      sub\n        /* \"#utility.yul\":10699:10716   */\n      swap1\n      pop\n        /* \"#utility.yul\":10738:10739   */\n      dup2\n        /* \"#utility.yul\":10732:10736   */\n      dup2\n        /* \"#utility.yul\":10729:10740   */\n      gt\n        /* \"#utility.yul\":10726:10763   */\n      iszero\n      tag_271\n      jumpi\n        /* \"#utility.yul\":10743:10761   */\n      tag_272\n      tag_143\n      jump\t// in\n    tag_272:\n        /* \"#utility.yul\":10726:10763   */\n    tag_271:\n        /* \"#utility.yul\":10576:10770   */\n      swap3\n      swap2\n      pop\n      pop\n      jump\t// out\n\n    auxdata: 0xa264697066735822122091733368113cc5da21a9e47de6a5b8eeaf516d87a12a25a05df37023c50cb79f64736f6c634300081e0033\n}\n",
				"bytecode": {
					"linkReferences": {},
					"object": "608060405234801561000f575f5ffd5b50335f73ffffffffffffffffffffffffffffffffffffffff168173ffffffffffffffffffffffffffffffffffffffff1603610081575f6040517f1e4fbdf70000000000000000000000000000000000000000000000000000000081526004016100789190610196565b60405180910390fd5b6100908161009660201b60201c565b506101af565b5f5f5f9054906101000a900473ffffffffffffffffffffffffffffffffffffffff169050815f5f6101000a81548173ffffffffffffffffffffffffffffffffffffffff021916908373ffffffffffffffffffffffffffffffffffffffff1602179055508173ffffffffffffffffffffffffffffffffffffffff168173ffffffffffffffffffffffffffffffffffffffff167f8be0079c531659141344cd1fd0a4f28419497f9722a3daafe3b4186f6b6457e060405160405180910390a35050565b5f73ffffffffffffffffffffffffffffffffffffffff82169050919050565b5f61018082610157565b9050919050565b61019081610176565b82525050565b5f6020820190506101a95f830184610187565b92915050565b610ba5806101bc5f395ff3fe608060405234801561000f575f5ffd5b50600436106100e8575f3560e01c80634e71d92d1161008a5780638da5cb5b116100645780638da5cb5b14610200578063a556f8461461021e578063f2fde38b14610228578063fc0c546a14610244576100e8565b80634e71d92d146101ce578063715018a6146101d857806378e97925146101e2576100e8565b80632bfc9e2b116100c65780632bfc9e2b1461014657806338af3eed14610176578063439fab911461019457806344b1231f146101c4576100e8565b80630fb5a6b4146100ec57806313d033c01461010a5780631a39d8ef14610128575b5f5ffd5b6100f4610262565b60405161010191906105d7565b60405180910390f35b610112610268565b60405161011f91906105d7565b60405180910390f35b61013061026e565b60405161013d91906105d7565b60405180910390f35b610160600480360381019061015b9190610685565b610274565b60405161016d9190610759565b60405180910390f35b61017e6102a6565b60405161018b9190610788565b60405180910390f35b6101ae60048036038101906101a991906108cd565b6102cb565b6040516101bb919061092e565b60405180910390f35b6101cc610362565b005b6101d6610383565b005b6101e0610385565b005b6101ea610398565b6040516101f791906105d7565b60405180910390f35b61020861039e565b6040516102159190610788565b60405180910390f35b6102266103c5565b005b610242600480360381019061023d9190610947565b6103c7565b005b61024c61044b565b60405161025991906109cd565b60405180910390f35b60065481565b60055481565b60035481565b60608484848460405160200161028d94939291906109e6565b6040516020818303038152906040529050949350505050565b60025f9054906101000a900473ffffffffffffffffffffffffffffffffffffffff1681565b5f5f60149054906101000a900460ff1615610312576040517f0dc149f000000000000000000000000000000000000000000000000000000000815260040160405180910390fd5b5f5f5f5f8580602001905181019061032a9190610a78565b935093509350935061033b816103c7565b60015f60146101000a81548160ff0219169083151502179055506001945050505050919050565b5f6005546004546103739190610b09565b4261037e9190610b3c565b905050565b565b61038d610470565b6103965f6104f7565b565b60045481565b5f5f5f9054906101000a900473ffffffffffffffffffffffffffffffffffffffff16905090565b565b6103cf610470565b5f73ffffffffffffffffffffffffffffffffffffffff168173ffffffffffffffffffffffffffffffffffffffff160361043f575f6040517f1e4fbdf70000000000000000000000000000000000000000000000000000000081526004016104369190610788565b60405180910390fd5b610448816104f7565b50565b60015f9054906101000a900473ffffffffffffffffffffffffffffffffffffffff1681565b6104786105b8565b73ffffffffffffffffffffffffffffffffffffffff1661049661039e565b73ffffffffffffffffffffffffffffffffffffffff16146104f5576104b96105b8565b6040517f118cdaa70000000000000000000000000000000000000000000000000000000081526004016104ec9190610788565b60405180910390fd5b565b5f5f5f9054906101000a900473ffffffffffffffffffffffffffffffffffffffff169050815f5f6101000a81548173ffffffffffffffffffffffffffffffffffffffff021916908373ffffffffffffffffffffffffffffffffffffffff1602179055508173ffffffffffffffffffffffffffffffffffffffff168173ffffffffffffffffffffffffffffffffffffffff167f8be0079c531659141344cd1fd0a4f28419497f9722a3daafe3b4186f6b6457e060405160405180910390a35050565b5f33905090565b5f819050919050565b6105d1816105bf565b82525050565b5f6020820190506105ea5f8301846105c8565b92915050565b5f604051905090565b5f5ffd5b5f5ffd5b5f73ffffffffffffffffffffffffffffffffffffffff82169050919050565b5f61062a82610601565b9050919050565b61063a81610620565b8114610644575f5ffd5b50565b5f8135905061065581610631565b92915050565b610664816105bf565b811461066e575f5ffd5b50565b5f8135905061067f8161065b565b92915050565b5f5f5f5f6080858703121561069d5761069c6105f9565b5b5f6106aa87828801610647565b94505060206106bb87828801610671565b93505060406106cc87828801610647565b92505060606106dd87828801610647565b91505092959194509250565b5f81519050919050565b5f82825260208201905092915050565b8281835e5f83830152505050565b5f601f19601f8301169050919050565b5f61072b826106e9565b61073581856106f3565b9350610745818560208601610703565b61074e81610711565b840191505092915050565b5f6020820190508181035f8301526107718184610721565b905092915050565b61078281610620565b82525050565b5f60208201905061079b5f830184610779565b92915050565b5f5ffd5b5f5ffd5b7f4e487b71000000000000000000000000000000000000000000000000000000005f52604160045260245ffd5b6107df82610711565b810181811067ffffffffffffffff821117156107fe576107fd6107a9565b5b80604052505050565b5f6108106105f0565b905061081c82826107d6565b919050565b5f67ffffffffffffffff82111561083b5761083a6107a9565b5b61084482610711565b9050602081019050919050565b828183375f83830152505050565b5f61087161086c84610821565b610807565b90508281526020810184848401111561088d5761088c6107a5565b5b610898848285610851565b509392505050565b5f82601f8301126108b4576108b36107a1565b5b81356108c484826020860161085f565b91505092915050565b5f602082840312156108e2576108e16105f9565b5b5f82013567ffffffffffffffff8111156108ff576108fe6105fd565b5b61090b848285016108a0565b91505092915050565b5f8115159050919050565b61092881610914565b82525050565b5f6020820190506109415f83018461091f565b92915050565b5f6020828403121561095c5761095b6105f9565b5b5f61096984828501610647565b91505092915050565b5f819050919050565b5f61099561099061098b84610601565b610972565b610601565b9050919050565b5f6109a68261097b565b9050919050565b5f6109b78261099c565b9050919050565b6109c7816109ad565b82525050565b5f6020820190506109e05f8301846109be565b92915050565b5f6080820190506109f95f830187610779565b610a0660208301866105c8565b610a136040830185610779565b610a206060830184610779565b95945050505050565b5f610a3382610601565b9050919050565b610a4381610a29565b8114610a4d575f5ffd5b50565b5f81519050610a5e81610a3a565b92915050565b5f81519050610a728161065b565b92915050565b5f5f5f5f60808587031215610a9057610a8f6105f9565b5b5f610a9d87828801610a50565b9450506020610aae87828801610a64565b9350506040610abf87828801610a50565b9250506060610ad087828801610a50565b91505092959194509250565b7f4e487b71000000000000000000000000000000000000000000000000000000005f52601160045260245ffd5b5f610b13826105bf565b9150610b1e836105bf565b9250828201905080821115610b3657610b35610adc565b5b92915050565b5f610b46826105bf565b9150610b51836105bf565b9250828203905081811115610b6957610b68610adc565b5b9291505056fea264697066735822122091733368113cc5da21a9e47de6a5b8eeaf516d87a12a25a05df37023c50cb79f64736f6c634300081e0033",
					"opcodes": "PUSH1 0x80 PUSH1 0x40 MSTORE CALLVALUE DUP1 ISZERO PUSH2 0xF JUMPI PUSH0 PUSH0 REVERT JUMPDEST POP CALLER PUSH0 PUSH20 0xFFFFFFFFFFFFFFFFFFFFFFFFFFFFFFFFFFFFFFFF AND DUP2 PUSH20 0xFFFFFFFFFFFFFFFFFFFFFFFFFFFFFFFFFFFFFFFF AND SUB PUSH2 0x81 JUMPI PUSH0 PUSH1 0x40 MLOAD PUSH32 0x1E4FBDF700000000000000000000000000000000000000000000000000000000 DUP2 MSTORE PUSH1 0x4 ADD PUSH2 0x78 SWAP2 SWAP1 PUSH2 0x196 JUMP JUMPDEST PUSH1 0x40 MLOAD DUP1 SWAP2 SUB SWAP1 REVERT JUMPDEST PUSH2 0x90 DUP2 PUSH2 0x96 PUSH1 0x20 SHL PUSH1 0x20 SHR JUMP JUMPDEST POP PUSH2 0x1AF JUMP JUMPDEST PUSH0 PUSH0 PUSH0 SWAP1 SLOAD SWAP1 PUSH2 0x100 EXP SWAP1 DIV PUSH20 0xFFFFFFFFFFFFFFFFFFFFFFFFFFFFFFFFFFFFFFFF AND SWAP1 POP DUP2 PUSH0 PUSH0 PUSH2 0x100 EXP DUP2 SLOAD DUP2 PUSH20 0xFFFFFFFFFFFFFFFFFFFFFFFFFFFFFFFFFFFFFFFF MUL NOT AND SWAP1 DUP4 PUSH20 0xFFFFFFFFFFFFFFFFFFFFFFFFFFFFFFFFFFFFFFFF AND MUL OR SWAP1 SSTORE POP DUP2 PUSH20 0xFFFFFFFFFFFFFFFFFFFFFFFFFFFFFFFFFFFFFFFF AND DUP2 PUSH20 0xFFFFFFFFFFFFFFFFFFFFFFFFFFFFFFFFFFFFFFFF AND PUSH32 0x8BE0079C531659141344CD1FD0A4F28419497F9722A3DAAFE3B4186F6B6457E0 PUSH1 0x40 MLOAD PUSH1 0x40 MLOAD DUP1 SWAP2 SUB SWAP1 LOG3 POP POP JUMP JUMPDEST PUSH0 PUSH20 0xFFFFFFFFFFFFFFFFFFFFFFFFFFFFFFFFFFFFFFFF DUP3 AND SWAP1 POP SWAP2 SWAP1 POP JUMP JUMPDEST PUSH0 PUSH2 0x180 DUP3 PUSH2 0x157 JUMP JUMPDEST SWAP1 POP SWAP2 SWAP1 POP JUMP JUMPDEST PUSH2 0x190 DUP2 PUSH2 0x176 JUMP JUMPDEST DUP3 MSTORE POP POP JUMP JUMPDEST PUSH0 PUSH1 0x20 DUP3 ADD SWAP1 POP PUSH2 0x1A9 PUSH0 DUP4 ADD DUP5 PUSH2 0x187 JUMP JUMPDEST SWAP3 SWAP2 POP POP JUMP JUMPDEST PUSH2 0xBA5 DUP1 PUSH2 0x1BC PUSH0 CODECOPY PUSH0 RETURN INVALID PUSH1 0x80 PUSH1 0x40 MSTORE CALLVALUE DUP1 ISZERO PUSH2 0xF JUMPI PUSH0 PUSH0 REVERT JUMPDEST POP PUSH1 0x4 CALLDATASIZE LT PUSH2 0xE8 JUMPI PUSH0 CALLDATALOAD PUSH1 0xE0 SHR DUP1 PUSH4 0x4E71D92D GT PUSH2 0x8A JUMPI DUP1 PUSH4 0x8DA5CB5B GT PUSH2 0x64 JUMPI DUP1 PUSH4 0x8DA5CB5B EQ PUSH2 0x200 JUMPI DUP1 PUSH4 0xA556F846 EQ PUSH2 0x21E JUMPI DUP1 PUSH4 0xF2FDE38B EQ PUSH2 0x228 JUMPI DUP1 PUSH4 0xFC0C546A EQ PUSH2 0x244 JUMPI PUSH2 0xE8 JUMP JUMPDEST DUP1 PUSH4 0x4E71D92D EQ PUSH2 0x1CE JUMPI DUP1 PUSH4 0x715018A6 EQ PUSH2 0x1D8 JUMPI DUP1 PUSH4 0x78E97925 EQ PUSH2 0x1E2 JUMPI PUSH2 0xE8 JUMP JUMPDEST DUP1 PUSH4 0x2BFC9E2B GT PUSH2 0xC6 JUMPI DUP1 PUSH4 0x2BFC9E2B EQ PUSH2 0x146 JUMPI DUP1 PUSH4 0x38AF3EED EQ PUSH2 0x176 JUMPI DUP1 PUSH4 0x439FAB91 EQ PUSH2 0x194 JUMPI DUP1 PUSH4 0x44B1231F EQ PUSH2 0x1C4 JUMPI PUSH2 0xE8 JUMP JUMPDEST DUP1 PUSH4 0xFB5A6B4 EQ PUSH2 0xEC JUMPI DUP1 PUSH4 0x13D033C0 EQ PUSH2 0x10A JUMPI DUP1 PUSH4 0x1A39D8EF EQ PUSH2 0x128 JUMPI JUMPDEST PUSH0 PUSH0 REVERT JUMPDEST PUSH2 0xF4 PUSH2 0x262 JUMP JUMPDEST PUSH1 0x40 MLOAD PUSH2 0x101 SWAP2 SWAP1 PUSH2 0x5D7 JUMP JUMPDEST PUSH1 0x40 MLOAD DUP1 SWAP2 SUB SWAP1 RETURN JUMPDEST PUSH2 0x112 PUSH2 0x268 JUMP JUMPDEST PUSH1 0x40 MLOAD PUSH2 0x11F SWAP2 SWAP1 PUSH2 0x5D7 JUMP JUMPDEST PUSH1 0x40 MLOAD DUP1 SWAP2 SUB SWAP1 RETURN JUMPDEST PUSH2 0x130 PUSH2 0x26E JUMP JUMPDEST PUSH1 0x40 MLOAD PUSH2 0x13D SWAP2 SWAP1 PUSH2 0x5D7 JUMP JUMPDEST PUSH1 0x40 MLOAD DUP1 SWAP2 SUB SWAP1 RETURN JUMPDEST PUSH2 0x160 PUSH1 0x4 DUP1 CALLDATASIZE SUB DUP2 ADD SWAP1 PUSH2 0x15B SWAP2 SWAP1 PUSH2 0x685 JUMP JUMPDEST PUSH2 0x274 JUMP JUMPDEST PUSH1 0x40 MLOAD PUSH2 0x16D SWAP2 SWAP1 PUSH2 0x759 JUMP JUMPDEST PUSH1 0x40 MLOAD DUP1 SWAP2 SUB SWAP1 RETURN JUMPDEST PUSH2 0x17E PUSH2 0x2A6 JUMP JUMPDEST PUSH1 0x40 MLOAD PUSH2 0x18B SWAP2 SWAP1 PUSH2 0x788 JUMP JUMPDEST PUSH1 0x40 MLOAD DUP1 SWAP2 SUB SWAP1 RETURN JUMPDEST PUSH2 0x1AE PUSH1 0x4 DUP1 CALLDATASIZE SUB DUP2 ADD SWAP1 PUSH2 0x1A9 SWAP2 SWAP1 PUSH2 0x8CD JUMP JUMPDEST PUSH2 0x2CB JUMP JUMPDEST PUSH1 0x40 MLOAD PUSH2 0x1BB SWAP2 SWAP1 PUSH2 0x92E JUMP JUMPDEST PUSH1 0x40 MLOAD DUP1 SWAP2 SUB SWAP1 RETURN JUMPDEST PUSH2 0x1CC PUSH2 0x362 JUMP JUMPDEST STOP JUMPDEST PUSH2 0x1D6 PUSH2 0x383 JUMP JUMPDEST STOP JUMPDEST PUSH2 0x1E0 PUSH2 0x385 JUMP JUMPDEST STOP JUMPDEST PUSH2 0x1EA PUSH2 0x398 JUMP JUMPDEST PUSH1 0x40 MLOAD PUSH2 0x1F7 SWAP2 SWAP1 PUSH2 0x5D7 JUMP JUMPDEST PUSH1 0x40 MLOAD DUP1 SWAP2 SUB SWAP1 RETURN JUMPDEST PUSH2 0x208 PUSH2 0x39E JUMP JUMPDEST PUSH1 0x40 MLOAD PUSH2 0x215 SWAP2 SWAP1 PUSH2 0x788 JUMP JUMPDEST PUSH1 0x40 MLOAD DUP1 SWAP2 SUB SWAP1 RETURN JUMPDEST PUSH2 0x226 PUSH2 0x3C5 JUMP JUMPDEST STOP JUMPDEST PUSH2 0x242 PUSH1 0x4 DUP1 CALLDATASIZE SUB DUP2 ADD SWAP1 PUSH2 0x23D SWAP2 SWAP1 PUSH2 0x947 JUMP JUMPDEST PUSH2 0x3C7 JUMP JUMPDEST STOP JUMPDEST PUSH2 0x24C PUSH2 0x44B JUMP JUMPDEST PUSH1 0x40 MLOAD PUSH2 0x259 SWAP2 SWAP1 PUSH2 0x9CD JUMP JUMPDEST PUSH1 0x40 MLOAD DUP1 SWAP2 SUB SWAP1 RETURN JUMPDEST PUSH1 0x6 SLOAD DUP2 JUMP JUMPDEST PUSH1 0x5 SLOAD DUP2 JUMP JUMPDEST PUSH1 0x3 SLOAD DUP2 JUMP JUMPDEST PUSH1 0x60 DUP5 DUP5 DUP5 DUP5 PUSH1 0x40 MLOAD PUSH1 0x20 ADD PUSH2 0x28D SWAP5 SWAP4 SWAP3 SWAP2 SWAP1 PUSH2 0x9E6 JUMP JUMPDEST PUSH1 0x40 MLOAD PUSH1 0x20 DUP2 DUP4 SUB SUB DUP2 MSTORE SWAP1 PUSH1 0x40 MSTORE SWAP1 POP SWAP5 SWAP4 POP POP POP POP JUMP JUMPDEST PUSH1 0x2 PUSH0 SWAP1 SLOAD SWAP1 PUSH2 0x100 EXP SWAP1 DIV PUSH20 0xFFFFFFFFFFFFFFFFFFFFFFFFFFFFFFFFFFFFFFFF AND DUP2 JUMP JUMPDEST PUSH0 PUSH0 PUSH1 0x14 SWAP1 SLOAD SWAP1 PUSH2 0x100 EXP SWAP1 DIV PUSH1 0xFF AND ISZERO PUSH2 0x312 JUMPI PUSH1 0x40 MLOAD PUSH32 0xDC149F000000000000000000000000000000000000000000000000000000000 DUP2 MSTORE PUSH1 0x4 ADD PUSH1 0x40 MLOAD DUP1 SWAP2 SUB SWAP1 REVERT JUMPDEST PUSH0 PUSH0 PUSH0 PUSH0 DUP6 DUP1 PUSH1 0x20 ADD SWAP1 MLOAD DUP2 ADD SWAP1 PUSH2 0x32A SWAP2 SWAP1 PUSH2 0xA78 JUMP JUMPDEST SWAP4 POP SWAP4 POP SWAP4 POP SWAP4 POP PUSH2 0x33B DUP2 PUSH2 0x3C7 JUMP JUMPDEST PUSH1 0x1 PUSH0 PUSH1 0x14 PUSH2 0x100 EXP DUP2 SLOAD DUP2 PUSH1 0xFF MUL NOT AND SWAP1 DUP4 ISZERO ISZERO MUL OR SWAP1 SSTORE POP PUSH1 0x1 SWAP5 POP POP POP POP POP SWAP2 SWAP1 POP JUMP JUMPDEST PUSH0 PUSH1 0x5 SLOAD PUSH1 0x4 SLOAD PUSH2 0x373 SWAP2 SWAP1 PUSH2 0xB09 JUMP JUMPDEST TIMESTAMP PUSH2 0x37E SWAP2 SWAP1 PUSH2 0xB3C JUMP JUMPDEST SWAP1 POP POP JUMP JUMPDEST JUMP JUMPDEST PUSH2 0x38D PUSH2 0x470 JUMP JUMPDEST PUSH2 0x396 PUSH0 PUSH2 0x4F7 JUMP JUMPDEST JUMP JUMPDEST PUSH1 0x4 SLOAD DUP2 JUMP JUMPDEST PUSH0 PUSH0 PUSH0 SWAP1 SLOAD SWAP1 PUSH2 0x100 EXP SWAP1 DIV PUSH20 0xFFFFFFFFFFFFFFFFFFFFFFFFFFFFFFFFFFFFFFFF AND SWAP1 POP SWAP1 JUMP JUMPDEST JUMP JUMPDEST PUSH2 0x3CF PUSH2 0x470 JUMP JUMPDEST PUSH0 PUSH20 0xFFFFFFFFFFFFFFFFFFFFFFFFFFFFFFFFFFFFFFFF AND DUP2 PUSH20 0xFFFFFFFFFFFFFFFFFFFFFFFFFFFFFFFFFFFFFFFF AND SUB PUSH2 0x43F JUMPI PUSH0 PUSH1 0x40 MLOAD PUSH32 0x1E4FBDF700000000000000000000000000000000000000000000000000000000 DUP2 MSTORE PUSH1 0x4 ADD PUSH2 0x436 SWAP2 SWAP1 PUSH2 0x788 JUMP JUMPDEST PUSH1 0x40 MLOAD DUP1 SWAP2 SUB SWAP1 REVERT JUMPDEST PUSH2 0x448 DUP2 PUSH2 0x4F7 JUMP JUMPDEST POP JUMP JUMPDEST PUSH1 0x1 PUSH0 SWAP1 SLOAD SWAP1 PUSH2 0x100 EXP SWAP1 DIV PUSH20 0xFFFFFFFFFFFFFFFFFFFFFFFFFFFFFFFFFFFFFFFF AND DUP2 JUMP JUMPDEST PUSH2 0x478 PUSH2 0x5B8 JUMP JUMPDEST PUSH20 0xFFFFFFFFFFFFFFFFFFFFFFFFFFFFFFFFFFFFFFFF AND PUSH2 0x496 PUSH2 0x39E JUMP JUMPDEST PUSH20 0xFFFFFFFFFFFFFFFFFFFFFFFFFFFFFFFFFFFFFFFF AND EQ PUSH2 0x4F5 JUMPI PUSH2 0x4B9 PUSH2 0x5B8 JUMP JUMPDEST PUSH1 0x40 MLOAD PUSH32 0x118CDAA700000000000000000000000000000000000000000000000000000000 DUP2 MSTORE PUSH1 0x4 ADD PUSH2 0x4EC SWAP2 SWAP1 PUSH2 0x788 JUMP JUMPDEST PUSH1 0x40 MLOAD DUP1 SWAP2 SUB SWAP1 REVERT JUMPDEST JUMP JUMPDEST PUSH0 PUSH0 PUSH0 SWAP1 SLOAD SWAP1 PUSH2 0x100 EXP SWAP1 DIV PUSH20 0xFFFFFFFFFFFFFFFFFFFFFFFFFFFFFFFFFFFFFFFF AND SWAP1 POP DUP2 PUSH0 PUSH0 PUSH2 0x100 EXP DUP2 SLOAD DUP2 PUSH20 0xFFFFFFFFFFFFFFFFFFFFFFFFFFFFFFFFFFFFFFFF MUL NOT AND SWAP1 DUP4 PUSH20 0xFFFFFFFFFFFFFFFFFFFFFFFFFFFFFFFFFFFFFFFF AND MUL OR SWAP1 SSTORE POP DUP2 PUSH20 0xFFFFFFFFFFFFFFFFFFFFFFFFFFFFFFFFFFFFFFFF AND DUP2 PUSH20 0xFFFFFFFFFFFFFFFFFFFFFFFFFFFFFFFFFFFFFFFF AND PUSH32 0x8BE0079C531659141344CD1FD0A4F28419497F9722A3DAAFE3B4186F6B6457E0 PUSH1 0x40 MLOAD PUSH1 0x40 MLOAD DUP1 SWAP2 SUB SWAP1 LOG3 POP POP JUMP JUMPDEST PUSH0 CALLER SWAP1 POP SWAP1 JUMP JUMPDEST PUSH0 DUP2 SWAP1 POP SWAP2 SWAP1 POP JUMP JUMPDEST PUSH2 0x5D1 DUP2 PUSH2 0x5BF JUMP JUMPDEST DUP3 MSTORE POP POP JUMP JUMPDEST PUSH0 PUSH1 0x20 DUP3 ADD SWAP1 POP PUSH2 0x5EA PUSH0 DUP4 ADD DUP5 PUSH2 0x5C8 JUMP JUMPDEST SWAP3 SWAP2 POP POP JUMP JUMPDEST PUSH0 PUSH1 0x40 MLOAD SWAP1 POP SWAP1 JUMP JUMPDEST PUSH0 PUSH0 REVERT JUMPDEST PUSH0 PUSH0 REVERT JUMPDEST PUSH0 PUSH20 0xFFFFFFFFFFFFFFFFFFFFFFFFFFFFFFFFFFFFFFFF DUP3 AND SWAP1 POP SWAP2 SWAP1 POP JUMP JUMPDEST PUSH0 PUSH2 0x62A DUP3 PUSH2 0x601 JUMP JUMPDEST SWAP1 POP SWAP2 SWAP1 POP JUMP JUMPDEST PUSH2 0x63A DUP2 PUSH2 0x620 JUMP JUMPDEST DUP2 EQ PUSH2 0x644 JUMPI PUSH0 PUSH0 REVERT JUMPDEST POP JUMP JUMPDEST PUSH0 DUP2 CALLDATALOAD SWAP1 POP PUSH2 0x655 DUP2 PUSH2 0x631 JUMP JUMPDEST SWAP3 SWAP2 POP POP JUMP JUMPDEST PUSH2 0x664 DUP2 PUSH2 0x5BF JUMP JUMPDEST DUP2 EQ PUSH2 0x66E JUMPI PUSH0 PUSH0 REVERT JUMPDEST POP JUMP JUMPDEST PUSH0 DUP2 CALLDATALOAD SWAP1 POP PUSH2 0x67F DUP2 PUSH2 0x65B JUMP JUMPDEST SWAP3 SWAP2 POP POP JUMP JUMPDEST PUSH0 PUSH0 PUSH0 PUSH0 PUSH1 0x80 DUP6 DUP8 SUB SLT ISZERO PUSH2 0x69D JUMPI PUSH2 0x69C PUSH2 0x5F9 JUMP JUMPDEST JUMPDEST PUSH0 PUSH2 0x6AA DUP8 DUP3 DUP9 ADD PUSH2 0x647 JUMP JUMPDEST SWAP5 POP POP PUSH1 0x20 PUSH2 0x6BB DUP8 DUP3 DUP9 ADD PUSH2 0x671 JUMP JUMPDEST SWAP4 POP POP PUSH1 0x40 PUSH2 0x6CC DUP8 DUP3 DUP9 ADD PUSH2 0x647 JUMP JUMPDEST SWAP3 POP POP PUSH1 0x60 PUSH2 0x6DD DUP8 DUP3 DUP9 ADD PUSH2 0x647 JUMP JUMPDEST SWAP2 POP POP SWAP3 SWAP6 SWAP2 SWAP5 POP SWAP3 POP JUMP JUMPDEST PUSH0 DUP2 MLOAD SWAP1 POP SWAP2 SWAP1 POP JUMP JUMPDEST PUSH0 DUP3 DUP3 MSTORE PUSH1 0x20 DUP3 ADD SWAP1 POP SWAP3 SWAP2 POP POP JUMP JUMPDEST DUP3 DUP2 DUP4 MCOPY PUSH0 DUP4 DUP4 ADD MSTORE POP POP POP JUMP JUMPDEST PUSH0 PUSH1 0x1F NOT PUSH1 0x1F DUP4 ADD AND SWAP1 POP SWAP2 SWAP1 POP JUMP JUMPDEST PUSH0 PUSH2 0x72B DUP3 PUSH2 0x6E9 JUMP JUMPDEST PUSH2 0x735 DUP2 DUP6 PUSH2 0x6F3 JUMP JUMPDEST SWAP4 POP PUSH2 0x745 DUP2 DUP6 PUSH1 0x20 DUP7 ADD PUSH2 0x703 JUMP JUMPDEST PUSH2 0x74E DUP2 PUSH2 0x711 JUMP JUMPDEST DUP5 ADD SWAP2 POP POP SWAP3 SWAP2 POP POP JUMP JUMPDEST PUSH0 PUSH1 0x20 DUP3 ADD SWAP1 POP DUP2 DUP2 SUB PUSH0 DUP4 ADD MSTORE PUSH2 0x771 DUP2 DUP5 PUSH2 0x721 JUMP JUMPDEST SWAP1 POP SWAP3 SWAP2 POP POP JUMP JUMPDEST PUSH2 0x782 DUP2 PUSH2 0x620 JUMP JUMPDEST DUP3 MSTORE POP POP JUMP JUMPDEST PUSH0 PUSH1 0x20 DUP3 ADD SWAP1 POP PUSH2 0x79B PUSH0 DUP4 ADD DUP5 PUSH2 0x779 JUMP JUMPDEST SWAP3 SWAP2 POP POP JUMP JUMPDEST PUSH0 PUSH0 REVERT JUMPDEST PUSH0 PUSH0 REVERT JUMPDEST PUSH32 0x4E487B7100000000000000000000000000000000000000000000000000000000 PUSH0 MSTORE PUSH1 0x41 PUSH1 0x4 MSTORE PUSH1 0x24 PUSH0 REVERT JUMPDEST PUSH2 0x7DF DUP3 PUSH2 0x711 JUMP JUMPDEST DUP2 ADD DUP2 DUP2 LT PUSH8 0xFFFFFFFFFFFFFFFF DUP3 GT OR ISZERO PUSH2 0x7FE JUMPI PUSH2 0x7FD PUSH2 0x7A9 JUMP JUMPDEST JUMPDEST DUP1 PUSH1 0x40 MSTORE POP POP POP JUMP JUMPDEST PUSH0 PUSH2 0x810 PUSH2 0x5F0 JUMP JUMPDEST SWAP1 POP PUSH2 0x81C DUP3 DUP3 PUSH2 0x7D6 JUMP JUMPDEST SWAP2 SWAP1 POP JUMP JUMPDEST PUSH0 PUSH8 0xFFFFFFFFFFFFFFFF DUP3 GT ISZERO PUSH2 0x83B JUMPI PUSH2 0x83A PUSH2 0x7A9 JUMP JUMPDEST JUMPDEST PUSH2 0x844 DUP3 PUSH2 0x711 JUMP JUMPDEST SWAP1 POP PUSH1 0x20 DUP2 ADD SWAP1 POP SWAP2 SWAP1 POP JUMP JUMPDEST DUP3 DUP2 DUP4 CALLDATACOPY PUSH0 DUP4 DUP4 ADD MSTORE POP POP POP JUMP JUMPDEST PUSH0 PUSH2 0x871 PUSH2 0x86C DUP5 PUSH2 0x821 JUMP JUMPDEST PUSH2 0x807 JUMP JUMPDEST SWAP1 POP DUP3 DUP2 MSTORE PUSH1 0x20 DUP2 ADD DUP5 DUP5 DUP5 ADD GT ISZERO PUSH2 0x88D JUMPI PUSH2 0x88C PUSH2 0x7A5 JUMP JUMPDEST JUMPDEST PUSH2 0x898 DUP5 DUP3 DUP6 PUSH2 0x851 JUMP JUMPDEST POP SWAP4 SWAP3 POP POP POP JUMP JUMPDEST PUSH0 DUP3 PUSH1 0x1F DUP4 ADD SLT PUSH2 0x8B4 JUMPI PUSH2 0x8B3 PUSH2 0x7A1 JUMP JUMPDEST JUMPDEST DUP2 CALLDATALOAD PUSH2 0x8C4 DUP5 DUP3 PUSH1 0x20 DUP7 ADD PUSH2 0x85F JUMP JUMPDEST SWAP2 POP POP SWAP3 SWAP2 POP POP JUMP JUMPDEST PUSH0 PUSH1 0x20 DUP3 DUP5 SUB SLT ISZERO PUSH2 0x8E2 JUMPI PUSH2 0x8E1 PUSH2 0x5F9 JUMP JUMPDEST JUMPDEST PUSH0 DUP3 ADD CALLDATALOAD PUSH8 0xFFFFFFFFFFFFFFFF DUP2 GT ISZERO PUSH2 0x8FF JUMPI PUSH2 0x8FE PUSH2 0x5FD JUMP JUMPDEST JUMPDEST PUSH2 0x90B DUP5 DUP3 DUP6 ADD PUSH2 0x8A0 JUMP JUMPDEST SWAP2 POP POP SWAP3 SWAP2 POP POP JUMP JUMPDEST PUSH0 DUP2 ISZERO ISZERO SWAP1 POP SWAP2 SWAP1 POP JUMP JUMPDEST PUSH2 0x928 DUP2 PUSH2 0x914 JUMP JUMPDEST DUP3 MSTORE POP POP JUMP JUMPDEST PUSH0 PUSH1 0x20 DUP3 ADD SWAP1 POP PUSH2 0x941 PUSH0 DUP4 ADD DUP5 PUSH2 0x91F JUMP JUMPDEST SWAP3 SWAP2 POP POP JUMP JUMPDEST PUSH0 PUSH1 0x20 DUP3 DUP5 SUB SLT ISZERO PUSH2 0x95C JUMPI PUSH2 0x95B PUSH2 0x5F9 JUMP JUMPDEST JUMPDEST PUSH0 PUSH2 0x969 DUP5 DUP3 DUP6 ADD PUSH2 0x647 JUMP JUMPDEST SWAP2 POP POP SWAP3 SWAP2 POP POP JUMP JUMPDEST PUSH0 DUP2 SWAP1 POP SWAP2 SWAP1 POP JUMP JUMPDEST PUSH0 PUSH2 0x995 PUSH2 0x990 PUSH2 0x98B DUP5 PUSH2 0x601 JUMP JUMPDEST PUSH2 0x972 JUMP JUMPDEST PUSH2 0x601 JUMP JUMPDEST SWAP1 POP SWAP2 SWAP1 POP JUMP JUMPDEST PUSH0 PUSH2 0x9A6 DUP3 PUSH2 0x97B JUMP JUMPDEST SWAP1 POP SWAP2 SWAP1 POP JUMP JUMPDEST PUSH0 PUSH2 0x9B7 DUP3 PUSH2 0x99C JUMP JUMPDEST SWAP1 POP SWAP2 SWAP1 POP JUMP JUMPDEST PUSH2 0x9C7 DUP2 PUSH2 0x9AD JUMP JUMPDEST DUP3 MSTORE POP POP JUMP JUMPDEST PUSH0 PUSH1 0x20 DUP3 ADD SWAP1 POP PUSH2 0x9E0 PUSH0 DUP4 ADD DUP5 PUSH2 0x9BE JUMP JUMPDEST SWAP3 SWAP2 POP POP JUMP JUMPDEST PUSH0 PUSH1 0x80 DUP3 ADD SWAP1 POP PUSH2 0x9F9 PUSH0 DUP4 ADD DUP8 PUSH2 0x779 JUMP JUMPDEST PUSH2 0xA06 PUSH1 0x20 DUP4 ADD DUP7 PUSH2 0x5C8 JUMP JUMPDEST PUSH2 0xA13 PUSH1 0x40 DUP4 ADD DUP6 PUSH2 0x779 JUMP JUMPDEST PUSH2 0xA20 PUSH1 0x60 DUP4 ADD DUP5 PUSH2 0x779 JUMP JUMPDEST SWAP6 SWAP5 POP POP POP POP POP JUMP JUMPDEST PUSH0 PUSH2 0xA33 DUP3 PUSH2 0x601 JUMP JUMPDEST SWAP1 POP SWAP2 SWAP1 POP JUMP JUMPDEST PUSH2 0xA43 DUP2 PUSH2 0xA29 JUMP JUMPDEST DUP2 EQ PUSH2 0xA4D JUMPI PUSH0 PUSH0 REVERT JUMPDEST POP JUMP JUMPDEST PUSH0 DUP2 MLOAD SWAP1 POP PUSH2 0xA5E DUP2 PUSH2 0xA3A JUMP JUMPDEST SWAP3 SWAP2 POP POP JUMP JUMPDEST PUSH0 DUP2 MLOAD SWAP1 POP PUSH2 0xA72 DUP2 PUSH2 0x65B JUMP JUMPDEST SWAP3 SWAP2 POP POP JUMP JUMPDEST PUSH0 PUSH0 PUSH0 PUSH0 PUSH1 0x80 DUP6 DUP8 SUB SLT ISZERO PUSH2 0xA90 JUMPI PUSH2 0xA8F PUSH2 0x5F9 JUMP JUMPDEST JUMPDEST PUSH0 PUSH2 0xA9D DUP8 DUP3 DUP9 ADD PUSH2 0xA50 JUMP JUMPDEST SWAP5 POP POP PUSH1 0x20 PUSH2 0xAAE DUP8 DUP3 DUP9 ADD PUSH2 0xA64 JUMP JUMPDEST SWAP4 POP POP PUSH1 0x40 PUSH2 0xABF DUP8 DUP3 DUP9 ADD PUSH2 0xA50 JUMP JUMPDEST SWAP3 POP POP PUSH1 0x60 PUSH2 0xAD0 DUP8 DUP3 DUP9 ADD PUSH2 0xA50 JUMP JUMPDEST SWAP2 POP POP SWAP3 SWAP6 SWAP2 SWAP5 POP SWAP3 POP JUMP JUMPDEST PUSH32 0x4E487B7100000000000000000000000000000000000000000000000000000000 PUSH0 MSTORE PUSH1 0x11 PUSH1 0x4 MSTORE PUSH1 0x24 PUSH0 REVERT JUMPDEST PUSH0 PUSH2 0xB13 DUP3 PUSH2 0x5BF JUMP JUMPDEST SWAP2 POP PUSH2 0xB1E DUP4 PUSH2 0x5BF JUMP JUMPDEST SWAP3 POP DUP3 DUP3 ADD SWAP1 POP DUP1 DUP3 GT ISZERO PUSH2 0xB36 JUMPI PUSH2 0xB35 PUSH2 0xADC JUMP JUMPDEST JUMPDEST SWAP3 SWAP2 POP POP JUMP JUMPDEST PUSH0 PUSH2 0xB46 DUP3 PUSH2 0x5BF JUMP JUMPDEST SWAP2 POP PUSH2 0xB51 DUP4 PUSH2 0x5BF JUMP JUMPDEST SWAP3 POP DUP3 DUP3 SUB SWAP1 POP DUP2 DUP2 GT ISZERO PUSH2 0xB69 JUMPI PUSH2 0xB68 PUSH2 0xADC JUMP JUMPDEST JUMPDEST SWAP3 SWAP2 POP POP JUMP INVALID LOG2 PUSH5 0x6970667358 0x22 SLT KECCAK256 SWAP2 PUSH20 0x3368113CC5DA21A9E47DE6A5B8EEAF516D87A12A 0x25 LOG0 TSTORE RETURN PUSH17 0x23C50CB79F64736F6C634300081E003300 "
				},
				"gasEstimates": {
					"creation": {
						"codeDepositCost": "596200",
						"executionCost": "infinite",
						"totalCost": "infinite"
					},
					"external": {
						"beneficiary()": "2553",
						"claim()": "166",
						"claimableAmount()": "187",
						"cliff()": "2471",
						"duration()": "2449",
						"getInitData(address,uint256,address,address)": "infinite",
						"initialize(bytes)": "infinite",
						"owner()": "2536",
						"renounceOwnership()": "infinite",
						"startTime()": "2492",
						"token()": "infinite",
						"totalAmount()": "2493",
						"transferOwnership(address)": "infinite",
						"vestedAmount()": "infinite"
					}
				},
				"methodIdentifiers": {
					"beneficiary()": "38af3eed",
					"claim()": "4e71d92d",
					"claimableAmount()": "a556f846",
					"cliff()": "13d033c0",
					"duration()": "0fb5a6b4",
					"getInitData(address,uint256,address,address)": "2bfc9e2b",
					"initialize(bytes)": "439fab91",
					"owner()": "8da5cb5b",
					"renounceOwnership()": "715018a6",
					"startTime()": "78e97925",
					"token()": "fc0c546a",
					"totalAmount()": "1a39d8ef",
					"transferOwnership(address)": "f2fde38b",
					"vestedAmount()": "44b1231f"
				}
			},
			"storageLayout": {
				"storage": [
					{
						"astId": 8,
						"contract": "Linear_Vesting/Vesting.sol:Vesting",
						"label": "_owner",
						"offset": 0,
						"slot": "0",
						"type": "t_address"
					},
					{
						"astId": 284,
						"contract": "Linear_Vesting/Vesting.sol:Vesting",
						"label": "initialized",
						"offset": 20,
						"slot": "0",
						"type": "t_bool"
					},
					{
						"astId": 287,
						"contract": "Linear_Vesting/Vesting.sol:Vesting",
						"label": "token",
						"offset": 0,
						"slot": "1",
						"type": "t_contract(IERC20)225"
					},
					{
						"astId": 289,
						"contract": "Linear_Vesting/Vesting.sol:Vesting",
						"label": "beneficiary",
						"offset": 0,
						"slot": "2",
						"type": "t_address"
					},
					{
						"astId": 291,
						"contract": "Linear_Vesting/Vesting.sol:Vesting",
						"label": "totalAmount",
						"offset": 0,
						"slot": "3",
						"type": "t_uint256"
					},
					{
						"astId": 293,
						"contract": "Linear_Vesting/Vesting.sol:Vesting",
						"label": "startTime",
						"offset": 0,
						"slot": "4",
						"type": "t_uint256"
					},
					{
						"astId": 295,
						"contract": "Linear_Vesting/Vesting.sol:Vesting",
						"label": "cliff",
						"offset": 0,
						"slot": "5",
						"type": "t_uint256"
					},
					{
						"astId": 297,
						"contract": "Linear_Vesting/Vesting.sol:Vesting",
						"label": "duration",
						"offset": 0,
						"slot": "6",
						"type": "t_uint256"
					}
				],
				"types": {
					"t_address": {
						"encoding": "inplace",
						"label": "address",
						"numberOfBytes": "20"
					},
					"t_bool": {
						"encoding": "inplace",
						"label": "bool",
						"numberOfBytes": "1"
					},
					"t_contract(IERC20)225": {
						"encoding": "inplace",
						"label": "contract IERC20",
						"numberOfBytes": "20"
					},
					"t_uint256": {
						"encoding": "inplace",
						"label": "uint256",
						"numberOfBytes": "32"
					}
				}
			},
			"userdoc": {
				"kind": "user",
				"methods": {},
				"version": 1
			}
		}
	}
}