{
	"data": {
		"bytecode": {
			"linkReferences": {},
			"object": "608060405234801561000f575f5ffd5b50335f73ffffffffffffffffffffffffffffffffffffffff168173ffffffffffffffffffffffffffffffffffffffff1603610081575f6040517f1e4fbdf70000000000000000000000000000000000000000000000000000000081526004016100789190610196565b60405180910390fd5b6100908161009660201b60201c565b506101af565b5f5f5f9054906101000a900473ffffffffffffffffffffffffffffffffffffffff169050815f5f6101000a81548173ffffffffffffffffffffffffffffffffffffffff021916908373ffffffffffffffffffffffffffffffffffffffff1602179055508173ffffffffffffffffffffffffffffffffffffffff168173ffffffffffffffffffffffffffffffffffffffff167f8be0079c531659141344cd1fd0a4f28419497f9722a3daafe3b4186f6b6457e060405160405180910390a35050565b5f73ffffffffffffffffffffffffffffffffffffffff82169050919050565b5f61018082610157565b9050919050565b61019081610176565b82525050565b5f6020820190506101a95f830184610187565b92915050565b6118c7806101bc5f395ff3fe608060405234801561000f575f5ffd5b50600436106100b1575f3560e01c80638da5cb5b1161006f5780638da5cb5b14610163578063a00a45cb14610181578063b3b3e87f146101b1578063daf49863146101cd578063f2fde38b14610204578063fc0c546a14610220576100b1565b80622f9569146100b5578063439fab91146100d35780634e71d92d14610103578063715018a61461010d5780637c559085146101175780638988504914610133575b5f5ffd5b6100bd61023e565b6040516100ca91906110ce565b60405180910390f35b6100ed60048036038101906100e89190611234565b610244565b6040516100fa9190611295565b60405180910390f35b61010b610314565b005b610115610644565b005b610131600480360381019061012c9190611332565b610657565b005b61014d600480360381019061014891906113cf565b610ae5565b60405161015a91906110ce565b60405180910390f35b61016b610b6b565b6040516101789190611409565b60405180910390f35b61019b60048036038101906101969190611422565b610b92565b6040516101a891906114c0565b60405180910390f35b6101cb60048036038101906101c691906113cf565b610bbe565b005b6101e760048036038101906101e291906113cf565b610db7565b6040516101fb9897969594939291906114e0565b60405180910390f35b61021e600480360381019061021991906113cf565b610dfb565b005b610228610e7f565b60405161023591906115b7565b60405180910390f35b60025481565b5f600160149054906101000a900460ff161561028c576040517f0dc149f000000000000000000000000000000000000000000000000000000000815260040160405180910390fd5b5f5f838060200190518101906102a2919061160b565b915091508160015f6101000a81548173ffffffffffffffffffffffffffffffffffffffff021916908373ffffffffffffffffffffffffffffffffffffffff1602179055506102ef81610dfb565b60018060146101000a81548160ff021916908315150217905550600192505050919050565b5f60035f3373ffffffffffffffffffffffffffffffffffffffff1673ffffffffffffffffffffffffffffffffffffffff1681526020019081526020015f2090505f815f015411610390576040517fe146a52b00000000000000000000000000000000000000000000000000000000815260040160405180910390fd5b806002015481600101546103a49190611676565b42116103dc576040517f392a328700000000000000000000000000000000000000000000000000000000815260040160405180910390fd5b806006015481600501546103f09190611676565b421015610429576040517f9e49499400000000000000000000000000000000000000000000000000000000815260040160405180910390fd5b5f61043333610ae5565b90505f811161046e576040517f969bf72800000000000000000000000000000000000000000000000000000000815260040160405180910390fd5b81600701548110156104ac576040517f5dfcc46200000000000000000000000000000000000000000000000000000000815260040160405180910390fd5b815f01548260040154826104c09190611676565b11156104f8576040517f96a6633000000000000000000000000000000000000000000000000000000000815260040160405180910390fd5b80826004015f82825461050b9190611676565b925050819055504282600501819055508060025f82825461052c91906116a9565b9250508190555060015f9054906101000a900473ffffffffffffffffffffffffffffffffffffffff1673ffffffffffffffffffffffffffffffffffffffff1663a9059cbb33836040518363ffffffff1660e01b815260040161058f9291906116dc565b6020604051808303815f875af11580156105ab573d5f5f3e3d5ffd5b505050506040513d601f19601f820116820180604052508101906105cf919061172d565b610605576040517f90b8ec1800000000000000000000000000000000000000000000000000000000815260040160405180910390fd5b7f34fcbac0073d7c3d388e51312faf357774904998eeb8fca628b9e6f65ee1cbf733824260405161063893929190611758565b60405180910390a15050565b61064c610ea4565b6106555f610f2b565b565b61065f610ea4565b8560025460015f9054906101000a900473ffffffffffffffffffffffffffffffffffffffff1673ffffffffffffffffffffffffffffffffffffffff166370a08231306040518263ffffffff1660e01b81526004016106bd9190611409565b602060405180830381865afa1580156106d8573d5f5f3e3d5ffd5b505050506040513d601f19601f820116820180604052508101906106fc91906117a1565b61070691906116a9565b101561073e576040517fac16ee3e00000000000000000000000000000000000000000000000000000000815260040160405180910390fd5b5f8611610777576040517f46f1397d00000000000000000000000000000000000000000000000000000000815260040160405180910390fd5b5f60035f8973ffffffffffffffffffffffffffffffffffffffff1673ffffffffffffffffffffffffffffffffffffffff1681526020019081526020015f205f01541480610842575060035f8873ffffffffffffffffffffffffffffffffffffffff1673ffffffffffffffffffffffffffffffffffffffff1681526020019081526020015f206004015460035f8973ffffffffffffffffffffffffffffffffffffffff1673ffffffffffffffffffffffffffffffffffffffff1681526020019081526020015f205f0154145b610878576040517fda2573cf00000000000000000000000000000000000000000000000000000000815260040160405180910390fd5b4285116108b1576040517f41d33ec100000000000000000000000000000000000000000000000000000000815260040160405180910390fd5b5f83116108ea576040517faf0a1ac000000000000000000000000000000000000000000000000000000000815260040160405180910390fd5b828410610923576040517f12e390eb00000000000000000000000000000000000000000000000000000000815260040160405180910390fd5b82821061095c576040517f28a4e6f600000000000000000000000000000000000000000000000000000000815260040160405180910390fd5b5f73ffffffffffffffffffffffffffffffffffffffff168773ffffffffffffffffffffffffffffffffffffffff16036109c1576040517f5566df5c00000000000000000000000000000000000000000000000000000000815260040160405180910390fd5b6040518061010001604052808781526020018681526020018581526020018481526020015f81526020015f81526020018381526020018281525060035f8973ffffffffffffffffffffffffffffffffffffffff1673ffffffffffffffffffffffffffffffffffffffff1681526020019081526020015f205f820151815f01556020820151816001015560408201518160020155606082015181600301556080820151816004015560a0820151816005015560c0820151816006015560e082015181600701559050508560025f828254610a9a9190611676565b925050819055507f9ade76f4385de306666dfb21a52b27d52db0fde8ad0f515fa261f532cac60d21878742604051610ad493929190611758565b60405180910390a150505050505050565b5f5f60035f8473ffffffffffffffffffffffffffffffffffffffff1673ffffffffffffffffffffffffffffffffffffffff1681526020019081526020015f20905080600201548160010154610b3a9190611676565b421015610b4a575f915050610b66565b8060040154610b5884610fec565b610b6291906116a9565b9150505b919050565b5f5f5f9054906101000a900473ffffffffffffffffffffffffffffffffffffffff16905090565b60608282604051602001610ba79291906117cc565b604051602081830303815290604052905092915050565b610bc6610ea4565b5f60025460015f9054906101000a900473ffffffffffffffffffffffffffffffffffffffff1673ffffffffffffffffffffffffffffffffffffffff166370a08231306040518263ffffffff1660e01b8152600401610c249190611409565b602060405180830381865afa158015610c3f573d5f5f3e3d5ffd5b505050506040513d601f19601f82011682018060405250810190610c6391906117a1565b610c6d91906116a9565b90505f8111610ca8576040517fd0d04f6000000000000000000000000000000000000000000000000000000000815260040160405180910390fd5b60015f9054906101000a900473ffffffffffffffffffffffffffffffffffffffff1673ffffffffffffffffffffffffffffffffffffffff1663a9059cbb83836040518363ffffffff1660e01b8152600401610d049291906116dc565b6020604051808303815f875af1158015610d20573d5f5f3e3d5ffd5b505050506040513d601f19601f82011682018060405250810190610d44919061172d565b610d7a576040517f69a4751b00000000000000000000000000000000000000000000000000000000815260040160405180910390fd5b7f6352c5382c4a4578e712449ca65e83cdb392d045dfcf1cad9615189db2da244b8282604051610dab9291906116dc565b60405180910390a15050565b6003602052805f5260405f205f91509050805f0154908060010154908060020154908060030154908060040154908060050154908060060154908060070154905088565b610e03610ea4565b5f73ffffffffffffffffffffffffffffffffffffffff168173ffffffffffffffffffffffffffffffffffffffff1603610e73575f6040517f1e4fbdf7000000000000000000000000000000000000000000000000000000008152600401610e6a9190611409565b60405180910390fd5b610e7c81610f2b565b50565b60015f9054906101000a900473ffffffffffffffffffffffffffffffffffffffff1681565b610eac6110af565b73ffffffffffffffffffffffffffffffffffffffff16610eca610b6b565b73ffffffffffffffffffffffffffffffffffffffff1614610f2957610eed6110af565b6040517f118cdaa7000000000000000000000000000000000000000000000000000000008152600401610f209190611409565b60405180910390fd5b565b5f5f5f9054906101000a900473ffffffffffffffffffffffffffffffffffffffff169050815f5f6101000a81548173ffffffffffffffffffffffffffffffffffffffff021916908373ffffffffffffffffffffffffffffffffffffffff1602179055508173ffffffffffffffffffffffffffffffffffffffff168173ffffffffffffffffffffffffffffffffffffffff167f8be0079c531659141344cd1fd0a4f28419497f9722a3daafe3b4186f6b6457e060405160405180910390a35050565b5f5f60035f8473ffffffffffffffffffffffffffffffffffffffff1673ffffffffffffffffffffffffffffffffffffffff1681526020019081526020015f209050806002015481600101546110419190611676565b421015611051575f9150506110aa565b5f816002015482600101546110669190611676565b4261107191906116a9565b9050816003015481111561108757816003015490505b816003015481835f015461109b91906117f3565b6110a59190611861565b925050505b919050565b5f33905090565b5f819050919050565b6110c8816110b6565b82525050565b5f6020820190506110e15f8301846110bf565b92915050565b5f604051905090565b5f5ffd5b5f5ffd5b5f5ffd5b5f5ffd5b5f601f19601f8301169050919050565b7f4e487b71000000000000000000000000000000000000000000000000000000005f52604160045260245ffd5b61114682611100565b810181811067ffffffffffffffff8211171561116557611164611110565b5b80604052505050565b5f6111776110e7565b9050611183828261113d565b919050565b5f67ffffffffffffffff8211156111a2576111a1611110565b5b6111ab82611100565b9050602081019050919050565b828183375f83830152505050565b5f6111d86111d384611188565b61116e565b9050828152602081018484840111156111f4576111f36110fc565b5b6111ff8482856111b8565b509392505050565b5f82601f83011261121b5761121a6110f8565b5b813561122b8482602086016111c6565b91505092915050565b5f60208284031215611249576112486110f0565b5b5f82013567ffffffffffffffff811115611266576112656110f4565b5b61127284828501611207565b91505092915050565b5f8115159050919050565b61128f8161127b565b82525050565b5f6020820190506112a85f830184611286565b92915050565b5f73ffffffffffffffffffffffffffffffffffffffff82169050919050565b5f6112d7826112ae565b9050919050565b6112e7816112cd565b81146112f1575f5ffd5b50565b5f81359050611302816112de565b92915050565b611311816110b6565b811461131b575f5ffd5b50565b5f8135905061132c81611308565b92915050565b5f5f5f5f5f5f5f60e0888a03121561134d5761134c6110f0565b5b5f61135a8a828b016112f4565b975050602061136b8a828b0161131e565b965050604061137c8a828b0161131e565b955050606061138d8a828b0161131e565b945050608061139e8a828b0161131e565b93505060a06113af8a828b0161131e565b92505060c06113c08a828b0161131e565b91505092959891949750929550565b5f602082840312156113e4576113e36110f0565b5b5f6113f1848285016112f4565b91505092915050565b611403816112cd565b82525050565b5f60208201905061141c5f8301846113fa565b92915050565b5f5f60408385031215611438576114376110f0565b5b5f611445858286016112f4565b9250506020611456858286016112f4565b9150509250929050565b5f81519050919050565b5f82825260208201905092915050565b8281835e5f83830152505050565b5f61149282611460565b61149c818561146a565b93506114ac81856020860161147a565b6114b581611100565b840191505092915050565b5f6020820190508181035f8301526114d88184611488565b905092915050565b5f610100820190506114f45f83018b6110bf565b611501602083018a6110bf565b61150e60408301896110bf565b61151b60608301886110bf565b61152860808301876110bf565b61153560a08301866110bf565b61154260c08301856110bf565b61154f60e08301846110bf565b9998505050505050505050565b5f819050919050565b5f61157f61157a611575846112ae565b61155c565b6112ae565b9050919050565b5f61159082611565565b9050919050565b5f6115a182611586565b9050919050565b6115b181611597565b82525050565b5f6020820190506115ca5f8301846115a8565b92915050565b5f6115da826112ae565b9050919050565b6115ea816115d0565b81146115f4575f5ffd5b50565b5f81519050611605816115e1565b92915050565b5f5f60408385031215611621576116206110f0565b5b5f61162e858286016115f7565b925050602061163f858286016115f7565b9150509250929050565b7f4e487b71000000000000000000000000000000000000000000000000000000005f52601160045260245ffd5b5f611680826110b6565b915061168b836110b6565b92508282019050808211156116a3576116a2611649565b5b92915050565b5f6116b3826110b6565b91506116be836110b6565b92508282039050818111156116d6576116d5611649565b5b92915050565b5f6040820190506116ef5f8301856113fa565b6116fc60208301846110bf565b9392505050565b61170c8161127b565b8114611716575f5ffd5b50565b5f8151905061172781611703565b92915050565b5f60208284031215611742576117416110f0565b5b5f61174f84828501611719565b91505092915050565b5f60608201905061176b5f8301866113fa565b61177860208301856110bf565b61178560408301846110bf565b949350505050565b5f8151905061179b81611308565b92915050565b5f602082840312156117b6576117b56110f0565b5b5f6117c38482850161178d565b91505092915050565b5f6040820190506117df5f8301856113fa565b6117ec60208301846113fa565b9392505050565b5f6117fd826110b6565b9150611808836110b6565b9250828202611816816110b6565b9150828204841483151761182d5761182c611649565b5b5092915050565b7f4e487b71000000000000000000000000000000000000000000000000000000005f52601260045260245ffd5b5f61186b826110b6565b9150611876836110b6565b92508261188657611885611834565b5b82820490509291505056fea2646970667358221220c81a3c6e1cdcc3866dc560160dd89f09747c44e4a913ab46abe8f19d2ae7535d64736f6c634300081e0033",
			"opcodes": "PUSH1 0x80 PUSH1 0x40 MSTORE CALLVALUE DUP1 ISZERO PUSH2 0xF JUMPI PUSH0 PUSH0 REVERT JUMPDEST POP CALLER PUSH0 PUSH20 0xFFFFFFFFFFFFFFFFFFFFFFFFFFFFFFFFFFFFFFFF AND DUP2 PUSH20 0xFFFFFFFFFFFFFFFFFFFFFFFFFFFFFFFFFFFFFFFF AND SUB PUSH2 0x81 JUMPI PUSH0 PUSH1 0x40 MLOAD PUSH32 0x1E4FBDF700000000000000000000000000000000000000000000000000000000 DUP2 MSTORE PUSH1 0x4 ADD PUSH2 0x78 SWAP2 SWAP1 PUSH2 0x196 JUMP JUMPDEST PUSH1 0x40 MLOAD DUP1 SWAP2 SUB SWAP1 REVERT JUMPDEST PUSH2 0x90 DUP2 PUSH2 0x96 PUSH1 0x20 SHL PUSH1 0x20 SHR JUMP JUMPDEST POP PUSH2 0x1AF JUMP JUMPDEST PUSH0 PUSH0 PUSH0 SWAP1 SLOAD SWAP1 PUSH2 0x100 EXP SWAP1 DIV PUSH20 0xFFFFFFFFFFFFFFFFFFFFFFFFFFFFFFFFFFFFFFFF AND SWAP1 POP DUP2 PUSH0 PUSH0 PUSH2 0x100 EXP DUP2 SLOAD DUP2 PUSH20 0xFFFFFFFFFFFFFFFFFFFFFFFFFFFFFFFFFFFFFFFF MUL NOT AND SWAP1 DUP4 PUSH20 0xFFFFFFFFFFFFFFFFFFFFFFFFFFFFFFFFFFFFFFFF AND MUL OR SWAP1 SSTORE POP DUP2 PUSH20 0xFFFFFFFFFFFFFFFFFFFFFFFFFFFFFFFFFFFFFFFF AND DUP2 PUSH20 0xFFFFFFFFFFFFFFFFFFFFFFFFFFFFFFFFFFFFFFFF AND PUSH32 0x8BE0079C531659141344CD1FD0A4F28419497F9722A3DAAFE3B4186F6B6457E0 PUSH1 0x40 MLOAD PUSH1 0x40 MLOAD DUP1 SWAP2 SUB SWAP1 LOG3 POP POP JUMP JUMPDEST PUSH0 PUSH20 0xFFFFFFFFFFFFFFFFFFFFFFFFFFFFFFFFFFFFFFFF DUP3 AND SWAP1 POP SWAP2 SWAP1 POP JUMP JUMPDEST PUSH0 PUSH2 0x180 DUP3 PUSH2 0x157 JUMP JUMPDEST SWAP1 POP SWAP2 SWAP1 POP JUMP JUMPDEST PUSH2 0x190 DUP2 PUSH2 0x176 JUMP JUMPDEST DUP3 MSTORE POP POP JUMP JUMPDEST PUSH0 PUSH1 0x20 DUP3 ADD SWAP1 POP PUSH2 0x1A9 PUSH0 DUP4 ADD DUP5 PUSH2 0x187 JUMP JUMPDEST SWAP3 SWAP2 POP POP JUMP JUMPDEST PUSH2 0x18C7 DUP1 PUSH2 0x1BC PUSH0 CODECOPY PUSH0 RETURN INVALID PUSH1 0x80 PUSH1 0x40 MSTORE CALLVALUE DUP1 ISZERO PUSH2 0xF JUMPI PUSH0 PUSH0 REVERT JUMPDEST POP PUSH1 0x4 CALLDATASIZE LT PUSH2 0xB1 JUMPI PUSH0 CALLDATALOAD PUSH1 0xE0 SHR DUP1 PUSH4 0x8DA5CB5B GT PUSH2 0x6F JUMPI DUP1 PUSH4 0x8DA5CB5B EQ PUSH2 0x163 JUMPI DUP1 PUSH4 0xA00A45CB EQ PUSH2 0x181 JUMPI DUP1 PUSH4 0xB3B3E87F EQ PUSH2 0x1B1 JUMPI DUP1 PUSH4 0xDAF49863 EQ PUSH2 0x1CD JUMPI DUP1 PUSH4 0xF2FDE38B EQ PUSH2 0x204 JUMPI DUP1 PUSH4 0xFC0C546A EQ PUSH2 0x220 JUMPI PUSH2 0xB1 JUMP JUMPDEST DUP1 PUSH3 0x2F9569 EQ PUSH2 0xB5 JUMPI DUP1 PUSH4 0x439FAB91 EQ PUSH2 0xD3 JUMPI DUP1 PUSH4 0x4E71D92D EQ PUSH2 0x103 JUMPI DUP1 PUSH4 0x715018A6 EQ PUSH2 0x10D JUMPI DUP1 PUSH4 0x7C559085 EQ PUSH2 0x117 JUMPI DUP1 PUSH4 0x89885049 EQ PUSH2 0x133 JUMPI JUMPDEST PUSH0 PUSH0 REVERT JUMPDEST PUSH2 0xBD PUSH2 0x23E JUMP JUMPDEST PUSH1 0x40 MLOAD PUSH2 0xCA SWAP2 SWAP1 PUSH2 0x10CE JUMP JUMPDEST PUSH1 0x40 MLOAD DUP1 SWAP2 SUB SWAP1 RETURN JUMPDEST PUSH2 0xED PUSH1 0x4 DUP1 CALLDATASIZE SUB DUP2 ADD SWAP1 PUSH2 0xE8 SWAP2 SWAP1 PUSH2 0x1234 JUMP JUMPDEST PUSH2 0x244 JUMP JUMPDEST PUSH1 0x40 MLOAD PUSH2 0xFA SWAP2 SWAP1 PUSH2 0x1295 JUMP JUMPDEST PUSH1 0x40 MLOAD DUP1 SWAP2 SUB SWAP1 RETURN JUMPDEST PUSH2 0x10B PUSH2 0x314 JUMP JUMPDEST STOP JUMPDEST PUSH2 0x115 PUSH2 0x644 JUMP JUMPDEST STOP JUMPDEST PUSH2 0x131 PUSH1 0x4 DUP1 CALLDATASIZE SUB DUP2 ADD SWAP1 PUSH2 0x12C SWAP2 SWAP1 PUSH2 0x1332 JUMP JUMPDEST PUSH2 0x657 JUMP JUMPDEST STOP JUMPDEST PUSH2 0x14D PUSH1 0x4 DUP1 CALLDATASIZE SUB DUP2 ADD SWAP1 PUSH2 0x148 SWAP2 SWAP1 PUSH2 0x13CF JUMP JUMPDEST PUSH2 0xAE5 JUMP JUMPDEST PUSH1 0x40 MLOAD PUSH2 0x15A SWAP2 SWAP1 PUSH2 0x10CE JUMP JUMPDEST PUSH1 0x40 MLOAD DUP1 SWAP2 SUB SWAP1 RETURN JUMPDEST PUSH2 0x16B PUSH2 0xB6B JUMP JUMPDEST PUSH1 0x40 MLOAD PUSH2 0x178 SWAP2 SWAP1 PUSH2 0x1409 JUMP JUMPDEST PUSH1 0x40 MLOAD DUP1 SWAP2 SUB SWAP1 RETURN JUMPDEST PUSH2 0x19B PUSH1 0x4 DUP1 CALLDATASIZE SUB DUP2 ADD SWAP1 PUSH2 0x196 SWAP2 SWAP1 PUSH2 0x1422 JUMP JUMPDEST PUSH2 0xB92 JUMP JUMPDEST PUSH1 0x40 MLOAD PUSH2 0x1A8 SWAP2 SWAP1 PUSH2 0x14C0 JUMP JUMPDEST PUSH1 0x40 MLOAD DUP1 SWAP2 SUB SWAP1 RETURN JUMPDEST PUSH2 0x1CB PUSH1 0x4 DUP1 CALLDATASIZE SUB DUP2 ADD SWAP1 PUSH2 0x1C6 SWAP2 SWAP1 PUSH2 0x13CF JUMP JUMPDEST PUSH2 0xBBE JUMP JUMPDEST STOP JUMPDEST PUSH2 0x1E7 PUSH1 0x4 DUP1 CALLDATASIZE SUB DUP2 ADD SWAP1 PUSH2 0x1E2 SWAP2 SWAP1 PUSH2 0x13CF JUMP JUMPDEST PUSH2 0xDB7 JUMP JUMPDEST PUSH1 0x40 MLOAD PUSH2 0x1FB SWAP9 SWAP8 SWAP7 SWAP6 SWAP5 SWAP4 SWAP3 SWAP2 SWAP1 PUSH2 0x14E0 JUMP JUMPDEST PUSH1 0x40 MLOAD DUP1 SWAP2 SUB SWAP1 RETURN JUMPDEST PUSH2 0x21E PUSH1 0x4 DUP1 CALLDATASIZE SUB DUP2 ADD SWAP1 PUSH2 0x219 SWAP2 SWAP1 PUSH2 0x13CF JUMP JUMPDEST PUSH2 0xDFB JUMP JUMPDEST STOP JUMPDEST PUSH2 0x228 PUSH2 0xE7F JUMP JUMPDEST PUSH1 0x40 MLOAD PUSH2 0x235 SWAP2 SWAP1 PUSH2 0x15B7 JUMP JUMPDEST PUSH1 0x40 MLOAD DUP1 SWAP2 SUB SWAP1 RETURN JUMPDEST PUSH1 0x2 SLOAD DUP2 JUMP JUMPDEST PUSH0 PUSH1 0x1 PUSH1 0x14 SWAP1 SLOAD SWAP1 PUSH2 0x100 EXP SWAP1 DIV PUSH1 0xFF AND ISZERO PUSH2 0x28C JUMPI PUSH1 0x40 MLOAD PUSH32 0xDC149F000000000000000000000000000000000000000000000000000000000 DUP2 MSTORE PUSH1 0x4 ADD PUSH1 0x40 MLOAD DUP1 SWAP2 SUB SWAP1 REVERT JUMPDEST PUSH0 PUSH0 DUP4 DUP1 PUSH1 0x20 ADD SWAP1 MLOAD DUP2 ADD SWAP1 PUSH2 0x2A2 SWAP2 SWAP1 PUSH2 0x160B JUMP JUMPDEST SWAP2 POP SWAP2 POP DUP2 PUSH1 0x1 PUSH0 PUSH2 0x100 EXP DUP2 SLOAD DUP2 PUSH20 0xFFFFFFFFFFFFFFFFFFFFFFFFFFFFFFFFFFFFFFFF MUL NOT AND SWAP1 DUP4 PUSH20 0xFFFFFFFFFFFFFFFFFFFFFFFFFFFFFFFFFFFFFFFF AND MUL OR SWAP1 SSTORE POP PUSH2 0x2EF DUP2 PUSH2 0xDFB JUMP JUMPDEST PUSH1 0x1 DUP1 PUSH1 0x14 PUSH2 0x100 EXP DUP2 SLOAD DUP2 PUSH1 0xFF MUL NOT AND SWAP1 DUP4 ISZERO ISZERO MUL OR SWAP1 SSTORE POP PUSH1 0x1 SWAP3 POP POP POP SWAP2 SWAP1 POP JUMP JUMPDEST PUSH0 PUSH1 0x3 PUSH0 CALLER PUSH20 0xFFFFFFFFFFFFFFFFFFFFFFFFFFFFFFFFFFFFFFFF AND PUSH20 0xFFFFFFFFFFFFFFFFFFFFFFFFFFFFFFFFFFFFFFFF AND DUP2 MSTORE PUSH1 0x20 ADD SWAP1 DUP2 MSTORE PUSH1 0x20 ADD PUSH0 KECCAK256 SWAP1 POP PUSH0 DUP2 PUSH0 ADD SLOAD GT PUSH2 0x390 JUMPI PUSH1 0x40 MLOAD PUSH32 0xE146A52B00000000000000000000000000000000000000000000000000000000 DUP2 MSTORE PUSH1 0x4 ADD PUSH1 0x40 MLOAD DUP1 SWAP2 SUB SWAP1 REVERT JUMPDEST DUP1 PUSH1 0x2 ADD SLOAD DUP2 PUSH1 0x1 ADD SLOAD PUSH2 0x3A4 SWAP2 SWAP1 PUSH2 0x1676 JUMP JUMPDEST TIMESTAMP GT PUSH2 0x3DC JUMPI PUSH1 0x40 MLOAD PUSH32 0x392A328700000000000000000000000000000000000000000000000000000000 DUP2 MSTORE PUSH1 0x4 ADD PUSH1 0x40 MLOAD DUP1 SWAP2 SUB SWAP1 REVERT JUMPDEST DUP1 PUSH1 0x6 ADD SLOAD DUP2 PUSH1 0x5 ADD SLOAD PUSH2 0x3F0 SWAP2 SWAP1 PUSH2 0x1676 JUMP JUMPDEST TIMESTAMP LT ISZERO PUSH2 0x429 JUMPI PUSH1 0x40 MLOAD PUSH32 0x9E49499400000000000000000000000000000000000000000000000000000000 DUP2 MSTORE PUSH1 0x4 ADD PUSH1 0x40 MLOAD DUP1 SWAP2 SUB SWAP1 REVERT JUMPDEST PUSH0 PUSH2 0x433 CALLER PUSH2 0xAE5 JUMP JUMPDEST SWAP1 POP PUSH0 DUP2 GT PUSH2 0x46E JUMPI PUSH1 0x40 MLOAD PUSH32 0x969BF72800000000000000000000000000000000000000000000000000000000 DUP2 MSTORE PUSH1 0x4 ADD PUSH1 0x40 MLOAD DUP1 SWAP2 SUB SWAP1 REVERT JUMPDEST DUP2 PUSH1 0x7 ADD SLOAD DUP2 LT ISZERO PUSH2 0x4AC JUMPI PUSH1 0x40 MLOAD PUSH32 0x5DFCC46200000000000000000000000000000000000000000000000000000000 DUP2 MSTORE PUSH1 0x4 ADD PUSH1 0x40 MLOAD DUP1 SWAP2 SUB SWAP1 REVERT JUMPDEST DUP2 PUSH0 ADD SLOAD DUP3 PUSH1 0x4 ADD SLOAD DUP3 PUSH2 0x4C0 SWAP2 SWAP1 PUSH2 0x1676 JUMP JUMPDEST GT ISZERO PUSH2 0x4F8 JUMPI PUSH1 0x40 MLOAD PUSH32 0x96A6633000000000000000000000000000000000000000000000000000000000 DUP2 MSTORE PUSH1 0x4 ADD PUSH1 0x40 MLOAD DUP1 SWAP2 SUB SWAP1 REVERT JUMPDEST DUP1 DUP3 PUSH1 0x4 ADD PUSH0 DUP3 DUP3 SLOAD PUSH2 0x50B SWAP2 SWAP1 PUSH2 0x1676 JUMP JUMPDEST SWAP3 POP POP DUP2 SWAP1 SSTORE POP TIMESTAMP DUP3 PUSH1 0x5 ADD DUP2 SWAP1 SSTORE POP DUP1 PUSH1 0x2 PUSH0 DUP3 DUP3 SLOAD PUSH2 0x52C SWAP2 SWAP1 PUSH2 0x16A9 JUMP JUMPDEST SWAP3 POP POP DUP2 SWAP1 SSTORE POP PUSH1 0x1 PUSH0 SWAP1 SLOAD SWAP1 PUSH2 0x100 EXP SWAP1 DIV PUSH20 0xFFFFFFFFFFFFFFFFFFFFFFFFFFFFFFFFFFFFFFFF AND PUSH20 0xFFFFFFFFFFFFFFFFFFFFFFFFFFFFFFFFFFFFFFFF AND PUSH4 0xA9059CBB CALLER DUP4 PUSH1 0x40 MLOAD DUP4 PUSH4 0xFFFFFFFF AND PUSH1 0xE0 SHL DUP2 MSTORE PUSH1 0x4 ADD PUSH2 0x58F SWAP3 SWAP2 SWAP1 PUSH2 0x16DC JUMP JUMPDEST PUSH1 0x20 PUSH1 0x40 MLOAD DUP1 DUP4 SUB DUP2 PUSH0 DUP8 GAS CALL ISZERO DUP1 ISZERO PUSH2 0x5AB JUMPI RETURNDATASIZE PUSH0 PUSH0 RETURNDATACOPY RETURNDATASIZE PUSH0 REVERT JUMPDEST POP POP POP POP PUSH1 0x40 MLOAD RETURNDATASIZE PUSH1 0x1F NOT PUSH1 0x1F DUP3 ADD AND DUP3 ADD DUP1 PUSH1 0x40 MSTORE POP DUP2 ADD SWAP1 PUSH2 0x5CF SWAP2 SWAP1 PUSH2 0x172D JUMP JUMPDEST PUSH2 0x605 JUMPI PUSH1 0x40 MLOAD PUSH32 0x90B8EC1800000000000000000000000000000000000000000000000000000000 DUP2 MSTORE PUSH1 0x4 ADD PUSH1 0x40 MLOAD DUP1 SWAP2 SUB SWAP1 REVERT JUMPDEST PUSH32 0x34FCBAC0073D7C3D388E51312FAF357774904998EEB8FCA628B9E6F65EE1CBF7 CALLER DUP3 TIMESTAMP PUSH1 0x40 MLOAD PUSH2 0x638 SWAP4 SWAP3 SWAP2 SWAP1 PUSH2 0x1758 JUMP JUMPDEST PUSH1 0x40 MLOAD DUP1 SWAP2 SUB SWAP1 LOG1 POP POP JUMP JUMPDEST PUSH2 0x64C PUSH2 0xEA4 JUMP JUMPDEST PUSH2 0x655 PUSH0 PUSH2 0xF2B JUMP JUMPDEST JUMP JUMPDEST PUSH2 0x65F PUSH2 0xEA4 JUMP JUMPDEST DUP6 PUSH1 0x2 SLOAD PUSH1 0x1 PUSH0 SWAP1 SLOAD SWAP1 PUSH2 0x100 EXP SWAP1 DIV PUSH20 0xFFFFFFFFFFFFFFFFFFFFFFFFFFFFFFFFFFFFFFFF AND PUSH20 0xFFFFFFFFFFFFFFFFFFFFFFFFFFFFFFFFFFFFFFFF AND PUSH4 0x70A08231 ADDRESS PUSH1 0x40 MLOAD DUP3 PUSH4 0xFFFFFFFF AND PUSH1 0xE0 SHL DUP2 MSTORE PUSH1 0x4 ADD PUSH2 0x6BD SWAP2 SWAP1 PUSH2 0x1409 JUMP JUMPDEST PUSH1 0x20 PUSH1 0x40 MLOAD DUP1 DUP4 SUB DUP2 DUP7 GAS STATICCALL ISZERO DUP1 ISZERO PUSH2 0x6D8 JUMPI RETURNDATASIZE PUSH0 PUSH0 RETURNDATACOPY RETURNDATASIZE PUSH0 REVERT JUMPDEST POP POP POP POP PUSH1 0x40 MLOAD RETURNDATASIZE PUSH1 0x1F NOT PUSH1 0x1F DUP3 ADD AND DUP3 ADD DUP1 PUSH1 0x40 MSTORE POP DUP2 ADD SWAP1 PUSH2 0x6FC SWAP2 SWAP1 PUSH2 0x17A1 JUMP JUMPDEST PUSH2 0x706 SWAP2 SWAP1 PUSH2 0x16A9 JUMP JUMPDEST LT ISZERO PUSH2 0x73E JUMPI PUSH1 0x40 MLOAD PUSH32 0xAC16EE3E00000000000000000000000000000000000000000000000000000000 DUP2 MSTORE PUSH1 0x4 ADD PUSH1 0x40 MLOAD DUP1 SWAP2 SUB SWAP1 REVERT JUMPDEST PUSH0 DUP7 GT PUSH2 0x777 JUMPI PUSH1 0x40 MLOAD PUSH32 0x46F1397D00000000000000000000000000000000000000000000000000000000 DUP2 MSTORE PUSH1 0x4 ADD PUSH1 0x40 MLOAD DUP1 SWAP2 SUB SWAP1 REVERT JUMPDEST PUSH0 PUSH1 0x3 PUSH0 DUP10 PUSH20 0xFFFFFFFFFFFFFFFFFFFFFFFFFFFFFFFFFFFFFFFF AND PUSH20 0xFFFFFFFFFFFFFFFFFFFFFFFFFFFFFFFFFFFFFFFF AND DUP2 MSTORE PUSH1 0x20 ADD SWAP1 DUP2 MSTORE PUSH1 0x20 ADD PUSH0 KECCAK256 PUSH0 ADD SLOAD EQ DUP1 PUSH2 0x842 JUMPI POP PUSH1 0x3 PUSH0 DUP9 PUSH20 0xFFFFFFFFFFFFFFFFFFFFFFFFFFFFFFFFFFFFFFFF AND PUSH20 0xFFFFFFFFFFFFFFFFFFFFFFFFFFFFFFFFFFFFFFFF AND DUP2 MSTORE PUSH1 0x20 ADD SWAP1 DUP2 MSTORE PUSH1 0x20 ADD PUSH0 KECCAK256 PUSH1 0x4 ADD SLOAD PUSH1 0x3 PUSH0 DUP10 PUSH20 0xFFFFFFFFFFFFFFFFFFFFFFFFFFFFFFFFFFFFFFFF AND PUSH20 0xFFFFFFFFFFFFFFFFFFFFFFFFFFFFFFFFFFFFFFFF AND DUP2 MSTORE PUSH1 0x20 ADD SWAP1 DUP2 MSTORE PUSH1 0x20 ADD PUSH0 KECCAK256 PUSH0 ADD SLOAD EQ JUMPDEST PUSH2 0x878 JUMPI PUSH1 0x40 MLOAD PUSH32 0xDA2573CF00000000000000000000000000000000000000000000000000000000 DUP2 MSTORE PUSH1 0x4 ADD PUSH1 0x40 MLOAD DUP1 SWAP2 SUB SWAP1 REVERT JUMPDEST TIMESTAMP DUP6 GT PUSH2 0x8B1 JUMPI PUSH1 0x40 MLOAD PUSH32 0x41D33EC100000000000000000000000000000000000000000000000000000000 DUP2 MSTORE PUSH1 0x4 ADD PUSH1 0x40 MLOAD DUP1 SWAP2 SUB SWAP1 REVERT JUMPDEST PUSH0 DUP4 GT PUSH2 0x8EA JUMPI PUSH1 0x40 MLOAD PUSH32 0xAF0A1AC000000000000000000000000000000000000000000000000000000000 DUP2 MSTORE PUSH1 0x4 ADD PUSH1 0x40 MLOAD DUP1 SWAP2 SUB SWAP1 REVERT JUMPDEST DUP3 DUP5 LT PUSH2 0x923 JUMPI PUSH1 0x40 MLOAD PUSH32 0x12E390EB00000000000000000000000000000000000000000000000000000000 DUP2 MSTORE PUSH1 0x4 ADD PUSH1 0x40 MLOAD DUP1 SWAP2 SUB SWAP1 REVERT JUMPDEST DUP3 DUP3 LT PUSH2 0x95C JUMPI PUSH1 0x40 MLOAD PUSH32 0x28A4E6F600000000000000000000000000000000000000000000000000000000 DUP2 MSTORE PUSH1 0x4 ADD PUSH1 0x40 MLOAD DUP1 SWAP2 SUB SWAP1 REVERT JUMPDEST PUSH0 PUSH20 0xFFFFFFFFFFFFFFFFFFFFFFFFFFFFFFFFFFFFFFFF AND DUP8 PUSH20 0xFFFFFFFFFFFFFFFFFFFFFFFFFFFFFFFFFFFFFFFF AND SUB PUSH2 0x9C1 JUMPI PUSH1 0x40 MLOAD PUSH32 0x5566DF5C00000000000000000000000000000000000000000000000000000000 DUP2 MSTORE PUSH1 0x4 ADD PUSH1 0x40 MLOAD DUP1 SWAP2 SUB SWAP1 REVERT JUMPDEST PUSH1 0x40 MLOAD DUP1 PUSH2 0x100 ADD PUSH1 0x40 MSTORE DUP1 DUP8 DUP2 MSTORE PUSH1 0x20 ADD DUP7 DUP2 MSTORE PUSH1 0x20 ADD DUP6 DUP2 MSTORE PUSH1 0x20 ADD DUP5 DUP2 MSTORE PUSH1 0x20 ADD PUSH0 DUP2 MSTORE PUSH1 0x20 ADD PUSH0 DUP2 MSTORE PUSH1 0x20 ADD DUP4 DUP2 MSTORE PUSH1 0x20 ADD DUP3 DUP2 MSTORE POP PUSH1 0x3 PUSH0 DUP10 PUSH20 0xFFFFFFFFFFFFFFFFFFFFFFFFFFFFFFFFFFFFFFFF AND PUSH20 0xFFFFFFFFFFFFFFFFFFFFFFFFFFFFFFFFFFFFFFFF AND DUP2 MSTORE PUSH1 0x20 ADD SWAP1 DUP2 MSTORE PUSH1 0x20 ADD PUSH0 KECCAK256 PUSH0 DUP3 ADD MLOAD DUP2 PUSH0 ADD SSTORE PUSH1 0x20 DUP3 ADD MLOAD DUP2 PUSH1 0x1 ADD SSTORE PUSH1 0x40 DUP3 ADD MLOAD DUP2 PUSH1 0x2 ADD SSTORE PUSH1 0x60 DUP3 ADD MLOAD DUP2 PUSH1 0x3 ADD SSTORE PUSH1 0x80 DUP3 ADD MLOAD DUP2 PUSH1 0x4 ADD SSTORE PUSH1 0xA0 DUP3 ADD MLOAD DUP2 PUSH1 0x5 ADD SSTORE PUSH1 0xC0 DUP3 ADD MLOAD DUP2 PUSH1 0x6 ADD SSTORE PUSH1 0xE0 DUP3 ADD MLOAD DUP2 PUSH1 0x7 ADD SSTORE SWAP1 POP POP DUP6 PUSH1 0x2 PUSH0 DUP3 DUP3 SLOAD PUSH2 0xA9A SWAP2 SWAP1 PUSH2 0x1676 JUMP JUMPDEST SWAP3 POP POP DUP2 SWAP1 SSTORE POP PUSH32 0x9ADE76F4385DE306666DFB21A52B27D52DB0FDE8AD0F515FA261F532CAC60D21 DUP8 DUP8 TIMESTAMP PUSH1 0x40 MLOAD PUSH2 0xAD4 SWAP4 SWAP3 SWAP2 SWAP1 PUSH2 0x1758 JUMP JUMPDEST PUSH1 0x40 MLOAD DUP1 SWAP2 SUB SWAP1 LOG1 POP POP POP POP POP POP POP JUMP JUMPDEST PUSH0 PUSH0 PUSH1 0x3 PUSH0 DUP5 PUSH20 0xFFFFFFFFFFFFFFFFFFFFFFFFFFFFFFFFFFFFFFFF AND PUSH20 0xFFFFFFFFFFFFFFFFFFFFFFFFFFFFFFFFFFFFFFFF AND DUP2 MSTORE PUSH1 0x20 ADD SWAP1 DUP2 MSTORE PUSH1 0x20 ADD PUSH0 KECCAK256 SWAP1 POP DUP1 PUSH1 0x2 ADD SLOAD DUP2 PUSH1 0x1 ADD SLOAD PUSH2 0xB3A SWAP2 SWAP1 PUSH2 0x1676 JUMP JUMPDEST TIMESTAMP LT ISZERO PUSH2 0xB4A JUMPI PUSH0 SWAP2 POP POP PUSH2 0xB66 JUMP JUMPDEST DUP1 PUSH1 0x4 ADD SLOAD PUSH2 0xB58 DUP5 PUSH2 0xFEC JUMP JUMPDEST PUSH2 0xB62 SWAP2 SWAP1 PUSH2 0x16A9 JUMP JUMPDEST SWAP2 POP POP JUMPDEST SWAP2 SWAP1 POP JUMP JUMPDEST PUSH0 PUSH0 PUSH0 SWAP1 SLOAD SWAP1 PUSH2 0x100 EXP SWAP1 DIV PUSH20 0xFFFFFFFFFFFFFFFFFFFFFFFFFFFFFFFFFFFFFFFF AND SWAP1 POP SWAP1 JUMP JUMPDEST PUSH1 0x60 DUP3 DUP3 PUSH1 0x40 MLOAD PUSH1 0x20 ADD PUSH2 0xBA7 SWAP3 SWAP2 SWAP1 PUSH2 0x17CC JUMP JUMPDEST PUSH1 0x40 MLOAD PUSH1 0x20 DUP2 DUP4 SUB SUB DUP2 MSTORE SWAP1 PUSH1 0x40 MSTORE SWAP1 POP SWAP3 SWAP2 POP POP JUMP JUMPDEST PUSH2 0xBC6 PUSH2 0xEA4 JUMP JUMPDEST PUSH0 PUSH1 0x2 SLOAD PUSH1 0x1 PUSH0 SWAP1 SLOAD SWAP1 PUSH2 0x100 EXP SWAP1 DIV PUSH20 0xFFFFFFFFFFFFFFFFFFFFFFFFFFFFFFFFFFFFFFFF AND PUSH20 0xFFFFFFFFFFFFFFFFFFFFFFFFFFFFFFFFFFFFFFFF AND PUSH4 0x70A08231 ADDRESS PUSH1 0x40 MLOAD DUP3 PUSH4 0xFFFFFFFF AND PUSH1 0xE0 SHL DUP2 MSTORE PUSH1 0x4 ADD PUSH2 0xC24 SWAP2 SWAP1 PUSH2 0x1409 JUMP JUMPDEST PUSH1 0x20 PUSH1 0x40 MLOAD DUP1 DUP4 SUB DUP2 DUP7 GAS STATICCALL ISZERO DUP1 ISZERO PUSH2 0xC3F JUMPI RETURNDATASIZE PUSH0 PUSH0 RETURNDATACOPY RETURNDATASIZE PUSH0 REVERT JUMPDEST POP POP POP POP PUSH1 0x40 MLOAD RETURNDATASIZE PUSH1 0x1F NOT PUSH1 0x1F DUP3 ADD AND DUP3 ADD DUP1 PUSH1 0x40 MSTORE POP DUP2 ADD SWAP1 PUSH2 0xC63 SWAP2 SWAP1 PUSH2 0x17A1 JUMP JUMPDEST PUSH2 0xC6D SWAP2 SWAP1 PUSH2 0x16A9 JUMP JUMPDEST SWAP1 POP PUSH0 DUP2 GT PUSH2 0xCA8 JUMPI PUSH1 0x40 MLOAD PUSH32 0xD0D04F6000000000000000000000000000000000000000000000000000000000 DUP2 MSTORE PUSH1 0x4 ADD PUSH1 0x40 MLOAD DUP1 SWAP2 SUB SWAP1 REVERT JUMPDEST PUSH1 0x1 PUSH0 SWAP1 SLOAD SWAP1 PUSH2 0x100 EXP SWAP1 DIV PUSH20 0xFFFFFFFFFFFFFFFFFFFFFFFFFFFFFFFFFFFFFFFF AND PUSH20 0xFFFFFFFFFFFFFFFFFFFFFFFFFFFFFFFFFFFFFFFF AND PUSH4 0xA9059CBB DUP4 DUP4 PUSH1 0x40 MLOAD DUP4 PUSH4 0xFFFFFFFF AND PUSH1 0xE0 SHL DUP2 MSTORE PUSH1 0x4 ADD PUSH2 0xD04 SWAP3 SWAP2 SWAP1 PUSH2 0x16DC JUMP JUMPDEST PUSH1 0x20 PUSH1 0x40 MLOAD DUP1 DUP4 SUB DUP2 PUSH0 DUP8 GAS CALL ISZERO DUP1 ISZERO PUSH2 0xD20 JUMPI RETURNDATASIZE PUSH0 PUSH0 RETURNDATACOPY RETURNDATASIZE PUSH0 REVERT JUMPDEST POP POP POP POP PUSH1 0x40 MLOAD RETURNDATASIZE PUSH1 0x1F NOT PUSH1 0x1F DUP3 ADD AND DUP3 ADD DUP1 PUSH1 0x40 MSTORE POP DUP2 ADD SWAP1 PUSH2 0xD44 SWAP2 SWAP1 PUSH2 0x172D JUMP JUMPDEST PUSH2 0xD7A JUMPI PUSH1 0x40 MLOAD PUSH32 0x69A4751B00000000000000000000000000000000000000000000000000000000 DUP2 MSTORE PUSH1 0x4 ADD PUSH1 0x40 MLOAD DUP1 SWAP2 SUB SWAP1 REVERT JUMPDEST PUSH32 0x6352C5382C4A4578E712449CA65E83CDB392D045DFCF1CAD9615189DB2DA244B DUP3 DUP3 PUSH1 0x40 MLOAD PUSH2 0xDAB SWAP3 SWAP2 SWAP1 PUSH2 0x16DC JUMP JUMPDEST PUSH1 0x40 MLOAD DUP1 SWAP2 SUB SWAP1 LOG1 POP POP JUMP JUMPDEST PUSH1 0x3 PUSH1 0x20 MSTORE DUP1 PUSH0 MSTORE PUSH1 0x40 PUSH0 KECCAK256 PUSH0 SWAP2 POP SWAP1 POP DUP1 PUSH0 ADD SLOAD SWAP1 DUP1 PUSH1 0x1 ADD SLOAD SWAP1 DUP1 PUSH1 0x2 ADD SLOAD SWAP1 DUP1 PUSH1 0x3 ADD SLOAD SWAP1 DUP1 PUSH1 0x4 ADD SLOAD SWAP1 DUP1 PUSH1 0x5 ADD SLOAD SWAP1 DUP1 PUSH1 0x6 ADD SLOAD SWAP1 DUP1 PUSH1 0x7 ADD SLOAD SWAP1 POP DUP9 JUMP JUMPDEST PUSH2 0xE03 PUSH2 0xEA4 JUMP JUMPDEST PUSH0 PUSH20 0xFFFFFFFFFFFFFFFFFFFFFFFFFFFFFFFFFFFFFFFF AND DUP2 PUSH20 0xFFFFFFFFFFFFFFFFFFFFFFFFFFFFFFFFFFFFFFFF AND SUB PUSH2 0xE73 JUMPI PUSH0 PUSH1 0x40 MLOAD PUSH32 0x1E4FBDF700000000000000000000000000000000000000000000000000000000 DUP2 MSTORE PUSH1 0x4 ADD PUSH2 0xE6A SWAP2 SWAP1 PUSH2 0x1409 JUMP JUMPDEST PUSH1 0x40 MLOAD DUP1 SWAP2 SUB SWAP1 REVERT JUMPDEST PUSH2 0xE7C DUP2 PUSH2 0xF2B JUMP JUMPDEST POP JUMP JUMPDEST PUSH1 0x1 PUSH0 SWAP1 SLOAD SWAP1 PUSH2 0x100 EXP SWAP1 DIV PUSH20 0xFFFFFFFFFFFFFFFFFFFFFFFFFFFFFFFFFFFFFFFF AND DUP2 JUMP JUMPDEST PUSH2 0xEAC PUSH2 0x10AF JUMP JUMPDEST PUSH20 0xFFFFFFFFFFFFFFFFFFFFFFFFFFFFFFFFFFFFFFFF AND PUSH2 0xECA PUSH2 0xB6B JUMP JUMPDEST PUSH20 0xFFFFFFFFFFFFFFFFFFFFFFFFFFFFFFFFFFFFFFFF AND EQ PUSH2 0xF29 JUMPI PUSH2 0xEED PUSH2 0x10AF JUMP JUMPDEST PUSH1 0x40 MLOAD PUSH32 0x118CDAA700000000000000000000000000000000000000000000000000000000 DUP2 MSTORE PUSH1 0x4 ADD PUSH2 0xF20 SWAP2 SWAP1 PUSH2 0x1409 JUMP JUMPDEST PUSH1 0x40 MLOAD DUP1 SWAP2 SUB SWAP1 REVERT JUMPDEST JUMP JUMPDEST PUSH0 PUSH0 PUSH0 SWAP1 SLOAD SWAP1 PUSH2 0x100 EXP SWAP1 DIV PUSH20 0xFFFFFFFFFFFFFFFFFFFFFFFFFFFFFFFFFFFFFFFF AND SWAP1 POP DUP2 PUSH0 PUSH0 PUSH2 0x100 EXP DUP2 SLOAD DUP2 PUSH20 0xFFFFFFFFFFFFFFFFFFFFFFFFFFFFFFFFFFFFFFFF MUL NOT AND SWAP1 DUP4 PUSH20 0xFFFFFFFFFFFFFFFFFFFFFFFFFFFFFFFFFFFFFFFF AND MUL OR SWAP1 SSTORE POP DUP2 PUSH20 0xFFFFFFFFFFFFFFFFFFFFFFFFFFFFFFFFFFFFFFFF AND DUP2 PUSH20 0xFFFFFFFFFFFFFFFFFFFFFFFFFFFFFFFFFFFFFFFF AND PUSH32 0x8BE0079C531659141344CD1FD0A4F28419497F9722A3DAAFE3B4186F6B6457E0 PUSH1 0x40 MLOAD PUSH1 0x40 MLOAD DUP1 SWAP2 SUB SWAP1 LOG3 POP POP JUMP JUMPDEST PUSH0 PUSH0 PUSH1 0x3 PUSH0 DUP5 PUSH20 0xFFFFFFFFFFFFFFFFFFFFFFFFFFFFFFFFFFFFFFFF AND PUSH20 0xFFFFFFFFFFFFFFFFFFFFFFFFFFFFFFFFFFFFFFFF AND DUP2 MSTORE PUSH1 0x20 ADD SWAP1 DUP2 MSTORE PUSH1 0x20 ADD PUSH0 KECCAK256 SWAP1 POP DUP1 PUSH1 0x2 ADD SLOAD DUP2 PUSH1 0x1 ADD SLOAD PUSH2 0x1041 SWAP2 SWAP1 PUSH2 0x1676 JUMP JUMPDEST TIMESTAMP LT ISZERO PUSH2 0x1051 JUMPI PUSH0 SWAP2 POP POP PUSH2 0x10AA JUMP JUMPDEST PUSH0 DUP2 PUSH1 0x2 ADD SLOAD DUP3 PUSH1 0x1 ADD SLOAD PUSH2 0x1066 SWAP2 SWAP1 PUSH2 0x1676 JUMP JUMPDEST TIMESTAMP PUSH2 0x1071 SWAP2 SWAP1 PUSH2 0x16A9 JUMP JUMPDEST SWAP1 POP DUP2 PUSH1 0x3 ADD SLOAD DUP2 GT ISZERO PUSH2 0x1087 JUMPI DUP2 PUSH1 0x3 ADD SLOAD SWAP1 POP JUMPDEST DUP2 PUSH1 0x3 ADD SLOAD DUP2 DUP4 PUSH0 ADD SLOAD PUSH2 0x109B SWAP2 SWAP1 PUSH2 0x17F3 JUMP JUMPDEST PUSH2 0x10A5 SWAP2 SWAP1 PUSH2 0x1861 JUMP JUMPDEST SWAP3 POP POP POP JUMPDEST SWAP2 SWAP1 POP JUMP JUMPDEST PUSH0 CALLER SWAP1 POP SWAP1 JUMP JUMPDEST PUSH0 DUP2 SWAP1 POP SWAP2 SWAP1 POP JUMP JUMPDEST PUSH2 0x10C8 DUP2 PUSH2 0x10B6 JUMP JUMPDEST DUP3 MSTORE POP POP JUMP JUMPDEST PUSH0 PUSH1 0x20 DUP3 ADD SWAP1 POP PUSH2 0x10E1 PUSH0 DUP4 ADD DUP5 PUSH2 0x10BF JUMP JUMPDEST SWAP3 SWAP2 POP POP JUMP JUMPDEST PUSH0 PUSH1 0x40 MLOAD SWAP1 POP SWAP1 JUMP JUMPDEST PUSH0 PUSH0 REVERT JUMPDEST PUSH0 PUSH0 REVERT JUMPDEST PUSH0 PUSH0 REVERT JUMPDEST PUSH0 PUSH0 REVERT JUMPDEST PUSH0 PUSH1 0x1F NOT PUSH1 0x1F DUP4 ADD AND SWAP1 POP SWAP2 SWAP1 POP JUMP JUMPDEST PUSH32 0x4E487B7100000000000000000000000000000000000000000000000000000000 PUSH0 MSTORE PUSH1 0x41 PUSH1 0x4 MSTORE PUSH1 0x24 PUSH0 REVERT JUMPDEST PUSH2 0x1146 DUP3 PUSH2 0x1100 JUMP JUMPDEST DUP2 ADD DUP2 DUP2 LT PUSH8 0xFFFFFFFFFFFFFFFF DUP3 GT OR ISZERO PUSH2 0x1165 JUMPI PUSH2 0x1164 PUSH2 0x1110 JUMP JUMPDEST JUMPDEST DUP1 PUSH1 0x40 MSTORE POP POP POP JUMP JUMPDEST PUSH0 PUSH2 0x1177 PUSH2 0x10E7 JUMP JUMPDEST SWAP1 POP PUSH2 0x1183 DUP3 DUP3 PUSH2 0x113D JUMP JUMPDEST SWAP2 SWAP1 POP JUMP JUMPDEST PUSH0 PUSH8 0xFFFFFFFFFFFFFFFF DUP3 GT ISZERO PUSH2 0x11A2 JUMPI PUSH2 0x11A1 PUSH2 0x1110 JUMP JUMPDEST JUMPDEST PUSH2 0x11AB DUP3 PUSH2 0x1100 JUMP JUMPDEST SWAP1 POP PUSH1 0x20 DUP2 ADD SWAP1 POP SWAP2 SWAP1 POP JUMP JUMPDEST DUP3 DUP2 DUP4 CALLDATACOPY PUSH0 DUP4 DUP4 ADD MSTORE POP POP POP JUMP JUMPDEST PUSH0 PUSH2 0x11D8 PUSH2 0x11D3 DUP5 PUSH2 0x1188 JUMP JUMPDEST PUSH2 0x116E JUMP JUMPDEST SWAP1 POP DUP3 DUP2 MSTORE PUSH1 0x20 DUP2 ADD DUP5 DUP5 DUP5 ADD GT ISZERO PUSH2 0x11F4 JUMPI PUSH2 0x11F3 PUSH2 0x10FC JUMP JUMPDEST JUMPDEST PUSH2 0x11FF DUP5 DUP3 DUP6 PUSH2 0x11B8 JUMP JUMPDEST POP SWAP4 SWAP3 POP POP POP JUMP JUMPDEST PUSH0 DUP3 PUSH1 0x1F DUP4 ADD SLT PUSH2 0x121B JUMPI PUSH2 0x121A PUSH2 0x10F8 JUMP JUMPDEST JUMPDEST DUP2 CALLDATALOAD PUSH2 0x122B DUP5 DUP3 PUSH1 0x20 DUP7 ADD PUSH2 0x11C6 JUMP JUMPDEST SWAP2 POP POP SWAP3 SWAP2 POP POP JUMP JUMPDEST PUSH0 PUSH1 0x20 DUP3 DUP5 SUB SLT ISZERO PUSH2 0x1249 JUMPI PUSH2 0x1248 PUSH2 0x10F0 JUMP JUMPDEST JUMPDEST PUSH0 DUP3 ADD CALLDATALOAD PUSH8 0xFFFFFFFFFFFFFFFF DUP2 GT ISZERO PUSH2 0x1266 JUMPI PUSH2 0x1265 PUSH2 0x10F4 JUMP JUMPDEST JUMPDEST PUSH2 0x1272 DUP5 DUP3 DUP6 ADD PUSH2 0x1207 JUMP JUMPDEST SWAP2 POP POP SWAP3 SWAP2 POP POP JUMP JUMPDEST PUSH0 DUP2 ISZERO ISZERO SWAP1 POP SWAP2 SWAP1 POP JUMP JUMPDEST PUSH2 0x128F DUP2 PUSH2 0x127B JUMP JUMPDEST DUP3 MSTORE POP POP JUMP JUMPDEST PUSH0 PUSH1 0x20 DUP3 ADD SWAP1 POP PUSH2 0x12A8 PUSH0 DUP4 ADD DUP5 PUSH2 0x1286 JUMP JUMPDEST SWAP3 SWAP2 POP POP JUMP JUMPDEST PUSH0 PUSH20 0xFFFFFFFFFFFFFFFFFFFFFFFFFFFFFFFFFFFFFFFF DUP3 AND SWAP1 POP SWAP2 SWAP1 POP JUMP JUMPDEST PUSH0 PUSH2 0x12D7 DUP3 PUSH2 0x12AE JUMP JUMPDEST SWAP1 POP SWAP2 SWAP1 POP JUMP JUMPDEST PUSH2 0x12E7 DUP2 PUSH2 0x12CD JUMP JUMPDEST DUP2 EQ PUSH2 0x12F1 JUMPI PUSH0 PUSH0 REVERT JUMPDEST POP JUMP JUMPDEST PUSH0 DUP2 CALLDATALOAD SWAP1 POP PUSH2 0x1302 DUP2 PUSH2 0x12DE JUMP JUMPDEST SWAP3 SWAP2 POP POP JUMP JUMPDEST PUSH2 0x1311 DUP2 PUSH2 0x10B6 JUMP JUMPDEST DUP2 EQ PUSH2 0x131B JUMPI PUSH0 PUSH0 REVERT JUMPDEST POP JUMP JUMPDEST PUSH0 DUP2 CALLDATALOAD SWAP1 POP PUSH2 0x132C DUP2 PUSH2 0x1308 JUMP JUMPDEST SWAP3 SWAP2 POP POP JUMP JUMPDEST PUSH0 PUSH0 PUSH0 PUSH0 PUSH0 PUSH0 PUSH0 PUSH1 0xE0 DUP9 DUP11 SUB SLT ISZERO PUSH2 0x134D JUMPI PUSH2 0x134C PUSH2 0x10F0 JUMP JUMPDEST JUMPDEST PUSH0 PUSH2 0x135A DUP11 DUP3 DUP12 ADD PUSH2 0x12F4 JUMP JUMPDEST SWAP8 POP POP PUSH1 0x20 PUSH2 0x136B DUP11 DUP3 DUP12 ADD PUSH2 0x131E JUMP JUMPDEST SWAP7 POP POP PUSH1 0x40 PUSH2 0x137C DUP11 DUP3 DUP12 ADD PUSH2 0x131E JUMP JUMPDEST SWAP6 POP POP PUSH1 0x60 PUSH2 0x138D DUP11 DUP3 DUP12 ADD PUSH2 0x131E JUMP JUMPDEST SWAP5 POP POP PUSH1 0x80 PUSH2 0x139E DUP11 DUP3 DUP12 ADD PUSH2 0x131E JUMP JUMPDEST SWAP4 POP POP PUSH1 0xA0 PUSH2 0x13AF DUP11 DUP3 DUP12 ADD PUSH2 0x131E JUMP JUMPDEST SWAP3 POP POP PUSH1 0xC0 PUSH2 0x13C0 DUP11 DUP3 DUP12 ADD PUSH2 0x131E JUMP JUMPDEST SWAP2 POP POP SWAP3 SWAP6 SWAP9 SWAP2 SWAP5 SWAP8 POP SWAP3 SWAP6 POP JUMP JUMPDEST PUSH0 PUSH1 0x20 DUP3 DUP5 SUB SLT ISZERO PUSH2 0x13E4 JUMPI PUSH2 0x13E3 PUSH2 0x10F0 JUMP JUMPDEST JUMPDEST PUSH0 PUSH2 0x13F1 DUP5 DUP3 DUP6 ADD PUSH2 0x12F4 JUMP JUMPDEST SWAP2 POP POP SWAP3 SWAP2 POP POP JUMP JUMPDEST PUSH2 0x1403 DUP2 PUSH2 0x12CD JUMP JUMPDEST DUP3 MSTORE POP POP JUMP JUMPDEST PUSH0 PUSH1 0x20 DUP3 ADD SWAP1 POP PUSH2 0x141C PUSH0 DUP4 ADD DUP5 PUSH2 0x13FA JUMP JUMPDEST SWAP3 SWAP2 POP POP JUMP JUMPDEST PUSH0 PUSH0 PUSH1 0x40 DUP4 DUP6 SUB SLT ISZERO PUSH2 0x1438 JUMPI PUSH2 0x1437 PUSH2 0x10F0 JUMP JUMPDEST JUMPDEST PUSH0 PUSH2 0x1445 DUP6 DUP3 DUP7 ADD PUSH2 0x12F4 JUMP JUMPDEST SWAP3 POP POP PUSH1 0x20 PUSH2 0x1456 DUP6 DUP3 DUP7 ADD PUSH2 0x12F4 JUMP JUMPDEST SWAP2 POP POP SWAP3 POP SWAP3 SWAP1 POP JUMP JUMPDEST PUSH0 DUP2 MLOAD SWAP1 POP SWAP2 SWAP1 POP JUMP JUMPDEST PUSH0 DUP3 DUP3 MSTORE PUSH1 0x20 DUP3 ADD SWAP1 POP SWAP3 SWAP2 POP POP JUMP JUMPDEST DUP3 DUP2 DUP4 MCOPY PUSH0 DUP4 DUP4 ADD MSTORE POP POP POP JUMP JUMPDEST PUSH0 PUSH2 0x1492 DUP3 PUSH2 0x1460 JUMP JUMPDEST PUSH2 0x149C DUP2 DUP6 PUSH2 0x146A JUMP JUMPDEST SWAP4 POP PUSH2 0x14AC DUP2 DUP6 PUSH1 0x20 DUP7 ADD PUSH2 0x147A JUMP JUMPDEST PUSH2 0x14B5 DUP2 PUSH2 0x1100 JUMP JUMPDEST DUP5 ADD SWAP2 POP POP SWAP3 SWAP2 POP POP JUMP JUMPDEST PUSH0 PUSH1 0x20 DUP3 ADD SWAP1 POP DUP2 DUP2 SUB PUSH0 DUP4 ADD MSTORE PUSH2 0x14D8 DUP2 DUP5 PUSH2 0x1488 JUMP JUMPDEST SWAP1 POP SWAP3 SWAP2 POP POP JUMP JUMPDEST PUSH0 PUSH2 0x100 DUP3 ADD SWAP1 POP PUSH2 0x14F4 PUSH0 DUP4 ADD DUP12 PUSH2 0x10BF JUMP JUMPDEST PUSH2 0x1501 PUSH1 0x20 DUP4 ADD DUP11 PUSH2 0x10BF JUMP JUMPDEST PUSH2 0x150E PUSH1 0x40 DUP4 ADD DUP10 PUSH2 0x10BF JUMP JUMPDEST PUSH2 0x151B PUSH1 0x60 DUP4 ADD DUP9 PUSH2 0x10BF JUMP JUMPDEST PUSH2 0x1528 PUSH1 0x80 DUP4 ADD DUP8 PUSH2 0x10BF JUMP JUMPDEST PUSH2 0x1535 PUSH1 0xA0 DUP4 ADD DUP7 PUSH2 0x10BF JUMP JUMPDEST PUSH2 0x1542 PUSH1 0xC0 DUP4 ADD DUP6 PUSH2 0x10BF JUMP JUMPDEST PUSH2 0x154F PUSH1 0xE0 DUP4 ADD DUP5 PUSH2 0x10BF JUMP JUMPDEST SWAP10 SWAP9 POP POP POP POP POP POP POP POP POP JUMP JUMPDEST PUSH0 DUP2 SWAP1 POP SWAP2 SWAP1 POP JUMP JUMPDEST PUSH0 PUSH2 0x157F PUSH2 0x157A PUSH2 0x1575 DUP5 PUSH2 0x12AE JUMP JUMPDEST PUSH2 0x155C JUMP JUMPDEST PUSH2 0x12AE JUMP JUMPDEST SWAP1 POP SWAP2 SWAP1 POP JUMP JUMPDEST PUSH0 PUSH2 0x1590 DUP3 PUSH2 0x1565 JUMP JUMPDEST SWAP1 POP SWAP2 SWAP1 POP JUMP JUMPDEST PUSH0 PUSH2 0x15A1 DUP3 PUSH2 0x1586 JUMP JUMPDEST SWAP1 POP SWAP2 SWAP1 POP JUMP JUMPDEST PUSH2 0x15B1 DUP2 PUSH2 0x1597 JUMP JUMPDEST DUP3 MSTORE POP POP JUMP JUMPDEST PUSH0 PUSH1 0x20 DUP3 ADD SWAP1 POP PUSH2 0x15CA PUSH0 DUP4 ADD DUP5 PUSH2 0x15A8 JUMP JUMPDEST SWAP3 SWAP2 POP POP JUMP JUMPDEST PUSH0 PUSH2 0x15DA DUP3 PUSH2 0x12AE JUMP JUMPDEST SWAP1 POP SWAP2 SWAP1 POP JUMP JUMPDEST PUSH2 0x15EA DUP2 PUSH2 0x15D0 JUMP JUMPDEST DUP2 EQ PUSH2 0x15F4 JUMPI PUSH0 PUSH0 REVERT JUMPDEST POP JUMP JUMPDEST PUSH0 DUP2 MLOAD SWAP1 POP PUSH2 0x1605 DUP2 PUSH2 0x15E1 JUMP JUMPDEST SWAP3 SWAP2 POP POP JUMP JUMPDEST PUSH0 PUSH0 PUSH1 0x40 DUP4 DUP6 SUB SLT ISZERO PUSH2 0x1621 JUMPI PUSH2 0x1620 PUSH2 0x10F0 JUMP JUMPDEST JUMPDEST PUSH0 PUSH2 0x162E DUP6 DUP3 DUP7 ADD PUSH2 0x15F7 JUMP JUMPDEST SWAP3 POP POP PUSH1 0x20 PUSH2 0x163F DUP6 DUP3 DUP7 ADD PUSH2 0x15F7 JUMP JUMPDEST SWAP2 POP POP SWAP3 POP SWAP3 SWAP1 POP JUMP JUMPDEST PUSH32 0x4E487B7100000000000000000000000000000000000000000000000000000000 PUSH0 MSTORE PUSH1 0x11 PUSH1 0x4 MSTORE PUSH1 0x24 PUSH0 REVERT JUMPDEST PUSH0 PUSH2 0x1680 DUP3 PUSH2 0x10B6 JUMP JUMPDEST SWAP2 POP PUSH2 0x168B DUP4 PUSH2 0x10B6 JUMP JUMPDEST SWAP3 POP DUP3 DUP3 ADD SWAP1 POP DUP1 DUP3 GT ISZERO PUSH2 0x16A3 JUMPI PUSH2 0x16A2 PUSH2 0x1649 JUMP JUMPDEST JUMPDEST SWAP3 SWAP2 POP POP JUMP JUMPDEST PUSH0 PUSH2 0x16B3 DUP3 PUSH2 0x10B6 JUMP JUMPDEST SWAP2 POP PUSH2 0x16BE DUP4 PUSH2 0x10B6 JUMP JUMPDEST SWAP3 POP DUP3 DUP3 SUB SWAP1 POP DUP2 DUP2 GT ISZERO PUSH2 0x16D6 JUMPI PUSH2 0x16D5 PUSH2 0x1649 JUMP JUMPDEST JUMPDEST SWAP3 SWAP2 POP POP JUMP JUMPDEST PUSH0 PUSH1 0x40 DUP3 ADD SWAP1 POP PUSH2 0x16EF PUSH0 DUP4 ADD DUP6 PUSH2 0x13FA JUMP JUMPDEST PUSH2 0x16FC PUSH1 0x20 DUP4 ADD DUP5 PUSH2 0x10BF JUMP JUMPDEST SWAP4 SWAP3 POP POP POP JUMP JUMPDEST PUSH2 0x170C DUP2 PUSH2 0x127B JUMP JUMPDEST DUP2 EQ PUSH2 0x1716 JUMPI PUSH0 PUSH0 REVERT JUMPDEST POP JUMP JUMPDEST PUSH0 DUP2 MLOAD SWAP1 POP PUSH2 0x1727 DUP2 PUSH2 0x1703 JUMP JUMPDEST SWAP3 SWAP2 POP POP JUMP JUMPDEST PUSH0 PUSH1 0x20 DUP3 DUP5 SUB SLT ISZERO PUSH2 0x1742 JUMPI PUSH2 0x1741 PUSH2 0x10F0 JUMP JUMPDEST JUMPDEST PUSH0 PUSH2 0x174F DUP5 DUP3 DUP6 ADD PUSH2 0x1719 JUMP JUMPDEST SWAP2 POP POP SWAP3 SWAP2 POP POP JUMP JUMPDEST PUSH0 PUSH1 0x60 DUP3 ADD SWAP1 POP PUSH2 0x176B PUSH0 DUP4 ADD DUP7 PUSH2 0x13FA JUMP JUMPDEST PUSH2 0x1778 PUSH1 0x20 DUP4 ADD DUP6 PUSH2 0x10BF JUMP JUMPDEST PUSH2 0x1785 PUSH1 0x40 DUP4 ADD DUP5 PUSH2 0x10BF JUMP JUMPDEST SWAP5 SWAP4 POP POP POP POP JUMP JUMPDEST PUSH0 DUP2 MLOAD SWAP1 POP PUSH2 0x179B DUP2 PUSH2 0x1308 JUMP JUMPDEST SWAP3 SWAP2 POP POP JUMP JUMPDEST PUSH0 PUSH1 0x20 DUP3 DUP5 SUB SLT ISZERO PUSH2 0x17B6 JUMPI PUSH2 0x17B5 PUSH2 0x10F0 JUMP JUMPDEST JUMPDEST PUSH0 PUSH2 0x17C3 DUP5 DUP3 DUP6 ADD PUSH2 0x178D JUMP JUMPDEST SWAP2 POP POP SWAP3 SWAP2 POP POP JUMP JUMPDEST PUSH0 PUSH1 0x40 DUP3 ADD SWAP1 POP PUSH2 0x17DF PUSH0 DUP4 ADD DUP6 PUSH2 0x13FA JUMP JUMPDEST PUSH2 0x17EC PUSH1 0x20 DUP4 ADD DUP5 PUSH2 0x13FA JUMP JUMPDEST SWAP4 SWAP3 POP POP POP JUMP JUMPDEST PUSH0 PUSH2 0x17FD DUP3 PUSH2 0x10B6 JUMP JUMPDEST SWAP2 POP PUSH2 0x1808 DUP4 PUSH2 0x10B6 JUMP JUMPDEST SWAP3 POP DUP3 DUP3 MUL PUSH2 0x1816 DUP2 PUSH2 0x10B6 JUMP JUMPDEST SWAP2 POP DUP3 DUP3 DIV DUP5 EQ DUP4 ISZERO OR PUSH2 0x182D JUMPI PUSH2 0x182C PUSH2 0x1649 JUMP JUMPDEST JUMPDEST POP SWAP3 SWAP2 POP POP JUMP JUMPDEST PUSH32 0x4E487B7100000000000000000000000000000000000000000000000000000000 PUSH0 MSTORE PUSH1 0x12 PUSH1 0x4 MSTORE PUSH1 0x24 PUSH0 REVERT JUMPDEST PUSH0 PUSH2 0x186B DUP3 PUSH2 0x10B6 JUMP JUMPDEST SWAP2 POP PUSH2 0x1876 DUP4 PUSH2 0x10B6 JUMP JUMPDEST SWAP3 POP DUP3 PUSH2 0x1886 JUMPI PUSH2 0x1885 PUSH2 0x1834 JUMP JUMPDEST JUMPDEST DUP3 DUP3 DIV SWAP1 POP SWAP3 SWAP2 POP POP JUMP INVALID LOG2 PUSH5 0x6970667358 0x22 SLT KECCAK256 0xC8 BYTE EXTCODECOPY PUSH15 0x1CDCC3866DC560160DD89F09747C44 RETF 0xA9 SGT 0xAB CHAINID 0xAB 0xE8 CALL SWAP14 0x2A SWAPN 0x53 TSTORE PUSH5 0x736F6C6343 STOP ADDMOD 0x1E STOP CALLER "
		},
		"gasEstimates": {
			"creation": {
				"codeDepositCost": "1268600",
				"executionCost": "infinite",
				"totalCost": "infinite"
			},
			"external": {
				"allocatedTokens()": "2426",
				"claim()": "infinite",
				"claimableAmount(address)": "infinite",
				"getInitData(address,address)": "infinite",
				"initialize(bytes)": "infinite",
				"owner()": "2514",
				"renounceOwnership()": "infinite",
				"startVesting(address,uint256,uint256,uint256,uint256,uint256,uint256)": "infinite",
				"token()": "infinite",
				"transferOwnership(address)": "infinite",
				"vestings(address)": "infinite",
				"withdrawUnallocated(address)": "infinite"
			},
			"internal": {
				"vestedAmount(address)": "infinite"
			}
		},
		"methodIdentifiers": {
			"allocatedTokens()": "002f9569",
			"claim()": "4e71d92d",
			"claimableAmount(address)": "89885049",
			"getInitData(address,address)": "a00a45cb",
			"initialize(bytes)": "439fab91",
			"owner()": "8da5cb5b",
			"renounceOwnership()": "715018a6",
			"startVesting(address,uint256,uint256,uint256,uint256,uint256,uint256)": "7c559085",
			"token()": "fc0c546a",
			"transferOwnership(address)": "f2fde38b",
			"vestings(address)": "daf49863",
			"withdrawUnallocated(address)": "b3b3e87f"
		}
	},
	"abi": [
		{
			"inputs": [],
			"stateMutability": "nonpayable",
			"type": "constructor"
		},
		{
			"inputs": [],
			"name": "AlreadyInitialized",
			"type": "error"
		},
		{
			"inputs": [],
			"name": "AmountCantBeZero",
			"type": "error"
		},
		{
			"inputs": [],
			"name": "BelowMinimalClaimAmount",
			"type": "error"
		},
		{
			"inputs": [],
			"name": "CantClaimMoreThanTotalAmount",
			"type": "error"
		},
		{
			"inputs": [],
			"name": "CliffCantBeLongerThanDuration",
			"type": "error"
		},
		{
			"inputs": [],
			"name": "CliffNotReached",
			"type": "error"
		},
		{
			"inputs": [],
			"name": "CooldownCantBeLongerThanDuration",
			"type": "error"
		},
		{
			"inputs": [],
			"name": "CooldownNotPassed",
			"type": "error"
		},
		{
			"inputs": [],
			"name": "DurationCantBeZero",
			"type": "error"
		},
		{
			"inputs": [],
			"name": "InfsufficientBalance",
			"type": "error"
		},
		{
			"inputs": [],
			"name": "InvalidBeneficiary",
			"type": "error"
		},
		{
			"inputs": [],
			"name": "NothingToClaim",
			"type": "error"
		},
		{
			"inputs": [],
			"name": "NothingToWithdraw",
			"type": "error"
		},
		{
			"inputs": [
				{
					"internalType": "address",
					"name": "owner",
					"type": "address"
				}
			],
			"name": "OwnableInvalidOwner",
			"type": "error"
		},
		{
			"inputs": [
				{
					"internalType": "address",
					"name": "account",
					"type": "address"
				}
			],
			"name": "OwnableUnauthorizedAccount",
			"type": "error"
		},
		{
			"inputs": [],
			"name": "StartTimeShouldBeFuture",
			"type": "error"
		},
		{
			"inputs": [],
			"name": "TransferFailed",
			"type": "error"
		},
		{
			"inputs": [],
			"name": "VestingAlreadyExist",
			"type": "error"
		},
		{
			"inputs": [],
			"name": "VestingNotFound",
			"type": "error"
		},
		{
			"inputs": [],
			"name": "WithdrawTransferFailed",
			"type": "error"
		},
		{
			"anonymous": false,
			"inputs": [
				{
					"indexed": false,
					"internalType": "address",
					"name": "beneficiary",
					"type": "address"
				},
				{
					"indexed": false,
					"internalType": "uint256",
					"name": "amount",
					"type": "uint256"
				},
				{
					"indexed": false,
					"internalType": "uint256",
					"name": "timestamp",
					"type": "uint256"
				}
			],
			"name": "Claim",
			"type": "event"
		},
		{
			"anonymous": false,
			"inputs": [
				{
					"indexed": true,
					"internalType": "address",
					"name": "previousOwner",
					"type": "address"
				},
				{
					"indexed": true,
					"internalType": "address",
					"name": "newOwner",
					"type": "address"
				}
			],
			"name": "OwnershipTransferred",
			"type": "event"
		},
		{
			"anonymous": false,
			"inputs": [
				{
					"indexed": false,
					"internalType": "address",
					"name": "to",
					"type": "address"
				},
				{
					"indexed": false,
					"internalType": "uint256",
					"name": "amount",
					"type": "uint256"
				}
			],
			"name": "TokensWithdrawn",
			"type": "event"
		},
		{
			"anonymous": false,
			"inputs": [
				{
					"indexed": false,
					"internalType": "address",
					"name": "beneficiary",
					"type": "address"
				},
				{
					"indexed": false,
					"internalType": "uint256",
					"name": "amount",
					"type": "uint256"
				},
				{
					"indexed": false,
					"internalType": "uint256",
					"name": "creationTime",
					"type": "uint256"
				}
			],
			"name": "VestingCreated",
			"type": "event"
		},
		{
			"inputs": [],
			"name": "allocatedTokens",
			"outputs": [
				{
					"internalType": "uint256",
					"name": "",
					"type": "uint256"
				}
			],
			"stateMutability": "view",
			"type": "function"
		},
		{
			"inputs": [],
			"name": "claim",
			"outputs": [],
			"stateMutability": "nonpayable",
			"type": "function"
		},
		{
			"inputs": [
				{
					"internalType": "address",
					"name": "_claimer",
					"type": "address"
				}
			],
			"name": "claimableAmount",
			"outputs": [
				{
					"internalType": "uint256",
					"name": "",
					"type": "uint256"
				}
			],
			"stateMutability": "view",
			"type": "function"
		},
		{
			"inputs": [
				{
					"internalType": "address",
					"name": "_token",
					"type": "address"
				},
				{
					"internalType": "address",
					"name": "_owner",
					"type": "address"
				}
			],
			"name": "getInitData",
			"outputs": [
				{
					"internalType": "bytes",
					"name": "",
					"type": "bytes"
				}
			],
			"stateMutability": "pure",
			"type": "function"
		},
		{
			"inputs": [
				{
					"internalType": "bytes",
					"name": "_initData",
					"type": "bytes"
				}
			],
			"name": "initialize",
			"outputs": [
				{
					"internalType": "bool",
					"name": "",
					"type": "bool"
				}
			],
			"stateMutability": "nonpayable",
			"type": "function"
		},
		{
			"inputs": [],
			"name": "owner",
			"outputs": [
				{
					"internalType": "address",
					"name": "",
					"type": "address"
				}
			],
			"stateMutability": "view",
			"type": "function"
		},
		{
			"inputs": [],
			"name": "renounceOwnership",
			"outputs": [],
			"stateMutability": "nonpayable",
			"type": "function"
		},
		{
			"inputs": [
				{
					"internalType": "address",
					"name": "_beneficiary",
					"type": "address"
				},
				{
					"internalType": "uint256",
					"name": "_totalAmount",
					"type": "uint256"
				},
				{
					"internalType": "uint256",
					"name": "_startTime",
					"type": "uint256"
				},
				{
					"internalType": "uint256",
					"name": "_cliff",
					"type": "uint256"
				},
				{
					"internalType": "uint256",
					"name": "_duration",
					"type": "uint256"
				},
				{
					"internalType": "uint256",
					"name": "_claimCooldown",
					"type": "uint256"
				},
				{
					"internalType": "uint256",
					"name": "_minClaimAmount",
					"type": "uint256"
				}
			],
			"name": "startVesting",
			"outputs": [],
			"stateMutability": "nonpayable",
			"type": "function"
		},
		{
			"inputs": [],
			"name": "token",
			"outputs": [
				{
					"internalType": "contract IERC20",
					"name": "",
					"type": "address"
				}
			],
			"stateMutability": "view",
			"type": "function"
		},
		{
			"inputs": [
				{
					"internalType": "address",
					"name": "newOwner",
					"type": "address"
				}
			],
			"name": "transferOwnership",
			"outputs": [],
			"stateMutability": "nonpayable",
			"type": "function"
		},
		{
			"inputs": [
				{
					"internalType": "address",
					"name": "",
					"type": "address"
				}
			],
			"name": "vestings",
			"outputs": [
				{
					"internalType": "uint256",
					"name": "totalAmount",
					"type": "uint256"
				},
				{
					"internalType": "uint256",
					"name": "startTime",
					"type": "uint256"
				},
				{
					"internalType": "uint256",
					"name": "cliff",
					"type": "uint256"
				},
				{
					"internalType": "uint256",
					"name": "duration",
					"type": "uint256"
				},
				{
					"internalType": "uint256",
					"name": "claimed",
					"type": "uint256"
				},
				{
					"internalType": "uint256",
					"name": "lastClaimTime",
					"type": "uint256"
				},
				{
					"internalType": "uint256",
					"name": "claimCooldown",
					"type": "uint256"
				},
				{
					"internalType": "uint256",
					"name": "minClaimAmount",
					"type": "uint256"
				}
			],
			"stateMutability": "view",
			"type": "function"
		},
		{
			"inputs": [
				{
					"internalType": "address",
					"name": "_to",
					"type": "address"
				}
			],
			"name": "withdrawUnallocated",
			"outputs": [],
			"stateMutability": "nonpayable",
			"type": "function"
		}
	]
}